:100000000020002015BA000055BA000057BA0000C1
:1000100059BA00005BBA00005DBA0000B5BA000032
:10002000B5BA0000B5BA0000B5BA00005FBA00006A
:1000300061BA0000B5BA000063BA000065BA0000FA
:1000400067BA00007D7000008970000095700000A4
:10005000A1700000AD700000B9700000C570000014
:10006000D1700000DD7000009B90000069BA0000B4
:100070006BBA00006DBA0000576500006FBA00004F
:1000800071BA000073BA000075BA000077BA0000B8
:1000900079BA00007BBA00007DBA00007FBA000088
:1000A00081BA000083BA000085BA000087BA000058
:1000B00089BA00008BBA00008DBA0000B18100003F
:1000C000DD8100008FBA000091BA000093BA0000F1
:1000D00095BA000097BA000099BA00009BBA0000D8
:1000E0009DBA00009FBA0000A1BA0000B9B8000094
:1000F000B5BA0000A3BA0000A5BA0000E97000007C
:10010000F5700000B5BA00003F7F0000E37F0000FB
:100110004F8000001B810000A7BA0000A9BA0000B0
:10012000ABBA0000ADBA0000AFBA0000B1BA00002F
:04013000B3BA00005E
:1008000000000100020003000000010003000400DA
:1008100000000100040005000000010005000600C2
:1008200000000100060007000000010007000800AA
:1008300000000100080009000000010009000A0092
:10084000000001000A000B00000001000B000C007A
:10085000000001000C000D00000001000D000E0062
:10086000000001000E000F00000001000F0010004A
:100870000000010010001100000001001100120032
:10088000000001001200130000000100130014001A
:100890000000010014001500000001001500160002
:1008A00000000100160017000000010017001800EA
:1008B00000000100180019000000010019001A00D2
:1008C000000001001A001B00000001001B001C00BA
:1008D000000001001C001D00000001001D001E00A2
:1008E000000001001E001F000100020003000400C0
:1008F00001000200040005000100020005000600DE
:1009000001000200060007000100020007000800C5
:1009100001000200080009000100020009000A00AD
:10092000010002000A000B00010002000B000C0095
:10093000010002000C000D00010002000D000E007D
:10094000010002000E000F00010002000F00100065
:10095000010002001000110001000200110012004D
:100960000100020012001300010002001300140035
:10097000010002001400150001000200150016001D
:100980000100020016001700010002001700180005
:1009900001000200180019000100020019001A00ED
:1009A000010002001A001B00010002001B001C00D5
:1009B000010002001C001D00010002001D001E00BD
:1009C000010002001E001F00010002001F000000C5
:1009D0000200030000000100020003000400050003
:1009E00002000300050006000200030006000700E5
:1009F00002000300070008000200030008000900CD
:100A00000200030009000A00020003000A000B00B4
:100A1000020003000B000C00020003000C000D009C
:100A2000020003000D000E00020003000E000F0084
:100A3000020003000F00100002000300100011006C
:100A40000200030011001200020003001200130054
:100A5000020003001300140002000300140015003C
:100A60000200030015001600020003001600170024
:100A7000020003001700180002000300180019000C
:100A80000200030019001A00020003001A001B00F4
:100A9000020003001B001C00020003001C001D00DC
:100AA000020003001D001E00020003001E001F00C4
:100AB000020003001F00000003000400000001000A
:100AC000030004000100020003000400050006000A
:100AD00003000400060007000300040007000800EC
:100AE00003000400080009000300040009000A00D4
:100AF000030004000A000B00030004000B000C00BC
:100B0000030004000C000D00030004000D000E00A3
:100B1000030004000E000F00030004000F0010008B
:100B20000300040010001100030004001100120073
:100B3000030004001200130003000400130014005B
:100B40000300040014001500030004001500160043
:100B5000030004001600170003000400170018002B
:100B600003000400180019000300040019001A0013
:100B7000030004001A001B00030004001B001C00FB
:100B8000030004001C001D00030004001D001E00E3
:100B9000030004001E001F00030004001F000000EB
:100BA000040005000000010004000500010002002F
:100BB0000400050002000300040005000600070011
:100BC00004000500070008000400050008000900F3
:100BD0000400050009000A00040005000A000B00DB
:100BE000040005000B000C00040005000C000D00C3
:100BF000040005000D000E00040005000E000F00AB
:100C0000040005000F001000040005001000110092
:100C1000040005001100120004000500120013007A
:100C20000400050013001400040005001400150062
:100C3000040005001500160004000500160017004A
:100C40000400050017001800040005001800190032
:100C50000400050019001A00040005001A001B001A
:100C6000040005001B001C00040005001C001D0002
:100C7000040005001D001E00040005001E001F00EA
:100C8000040005001F000000050006000000010030
:100C90000500060001000200050006000200030036
:100CA0000500060003000400050006000700080018
:100CB00005000600080009000500060009000A00FA
:100CC000050006000A000B00050006000B000C00E2
:100CD000050006000C000D00050006000D000E00CA
:100CE000050006000E000F00050006000F001000B2
:100CF000050006001000110005000600110012009A
:100D00000500060012001300050006001300140081
:100D10000500060014001500050006001500160069
:100D20000500060016001700050006001700180051
:100D300005000600180019000500060019001A0039
:100D4000050006001A001B00050006001B001C0021
:100D5000050006001C001D00050006001D001E0009
:100D6000050006001E001F00050006001F00000011
:100D70000600070000000100060007000100020055
:100D8000060007000200030006000700030004003D
:100D9000060007000400050006000700080009001F
:100DA0000600070009000A00060007000A000B0001
:100DB000060007000B000C00060007000C000D00E9
:100DC000060007000D000E00060007000E000F00D1
:100DD000060007000F0010000600070010001100B9
:100DE00006000700110012000600070012001300A1
:100DF0000600070013001400060007001400150089
:100E00000600070015001600060007001600170070
:100E10000600070017001800060007001800190058
:100E20000600070019001A00060007001A001B0040
:100E3000060007001B001C00060007001C001D0028
:100E4000060007001D001E00060007001E001F0010
:100E5000060007001F000000070008000000010056
:100E6000070008000100020007000800020003005C
:100E70000700080003000400070008000400050044
:100E800007000800050006000700080009000A0026
:100E9000070008000A000B00070008000B000C0008
:100EA000070008000C000D00070008000D000E00F0
:100EB000070008000E000F00070008000F001000D8
:100EC00007000800100011000700080011001200C0
:100ED00007000800120013000700080013001400A8
:100EE0000700080014001500070008001500160090
:100EF0000700080016001700070008001700180078
:100F000007000800180019000700080019001A005F
:100F1000070008001A001B00070008001B001C0047
:100F2000070008001C001D00070008001D001E002F
:100F3000070008001E001F00070008001F00000037
:100F4000080009000000010008000900010002007B
:100F50000800090002000300080009000300040063
:100F6000080009000400050008000900050006004B
:100F70000800090006000700080009000A000B002D
:100F8000080009000B000C00080009000C000D000F
:100F9000080009000D000E00080009000E000F00F7
:100FA000080009000F0010000800090010001100DF
:100FB00008000900110012000800090012001300C7
:100FC00008000900130014000800090014001500AF
:100FD0000800090015001600080009001600170097
:100FE000080009001700180008000900180019007F
:100FF0000800090019001A00080009001A001B0067
:10100000080009001B001C00080009001C001D004E
:10101000080009001D001E00080009001E001F0036
:10102000080009001F00000009000A00000001007C
:1010300009000A000100020009000A000200030082
:1010400009000A000300040009000A00040005006A
:1010500009000A000500060009000A000600070052
:1010600009000A000700080009000A000B000C0034
:1010700009000A000C000D0009000A000D000E0016
:1010800009000A000E000F0009000A000F001000FE
:1010900009000A001000110009000A0011001200E6
:1010A00009000A001200130009000A0013001400CE
:1010B00009000A001400150009000A0015001600B6
:1010C00009000A001600170009000A00170018009E
:1010D00009000A001800190009000A0019001A0086
:1010E00009000A001A001B0009000A001B001C006E
:1010F00009000A001C001D0009000A001D001E0056
:1011000009000A001E001F0009000A001F0000005D
:101110000A000B00000001000A000B0001000200A1
:101120000A000B00020003000A000B000300040089
:101130000A000B00040005000A000B000500060071
:101140000A000B00060007000A000B000700080059
:101150000A000B00080009000A000B000C000D003B
:101160000A000B000D000E000A000B000E000F001D
:101170000A000B000F0010000A000B001000110005
:101180000A000B00110012000A000B0012001300ED
:101190000A000B00130014000A000B0014001500D5
:1011A0000A000B00150016000A000B0016001700BD
:1011B0000A000B00170018000A000B0018001900A5
:1011C0000A000B0019001A000A000B001A001B008D
:1011D0000A000B001B001C000A000B001C001D0075
:1011E0000A000B001D001E000A000B001E001F005D
:1011F0000A000B001F0000000B000C0000000100A3
:101200000B000C00010002000B000C0002000300A8
:101210000B000C00030004000B000C000400050090
:101220000B000C00050006000B000C000600070078
:101230000B000C00070008000B000C000800090060
:101240000B000C0009000A000B000C000D000E0042
:101250000B000C000E000F000B000C000F00100024
:101260000B000C00100011000B000C00110012000C
:101270000B000C00120013000B000C0013001400F4
:101280000B000C00140015000B000C0015001600DC
:101290000B000C00160017000B000C0017001800C4
:1012A0000B000C00180019000B000C0019001A00AC
:1012B0000B000C001A001B000B000C001B001C0094
:1012C0000B000C001C001D000B000C001D001E007C
:1012D0000B000C001E001F000B000C001F00000084
:1012E0000C000D00000001000C000D0001000200C8
:1012F0000C000D00020003000C000D0003000400B0
:101300000C000D00040005000C000D000500060097
:101310000C000D00060007000C000D00070008007F
:101320000C000D00080009000C000D0009000A0067
:101330000C000D000A000B000C000D000E000F0049
:101340000C000D000F0010000C000D00100011002B
:101350000C000D00110012000C000D001200130013
:101360000C000D00130014000C000D0014001500FB
:101370000C000D00150016000C000D0016001700E3
:101380000C000D00170018000C000D0018001900CB
:101390000C000D0019001A000C000D001A001B00B3
:1013A0000C000D001B001C000C000D001C001D009B
:1013B0000C000D001D001E000C000D001E001F0083
:1013C0000C000D001F0000000D000E0000000100C9
:1013D0000D000E00010002000D000E0002000300CF
:1013E0000D000E00030004000D000E0004000500B7
:1013F0000D000E00050006000D000E00060007009F
:101400000D000E00070008000D000E000800090086
:101410000D000E0009000A000D000E000A000B006E
:101420000D000E000B000C000D000E000F00100050
:101430000D000E00100011000D000E001100120032
:101440000D000E00120013000D000E00130014001A
:101450000D000E00140015000D000E001500160002
:101460000D000E00160017000D000E0017001800EA
:101470000D000E00180019000D000E0019001A00D2
:101480000D000E001A001B000D000E001B001C00BA
:101490000D000E001C001D000D000E001D001E00A2
:1014A0000D000E001E001F000D000E001F000000AA
:1014B0000E000F00000001000E000F0001000200EE
:1014C0000E000F00020003000E000F0003000400D6
:1014D0000E000F00040005000E000F0005000600BE
:1014E0000E000F00060007000E000F0007000800A6
:1014F0000E000F00080009000E000F0009000A008E
:101500000E000F000A000B000E000F000B000C0075
:101510000E000F000C000D000E000F001000110057
:101520000E000F00110012000E000F001200130039
:101530000E000F00130014000E000F001400150021
:101540000E000F00150016000E000F001600170009
:101550000E000F00170018000E000F0018001900F1
:101560000E000F0019001A000E000F001A001B00D9
:101570000E000F001B001C000E000F001C001D00C1
:101580000E000F001D001E000E000F001E001F00A9
:101590000E000F001F0000000F00100000000100EF
:1015A0000F001000010002000F00100002000300F5
:1015B0000F001000030004000F00100004000500DD
:1015C0000F001000050006000F00100006000700C5
:1015D0000F001000070008000F00100008000900AD
:1015E0000F00100009000A000F0010000A000B0095
:1015F0000F0010000B000C000F0010000C000D007D
:101600000F0010000D000E000F001000110012005E
:101610000F001000120013000F0010001300140040
:101620000F001000140015000F0010001500160028
:101630000F001000160017000F0010001700180010
:101640000F001000180019000F00100019001A00F8
:101650000F0010001A001B000F0010001B001C00E0
:101660000F0010001C001D000F0010001D001E00C8
:101670000F0010001E001F000F0010001F000000D0
:101680001000110000000100100011000100020014
:1016900010001100020003001000110003000400FC
:1016A00010001100040005001000110005000600E4
:1016B00010001100060007001000110007000800CC
:1016C00010001100080009001000110009000A00B4
:1016D000100011000A000B00100011000B000C009C
:1016E000100011000C000D00100011000D000E0084
:1016F000100011000E000F00100011001200130066
:101700001000110013001400100011001400150047
:10171000100011001500160010001100160017002F
:101720001000110017001800100011001800190017
:101730001000110019001A00100011001A001B00FF
:10174000100011001B001C00100011001C001D00E7
:10175000100011001D001E00100011001E001F00CF
:10176000100011001F000000110012000000010015
:10177000110012000100020011001200020003001B
:101780001100120003000400110012000400050003
:1017900011001200050006001100120006000700EB
:1017A00011001200070008001100120008000900D3
:1017B0001100120009000A00110012000A000B00BB
:1017C000110012000B000C00110012000C000D00A3
:1017D000110012000D000E00110012000E000F008B
:1017E000110012000F00100011001200130014006D
:1017F000110012001400150011001200150016004F
:101800001100120016001700110012001700180036
:1018100011001200180019001100120019001A001E
:10182000110012001A001B00110012001B001C0006
:10183000110012001C001D00110012001D001E00EE
:10184000110012001E001F00110012001F000000F6
:10185000120013000000010012001300010002003A
:101860001200130002000300120013000300040022
:10187000120013000400050012001300050006000A
:1018800012001300060007001200130007000800F2
:1018900012001300080009001200130009000A00DA
:1018A000120013000A000B00120013000B000C00C2
:1018B000120013000C000D00120013000D000E00AA
:1018C000120013000E000F00120013000F00100092
:1018D0001200130010001100120013001400150074
:1018E0001200130015001600120013001600170056
:1018F000120013001700180012001300180019003E
:101900001200130019001A00120013001A001B0025
:10191000120013001B001C00120013001C001D000D
:10192000120013001D001E00120013001E001F00F5
:10193000120013001F00000013001400000001003B
:101940001300140001000200130014000200030041
:101950001300140003000400130014000400050029
:101960001300140005000600130014000600070011
:1019700013001400070008001300140008000900F9
:101980001300140009000A00130014000A000B00E1
:10199000130014000B000C00130014000C000D00C9
:1019A000130014000D000E00130014000E000F00B1
:1019B000130014000F001000130014001000110099
:1019C000130014001100120013001400150016007B
:1019D000130014001600170013001400170018005D
:1019E00013001400180019001300140019001A0045
:1019F000130014001A001B00130014001B001C002D
:101A0000130014001C001D00130014001D001E0014
:101A1000130014001E001F00130014001F0000001C
:101A20001400150000000100140015000100020060
:101A30001400150002000300140015000300040048
:101A40001400150004000500140015000500060030
:101A50001400150006000700140015000700080018
:101A600014001500080009001400150009000A0000
:101A7000140015000A000B00140015000B000C00E8
:101A8000140015000C000D00140015000D000E00D0
:101A9000140015000E000F00140015000F001000B8
:101AA00014001500100011001400150011001200A0
:101AB0001400150012001300140015001600170082
:101AC0001400150017001800140015001800190064
:101AD0001400150019001A00140015001A001B004C
:101AE000140015001B001C00140015001C001D0034
:101AF000140015001D001E00140015001E001F001C
:101B0000140015001F000000150016000000010061
:101B10001500160001000200150016000200030067
:101B2000150016000300040015001600040005004F
:101B30001500160005000600150016000600070037
:101B4000150016000700080015001600080009001F
:101B50001500160009000A00150016000A000B0007
:101B6000150016000B000C00150016000C000D00EF
:101B7000150016000D000E00150016000E000F00D7
:101B8000150016000F0010001500160010001100BF
:101B900015001600110012001500160012001300A7
:101BA0001500160013001400150016001700180089
:101BB00015001600180019001500160019001A006B
:101BC000150016001A001B00150016001B001C0053
:101BD000150016001C001D00150016001D001E003B
:101BE000150016001E001F00150016001F00000043
:101BF0001600170000000100160017000100020087
:101C0000160017000200030016001700030004006E
:101C10001600170004000500160017000500060056
:101C2000160017000600070016001700070008003E
:101C300016001700080009001600170009000A0026
:101C4000160017000A000B00160017000B000C000E
:101C5000160017000C000D00160017000D000E00F6
:101C6000160017000E000F00160017000F001000DE
:101C700016001700100011001600170011001200C6
:101C800016001700120013001600170013001400AE
:101C90001600170014001500160017001800190090
:101CA0001600170019001A00160017001A001B0072
:101CB000160017001B001C00160017001C001D005A
:101CC000160017001D001E00160017001E001F0042
:101CD000160017001F000000170018000000010088
:101CE000170018000100020017001800020003008E
:101CF0001700180003000400170018000400050076
:101D0000170018000500060017001800060007005D
:101D10001700180007000800170018000800090045
:101D20001700180009000A00170018000A000B002D
:101D3000170018000B000C00170018000C000D0015
:101D4000170018000D000E00170018000E000F00FD
:101D5000170018000F0010001700180010001100E5
:101D600017001800110012001700180012001300CD
:101D700017001800130014001700180014001500B5
:101D800017001800150016001700180019001A0097
:101D9000170018001A001B00170018001B001C0079
:101DA000170018001C001D00170018001D001E0061
:101DB000170018001E001F00170018001F00000069
:101DC00018001900000001001800190001000200AD
:101DD0001800190002000300180019000300040095
:101DE000180019000400050018001900050006007D
:101DF0001800190006000700180019000700080065
:101E000018001900080009001800190009000A004C
:101E1000180019000A000B00180019000B000C0034
:101E2000180019000C000D00180019000D000E001C
:101E3000180019000E000F00180019000F00100004
:101E400018001900100011001800190011001200EC
:101E500018001900120013001800190013001400D4
:101E600018001900140015001800190015001600BC
:101E70001800190016001700180019001A001B009E
:101E8000180019001B001C00180019001C001D0080
:101E9000180019001D001E00180019001E001F0068
:101EA000180019001F00000019001A0000000100AE
:101EB00019001A000100020019001A0002000300B4
:101EC00019001A000300040019001A00040005009C
:101ED00019001A000500060019001A000600070084
:101EE00019001A000700080019001A00080009006C
:101EF00019001A0009000A0019001A000A000B0054
:101F000019001A000B000C0019001A000C000D003B
:101F100019001A000D000E0019001A000E000F0023
:101F200019001A000F00100019001A00100011000B
:101F300019001A001100120019001A0012001300F3
:101F400019001A001300140019001A0014001500DB
:101F500019001A001500160019001A0016001700C3
:101F600019001A001700180019001A001B001C00A5
:101F700019001A001C001D0019001A001D001E0087
:101F800019001A001E001F0019001A001F0000008F
:101F90001A001B00000001001A001B0001000200D3
:101FA0001A001B00020003001A001B0003000400BB
:101FB0001A001B00040005001A001B0005000600A3
:101FC0001A001B00060007001A001B00070008008B
:101FD0001A001B00080009001A001B0009000A0073
:101FE0001A001B000A000B001A001B000B000C005B
:101FF0001A001B000C000D001A001B000D000E0043
:102000001A001B000E000F001A001B000F0010002A
:102010001A001B00100011001A001B001100120012
:102020001A001B00120013001A001B0013001400FA
:102030001A001B00140015001A001B0015001600E2
:102040001A001B00160017001A001B0017001800CA
:102050001A001B00180019001A001B001C001D00AC
:102060001A001B001D001E001A001B001E001F008E
:102070001A001B001F0000001B001C0000000100D4
:102080001B001C00010002001B001C0002000300DA
:102090001B001C00030004001B001C0004000500C2
:1020A0001B001C00050006001B001C0006000700AA
:1020B0001B001C00070008001B001C000800090092
:1020C0001B001C0009000A001B001C000A000B007A
:1020D0001B001C000B000C001B001C000C000D0062
:1020E0001B001C000D000E001B001C000E000F004A
:1020F0001B001C000F0010001B001C001000110032
:102100001B001C00110012001B001C001200130019
:102110001B001C00130014001B001C001400150001
:102120001B001C00150016001B001C0016001700E9
:102130001B001C00170018001B001C0018001900D1
:102140001B001C0019001A001B001C001D001E00B3
:102150001B001C001E001F001B001C001F000000B5
:102160001C001D00000001001C001D0001000200F9
:102170001C001D00020003001C001D0003000400E1
:102180001C001D00040005001C001D0005000600C9
:102190001C001D00060007001C001D0007000800B1
:1021A0001C001D00080009001C001D0009000A0099
:1021B0001C001D000A000B001C001D000B000C0081
:1021C0001C001D000C000D001C001D000D000E0069
:1021D0001C001D000E000F001C001D000F00100051
:1021E0001C001D00100011001C001D001100120039
:1021F0001C001D00120013001C001D001300140021
:102200001C001D00140015001C001D001500160008
:102210001C001D00160017001C001D0017001800F0
:102220001C001D00180019001C001D0019001A00D8
:102230001C001D001A001B001C001D001E001F00BA
:102240001C001D001F0000001D001E0000000100FA
:102250001D001E00010002001D001E000200030000
:102260001D001E00030004001D001E0004000500E8
:102270001D001E00050006001D001E0006000700D0
:102280001D001E00070008001D001E0008000900B8
:102290001D001E0009000A001D001E000A000B00A0
:1022A0001D001E000B000C001D001E000C000D0088
:1022B0001D001E000D000E001D001E000E000F0070
:1022C0001D001E000F0010001D001E001000110058
:1022D0001D001E00110012001D001E001200130040
:1022E0001D001E00130014001D001E001400150028
:1022F0001D001E00150016001D001E001600170010
:102300001D001E00170018001D001E0018001900F7
:102310001D001E0019001A001D001E001A001B00DF
:102320001D001E001B001C001D001E001F000000E1
:102330001E001F00000001001E001F00010002001F
:102340001E001F00020003001E001F000300040007
:102350001E001F00040005001E001F0005000600EF
:102360001E001F00060007001E001F0007000800D7
:102370001E001F00080009001E001F0009000A00BF
:102380001E001F000A000B001E001F000B000C00A7
:102390001E001F000C000D001E001F000D000E008F
:1023A0001E001F000E000F001E001F000F00100077
:1023B0001E001F00100011001E001F00110012005F
:1023C0001E001F00120013001E001F001300140047
:1023D0001E001F00140015001E001F00150016002F
:1023E0001E001F00160017001E001F001700180017
:1023F0001E001F00180019001E001F0019001A00FF
:102400001E001F001A001B001E001F001B001C00E6
:102410001E001F001C001D001F0000000100020024
:102420001F000000020003001F0000000300040062
:102430001F000000040005001F000000050006004A
:102440001F000000060007001F0000000700080032
:102450001F000000080009001F00000009000A001A
:102460001F0000000A000B001F0000000B000C0002
:102470001F0000000C000D001F0000000D000E00EA
:102480001F0000000E000F001F0000000F001000D2
:102490001F000000100011001F00000011001200BA
:1024A0001F000000120013001F00000013001400A2
:1024B0001F000000140015001F000000150016008A
:1024C0001F000000160017001F0000001700180072
:1024D0001F000000180019001F00000019001A005A
:1024E0001F0000001A001B001F0000001B001C0042
:1024F0001F0000001C001D001F0000001D001E002A
:1025000000001000020001000000100003000200A3
:10251000000010000400030000001000050004008B
:102520000000100006000500000010000700060073
:10253000000010000800070000001000090008005B
:10254000000010000A000900000010000B000A0043
:10255000000010000C000B00000010000D000C002B
:10256000000010000E000D00000010000F000E0013
:1025700000001000120011000000100013001200F3
:1025800000001000140013000000100015001400DB
:1025900000001000160015000000100017001600C3
:1025A00000001000180017000000100019001800AB
:1025B000000010001A001900000010001B001A0093
:1025C000000010001C001B00000010001D001C007B
:1025D000000010001E001D00000010001F001E0063
:1025E00001001100030002000100110004000300BB
:1025F00001001100050004000100110006000500A3
:10260000010011000700060001001100080007008A
:102610000100110009000800010011000A00090072
:10262000010011000B000A00010011000C000B005A
:10263000010011000D000C00010011000E000D0042
:10264000010011000F000E000100110010000F002A
:10265000010011001300120001001100140013000A
:1026600001001100150014000100110016001500F2
:1026700001001100170016000100110018001700DA
:102680000100110019001800010011001A001900C2
:10269000010011001B001A00010011001C001B00AA
:1026A000010011001D001C00010011001E001D0092
:1026B000010011001F001E000100110000001F009A
:1026C00002001200010000000200120004000300DA
:1026D00002001200050004000200120006000500BE
:1026E00002001200070006000200120008000700A6
:1026F0000200120009000800020012000A0009008E
:10270000020012000B000A00020012000C000B0075
:10271000020012000D000C00020012000E000D005D
:10272000020012000F000E000200120010000F0045
:102730000200120011001000020012001400130029
:10274000020012001500140002001200160015000D
:1027500002001200170016000200120018001700F5
:102760000200120019001800020012001A001900DD
:10277000020012001B001A00020012001C001B00C5
:10278000020012001D001C00020012001E001D00AD
:10279000020012001F001E000200120000001F00B5
:1027A00003001300010000000300130002000100F9
:1027B00003001300050004000300130006000500D9
:1027C00003001300070006000300130008000700C1
:1027D0000300130009000800030013000A000900A9
:1027E000030013000B000A00030013000C000B0091
:1027F000030013000D000C00030013000E000D0079
:10280000030013000F000E000300130010000F0060
:102810000300130011001000030013001200110048
:102820000300130015001400030013001600150028
:102830000300130017001600030013001800170010
:102840000300130019001800030013001A001900F8
:10285000030013001B001A00030013001C001B00E0
:10286000030013001D001C00030013001E001D00C8
:10287000030013001F001E000300130000001F00D0
:102880000400140001000000040014000200010014
:1028900004001400030002000400140006000500F8
:1028A00004001400070006000400140008000700DC
:1028B0000400140009000800040014000A000900C4
:1028C000040014000B000A00040014000C000B00AC
:1028D000040014000D000C00040014000E000D0094
:1028E000040014000F000E000400140010000F007C
:1028F0000400140011001000040014001200110064
:102900000400140013001200040014001600150047
:10291000040014001700160004001400180017002B
:102920000400140019001800040014001A00190013
:10293000040014001B001A00040014001C001B00FB
:10294000040014001D001C00040014001E001D00E3
:10295000040014001F001E000400140000001F00EB
:10296000050015000100000005001500020001002F
:102970000500150003000200050015000400030017
:1029800005001500070006000500150008000700F7
:102990000500150009000800050015000A000900DF
:1029A000050015000B000A00050015000C000B00C7
:1029B000050015000D000C00050015000E000D00AF
:1029C000050015000F000E000500150010000F0097
:1029D000050015001100100005001500120011007F
:1029E0000500150013001200050015001400130067
:1029F0000500150017001600050015001800170047
:102A00000500150019001800050015001A0019002E
:102A1000050015001B001A00050015001C001B0016
:102A2000050015001D001C00050015001E001D00FE
:102A3000050015001F001E000500150000001F0006
:102A4000060016000100000006001600020001004A
:102A50000600160003000200060016000400030032
:102A60000600160005000400060016000800070016
:102A70000600160009000800060016000A000900FA
:102A8000060016000B000A00060016000C000B00E2
:102A9000060016000D000C00060016000E000D00CA
:102AA000060016000F000E000600160010000F00B2
:102AB000060016001100100006001600120011009A
:102AC0000600160013001200060016001400130082
:102AD0000600160015001400060016001800170066
:102AE0000600160019001800060016001A0019004A
:102AF000060016001B001A00060016001C001B0032
:102B0000060016001D001C00060016001E001D0019
:102B1000060016001F001E000600160000001F0021
:102B20000700170001000000070017000200010065
:102B3000070017000300020007001700040003004D
:102B40000700170005000400070017000600050035
:102B50000700170009000800070017000A00090015
:102B6000070017000B000A00070017000C000B00FD
:102B7000070017000D000C00070017000E000D00E5
:102B8000070017000F000E000700170010000F00CD
:102B900007001700110010000700170012001100B5
:102BA000070017001300120007001700140013009D
:102BB0000700170015001400070017001600150085
:102BC0000700170019001800070017001A00190065
:102BD000070017001B001A00070017001C001B004D
:102BE000070017001D001C00070017001E001D0035
:102BF000070017001F001E000700170000001F003D
:102C00000800180001000000080018000200010080
:102C10000800180003000200080018000400030068
:102C20000800180005000400080018000600050050
:102C30000800180007000600080018000A00090034
:102C4000080018000B000A00080018000C000B0018
:102C5000080018000D000C00080018000E000D0000
:102C6000080018000F000E000800180010000F00E8
:102C700008001800110010000800180012001100D0
:102C800008001800130012000800180014001300B8
:102C900008001800150014000800180016001500A0
:102CA0000800180017001600080018001A00190084
:102CB000080018001B001A00080018001C001B0068
:102CC000080018001D001C00080018001E001D0050
:102CD000080018001F001E000800180000001F0058
:102CE000090019000100000009001900020001009C
:102CF0000900190003000200090019000400030084
:102D0000090019000500040009001900060005006B
:102D10000900190007000600090019000800070053
:102D2000090019000B000A00090019000C000B0033
:102D3000090019000D000C00090019000E000D001B
:102D4000090019000F000E000900190010000F0003
:102D500009001900110010000900190012001100EB
:102D600009001900130012000900190014001300D3
:102D700009001900150014000900190016001500BB
:102D800009001900170016000900190018001700A3
:102D9000090019001B001A00090019001C001B0083
:102DA000090019001D001C00090019001E001D006B
:102DB000090019001F001E000900190000001F0073
:102DC0000A001A00010000000A001A0002000100B7
:102DD0000A001A00030002000A001A00040003009F
:102DE0000A001A00050004000A001A000600050087
:102DF0000A001A00070006000A001A00080007006F
:102E00000A001A00090008000A001A000C000B0052
:102E10000A001A000D000C000A001A000E000D0036
:102E20000A001A000F000E000A001A0010000F001E
:102E30000A001A00110010000A001A001200110006
:102E40000A001A00130012000A001A0014001300EE
:102E50000A001A00150014000A001A0016001500D6
:102E60000A001A00170016000A001A0018001700BE
:102E70000A001A00190018000A001A001C001B00A2
:102E80000A001A001D001C000A001A001E001D0086
:102E90000A001A001F001E000A001A0000001F008E
:102EA0000B001B00010000000B001B0002000100D2
:102EB0000B001B00030002000B001B0004000300BA
:102EC0000B001B00050004000B001B0006000500A2
:102ED0000B001B00070006000B001B00080007008A
:102EE0000B001B00090008000B001B000A00090072
:102EF0000B001B000D000C000B001B000E000D0052
:102F00000B001B000F000E000B001B0010000F0039
:102F10000B001B00110010000B001B001200110021
:102F20000B001B00130012000B001B001400130009
:102F30000B001B00150014000B001B0016001500F1
:102F40000B001B00170016000B001B0018001700D9
:102F50000B001B00190018000B001B001A001900C1
:102F60000B001B001D001C000B001B001E001D00A1
:102F70000B001B001F001E000B001B0000001F00A9
:102F80000C001C00010000000C001C0002000100ED
:102F90000C001C00030002000C001C0004000300D5
:102FA0000C001C00050004000C001C0006000500BD
:102FB0000C001C00070006000C001C0008000700A5
:102FC0000C001C00090008000C001C000A0009008D
:102FD0000C001C000B000A000C001C000E000D0071
:102FE0000C001C000F000E000C001C0010000F0055
:102FF0000C001C00110010000C001C00120011003D
:103000000C001C00130012000C001C001400130024
:103010000C001C00150014000C001C00160015000C
:103020000C001C00170016000C001C0018001700F4
:103030000C001C00190018000C001C001A001900DC
:103040000C001C001B001A000C001C001E001D00C0
:103050000C001C001F001E000C001C0000001F00C4
:103060000D001D00010000000D001D000200010008
:103070000D001D00030002000D001D0004000300F0
:103080000D001D00050004000D001D0006000500D8
:103090000D001D00070006000D001D0008000700C0
:1030A0000D001D00090008000D001D000A000900A8
:1030B0000D001D000B000A000D001D000C000B0090
:1030C0000D001D000F000E000D001D0010000F0070
:1030D0000D001D00110010000D001D001200110058
:1030E0000D001D00130012000D001D001400130040
:1030F0000D001D00150014000D001D001600150028
:103100000D001D00170016000D001D00180017000F
:103110000D001D00190018000D001D001A001900F7
:103120000D001D001B001A000D001D001C001B00DF
:103130000D001D001F001E000D001D0000001F00DF
:103140000E001E00010000000E001E000200010023
:103150000E001E00030002000E001E00040003000B
:103160000E001E00050004000E001E0006000500F3
:103170000E001E00070006000E001E0008000700DB
:103180000E001E00090008000E001E000A000900C3
:103190000E001E000B000A000E001E000C000B00AB
:1031A0000E001E000D000C000E001E0010000F008F
:1031B0000E001E00110010000E001E001200110073
:1031C0000E001E00130012000E001E00140013005B
:1031D0000E001E00150014000E001E001600150043
:1031E0000E001E00170016000E001E00180017002B
:1031F0000E001E00190018000E001E001A00190013
:103200000E001E001B001A000E001E001C001B00FA
:103210000E001E001D001C000E001E0000001F00FE
:103220000F001F00010000000F001F00020001003E
:103230000F001F00030002000F001F000400030026
:103240000F001F00050004000F001F00060005000E
:103250000F001F00070006000F001F0008000700F6
:103260000F001F00090008000F001F000A000900DE
:103270000F001F000B000A000F001F000C000B00C6
:103280000F001F000D000C000F001F000E000D00AE
:103290000F001F00110010000F001F00120011008E
:1032A0000F001F00130012000F001F001400130076
:1032B0000F001F00150014000F001F00160015005E
:1032C0000F001F00170016000F001F001800170046
:1032D0000F001F00190018000F001F001A0019002E
:1032E0000F001F001B001A000F001F001C001B0016
:1032F0000F001F001D001C000F001F001E001D00FE
:103300001000000002000100100000000300020095
:10331000100000000400030010000000050004007D
:103320001000000006000500100000000700060065
:10333000100000000800070010000000090008004D
:10334000100000000A000900100000000B000A0035
:10335000100000000C000B00100000000D000C001D
:10336000100000000E000D00100000000F000E0005
:1033700010000000120011001000000013001200E5
:1033800010000000140013001000000015001400CD
:1033900010000000160015001000000017001600B5
:1033A000100000001800170010000000190018009D
:1033B000100000001A001900100000001B001A0085
:1033C000100000001C001B00100000001D001C006D
:1033D000100000001E001D00100000001F001E0055
:1033E00011000100030002001100010004000300AD
:1033F0001100010005000400110001000600050095
:10340000110001000700060011000100080007007C
:103410001100010009000800110001000A00090064
:10342000110001000B000A00110001000C000B004C
:10343000110001000D000C00110001000E000D0034
:10344000110001000F000E001100010010000F001C
:1034500011000100130012001100010014001300FC
:1034600011000100150014001100010016001500E4
:1034700011000100170016001100010018001700CC
:103480001100010019001800110001001A001900B4
:10349000110001001B001A00110001001C001B009C
:1034A000110001001D001C00110001001E001D0084
:1034B000110001001F001E001100010000001F008C
:1034C00012000200010000001200020004000300CC
:1034D00012000200050004001200020006000500B0
:1034E0001200020007000600120002000800070098
:1034F0001200020009000800120002000A00090080
:10350000120002000B000A00120002000C000B0067
:10351000120002000D000C00120002000E000D004F
:10352000120002000F000E001200020010000F0037
:10353000120002001100100012000200140013001B
:1035400012000200150014001200020016001500FF
:1035500012000200170016001200020018001700E7
:103560001200020019001800120002001A001900CF
:10357000120002001B001A00120002001C001B00B7
:10358000120002001D001C00120002001E001D009F
:10359000120002001F001E001200020000001F00A7
:1035A00013000300010000001300030002000100EB
:1035B00013000300050004001300030006000500CB
:1035C00013000300070006001300030008000700B3
:1035D0001300030009000800130003000A0009009B
:1035E000130003000B000A00130003000C000B0083
:1035F000130003000D000C00130003000E000D006B
:10360000130003000F000E001300030010000F0052
:10361000130003001100100013000300120011003A
:10362000130003001500140013000300160015001A
:103630001300030017001600130003001800170002
:103640001300030019001800130003001A001900EA
:10365000130003001B001A00130003001C001B00D2
:10366000130003001D001C00130003001E001D00BA
:10367000130003001F001E001300030000001F00C2
:103680001400040001000000140004000200010006
:1036900014000400030002001400040006000500EA
:1036A00014000400070006001400040008000700CE
:1036B0001400040009000800140004000A000900B6
:1036C000140004000B000A00140004000C000B009E
:1036D000140004000D000C00140004000E000D0086
:1036E000140004000F000E001400040010000F006E
:1036F0001400040011001000140004001200110056
:103700001400040013001200140004001600150039
:10371000140004001700160014000400180017001D
:103720001400040019001800140004001A00190005
:10373000140004001B001A00140004001C001B00ED
:10374000140004001D001C00140004001E001D00D5
:10375000140004001F001E001400040000001F00DD
:103760001500050001000000150005000200010021
:103770001500050003000200150005000400030009
:1037800015000500070006001500050008000700E9
:103790001500050009000800150005000A000900D1
:1037A000150005000B000A00150005000C000B00B9
:1037B000150005000D000C00150005000E000D00A1
:1037C000150005000F000E001500050010000F0089
:1037D0001500050011001000150005001200110071
:1037E0001500050013001200150005001400130059
:1037F0001500050017001600150005001800170039
:103800001500050019001800150005001A00190020
:10381000150005001B001A00150005001C001B0008
:10382000150005001D001C00150005001E001D00F0
:10383000150005001F001E001500050000001F00F8
:10384000160006000100000016000600020001003C
:103850001600060003000200160006000400030024
:103860001600060005000400160006000800070008
:103870001600060009000800160006000A000900EC
:10388000160006000B000A00160006000C000B00D4
:10389000160006000D000C00160006000E000D00BC
:1038A000160006000F000E001600060010000F00A4
:1038B000160006001100100016000600120011008C
:1038C0001600060013001200160006001400130074
:1038D0001600060015001400160006001800170058
:1038E0001600060019001800160006001A0019003C
:1038F000160006001B001A00160006001C001B0024
:10390000160006001D001C00160006001E001D000B
:10391000160006001F001E001600060000001F0013
:103920001700070001000000170007000200010057
:10393000170007000300020017000700040003003F
:103940001700070005000400170007000600050027
:103950001700070009000800170007000A00090007
:10396000170007000B000A00170007000C000B00EF
:10397000170007000D000C00170007000E000D00D7
:10398000170007000F000E001700070010000F00BF
:1039900017000700110010001700070012001100A7
:1039A000170007001300120017000700140013008F
:1039B0001700070015001400170007001600150077
:1039C0001700070019001800170007001A00190057
:1039D000170007001B001A00170007001C001B003F
:1039E000170007001D001C00170007001E001D0027
:1039F000170007001F001E001700070000001F002F
:103A00001800080001000000180008000200010072
:103A1000180008000300020018000800040003005A
:103A20001800080005000400180008000600050042
:103A30001800080007000600180008000A00090026
:103A4000180008000B000A00180008000C000B000A
:103A5000180008000D000C00180008000E000D00F2
:103A6000180008000F000E001800080010000F00DA
:103A700018000800110010001800080012001100C2
:103A800018000800130012001800080014001300AA
:103A90001800080015001400180008001600150092
:103AA0001800080017001600180008001A00190076
:103AB000180008001B001A00180008001C001B005A
:103AC000180008001D001C00180008001E001D0042
:103AD000180008001F001E001800080000001F004A
:103AE000190009000100000019000900020001008E
:103AF0001900090003000200190009000400030076
:103B0000190009000500040019000900060005005D
:103B10001900090007000600190009000800070045
:103B2000190009000B000A00190009000C000B0025
:103B3000190009000D000C00190009000E000D000D
:103B4000190009000F000E001900090010000F00F5
:103B500019000900110010001900090012001100DD
:103B600019000900130012001900090014001300C5
:103B700019000900150014001900090016001500AD
:103B80001900090017001600190009001800170095
:103B9000190009001B001A00190009001C001B0075
:103BA000190009001D001C00190009001E001D005D
:103BB000190009001F001E001900090000001F0065
:103BC0001A000A00010000001A000A0002000100A9
:103BD0001A000A00030002001A000A000400030091
:103BE0001A000A00050004001A000A000600050079
:103BF0001A000A00070006001A000A000800070061
:103C00001A000A00090008001A000A000C000B0044
:103C10001A000A000D000C001A000A000E000D0028
:103C20001A000A000F000E001A000A0010000F0010
:103C30001A000A00110010001A000A0012001100F8
:103C40001A000A00130012001A000A0014001300E0
:103C50001A000A00150014001A000A0016001500C8
:103C60001A000A00170016001A000A0018001700B0
:103C70001A000A00190018001A000A001C001B0094
:103C80001A000A001D001C001A000A001E001D0078
:103C90001A000A001F001E001A000A0000001F0080
:103CA0001B000B00010000001B000B0002000100C4
:103CB0001B000B00030002001B000B0004000300AC
:103CC0001B000B00050004001B000B000600050094
:103CD0001B000B00070006001B000B00080007007C
:103CE0001B000B00090008001B000B000A00090064
:103CF0001B000B000D000C001B000B000E000D0044
:103D00001B000B000F000E001B000B0010000F002B
:103D10001B000B00110010001B000B001200110013
:103D20001B000B00130012001B000B0014001300FB
:103D30001B000B00150014001B000B0016001500E3
:103D40001B000B00170016001B000B0018001700CB
:103D50001B000B00190018001B000B001A001900B3
:103D60001B000B001D001C001B000B001E001D0093
:103D70001B000B001F001E001B000B0000001F009B
:103D80001C000C00010000001C000C0002000100DF
:103D90001C000C00030002001C000C0004000300C7
:103DA0001C000C00050004001C000C0006000500AF
:103DB0001C000C00070006001C000C000800070097
:103DC0001C000C00090008001C000C000A0009007F
:103DD0001C000C000B000A001C000C000E000D0063
:103DE0001C000C000F000E001C000C0010000F0047
:103DF0001C000C00110010001C000C00120011002F
:103E00001C000C00130012001C000C001400130016
:103E10001C000C00150014001C000C0016001500FE
:103E20001C000C00170016001C000C0018001700E6
:103E30001C000C00190018001C000C001A001900CE
:103E40001C000C001B001A001C000C001E001D00B2
:103E50001C000C001F001E001C000C0000001F00B6
:103E60001D000D00010000001D000D0002000100FA
:103E70001D000D00030002001D000D0004000300E2
:103E80001D000D00050004001D000D0006000500CA
:103E90001D000D00070006001D000D0008000700B2
:103EA0001D000D00090008001D000D000A0009009A
:103EB0001D000D000B000A001D000D000C000B0082
:103EC0001D000D000F000E001D000D0010000F0062
:103ED0001D000D00110010001D000D00120011004A
:103EE0001D000D00130012001D000D001400130032
:103EF0001D000D00150014001D000D00160015001A
:103F00001D000D00170016001D000D001800170001
:103F10001D000D00190018001D000D001A001900E9
:103F20001D000D001B001A001D000D001C001B00D1
:103F30001D000D001F001E001D000D0000001F00D1
:103F40001E000E00010000001E000E000200010015
:103F50001E000E00030002001E000E0004000300FD
:103F60001E000E00050004001E000E0006000500E5
:103F70001E000E00070006001E000E0008000700CD
:103F80001E000E00090008001E000E000A000900B5
:103F90001E000E000B000A001E000E000C000B009D
:103FA0001E000E000D000C001E000E0010000F0081
:103FB0001E000E00110010001E000E001200110065
:103FC0001E000E00130012001E000E00140013004D
:103FD0001E000E00150014001E000E001600150035
:103FE0001E000E00170016001E000E00180017001D
:103FF0001E000E00190018001E000E001A00190005
:104000001E000E001B001A001E000E001C001B00EC
:104010001E000E001D001C001E000E0000001F00F0
:104020001F000F00010000001F000F000200010030
:104030001F000F00030002001F000F000400030018
:104040001F000F00050004001F000F000600050000
:104050001F000F00070006001F000F0008000700E8
:104060001F000F00090008001F000F000A000900D0
:104070001F000F000B000A001F000F000C000B00B8
:104080001F000F000D000C001F000F000E000D00A0
:104090001F000F00110010001F000F001200110080
:1040A0001F000F00130012001F000F001400130068
:1040B0001F000F00150014001F000F001600150050
:1040C0001F000F00170016001F000F001800170038
:1040D0001F000F00190018001F000F001A00190020
:1040E0001F000F001B001A001F000F001C001B0008
:1040F0001F000F001D001C001F000F001E001D00F0
:1041000010F00701DFF85C0A00684FF6FF0210406C
:10411000DFF8542A52EA01210843DFF8481A086000
:10412000704770B5CCB00026002501F005FA0C20D0
:10413000FFF7E6FF002001F06BFF0221042001F0F1
:10414000BDFB02F069F902F0BDF900F073FA002836
:1041500003D0DFF8180A02F07BF901A84FF496713A
:1041600002F0B8F9DFF8081A01A802F0B6F900F079
:1041700051FA022401250220ADF80000042600F0C7
:1041800033FF06E0DFF8EC19DFF8EC09006800F017
:104190008AFBEDB2002D00F03B81DFF8340C0068A3
:1041A00002F0BAFDA4B2844207D200AADFF8CC190B
:1041B000DFF81C0C006802F023FCDFF8C00900786F
:1041C000612823D1DFF8B40940780A281ED136B21D
:1041D000012E1BD0012600F07BFA02F0EAFD02F06E
:1041E00071F900F027FA02F0D2FDDFF88C090068BF
:1041F00003F0C1FDDFF8880900F00CFA00F0F4FECE
:10420000DFF8CC0B006802F02AFCB2E0DFF86C09A2
:10421000007862281FD1DFF8640940780A281AD193
:1042200036B2022E17D002F0B2FDDFF84C0900685A
:1042300003F0A1FDDFF84C0900F0ECF9022600F0D4
:104240003FFEDFF8440900F0E5F9DFF8840B006871
:1042500002F005FC8DE0DFF82409007863281BD10B
:10426000DFF8180940780A2816D136B2032E13D089
:10427000032602F08CFDDFF80009006803F07BFDE7
:10428000DFF8080900F0C6F900F0AEFEDFF8400BD9
:10429000006802F0E4FB6CE0DFF8E00800786428D6
:1042A0001BD1DFF8D80840780A2816D136B2042E80
:1042B00013D0042602F06BFDDFF8BC08006803F0A1
:1042C0005AFDDFF8CC0800F0A5F900F08DFEDFF80C
:1042D000000B006802F0C3FB4BE0DFF8A008007899
:1042E00065281BD1DFF8940840780A2816D136B229
:1042F000052E13D0052602F04AFDDFF87C08006881
:1043000003F039FDDFF8D00A00F084F900F06CFE0C
:10431000DFF8BC0A006802F0A2FB2AE0DFF85C08C4
:10432000007866280DD1DFF8540840780A2808D1B3
:10433000062600F059FDDFF8980A006802F08FFBAE
:1043400017E0DFF83808007867280DD1DFF82C086F
:1043500040780A2808D1072600F046FDDFF8700AE9
:10436000006802F07CFB04E0DFF8640A006802F0F9
:1043700076FB36B2012E3FF405AF36B2022E07D1DE
:10438000DFF8581ADFF8F007006800F0B7F900E727
:1043900036B2032E08D10822DFF8D817DFF8D80785
:1043A000006800F0C7FAF4E636B2042E08D11022F5
:1043B000DFF8C017DFF8C007006800F0BBFAE8E6D6
:1043C00036B2052E08D12022DFF8A817DFF8A8079B
:1043D000006800F0AFFADCE636B2062E08D11022F3
:1043E000DFF8D41ADFF89007006800F0D3FBD0E6BE
:1043F00036B2072E07D1DFF8C01ADFF87C07006855
:1044000000F009FAC5E6DFF8D80900F003F9C0E6C4
:10441000DFF86407006804F019FA002803D0DFF819
:10442000C40902F015F8DFF85007006803F0A3FC98
:10443000002803D0DFF8840A02F00AF8DFF89009B8
:10444000006802F08BFA00B2002803D0DFF8900B6E
:1044500001F0FEFF00204CB070BD38B50B0011001C
:10446000002219E052B230F91240241E012C12D25F
:1044700052B2540010EB4404B4F90240241E012C43
:1044800009D252B2002420F8124052B2540010EB6C
:10449000440400256580521C52B2022AE2DB00224D
:1044A00006E052B252B230F8124023F81240521CC9
:1044B00052B2042AF5DB0422180004F079FA31BD67
:1044C000F0B506000C0000200021E517002D01D1F9
:1044D000002C16D0F7170023A2FB060102FB0711E0
:1044E00003FB0611490141EAD06140012200E317B4
:1044F00004F0B0FA401C51F10001400840EAC170DC
:10450000491030F0FF3231F00003002B01D1002AB6
:1045100002D07FF00040FFE7F0BD30B50C00002274
:104520000023E517002D01D1002C16D04FF47A712D
:1045300081FB00235B0143EAD263520110001900A2
:104540002200E31704F086FA02000B00521C53F11C
:104550000003520842EAC3725B1032F0FF3033F0BE
:104560000001002901D1002802D07FF0004000E0C6
:10457000100030BD02B582B0029900293AD59DF8ED
:104580000810D1F110019DF8002061F303028DF8AD
:10459000002002990911009A61F31F1200929DF800
:1045A000081011F00F01002902D00099103100917C
:1045B000009941F31B1100290CD19DF8001011F056
:1045C0000F0140F2712202FB01F2DFF8181A04F029
:1045D000DBFA1EE09DF8001011F00F0140F271228D
:1045E00002FB01F3009941F31B12DFF8701B04F08A
:1045F000CBFA0EE09DF8081011F00F0140F2712285
:1046000002FB01F3029941F31B12DFF8501B04F087
:10461000BBFA07BD10B582B00400200004F0CEFA4A
:10462000ADF8000000AA2100DFF8A407006802F03E
:10463000B8F913BD10B586B0DFF84005039002202D
:10464000ADF81000DFF8180B05906420ADF81200EB
:1046500003AADFF87C17002002F02CF9040024B232
:10466000002C03D0DFF8FC0A01F0F2FE04208DF8E4
:10467000000001208DF8030001208DF804000020C7
:104680008DF8010003208DF8020000208DF8050050
:1046900000A9DFF83C07006802F053FA040024B2D6
:1046A000002C03D0DFF8C00A01F0D2FE0121DFF8B0
:1046B0002007006802F0DAFA040024B2002C03D0CC
:1046C000DFF8A80A01F0C4FE200000B206B010BD59
:1046D00010B50024DFF8F806006802F03FF9040086
:1046E00000B2002802D0200000B201E0200000B299
:1046F00010BD00E0401E0028FCD170472DE9F041BC
:10470000F0B004000D00002641E000A80021016087
:10471000042303AA2900200003F086F9002803D00F
:10472000DFF84C0AFFF776FF07AA05A903A8FFF7F1
:1047300094FE022201A907A804F05CFA48F26C1268
:1047400001990298FFF7BCFE00900BA84FF49671F8
:1047500001F0C0FEDFF81C2A73A156A804F014FA79
:1047600063A956A801F0B9FE00990BA8FFF702FF54
:104770000BA956A801F0B1FE7F1C7FB24745C4DBF0
:104780006AA156A801F0A9FEFFF744FF761C76B295
:104790000F2E3CDA76B2DFF8E00910EBC602D2E960
:1047A0000001890641EA90118006DFF8D029002334
:1047B00004F072F904F0E4FA0022DFF8C43904F0DE
:1047C000FFFA04F087FB070076B2DFF8B80950F86B
:1047D000262057A163A804F0D7F956A8342101F088
:1047E00079FE76B20F2E00DB0026DFF8F00557F0D9
:1047F0001841C160DFF8E405DFF8441C01610121C4
:10480000200003F0DDF95FF001080027B5E770B084
:10481000BDE8F081000010B5E4B0040000A800215C
:10482000016056A8342101F055FE0BA84FF4967193
:1048300001F050FE042303AADFF87C16200003F0E9
:10484000F3F8002803D0DFF84009FFF7E3FE07AADA
:1048500005A903A8FFF701FE022201A907A804F099
:10486000C9F900240CE064B201A810EB840041688F
:104870000198FFF752FE64B200A941F82400641CBD
:1048800064B2012CEFDB00990BA8FFF773FE0BA9B4
:1048900056A801F022FE25A101F01FFE56A8FFF741
:1048A000B9FE64B010BD70B5E4B004000D0000A8FE
:1048B0000021016048F26C1656A8342101F00AFE6E
:1048C0000BA84FF4967101F005FE042303AA2900FA
:1048D000200003F0A9F8002803D0DFF89408FFF7C0
:1048E00099FE07AA05A903A8FFF7B7FD022201A9AF
:1048F00007A804F07FF948F26C163200019902987B
:10490000FFF7DEFD009000990BA8FFF733FE0BA91F
:1049100056A801F0E2FD05A101F0DFFD56A8FFF762
:1049200079FE64B070BD000025733A00200D0A00C6
:1049300025733B002DE9F34FADF5437D1400082CA2
:1049400001D120250EE0102C01D1C0250AE0202C39
:1049500002D14FF4607505E04FF46875DFF8E80A9E
:10496000FFF758FE48F26C1009905FA84FF4C87129
:1049700001F0B0FDDFF8D41A5FA804F005F95FA8D4
:10498000FFF748FE002626E004230CAAC499C3982A
:1049900003F04AF8002803D0DFF8B40AFFF73AFE24
:1049A00010AA0EA90CA8FFF758FD02220AA910A808
:1049B00004F020F9099A0A990B98FFF781FD0090FD
:1049C000009914A8FFF7D6FD65A114A801F085FD94
:1049D000FFF720FE761CAE4280F0B58014A84FF49D
:1049E000967101F077FD10A8102101F073FD0EA85B
:1049F0000021002206C008380AA80021002206C0B3
:104A000008380CA80021002206C0083800A80021A0
:104A10000160082C04D1DFF83C0A10EBC60011E05D
:104A2000102C04D1DFF8300A10EBC6000AE0202C6D
:104A300004D1DFF8280A10EBC60003E0DFF8200AF3
:104A400010EBC600B0F902100C22DFF8183A02FB96
:104A5000013BB0F906100C22DFF8083A02FB013ADC
:104A6000B0F900100C22DFF8FC3902FB0139B0F973
:104A700004000C21DFF8EC2901FB00275FF000089F
:104A800006E0BDF80810019802F0A4FA18F1010838
:104A9000B8F1050FBFF678AFDFF8CC0910EBC8020C
:104AA000D2E90001CDE90701DFF8C00910EBC80227
:104AB000D2E90001CDE90501DFF8B40910EBC80225
:104AC000D2E90001CDE90301DFF8A80910EBC80223
:104AD000D2E90001CDE901013BF91800012805DB0D
:104AE000BDF82010079802F057FA04E0BDF8201036
:104AF000079802F06FFA3AF91800012805DBBDF8B3
:104B00001810059802F048FA04E0BDF8181005984E
:104B100002F060FA39F91800012805DBBDF8101021
:104B2000039802F039FA04E0BDF81010039802F07F
:104B300051FA37F918000128A3DBBDF808100198D5
:104B400002F02AFAA2E7A3A0FFF764FDDFF83C0613
:104B5000006801F084FF0DF5457DBDE8F08F000091
:104B60002C0000000CED00E00000FA0580BF000002
:104B7000BCC7000008010020740700208C0700203B
:104B800008C6000064C30000FCC6000044C4000066
:104B900064C400002DE9F34FADF5437D1400082CEB
:104BA00001D120250DE0102C01D1C02509E0202CD9
:104BB00002D14FF4607504E00025DFF88C08FFF7A0
:104BC00029FD5EA84FF4C87101F084FCDFF87C1861
:104BD0005EA803F0D9FF5EA8FFF71CFD00261AE0CF
:104BE0007FB209A810EB870041680998FFF795FC90
:104BF0007FB200A941F827007F1C7FB2012FEFDBB5
:104C0000009913A8FFF7B6FCAAA113A801F065FC50
:104C1000FFF700FD761CAE4280F0CD8013A84FF464
:104C2000967101F057FC0FA8102101F053FC0DA85C
:104C30000021002206C0083809A80021002206C071
:104C400008380BA80021002206C0083800A800215F
:104C500001600027082C04D1DFF8F80710EBC6002C
:104C600011E0102C04D1DFF8F00710EBC6000AE0C9
:104C7000202C04D1DFF8E40710EBC60003E0DFF8D6
:104C8000DC0710EBC600B0F902100C22DFF8D437B5
:104C900002FB013BB0F906100C22DFF8C83702FB1B
:104CA000013AB0F900100C22DFF8B83702FB0139E5
:104CB000B0F904000C21DFF8AC2701FB00275FF0FE
:104CC000000806E0BDF80810019802F083F918F119
:104CD0000108B8F1050F56DADFF88C0710EBC802AF
:104CE000D2E90001CDE90701DFF8800710EBC80227
:104CF000D2E90001CDE90501DFF8740710EBC80225
:104D0000D2E90001CDE90301DFF8680710EBC80222
:104D1000D2E90001CDE901013BF91800012805DBCA
:104D2000BDF82010079802F037F904E0BDF8201014
:104D3000079802F04FF93AF91800012805DBBDF891
:104D40001810059802F028F904E0BDF8181005982D
:104D500002F040F939F91800012805DBBDF8101000
:104D6000039802F019F904E0BDF81010039802F05E
:104D700031F937F918000128A4DBBDF808100198B3
:104D800002F00AF9A3E704230BAAC499C39802F01E
:104D90004BFE002803D0DFF8B806FFF73BFC0FAA54
:104DA0000DA90BA8FFF759FB022209A90FA803F0D0
:104DB00021FF002721E707A0FFF72CFCDFF8CC0339
:104DC000006801F04CFE0DF5457DBDE8F08F000058
:104DD000700700200D0A000084C400005C00002061
:104DE0000CC70000C8BF000000B583B001F0B2FFDF
:104DF000002803D0DFF88006FFF70CFC00F0C8F9AC
:104E0000DFF8780602F054FF002803D0DFF87006C0
:104E1000FFF700FCDFF86406006803F077FA00286B
:104E200003D0DFF86006FFF7F5FBDFF850060068F7
:104E300003F067FB002803D0DFF84C06FFF7EAFB1E
:104E4000DFF83806006803F08CFB002803D0DFF899
:104E50003C06FFF7DFFBDFF82406006803F082FC66
:104E6000002803D0DFF82806FFF7D4FBDFF824067C
:104E7000DFF82416C160DFF81C06DFF82016016198
:104E80000121DFF8F805006802F09AFE042300AA69
:104E9000DFF80C16DFF8E405006802F0C5FD002815
:104EA00003D0DFF80006FFF7B5FBDFF8FC05FFF7DE
:104EB000B1FB07BD2C000000D001002010C0000095
:104EC00000B583B0DFF8B40502F0F2FE002803D08D
:104ED000DFF8D80501F0BCFA4FF47A71DFF89C05D1
:104EE000006802F084FE002803D0DFF8C40501F05A
:104EF000AFFA48F2E801DFF88405006802F0A4FE8A
:104F0000002803D0DFF8AC0501F0A2FADFF86C0549
:104F1000006803F0FBF9002803D0DFF89C0501F0DE
:104F200097FADFF89805FFF7E4FBDFF85005006813
:104F300003F085FA002803D0DFF88405FFF76AFB49
:104F4000DFF83805006803F00EFA002803D0DFF818
:104F50007405FFF75FFBDFF82405006803F0D1FA62
:104F6000002803D0DFF8600501F072FA00AADFF82C
:104F70005C15DFF80805006802F0CAF9002803D0C4
:104F8000DFF84C0501F064FA009ADFF84815DFF805
:104F9000EC04006802F086F9002803D0DFF8380539
:104FA00001F056FA01AADFF83415DFF8D0040068E2
:104FB00002F0AEF9002803D0DFF8240501F048FA2A
:104FC000019ADFF82015DFF8B404006802F06AF9EE
:104FD000002803D0DFF8100501F03AFA07BD000001
:104FE00040BE00001CC7000000B585B001F0B2FE55
:104FF000002803D0DFF88004FFF70CFB00F0C8F8AE
:10500000DFF8780402F054FE002803D0DFF8DC0457
:10501000FFF700FB4FF47A71DFF86004006802F0DC
:10502000E6FD002803D0DFF8C804FFF7F3FA48F2E2
:10503000E801DFF84804006802F006FE002803D00B
:10504000DFF8B004FFF7E6FADFF83004006803F099
:105050005DF9002803D0DFF82C04FFF7DBFADFF856
:105060005C04FFF746FBDFF81404006803F0E7F97F
:10507000002803D0DFF84804FFF7CCFADFF8FC0380
:10508000006803F070F9002803D0DFF83804FFF758
:10509000C1FADFF8E803006803F033FA002803D010
:1050A000DFF8E403FFF7B6FA00AADFF82014DFF810
:1050B000CC03006802F02CF9002803D0DFF8380494
:1050C000FFF7A8FA009ADFF80C14DFF8B0030068C5
:1050D00002F0E8F8002803D0DFF82004FFF79AFA7E
:1050E00001AADFF8F813DFF89403006802F010F962
:1050F000002803D0DFF80804FFF78CFA019ADFF8E4
:10510000E413DFF87803006802F0CCF8002803D03D
:10511000DFF8F003FFF77EFADFF87803DFF87813A3
:10512000C160DFF87003C64901610121D3480068FE
:1051300002F046FD02A80021002206C00838042320
:1051400002AAD449CD48006802F06EFC002803D0C2
:10515000DFF8B403FFF75EFA05B000BDC8C7000072
:105160000006002020C600003CC10000A4C40000CE
:10517000C4C40000D4C70000E0BB00000024F40059
:105180000000E03F9401002038C6000070070020B6
:1051900010B5FAB000222021DFF8700301F0ABFE59
:1051A000002802D0DA48FFF735FA01222021D7483B
:1051B00001F04BFE002802D0D648FFF72BFA01225F
:1051C0002021D24801F06CFE002802D0D048FFF721
:1051D00021FA00224FF40061CC4801F08CFE002837
:1051E00002D0CB48FFF716FA01224FF40061C748FE
:1051F00001F02BFE002802D0C748FFF70BFA01226E
:105200004FF40061C14801F04BFE002802D0C048B5
:10521000FFF700FA00224FF48051C04801F06BFE06
:10522000002802D0BA48FFF7F5F901224FF4805167
:10523000BA4801F00AFE002802D0B948FFF7EAF99F
:1052400001224FF48051B54801F02AFE002802D017
:10525000AF48FFF7DFF900224021B24801F04BFED2
:10526000002802D0AA48FFF7D5F901224021AD4815
:1052700001F0EBFD002802D0AB48FFF7CBF901228B
:105280004021A84801F00CFE002802D0A048FFF7FA
:10529000C1F915A84FF4C87101F01CF9A34A69A11E
:1052A00015A803F071FC0024C4E008A8342101F023
:1052B00011F96D4810EBC400D0E90023CDE90623B5
:1052C0006A4810EBC400D0E90023CDE90423684804
:1052D00010EBC400D0E90023CDE90223654810EBB0
:1052E000C400D0E90023CDE900230022BDF81C1042
:1052F000069801F000FE002802D08D48FFF78AF9D9
:105300000122BDF81C10069801F09FFD00280AD06C
:10531000BDF81C30069A874908A803F035FC08A997
:1053200015A801F0DAF80122BDF81C10069801F06A
:10533000B7FD002802D07648FFF76CF90022BDF8CF
:105340001410049801F0D7FD002802D07848FFF728
:1053500061F90122BDF81410049801F076FD0028CF
:105360000AD0BDF81430049A724908A803F00CFC66
:1053700008A915A801F0B1F80122BDF8141004988D
:1053800001F08EFD002802D06148FFF743F90022AA
:10539000BDF80C10029801F0AEFD002802D0644860
:1053A000FFF738F90122BDF80C10029801F04DFD0D
:1053B00000280AD0BDF80C30029A5E4908A803F014
:1053C000E3FB08A915A801F088F80122BDF80C102C
:1053D000029801F065FD002802D04D48FFF71AF948
:1053E0000022BDF80410009801F085FD002802D0CD
:1053F0004F48FFF70FF90122BDF80410009801F0A3
:1054000024FD00280AD0BDF80430009A494908A8B4
:1054100003F0BAFB08A915A801F05FF80122BDF856
:105420000410009801F03CFD002802D03848FFF736
:10543000F1F8641C052CFFF638AF7AB010BD0000FF
:10544000FD05009E25733A0044C500002CC70000EE
:10545000E4C4000068B700003CAE00000025000076
:1054600000080000E8B5000008020020300200201B
:1054700058020020800200203CC700007407002072
:105480004CC700005CC7000060C5000098C6000063
:105490007CC5000000000020999901988BEF009EC8
:1054A000B80000206CC70000ACC6000054C000006B
:1054B00090BE0000E0BE000030BF000080841E00EF
:1054C00050C60000C0C6000090BD00000C0108409E
:1054D0007CBB00000401084058BC000010010840DB
:1054E000C0BC00000801084028BD000058C80000EA
:1054F0007CC700008CC7000064C100008CC10000A4
:10550000B4C1000010C100009CC700004000024070
:10551000DCC1000004C200002CC20000C000024038
:1055200054C20000800002407CC2000098C5000008
:1055300088C30000E0C7000080B572B6DFF8AC0A8F
:10554000DFF8AC1A0160DFF8AC0A5FF4E02101601B
:10555000BFF36F8FBFF34F8F62B6DFF84C0B4CF683
:1055600014310180DFF8A40B008850F00300DFF84D
:105570009C1B0880DFF8940B00888005FAD5DFF8C3
:10558000900B00884FF6FC710840DFF8841B088000
:10559000DFF87C0B00210180DFF8100B41F21001D5
:1055A0000180DFF80C0B88210180DFF8080B8F21C8
:1055B0000180DFF8040B4FF4C0710180012000F07E
:1055C00060F8DFF8E40A4CF614310180DFF83C0B98
:1055D00000884FF6F7710840DFF8301B088000F0B4
:1055E00001F801BDDFF82C0B4FF400410160DFF83A
:1055F000200B008880B210F00300C0B2002805D054
:1056000002280FD008D3032834D039E0DFF8080B84
:10561000DFF8081B016033E0DFF8FC0ADFF8FC1A52
:1056200001602DE0DFF8E80A0088000502D5DFF808
:10563000EC0A01E0DFF8E40ADFF8741A098889B29D
:1056400011F03F014843DFF8681A098889B211F068
:10565000C001402903D0802902D1800800E0400821
:10566000DFF84C1A0988C90500D54008DFF8A81AE8
:10567000086005E0DFF8A00ADFF89C1B09680160FC
:10568000704780B5C0B200281ED0022825D01FD395
:1056900004282BD025D306282ED02AD3082831D091
:1056A0002DD30A2834D030D30C2837D033D30E284A
:1056B0003AD036D310283DD039D3122840D03CD32D
:1056C000142843D03FD343E000224FF400613FE071
:1056D0004FF400624FF400613AE000224FF4807111
:1056E00036E04FF480724FF4807131E00022F021F7
:1056F0002EE01022F0212BE02022F02128E03022A1
:10570000F02125E04022F02122E05022F0211FE08C
:105710006022F0211CE07022F02119E08022F021AB
:1057200016E09022F02113E0A022F02110E0B02238
:10573000F0210DE0C022F0210AE00022032107E061
:105740000122032104E00222032101E003220321BC
:1057500072B6DFF8BC09008888431043DFF8B0193F
:10576000088062B6FFF73EFF01BDC0B2002805D039
:1057700002280DD007D303280ED010E04FF40061AB
:105780000B2200230BE04FF480710822022306E075
:10579000F0210422042302E0032100221123DFF878
:1057A0007009008880B289B2084010411818C0B250
:1057B000704710B50400DFF860090068002804D0C5
:1057C000DFF850090068002800D1FEE7FFF70AFF64
:1057D000E4B2002C012C06D9A41E052C1ED9A41F4E
:1057E000072C25D92EE0DFF8C80BDFF8C018098890
:1057F00089B211F03F01012901D101210BE0DFF84D
:10580000AC18098889B211F03F01DFF8A02812888E
:10581000120600D58908B0FBF1F010BDDFF8F808DA
:105820000068DFF888180988C1F3052189B2F2E71A
:10583000DFF8E4080068DFF87418098889B211F00D
:105840003F01E8E740F20230E7E7C0B200280BD0A2
:1058500002281AD017D304281BD018D306281CD02E
:1058600019D307281BD01CE04FF4807072B6C9B260
:10587000002919D0DFF84018098831EA0000DFF864
:105880003818088017E08020F0E72020EEE710208D
:10589000ECE70820EAE70420E8E70220E6E7012039
:1058A000E4E740F2023008E0DFF80C18098808430A
:1058B000DFF80418088062B60020704780B5C02267
:1058C000114202D040F2013020E0C0B2002801288D
:1058D00006D9801E05281AD9801F072835D950E01F
:1058E000FE20014202D040F201300FE08020C9B218
:1058F000C90172B6DFF8B427128882430A43DFF881
:10590000AC07028062B6FFF76DFE002002BDC9B28F
:105910000A00DFF89807008810F03F0092B280B2CA
:10592000824202D240F20530F0E792B280B292FB9E
:10593000F0F300FB1320002802D04FF44170E5E79C
:105940004FF47C50C9B20902D3E7DFF86007008842
:10595000C0F30522C9B2080092B280B2824202D2DC
:1059600040F20530D2E792B280B292FBF0F300FB36
:105970001320002802D04FF44170C7E73F20C9B27E
:10598000B7E740F20230C1E738B5C0B2002809D00D
:10599000022820D016D304282FD025D3062836D0AD
:1059A00030D307E00824DFF86457DFF8FC264CF614
:1059B0001433138072B6C9B2002942D02A88224318
:1059C0002A8041E00424DFF84457DFF8DC264CF657
:1059D00014331380EEE70224DFF83057DFF8C826CF
:1059E0004CF614331380E5E70124DFF82057DFF885
:1059F000B8264CF614331380DCE74FF40074DFF85C
:105A0000B056D7E74FF40074DFF8A856D2E700226B
:105A10004FF40061DFF89C0901F06DFA002802D014
:105A200040F211302EE001224FF40061DFF88409CA
:105A300001F036FA002802D040F2113022E00020B6
:105A400020E02A88A2432A8062B6C0B2012818D179
:105A5000C9B2002915D1092000F0CEFA0021009129
:105A600002E00099491C009100998142F9D372B675
:105A7000DFF834064CF6143101802888A0432880D2
:105A800062B6002032BD2DE9F04104000D00002671
:105A90002000C0B200F07BF902284FD0E4B2052C00
:105AA00027D172B6DFF80C06008810F03F074FF6DA
:105AB000C071084050F03F0050F40070DFF8F4155A
:105AC000088062B6222000F097FA804601E0B8F123
:105AD0000108B8F1000FFAD172B6DFF8D8050088D6
:105AE0004FF6C07108403843DFF8C815088062B629
:105AF00004E001212000C0B2FFF746FFEDB2002D07
:105B00001CD0EDB2012D02D143F6992801E0EDB28F
:105B1000A846404600F070FA804601E0B8F101085E
:105B2000B8F1000F05D02000C0B200F030F9022813
:105B3000F4D1B8F1000F01D14FF44276300000B239
:105B4000BDE8F08138B504000025E4B2002C0BD08C
:105B5000022C26D075D3042C69D0C0F0C380062C4B
:105B600000F009816CD30FE10320FFF7FEFD12283E
:105B700002D140F2093013E00020FFF7F6FD0128C2
:105B800007D10320FFF7F1FD132802D140F20A30BC
:105B900006E000212000C0B2FFF7F6FE280000B2A8
:105BA00032BD0320FFF7E1FD112802D140F2093098
:105BB000F6E70020FFF7D9FD002807D10320FFF703
:105BC000D4FD132802D140F20A30E9E7DFF8E807F4
:105BD000008880B210F06000202807D1DFF8D807D5
:105BE0000088C00602D540F20B30D9E7DFF8CC07B9
:105BF000008880B210F06000202807D1DFF8BC07D1
:105C00000088C00602D540F20B30C9E7DFF8B007C4
:105C1000008880B210F06000202807D1DFF8A007CC
:105C20000088C00602D540F20B30B9E7B1E7032087
:105C3000FFF79BFD132802D140F20930B0E7A8E737
:105C4000A7E70120FFF791FD032806D100F0ABF98B
:105C5000002802D040F20E30A2E7DFF868070068A3
:105C6000C00702D540F20D309AE7DFF85C070088E4
:105C700080B210F4D060B0F5207F02D14FF44370B1
:105C80008EE7DFF83407008880B210F060006028EB
:105C900007D1DFF824070088C00602D540F20B3098
:105CA0007EE7DFF81807008880B210F060006028F7
:105CB00007D1DFF808070088C00602D540F20B3094
:105CC0006EE7DFF8FC06008880B210F06000602804
:105CD00007D1DFF8EC060088C00602D540F20B3091
:105CE0005EE756E70120FFF740FD022806D100F0ED
:105CF0005AF9002802D040F20E3051E7DFF8C8060A
:105D0000008880B210F4D060B0F5906F02D14FF4EB
:105D1000437045E7DFF8A006008880B210F060000D
:105D2000402807D1DFF890060088C00602D540F26F
:105D30000B3035E7DFF88406008880B210F0600091
:105D4000402807D1DFF874060088C00602D540F26B
:105D50000B3025E7DFF86806008880B210F060009D
:105D6000402807D1DFF858060088C00602D540F267
:105D70000B3015E70DE70320FFF7F7FC142802D1DD
:105D800040F209300CE704E740F2023008E710B5B2
:105D90000024DFF878130988C0B2002819D002283F
:105DA00007D01ED3042832D00BD3062821D03BD3F2
:105DB00047E0880704D5880501D5022400E00124C6
:105DC00040E0C80704D5C80501D5022400E001243D
:105DD00038E0080704D5080501D5022400E00124B5
:105DE00030E0480704D5480501D5022400E001242D
:105DF00028E0DFF8C00501F0A9F8000506D4DFF8B7
:105E0000B40501F0B6F8000500D402241AE0A84851
:105E10000088800507D5DFF8B4050088C00701D5E4
:105E2000022400E001240DE0A2480088800507D587
:105E3000DFF898050088C00601D5022400E001249F
:105E400000E003242000C0B210BD70B50C001500A6
:105E50001E00C0B2042802D005281AD024E0032076
:105E6000FFF783FC132802D14FF4447010E09048F0
:105E700040F2FF1336B2E4B254EA0601EDB255EA3D
:105E8000010272B6018899431143018062B6002075
:105E900070BD884840F2FF1336B2E4B254EA0601FE
:105EA000EDB255EA0102ECE740F20230F0E770B4DF
:105EB00000230024F8252A4202D040F207305DE09A
:105EC000002903D153F00203DFF80415C0B2002803
:105ED00005D0022805D004D303282BD02DE00020C4
:105EE0004CE054F0040472B6DFF8E85444F6590666
:105EF0002E80DFF8E0544FF27B262E80DFF8D85456
:105F00002D884FF6FC763540C0B22843DFF8C854E0
:105F10002880DFF8C80400689BB21843A4B2A043ED
:105F2000DFF8B8341860EFF31180D2B2520182F377
:105F3000118810E053F00403D5E740F206301DE06D
:105F4000DFF89C2412880E231A42F9D1BFF34F8F39
:105F500030BF62B672B60A78002AF1D000220A7009
:105F600080F31188DFF87404006830F00200DFF875
:105F70006C140860BFF34F8F62B6002070BC70478E
:105F800000280DD1DFF8480472B6DFF85014096814
:105F900031F00201DFF844241160BFF34F8F62B685
:105FA000012101707047DFF83C040068000106D54C
:105FB000DFF834040068C00701D5012015E0DFF8E0
:105FC0002C040088C00501D501200EE0DFF8200474
:105FD0000088800601D5012007E0DFF8180400885A
:105FE000C00701D5012000E00020704708ED00E067
:105FF0000000000024ED00E010B504000920FFF7C8
:10600000D8FB000D002801D04443FFE7200010BD5D
:1060100038B5040000200025DFF8DC1309780029DA
:106020000BD100F04BF8010009B2002901D000B2F9
:1060300038E0DFF8C41301220A70002100E0491D96
:10604000192908D2DFF8B42312F83120DFF8A83379
:106050001B789A42F3D10A0000E0491C531D994273
:106060000BDADFF8983313EBC1035B78E4B2A34299
:10607000F3D1DFF8882312EBC105002D0FD0A978EA
:1060800000290CD06968002901D06868804700B2F7
:10609000002806D1A978DFF86023117001E040F2F2
:1060A000133000B232BD00000C24004004800240D6
:1060B0000C800240108002401480024038B5002459
:1060C000CF4D01210220FFF7DEFC040000B20028C2
:1060D00002D0200000B217E01120FFF7D2FA002111
:1060E000280000F047F900210120FFF7E7FB052019
:1060F000FFF728FD0420FFF725FD0020FFF722FD14
:10610000FFF770FA200000B232BD000010240040FA
:10611000008002407C070020800700200024F4005B
:1061200038B50025B74C0020FFF71FFB012805D12B
:1061300001210020FFF7A7FC050004E00121022057
:10614000FFF7A1FC05002DB2002D02D0280000B2FF
:1061500060E00320FFF709FB132826D1AA48008836
:1061600080B210F0C00080280BD1A748008880B210
:1061700010F03F00102804D1A348008880B2C00569
:106180001AD40020FFF7F1FA012803D11220FFF7FB
:1061900078FA02E01120FFF774FA4FF480731022AE
:1061A00080210420FFF751FE06E04FF48073102297
