:1000000000400020E1680000216900002369000031
:100010002569000027690000296900007F69000048
:100020007F6900007F6900007F6900002B69000084
:100030002D6900007F6900002F6900003169000010
:1000400033690000FF2F00000B3000001730000064
:10005000233000002F3000003B300000473000000C
:10006000533000005F300000EF650000D96C0000E5
:10007000E36C000035690000F73C000037690000C0
:10008000396900003B6900003D6900003F690000DC
:1000900041690000436900004569000047690000AC
:1000A000496900004B6900004D6900004F6900007C
:1000B0005169000053690000556900000D180000E7
:1000C0003518000057690000596900005B6900009D
:1000D0005D6900005F6900006169000063690000FC
:1000E000ED6C000065690000676900006969000047
:1000F0007F6900006B6900006D6900006B300000D3
:10010000773000007F6900006F69000071690000AE
:10011000971600006D170000C74A000073690000C1
:100120007569000077690000796900007B6900004B
:040130007D690000E5
:10080000012110F01F02914040B24209DFF8443A42
:1008100043F822107047012110F01F02914040B2AE
:100820004209DFF8343A43F82210704738B5040023
:10083000200000F003FD002802D041F201502AE020
:10084000200000F011FD002802D041F2025022E009
:10085000DFF8080A0088000602D541F204501AE0C9
:100860000D2001F009FADFF8F819884202D041F2B0
:10087000055010E072B66078002802D04FF4006591
:1008800000E0002555F00805E06880682843E1682D
:10089000886062B6002032BD10B50400200000F070
:1008A000CDFC002802D041F2015023E0200000F0EE
:1008B000DBFC002802D041F202501BE0DFF89C096B
:1008C0000088000602D541F2045013E00D2001F02B
:1008D000D3F9DFF85C1A884202D041F2055009E0F2
:1008E00072B6E0688068DFF87C190840E1688860CB
:1008F00062B6002010BD38B504000D00200000F0E5
:100900009DFC002802D041F201501CE0200000F0C4
:10091000ABFC002802D041F2025014E0DFF83C09A1
:100920000088000602D541F204500CE00D2001F0D1
:10093000A3F9DFF82C19884202D041F2055002E0F9
:10094000E068C560002032BDF8B504000D00160057
:100950000027200000F072FC002802D041F2015074
:1009600027E0200000F080FC002802D041F2025075
:100970001FE0DFF8E8080088000602D541F20450C5
:1009800017E00D2001F078F9DFF8D418884202D082
:1009900041F205500DE072B6DFF8000AE168C1F8D7
:1009A00000012E600020E168C1F8000162B6380045
:1009B00000B2F2BDF8B504000D00160000272000BB
:1009C00000F03CFC002802D041F201501FE0200062
:1009D00000F04AFC002802D041F2025017E0DFF894
:1009E0007C080088000602D541F204500FE00D207B
:1009F00001F042F9DFF86818884202D041F2055050
:100A000005E072B62868306062B6380000B2F2BD08
:100A1000F8B504000025666BA76B200000F00EFC03
:100A2000002802D041F2015044E0DFF8300800888D
:100A3000000602D541F204503CE00B20307000204B
:100A400070700220B070E0687030F0600220307486
:100A5000032070740020B0740020F0740120307501
:100A60000C203870002078700120B870E0686C307D
:100A7000B86001207874032038740020B874002016
:100A8000F8740120387500210B2001F069FF00285F
:100A900002D041F20B5005002DB2002D08D10021EB
:100AA0000C2001F05DFF002802D041F20B50050040
:100AB000280000B2F2BD70B504000025200000F04F
:100AC000BDFB002802D041F201502BE0200000F0D5
:100AD000CBFB002802D041F2025023E0DFF87C0774
:100AE0000088000602D541F204501BE00D2001F001
:100AF000C3F8DFF86C17884202D041F2055011E0CC
:100B000072B66078002802D04FF4805600E00026CC
:100B100056F01006E06880683043E168886062B68D
:100B2000280000B270BD38B504000025200000F098
:100B300085FB002802D041F2015024E0200000F0A3
:100B400093FB002802D041F202501CE0DFF80C07B2
:100B50000088000602D541F2045014E00D2001F097
:100B60008BF8DFF8FC16884202D041F205500AE00B
:100B700072B6E0688068DFF85C190840E168886058
:100B800062B6280000B232BD10B50400200000F0AB
:100B900055FB002802D041F201501DE0200000F07A
:100BA00063FB002802D041F2025015E0DFF8AC06EA
:100BB0000088000602D541F204500DE00B2001F040
:100BC0007BFF002804D10C2001F076FF002802D022
:100BD00041F20B5000E0002010BD2DE9F04104006F
:100BE0000D0016000027D4F83480200000F026FB0A
:100BF000002802D041F201502AE0200000F034FB2E
:100C0000002802D041F2025022E0DFF850060088AE
:100C1000000602D541F204501AE00D2001F02CF834
:100C2000DFF83C16884202D041F2055010E0C8F8C7
:100C30000850C8F80460404601F077FF002802D051
:100C400041F20B500700002084F83C00380000B24D
:100C5000BDE8F0812DE9F04104000D0016000027E9
:100C6000D4F83880200000F0E9FA002802D041F2E0
:100C700001502CE0200000F0F7FA002802D041F2E9
:100C8000025024E0DFF8D4050088000602D541F2C6
:100C900004501CE00D2000F0EFFFDFF8C41588427F
:100CA00002D041F2055012E0C8F80C50C8F80460B8
:100CB000404601F03AFF002802D041F20B500700F5
:100CC000002084F83D00A4F84460380000B2BDE87C
:100CD000F08130B40B0000242200D2B2202A16DAB0
:100CE0001C0E14F08004057815F0800595EA040FB9
:100CF00007D0047864000470047894F0070404704A
:100D000002E00478640004705B00521CE5E730BC2C
:100D1000704770B582B004000D0001208DF800000E
:100D200000200600AE4206D254F8261000A8FFF7B5
:100D3000D0FF761CF6E79DF8000076BD38B50400BC
:100D40000D00200000F07AFA002802D041F2015094
:100D50001CE0200000F088FA002802D041F2025086
:100D600014E0DFF8F8040088000602D541F20450D0
:100D70000CE00D2000F080FFDFF8E414884202D080
:100D800041F2055002E0E0792870002032BD38B50C
:100D900004000D00200000F051FA002802D041F2BA
:100DA000015025E0200000F05FFA002802D041F257
:100DB00002501DE0DFF8A4040088000602D541F2CD
:100DC000045015E00D2000F057FFDFF8941488421E
:100DD00002D041F205500BE06078002803D094F86F
:100DE0003D00002801D0012000E0002028700020F4
:100DF00032BD2DE9F04104000D0016001F005FF028
:100E00000008200000F01AFA002802D041F2015038
:100E100069E0200000F028FA002802D041F20250D8
:100E200061E0DFF838040088000602D541F2045082
:100E300059E00D2000F020FFDFF82414884202D092
:100E400041F205504FE0002F21D001206070266450
:100E5000B4F84800B84208D33A0031002000FFF748
:100E6000F9FE0020A4F846000DE0B4F84820310057
:100E70002000FFF7EFFEB4F84800381AA4F8460047
:100E80000020A4F84C002020FFF7BAFC04E000206A
:100E90006070012084F83D002868020C291D2000A4
:100EA000FFF79BFE1F20FFF7ABFC0020A071002086
:100EB000E0710020A0800020E16848662000FFF774
:100EC000B5FC2000FFF7F7FD72B689220321200050
:100ED00000F0A4FB012389220321200000F035FB50
:100EE00062B6404600B2BDE8F08138B50400002586
:100EF000200000F0A3F9002802D041F2015022E0C6
:100F0000200000F0B1F9002802D041F202501AE0AE
:100F1000D2480088000602D541F2045013E00D20AB
:100F200000F0AAFEDFF8101A884202D041F2055004
:100F300009E072B6E068406850F00100E16848607E
:100F400062B6280000B232BD38B50400002520008A
:100F500000F074F9002802D041F201502FE0200087
:100F600000F082F9002802D041F2025027E0BB488D
:100F70000088000602D541F2045020E00D2000F068
:100F80007BFEDFF8AC13884202D041F2055016E038
:100F9000E0684068C00702D541F20F5005002DB24D
:100FA000002D03D12000FFF777FC05002DB2002DA6
:100FB00003D12000FFF7B7FD0500280000B232BDC5
:100FC00038B504000025200000F038F9002802D0D0
:100FD00041F2015029E0200000F046F9002802D03B
:100FE00041F2025021E09D480088000602D541F2FE
:100FF00004501AE00D2000F03FFE9949884202D0CB
:1010000041F2055011E0E068406840084000E168A6
:1010100048602000FFF787FDE0680068DFF81C19D2
:101020000840E1680860280000B232BDF8B504004D
:101030000D000026200000F001F9002802D041F246
:10104000015034E0200000F00FF9002802D041F2F6
:1010500002502CE081480088000602D541F204507D
:1010600025E00D2000F008FEDFF8CC18884202D001
:1010700041F205501BE0207A002806D02868010CB8
:10108000281DFFF746FE070001E028680700E0681A
:10109000006EFFB2B84205D1E068406E2968B0EB3F
:1010A000114F02D041F2105001E0300000B2F2BD09
:1010B0002DE9F04182B080460C0015001E0000278B
:1010C000404600F0BBF8002802D041F20150AEE0EB
:1010D000404600F0C9F8002802D041F20250A6E0D4
:1010E0005E480088000602D541F204509FE00D20C2
:1010F00000F0C2FDDFF84018884202D041F20550EE
:1011000095E033002A0021004046FFF772FE0700F9
:1011100000B2002805D04046FFF752FF380000B269
:1011200085E0012088F8020098F80600002803D125
:10113000B8F904000028F7D0B8F90400002805D059
:101140004046FFF73DFFB8F9040070E0022088F840
:1011500002004046FFF7C9FE070000B2002805D094
:101160004046FFF72DFF380000B260E0032088F80A
:101170000200002088F81800002218F11801012050
:1011800001F028F972B600208DF8000000A9404651
:10119000FFF7FDFD07003FB2002F08D19DF80000CA
:1011A000002804D000A94046FFF7C8FD07003FB261
:1011B000002F06D19DF80000002802D1002088F8F9
:1011C000180062B63FB2002F07D19DF8000000283A
:1011D00003D1B8F904000028CED0042088F802001A
:1011E000B8F90400002805D04046FFF7E9FEB8F939
:1011F00004001CE04046FFF7A7FE070000B20028ED
:1012000005D04046FFF7DCFE380000B20FE00020BA
:1012100088F8020021004046FFF708FF070000B2EF
:10122000002802D0380000B201E0380000B2BDE86A
:10123000F68102000020117200B270470100DFF851
:1012400000070068884202D041F2015000E000200F
:101250007047000000E100E080E100E014800240FF
:101260000024F400F7F7FFFF01000878002802D1FE
:1012700041F2025000E00020704738B504000D0034
:101280002000FFF7DBFF002802D041F2015009E007
:101290002000FFF7E9FF002802D041F2025001E0F0
:1012A0002561002032BD38B504000D002000FFF795
:1012B000C5FF002802D041F201500AE02000FFF7EC
:1012C000D3FF002802D041F2025002E020692860DA
:1012D000002032BD38B504000D002000FFF7AEFF3E
:1012E000002802D041F2015009E02000FFF7BCFFC6
:1012F000002802D041F2025001E06561002032BDB9
:1013000038B504000D002000FFF798FF002802D038
:1013100041F201500AE02000FFF7A6FF002802D0AA
:1013200041F2025002E060692860002032BD0000F6
:101330000024F400F8B504000F001500002620007A
:10134000FFF77CFF002802D041F2015025E0200089
:10135000FFF78AFF002802D041F202501DE0DFF8BB
:10136000E4050088000602D541F2045015E00D2086
:1013700000F082FCDFF8C015884202D041F205502F
:101380000BE03800002805D0206A002802D041F286
:101390000D5002E02762300000B2F2BDAFA587DE3B
:1013A00070B504000D0016002000FFF747FF00286D
:1013B00002D041F201502FE02000FFF755FF002836
:1013C00002D041F2025027E0DFF8780500880006DD
:1013D00002D541F204501FE00D2000F04DFCDFF873
:1013E0005815884202D041F2055015E0ADB2B5F56E
:1013F000806F03DCB6B2B6F5806F02DD41F21250A9
:101400000AE0ADB2002D02D141F2125004E0A4F87E
:101410004850A4F84A60002070BD70B50400002058
:101420002060DFF81C05006806003000FFF71CFF95
:10143000002802D141F203504AE04FF47A70306143
:1014400041F64C507061DFF80005F0600121012089
:1014500000F067FC3220FFF7D3F93320FFF7D0F913
:101460003420FFF7CDF93520FFF7CAF9DFF8DC04A7
:101470007063DFF8DC04B0634FF48060A6F84800C6
:101480000020A6F84A000020A6F84600002030649C
:101490000020A6F84400002030720020B070002028
:1014A000F06100203062002070620020F0620020B5
:1014B00030763000FFF7ACFA050000B2002802D009
:1014C000280000B204E0012030702660280000B23D
:1014D00070BD0000EFEFFFFF38B5040000252000CD
:1014E000FFF7ACFE002802D041F201502CE02000B2
:1014F000FFF7BAFE002802D041F2025024E0322069
:10150000FFF789F93320FFF786F93420FFF783F9D5
:101510003520FFF780F9002060630020A0632000E1
:10152000FFF732FB0020A0700020E0610020206265
:10153000002060620020E062002020700021012075
:1015400000F0EFFB280000B232BD2DE9F0470400A7
:101550000D0016001F005FF000082000FFF76EFE70
:10156000002802D041F2015056E02000FFF77CFE37
:10157000002802D041F202504EE0DFF8C803008894
:10158000000602D541F2045046E00D2000F074FB45
:10159000DFF8A413884202D041F205503CE0EDB2DE
:1015A000012D06D01CD3032D0FD008D3042D12D04B
:1015B00016E0DFF8A00381463220824610E0DFF813
:1015C00098038146332082460AE0DFF89003814683
:1015D0003420824604E0DFF88803814635208246C5
:1015E000FFB2002F09D0D9F800003043C9F800003D
:1015F000504640B2FFF704F90CE0D9F80000B043C0
:10160000C9F80000D9F80000002803D1504640B2C4
:10161000FFF701F9404600B2BDE8F087F8B50400D5
:101620000D00160000272000FFF708FE002802D05A
:1016300041F201502EE02000FFF716FE002802D0F4
:1016400041F2025026E0BF480088000602D541F270
:1016500004501FE00D2000F00FFBB749884202D074
:1016600041F2055016E0EDB2012D06D010D3032D46
:1016700009D005D3042D09D00AE0BA48066007E076
:10168000B948066004E0B948066001E0B848066061
:10169000380000B2F2BD2DE9F041A94804680027E6
:1016A0005FF00008E068D0F8A8000500E068D0F816
:1016B0009400060015F0010016F00101C0B20842C6
:1016C00003D057F001070120E071A80703D5B00748
:1016D00001D557F00207680703D5700701D557F009
:1016E0000407280705D5300703D558F0080801205E
:1016F000A071E80603D5F00601D558F01008A80639
:1017000003D5B00601D558F02008680606D5700646
:1017100004D557F0400741F20850A080280606D5AE
:10172000300604D557F0800741F20750A08014F12D
:10173000180000F0BCFE606A00280AD058EA0700D2
:10174000A16A084205D0002258EA07012000636A16
:1017500098470023424603212000FFF7F6FE3A0097
:1017600003212000FFF75AFFBDE8F0812DE9F04189
:101770007348046800275FF00008E068D0F8AC0008
:101780000500E068D0F89800060015F0010016F09A
:101790000101C0B2084201D058F00108A80703D5E2
:1017A000B00701D558F00208680703D5700701D5C6
:1017B00058F00408280706D5300704D557F0080765
:1017C00041F20A50A080E80606D5F00604D557F08D
:1017D000100741F20950A080E06A002809D058EAB9
:1017E0000700216B084204D0002200212000E36A98
:1017F00098470023424604212000FFF7A6FE3A0046
:1018000004212000FFF70AFFBDE8F08110B54C4825
:1018100004681F20FEF7FFFF012084F83C00012030
:10182000A071E069002804D0002200212000E369B3
:10183000984710BDF8B542480468B4F84400060063
:10184000B4F84600002856D0B4F84C00002823D045
:10185000B4F84800216C11EB40000500206C4549AC
:101860000860B4F84800B4F84610884206D3B4F8CB
:10187000460007000020A4F8460009E0B4F848003C
:101880000700B4F84600B4F84810401AA4F846001F
:101890000020A4F84C0023E0206C0500B4F84800B8
:1018A000216C11EB400033490860B4F84A00B4F8E9
:1018B0004610884206D3B4F8460007000020A4F87A
:1018C000460009E0B4F84A000700B4F84600B4F84E
:1018D0004A10401AA4F84600B4F84A00A4F84C0094
:1018E000BFB23A00234801682000FFF7B3F9012096
:1018F0002149087012E020480078002803D01D48D4
:101900000068050001E0206C05002020FEF783FF41
:10191000012084F83D0000201749087014F11800D8
:1019200000F0C5FD206A002805D02A00B6B23100BB
:101930002000236A9847F1BD0024F400FF1EFEFF3B
:101940003C7100001480024000000840EC060020BA
:10195000040700208C0008409000084094000840D4
:1019600098000840A0000840A4000840A8000840D3
:10197000AC0008403C0700205607002080B572B636
:10198000DFF8540BDFF8541B08605FF4E020DFF849
:10199000501B0860BFF36F8FBFF34F8F62B64CF6DA
:1019A0001430DFF8881B0880DFF8600C008850F0E6
:1019B0000300DFF8581C0880DFF8500C0088800511
:1019C000FAD5DFF86C0B00884FF6FC710840DFF8A1
:1019D000601B08800020DFF8581B088041F21000CF
:1019E000DFF8501B08808820DFF84C1B08808F2010
:1019F000DFF8481B08804FF4C070DFF8441B0880F4
:101A0000012000F065F84CF61430DFF8201B088048
:101A1000DFF8F80B00884FF6F7710840DFF8EC1B91
:101A2000088000F001F801BD4FF40042DFF8143BDC
:101A30001A60DFF8FC2A128892B212F00302D2B2C6
:101A4000002A05D0022A0FD008D3032A39D03EE05D
:101A5000DFF8BC2BDFF8BC3B1A6038E0DFF8B02BB6
:101A6000DFF8B03B1A6032E0DFF8C42A12881205B2
:101A700003D5DFF89C2B100002E0DFF8942B100058
:101A8000DFF8B42A128892B212F03F0211004843E4
:101A9000DFF8A42A128892B212F0C00211000A00E4
:101AA000402A03D0802A02D1800800E04008DFF8F5
:101AB000882A1288D20500D54008DFF8582B10601C
:101AC00005E0DFF8542B1268DFF8483B1A607047D6
:101AD000F8B50400E4B2002C1ED0022C29D021D38A
:101AE000042C33D02BD3062C3AD034D3082C41D03D
:101AF0003BD30A2C48D042D30C2C4FD049D30E2CC8
:101B000056D050D3102C5DD057D3122C64D05ED356
:101B1000142C6BD065D36DE0002006004FF40060FC
:101B2000050067E04FF4006006004FF40060050018
:101B300060E0002006004FF4807005005AE04FF48A
:101B4000807006004FF48070050053E0002006000E
:101B5000F02005004EE010200600F020050049E0CE
:101B600020200600F020050044E030200600F02090
:101B700005003FE040200600F02005003AE050203C
:101B80000600F020050035E060200600F02005008A
:101B900030E070200600F02005002BE080200600D9
:101BA000F020050026E090200600F020050021E04E
:101BB000A0200600F02005001CE0B0200600F02068
:101BC000050017E0C0200600F020050012E000200C
:101BD0000600032005000DE001200600032005009B
:101BE00008E0022006000320050003E003200600B1
:101BF0000320050072B6DFF8380900880700AF43FC
:101C00003743DFF82C09078062B6FFF70DFFF1BDFF
:101C100030B40100C9B2002905D0022913D00AD37B
:101C2000032917D01CE04FF400652A000B252B0078
:101C300000252C0014E04FF480752A0008252B00A5
:101C400002252C000CE0F0252A0004252B00042599
:101C50002C0005E003252A0000252B0011252C006F
:101C6000DFF8CC582D88ADB292B215401D41280046
:101C70002018C0B230BC704770B50400DFF894097A
:101C80000068002804D0DFF8BC080068002800D1F4
:101C9000FEE7FFF7C9FEE4B220000028012806D9BC
:101CA000801E05281FD9801F072828D933E0DFF8B8
:101CB000C40B0500DFF87C08008880B210F03F00FC
:101CC000012802D1012006000CE0DFF86808008836
:101CD00080B210F03F000600DFF8580800880006C8
:101CE00000D5B6081AE0DFF82C0900680500DFF817
:101CF00044080088C0F3052080B206000EE0DFF83B
:101D0000140900680500DFF82C08008880B210F084
:101D10003F00060002E040F2023001E0B5FBF6F0C1
:101D200070BD10B40200D2B2002A0BD0022A10D02B
:101D30000CD3042A13D00FD3062A16D012D3072AA5
:101D400016D018E04FF48070030017E080200300E5
:101D500014E02020030011E0102003000EE0082012
:101D600003000BE00420030008E00220030005E06C
:101D70000120030002E040F2023014E072B6C9B262
:101D8000002907D0DFF8B80700889843DFF8B0478C
:101D9000208006E0DFF8A80700881843DFF8A04796
:101DA000208062B6002010BC70472DE9F047050086
:101DB0000E00C0210E4202D040F201306FE0EDB2C1
:101DC00028000028012806D9801E05280FD9801F69
:101DD00007282FD94FE0FE210E4202D040F20130F9
:101DE0005DE080200700F6B2F001804646E0F6B2E2
:101DF000B246DFF84007008810F03F0004001FFAE9
:101E00008AFAA4B2A24502D240F2053047E01FFA96
:101E10008AFAA4B29AFBF4F004FB10A0002802D0C6
:101E20004FF441703BE04FF47C500700F6B23002B3
:101E3000804623E0DFF8FC060088C0F305208246D8
:101E4000F6B234001FFA8AFAA4B2A24502D240F2D6
:101E5000053024E01FFA8AFAA4B29AFBF4F004FBDE
:101E600010A0002802D04FF4417018E03F20070076
:101E7000F6B2B04602E040F2023010E072B6DFF88F
:101E8000B4060088814639EA070958EA0909DFF8EB
:101E9000A406A0F8009062B6FFF7C6FD0020BDE8DA
:101EA000F0872DE9F04182B004000D00E4B2002C6F
:101EB00009D0022C1DD011D3042C30D024D3062CF1
:101EC0003BD033D353E008200600DFF8400707007B
:101ED0004CF61430DFF85416088048E00420060061
:101EE000DFF8280707004CF61430DFF840160880AA
:101EF0003DE002200600DFF8140707004CF614301E
:101F0000DFF82816088032E001200600DFF8FC0622
:101F100007004CF61430DFF81416088027E04FF461
:101F200000700600DFF81006070020E04FF4007094
:101F30000600DFF80806070019E000224FF40061F0
:101F4000DFF8B80900F0C5FF002802D040F21130D8
:101F500037E001224FF40061DFF8A00900F08DFFA7
:101F6000002802D040F211302BE0002029E072B6A8
:101F7000EDB2002D03D038883043388002E0388835
:101F8000B043388062B6E4B2012C19D1EDB2002D15
:101F900016D1092000F0D8FA804600200090009861
:101FA000404503D20098401C0090F8E772B64CF60A
:101FB0001430DFF8781508803888B043388062B66E
:101FC0000020BDE8F681F8B504000D0000262000D1
:101FD000C0B200F051F9022823D001212000C0B284
:101FE000FFF75FFFEDB2002D1BD0EDB2012D03D145
:101FF00043F69920070001E0EDB22F00380000F011
:10200000A3FA0700002F07D02000C0B200F034F977
:10201000022801D07F1EF5E7002F02D14FF4427055
:102020000600300000B2F2BD70B504000025E4B235
:10203000002C0BD0022C1FD06ED3042C62D0C0F029
:10204000BD80062C00F0048165D30AE10320FFF770
:10205000DFFD122802D140F209300CE10020FFF729
:10206000D7FD012807D10320FFF7D2FD132802D1A5
:1020700040F20A30FFE0F7E00320FFF7C9FD112826
:1020800002D140F20930F6E00020FFF7C1FD002840
:1020900007D10320FFF7BCFD132802D140F20A301C
:1020A000E9E0DFF85C08008880B210F060002028CA
:1020B00007D1DFF84C080088C00602D540F20B308B
:1020C000D9E0DFF84008008880B210F060002028D6
:1020D00007D1DFF830080088C00602D540F20B3087
:1020E000C9E0DFF82408008880B210F060002028E2
:1020F00007D1DFF814080088C00602D540F20B3083
:10210000B9E0B1E00320FFF783FD132802D140F2CC
:102110000930B0E0A8E0A7E00120FFF779FD03282F
:1021200006D100F0DFF9002802D040F20E30A2E024
:10213000DFF8D8070068C00702D540F20D309AE0FA
:10214000DFF8CC07008880B2060016F4D060B0F546
:10215000207F02D14FF443708DE0DFF8A4070088A0
:1021600080B210F06000602807D1DFF89407008883
:10217000C00602D540F20B307DE0DFF8880700880A
:1021800080B210F06000602807D1DFF8780700887F
:10219000C00602D540F20B306DE0DFF86C07008816
:1021A00080B210F06000602807D1DFF85C0700887B
:1021B000C00602D540F20B305DE055E00120FFF78C
:1021C00027FD022806D100F08DF9002802D040F248
:1021D0000E3050E0DFF83807008880B2060016F4B1
:1021E000D060B0F5906F02D14FF4437043E0DFF858
:1021F0001007008880B210F06000402807D1DFF897
:1022000000070088C00602D540F20B3033E0DFF84B
:10221000F406008880B210F06000402807D1DFF893
:10222000E4060088C00602D540F20B3023E0DFF858
:10223000D806008880B210F06000402807D1DFF88F
:10224000C8060088C00602D540F20B3013E00BE050
:102250000320FFF7DDFC142802D140F209300AE028
:1022600002E040F2023006E000212000C0B2FFF799
:1022700018FE280000B270BD70B504000025DFF81C
:102280008C0300880600E4B2002C1DD0022C07D07D
:1022900024D3042C3BD00DD3062C29D046D354E0B4
:1022A000B00706D5B00502D50220050001E00120E7
:1022B00005004CE0F00706D5F00502D50220050028
:1022C00001E00120050042E0300706D5300502D5C7
:1022D0000220050001E00120050038E0700706D566
:1022E000700502D50220050001E0012005002EE066
:1022F000DFF8080600F019FE000507D4DFF8FC053A
:1023000000F028FE000501D4022005001FE08A48E5
:102310000088800509D5DFF8FC050088C00702D5D4
:102320000220050001E00120050010E0834800883C
:10233000800509D5DFF8DC050088C00602D502203B
:10234000050001E00120050001E003200500280050
:10235000C0B270BD2DE9F84F83460C0015001E0079
:102360005FFA8BFB5846042802D0052815D021E0DF
:102370000320FFF74DFC132802D14FF4447027E0EF
:102380006D48070040F2FF10824636B2E4B254EACC
:102390000600EDB2284381460FE06848070040F28E
:1023A000FF10824636B2E4B254EA0600EDB228438A
:1023B000814602E040F202300AE072B63888804678
:1023C00038EA0A0859EA0808A7F8008062B600202F
:1023D000BDE8F28FF0B4030000260025F820024289
:1023E00002D040F2073060E0002904D156F0020626
:1023F000DFF824050100DBB2002B05D0022B05D04D
:1024000004D3032B05D007E000204EE055F004056F
:1024100005E056F0040602E040F2063045E072B6F0
:1024200044F65900DFF8F47438804FF27B20DFF86F
:10243000EC743880DFF8E80400884FF6FC77384009
:10244000DBB21843DFF8D8743880DFF8D8040068AE
:10245000B6B23043ADB2A843DFF8C8743860EFF3CA
:1024600011800400D2B2500180F31188087800284E
:102470000BD1DFF8B40400880E273842F9D1BFF33E
:102480004F8F30BF62B672B6F0E70020087084F359
:102490001188DFF89004006830F00200DFF88474DF
:1024A0003860BFF34F8F62B60020F0BC7047002841
:1024B0000ED1DFF86414080072B6DFF868140968FA
:1024C00031F00201DFF85C241160BFF34F8F62B678
:1024D00001210170704700000000000008ED00E0DD
:1024E00024ED00E0DFF844040068000106D5DFF8C1
:1024F00040040068C00701D5012015E0DFF834046E
:102500000088C00501D501200EE0DFF82C0400880A
:10251000800601D5012007E0DFF820040088C0070D
:1025200001D5012000E00020704700000C2400408D
:1025300000800240048002400C8002401080024073
:10254000148002404407002070B504000920FFF702
:1025500093FB0600360D002E02D006FB04F500E0CA
:102560002500280070BDF8B5040000270025DFF81D
:10257000D003007800280CD100F050F8070000B21A
:10258000002802D0380000B23EE00120DFF8B0138E
:10259000087000200600192E0AD2DFF8A80310F8F0
:1025A0003600DFF89C130978884201D0761DF2E7E7
:1025B0003000411D8E420FDADFF8881311EBC6019F
:1025C0004978E4B2A14205D1DFF8780310EBC600E8
:1025D000050001E0761CECE7002D10D0A87800285B
:1025E0000DD06868002802D06868804707003FB2B5
:1025F000002F07D1A878DFF84813087002E040F2F6
:1026000013300700380000B2F2BD00001024004073
:102610000024F400480700204C07002038B50024AF
:10262000C948050001210220FFF7CDFC040000B2DB
:10263000002802D0200000B217E01120FFF748FA6E
:102640000021280000F03BF900210120FFF7ADFB3D
:102650000520FFF7E9FC0420FFF7E6FC0020FFF768
:10266000E3FCFFF7E1F9200000B232BD38B50025E8
:10267000B64804000020FFF7CBFA012805D101215C
:102680000020FFF7A0FC050004E001210220FFF775
:102690009AFC05002DB2002D02D0280000B25FE0A8
:1026A0000320FFF7B5FA132826D1A948008880B285
:1026B00010F0C00080280BD1A548008880B210F02F
:1026C0003F00102804D1A248008880B2C0051AD467
:1026D0000020FFF79DFA012803D11220FFF7F8F937
:1026E00002E01120FFF7F4F94FF4807310228021EB
:1026F0000420FFF72FFE06E04FF4807310228021A4
:102700000420FFF727FE01210420FFF75CFC0500F1
:1027100000B2002802D0280000B221E001212000F0
:1027200000F0CDF81320FFF7D3F90021200000F0CE
:10273000C6F80520FFF778FC0020FFF769FA0128AA
:1027400003D10220FFF770FC02E00020FFF76CFCD1
:1027500000210120FFF729FBFFF766F9280000B2EE
:1027600032BD38B500257B4804000020FFF750FA41
:10277000012805D101210020FFF725FC050004E018
:1027800001210220FFF71FFC05002DB2002D02D011
:10279000280000B26DE00320FFF73AFA132826D193
:1027A0006B48008880B210F0C00080280BD16848C8
:1027B000008880B210F03F00102804D164480088DF
:1027C00080B2C0051AD40020FFF722FA012803D1F5
:1027D0001220FFF77DF902E01120FFF779F94FF49D
:1027E0008073102280210420FFF7B4FD06E04FF42F
:1027F0008073102280210420FFF7ACFD012104200A
:10280000FFF7E1FB050000B2002802D0280000B26B
:102810002FE00121200000F052F81320FFF758F9B3
:102820000021200000F04BF801210120FFF7BDFA44
:1028300000230F2280210520FFF78CFD01210520B8
:10284000FFF7C1FB050000B2002802D0280000B24B
:102850000FE00020FFF7DCF9012803D10220FFF789
:10286000E3FB02E00020FFF7DFFBFFF7DDF82800C5
:1028700000B232BD0087930338B500243648050006
:102880000020FFF7C5F9012803D11220FFF720F936
:1028900002E01120FFF71CF90021280000F00FF8DA
:1028A00000210120FFF781FA0520FFF7BDFB04207E
:1028B000FFF7BAFBFFF7B8F8200000B232BDC9B28B
:1028C00000290FD0254A128892B212F03F020378F5
:1028D0009A4207DB214A1288C2F3052292B243785A
:1028E0009A4209DA027812F03F0243781B0213F48D
:1028F0007C531A43194B1A807047000000000240B5
:10290000080000400804004008080040002600407D
:1029100008250040188002405B0700200424004086
:102920000024004010ED00E09825004008400840D9
:1029300000400840005C00408825004000800040C6
:102940005C07002018680000A2000020A4000020FE
:102950000C800240A6000020AA0000200480024053
:1029600070B40200012010FA02F3D2B2102A02DB86
:1029700041F203209EE0DFF8E4030068406818425B
:1029800002D041F2022095E072B6DFF8D40300686D
:1029900050F00100DFF8C843206062B6DFF8BC03E6
:1029A0000068007800285CD10020102829DA002473
:1029B0000501DFF8B0633668AC510024DFF8A4539A
:1029C0002D6815EB00156C600024DFF898532D6816
:1029D00015EB0015AC6000240501DFF88C63366848
:1029E000AC510024DFF880532D6815EB00156C60A6
:1029F0000024DFF874532D6815EB0015AC60401C03
:102A0000D3E7DFF860030068DFF860432060002050
:102A1000DFF85C4320600020DFF85843206000208E
:102A2000DFF8544320600020DFF85043206000208E
:102A3000DFF84C4320600020DFF84843206000208E
:102A4000DFF8444320604FF6FF70DFF8404320601A
:102A5000FF20DFF83C4320600120DFF800432468BA
:102A60002070C9B2002902D001290AD013E072B641
:102A7000DFF8180300681843DFF81043206062B6DF
:102A80000CE072B6DFF8000300681843DFF8F84284
:102A9000206062B602E041F20A200BE072B6DFF875
:102AA000BC02006840681843DFF8B04224686060E8
:102AB00062B6002070BC70470100DFF8A002006819
:102AC0000078012802D041F201202DE0C9B210297E
:102AD00002DB41F2032027E0DFF880020068406853
:102AE000C840C00713D572B6DFF8700200684068AE
:102AF00001228A409043DFF864221268506062B677
:102B0000DFF858020068406800280CD102E041F26A
:102B1000012009E00020DFF8482210600020DFF8E3
:102B20003C221268107000207047F8B50400DFF8EE
:102B30002C0200680078012802D041F201208AE0CE
:102B4000200000F089F8070000B2002802D0380009
:102B500000B280E0DFF83C020068C00702D441F216
:102B6000012078E06078002806D12078DFF8F411A1
:102B7000096811EB001505E02078DFF8EC11096811
:102B800011EB0015A0682860E068686072B6207CD0
:102B90000028022803D9001F022808D90FE028685E
:102BA0006168491E227C91400818286007E0286867
:102BB0006168491E227C121F9140401A2860607C87
:102BC0000028022803D9001F022808D90FE06868EE
:102BD0006168491E627C91400818686007E0686877
:102BE0006168491E627C121F9140401A686062B69B
:102BF000607C217C890651EA8070A17850EA0160EE
:102C0000E17C50EA81306168491E50EA0110217D63
:102C10000843A8600120217888400600207C042811
:102C200002DB5D48066001E05C480660607C0428C9
:102C300002DB5B48066001E05A48066047480068CE
:102C40008068304202D05848066001E0574806606C
:102C5000494806600020F2BD010040480068406815
:102C60000A78D040C00702D441F2032075E04868DA
:102C7000B0F5806F02D941F207206EE0887C002811
:102C800002D041F20B2068E03448006880680A787E
:102C9000D040C00729D588680422B0FBF2F303FBBB
:102CA0001203002B0FD1C8680422B0FBF2F303FB20
:102CB0001203002B07D148680422B0FBF2F303FB98
:102CC0001203002B02D041F20C2046E0087C0328BE
:102CD00001D0072803D1487C042806DB02E041F23A
:102CE0000C203AE041F20C2037E08878002803D02D
:102CF000022812D001D32CE02EE0087C002808D056
:102D0000487C002805D0087C042802D0487C042890
:102D100002D141F2062020E01EE0087C002814D0F9
:102D2000487C002811D0087C01280ED0487C01285E
:102D30000BD0087C042808D0487C042805D0087CE7
:102D4000052802D0487C052802D141F2062004E083
:102D500002E041F2052000E00020704744710000CD
:102D600004000140B8000020BC0000200800014021
:102D70002000014024000140280001402C000140B7
:102D80003000014034000140380001403C00014067
:102D90004C000140000001401008014014080140AF
:102DA000180801401C0801400008014004080140C7
:102DB00000210800DFF8EC1209684A1CDFF8E43251
:102DC0001A60002910D100210B290DDA0022DFF84A
:102DD000D43213EBC1035A600022DFF8C83213EB80
:102DE000C1039A60491CEFE700B270472DE9F0413A
:102DF000060014001D00DFF8AC020068002802D1B4
:102E000040F602601CE0300000F03BF9002802D1DF
:102E100040F6036014E02000290000F053F9002878
:102E200002D140F604600BE0370072B63868804685
:102E300038EA050854EA0808C7F8008062B600209E
:102E4000BDE8F08110B50400DFF8580200680028E2
:102E500002D140F602600FE0200040B200F047F9D6
:102E6000002802D140F6066006E00120611E88407D
:102E7000DFF834120880002010BDF8B504000D0002
:102E80001600DFF820020068002802D140F6026038
:102E90001EE0200000F0F5F8002802D140F60360A3
:102EA00016E0280080B200F005F9002802D140F6B3
:102EB00005600DE0270072B6F6B2002E03D0B88987
:102EC0002843B88102E0B889A843B88162B60020DF
:102ED000F2BDF8B504000D001600DFF8C801006867
:102EE000002802D140F602601EE0200000F0C9F880
:102EF000002802D140F6036016E0280080B200F0FE
:102F0000D9F8002802D140F605600DE0270072B61E
:102F1000F6B2002E03D038892843388102E0388980
:102F2000A843388162B60020F2BD38B50400DFF84E
:102F300074010068002802D140F6026009E0200018
:102F400000F09FF8002802D140F6036001E0250060
:102F5000A88832BD38B5040052480068002802D164
:102F600040F6026009E0200000F08BF8002802D152
:102F700040F6036001E02500288932BD2DE9F043C9
:102F800085B004000D00E4B2464810EBC400061DF5
:102F900000A84649142200F0B7F83068002805D090
:102FA00000226DB229007068336898476DB228001E
:102FB0002F3801281CD80020052818D200A951F864
:102FC00020100F006DB22F2D02D1B7F8289001E02C
:102FD000B7F82C90398E19EA010188461FFA88F853
:102FE000B8F1000F01D0A7F83080401CE4E703E0FF
:102FF000280040B2FFF726FF05B0BDE8F08380B59A
:1030000001210020FFF7BAFF01BD80B50221012098
:10301000FFF7B4FF01BD80B503210220FFF7AEFF2B
:1030200001BD80B504210320FFF7A8FF01BD80B5D5
:1030300005210420FFF7A2FF01BD80B50621052070
:10304000FFF79CFF01BD80B507210620FFF796FF23
:1030500001BD80B508210720FFF790FF01BD80B5B5
:1030600009210820FFF78AFF01BD80B52F21092023
:10307000FFF784FF01BD80B530210A20FFF77EFFF6
:1030800001BD010008000A4A801A07D0403805D067
:10309000403803D0403801D0403801D1012000E051
:1030A00000207047A005002030240040FC70000084
:1030B00000000240010089B2002901D0012000E097
:1030C0000020704710B402000B001C00002001001B
:1030D000C9B2102908D214F00300032801D101203D
:1030E00003E0491CA408F3E7002010BC704701006E
:1030F00049B20800401E082802D92E38012801D8FC
:10310000012000E000207047103A07D330B4B1E846
:103110003810103AA0E83810F9D230BC530724BF59
:10312000B1E80810A0E8081044BF51F8043B40F88B
:10313000043BD20724BF31F8022B20F8022B44BFF6
:103140000B7803707047083A07D3B1E80810083AC3
:1031500040F8043B40F804CBF7D25307E4E710B43F
:1031600050F8041B81B102681218001D50F8043B8E
:10317000DC0744BFA9F10104E31852F8044B43F8FB
:10318000044B091FF9D1EBE710BC704738B50400B8
:103190002000FEF753F8002802D041F2015023E04E
:1031A0002000FEF761F8002802D041F202501BE037
:1031B000DFF850090088000602D541F2045013E000
:1031C0000D20FEF759FDDFF84019884202D041F288
:1031D000055009E000230022DFF830192000FDF738
:1031E00067FF0500280000B232BDF8B504000025D5
:1031F0002000FEF723F8002802D041F201505EE0E3
:103200002000FEF731F8002802D041F2025056E0CB
:10321000DFF8F0080088000602D541F204504EE0C5
:103220000D20FEF729FDDFF8E018884202D041F2B8
:10323000055044E0022300AADFF8D4182000FDF76F
:1032400037FF05002DB2002D37D15FF08040BDF86B
:103250000210BDF80020891A90FBF1F00700781CDD
:103260004708BDF80200BDF80010401ADFF8A418A6
:10327000484306003613701C4610BDF80000B6EB3C
:10328000800616F500363200DFF88C182000FDF7B6
:103290005BFB050000B2002802D0280000B20EE05F
:1032A0003A00DFF878182000FDF74EFB050000B269
:1032B000002802D0280000B201E0280000B2F2BDD0
:1032C0002DE9F04182B004000D0000262000FDF73A
:1032D000B5FF002802D041F2015036E02000FDF792
:1032E000C3FF002802D041F202502EE0DFF814089C
:1032F0000088000602D541F2045026E00D20FEF7BA
:10330000BBFCDFF80418884202D041F205501CE0F3
:10331000022300AADFF808182000FDF7C9FE060006
:1033200036B2002E0FD1BDF80200DFF8F8170818EA
:103330000700BDF80000DFF8EC17081880463804D5
:1033400090FBF8F02860300000B2BDE8F6812DE96E
:10335000F0418AB004000D00160000208046B8F14C
:10336000080F09DADFF8C00750F8280001A941F872
:10337000280018F10108F2E755F0204003900121E0
:103380002000FDF756FF012300AA01A92000FDF748
:103390008FFE070000212000FDF74BFFBDF8000065
:1033A0003080380000B20AB0BDE8F081F0B583B0DB
:1033B000040000252000FDF741FF002802D041F263
:1033C000015056E02000FDF74FFF002802D041F2E7
:1033D00002504EE0DFF82C070088000602D541F2CB
:1033E000045046E00D20FEF747FCDFF81C1788422A
:1033F00002D041F205503CE0032300AADFF82C176D
:103400002000FDF755FE05002DB2002D2FD1DFF86D
:103410002007BDF80410BDF80220891A90FBF1F0D6
:103420000700F80702D57808471C00E07F08BDF8C0
:103430000000D0F50040800006003200DFF8F416EE
:103440002000FDF781FA050000B2002802D0280014
:1034500000B20EE03A00DFF8E0162000FDF774FA43
:10346000050000B2002802D0280000B201E02800C8
:1034700000B2FEBD70B504000D0000262000FDF76F
:10348000DDFE002802D041F201503BE02000FDF7B4
:10349000EBFE002802D041F2025033E0DFF8640670
:1034A0000088000602D541F204502BE00D20FEF703
:1034B000E3FBDFF85416884202D041F2055021E0C8
:1034C00000230022DFF874162000FDF7F1FD06004E
:1034D00036B2002E14D1DFF868060068A0F6565008
:1034E0008000192190FBF1F028602878C00704D5EE
:1034F00028684010401C286002E0286840102860BE
:10350000300000B270BD38B5040000252000FDF782
:1035100095FE002802D041F2015023E02000FDF783
:10352000A3FE002802D041F202501BE0DFF8D405D0
:103530000088000602D541F2045013E00D20FEF78A
:103540009BFBDFF8C415884202D041F2055009E028
:1035500000230022DFF8EC152000FDF7A9FD05008F
:10356000280000B232BD2DE9F04F8DB004005FF0AD
:10357000000B2000FDF762FE002802D041F201504E
:10358000F8E02000FDF770FE002802D041F2025062
:10359000F0E0DFF870050088000602D541F2045023
:1035A000E8E00D20FEF768FBDFF85C15884202D0EA
:1035B00041F20550DEE002A92000FDF774FE8346CB
:1035C00000B2002802D0584600B2D3E001A9200082
:1035D000FDF796FE834600B2002802D0584600B29E
:1035E000C8E000A9200000F0DBFA834600B2002802
:1035F00002D0584600B2BDE04FF48042DFF84815D3
:103600002000FDF7A1F90022DFF840152000FDF7AA
:103610009BF90020092808D2DFF8341551F8201052
:1036200003AA42F82010401CF4E70098B0F1AC4027
:10363000059001212000FDF7FCFD0023002203A9D5
:103640002000FDF735FD834600212000FDF7F1FD48
:103650000FFA8BFBBBF1000F14D1DFF8F804006800
:10366000D0F500400500AD002A00DFF8E01420008E
:10367000FDF76AF900230022DFF8DC142000FDF7D3
:1036800017FD83460FFA8BFBBBF1000F17D1DFF854
:10369000C4040068B0F500400600DFF8C004B0FBC9
:1036A000F6F63200DFF8A0142000FDF74DF90023F4
:1036B0000022DFF8AC142000FDF7FAFC83460FFA75
:1036C0008BFBBBF1000F0DD1DFF888040068B0F56B
:1036D0000040070000230022DFF888142000FDF7D7
:1036E000E7FC83460FFA8BFBBBF1000F1DD1DFF81F
:1036F00064040068D0F5004080465FEA88084FF413
:10370000804000FB05F0B0FBF6F010EB08084246E5
:10371000DFF838142000FDF717F900230022DFF846
:1037200048142000FDF7C4FC83460FFA8BFBBBF165
:10373000000F1DD1DFF81C040068D0F50040814661
:1037400001984FF4804148430299B0FBF1F0824662
:1037500007FB0AF0B0FBF9F906FB09F010F5005081
:103760005FEA90394A46DFF8E0132000FDF7ECF8F5
:10377000584600B20DB0BDE8F08F70B582B00400BD
:1037800000252000FDF75AFD002802D041F201502B
:1037900069E02000FDF768FD002802D041F20250E8
:1037A00061E0DFF860030088000602D541F20450B2
:1037B00059E00D20FEF760FADFF84C13884202D082
:1037C00041F205504FE04FF42062DFF8A0132000D3
:1037D000FDF7BAF800230022DFF894132000FDF76C
:1037E00067FC05002DB2002D02D0280000B23AE09F
:1037F000DFF860030068ADF800004FF4C062DFF846
:103800006C132000FDF7A0F800230022DFF86413FA
:103810002000FDF74DFC05002DB2002D02D0280040
:1038200000B220E0DFF82C030068ADF80200BDF81C
:103830000000D0F5004006004FF4C0604643B600DB
:10384000BDF80200BDF80010401A96FBF0F6B6F580
:103850004066701C46103200DFF810132000FDF7A0
:1038600073F8280000B276BD2DE9FC410400002564
:103870002000FDF7E3FC002802D041F201506BE08C
:103880002000FDF7F1FC002802D041F2025063E075
:103890009C480088000602D541F204505CE00D20EF
:1038A000FEF7EAF99849884202D041F2055053E008
:1038B00001A9200000F0ADF9050000B2002802D0F7
:1038C000280000B248E001984242AB492000FDF7D1
:1038D0003BF800230022A9492000FDF7E9FB050081
:1038E0002DB2002D02D0280000B235E099480068C2
:1038F000ADF80000019AA0492000FDF725F800234B
:1039000000229F492000FDF7D3FB05002DB2002DBA
:1039100002D0280000B21FE08E480068ADF8020017
:103920000198BDF80010D1F5004148430700BDF8EB
:103930000200BDF80010401A8046B80090FBF8F075
:103940000600701C46100198361A32008A49200081
:10395000FCF7FAFF280000B2BDE8F68170B504005C
:103960000D0000262000FDF769FC002802D041F27E
:10397000015020E02000FDF777FC002802D041F242
:10398000025018E05F480088000602D541F204505A
:1039900011E00D20FEF770F95B49884202D041F238
:1039A000055008E004232A0076492000FDF780FB3B
:1039B0000600300000B270BD2DE9F04F97B0050051
:1039C0000E0017009846209CDDF884902800FDF733
:1039D00035FC002802D041F2015051E02800FDF7EB
:1039E00043FC002802D041F2025049E045480088DB
:1039F000000602D541F2045042E00D20FEF73CF9EA
:103A00004149884202D041F2055039E0B6F5A77F1E
:103A100002D95D48864202D341F2155030E00020C1
:103A20008346BBF1160F08D2564850F82B0000A968
:103A300041F82B001BF1010BF3E756F018400390FF
:103A4000BFB257F01E4004905FFA88F8B8F1000F3B
:103A500001D14E480590A4B254F006400E900121C9
:103A60002800FDF7E6FB04234A4600A92800FDF7DD
:103A70001FFB824600212800FDF7DBFB504600B209
:103A800017B0BDE8F08F38B5040000252000FDF721
:103A9000D5FB002802D041F2015031E02000FDF7B3
:103AA000E3FB002802D041F2025029E015480088CB
:103AB000000602D541F2045022E00D20FEF7DCF8AA
:103AC0001149884202D041F2055019E0002005005A
:103AD0002F480068400840002D4908600021200060
:103AE000FCF709FF2B48006830F0200029490860E6
:103AF000294800682949084027490860280000B281
:103B000032BD0000148002400024F400606F000009
:103B10000C6E0000C7B1FFFF1C01084018010840EF
:103B20004C6E000038CEFFFF846F0000046D000073
:103B300000805525100108400C010840C06E0000AF
:103B4000840008401071000004010840080108408A
:103B5000A86F0000800008401C7000000080AA12BE
:103B60003C700000CC6F00005C7000002401084035
:103B7000E86E00007870000020010840106F00001F
:103B8000947000005C6D0000BA1E0500000F0088F4
:103B90001000084040000840000008400FF1FDFF01
:103BA0007CB504000D0000262000FDF747FB00282F
:103BB00002D041F201502BE02000FDF755FB002818
:103BC00002D041F2025023E001A92000FDF76BFB77
:103BD000060000B2002802D0300000B218E000A9B0
:103BE0002000FDF78DFB060000B2002802D0300057
:103BF00000B20DE001984FF4D861484340000099AD
:103C0000B0FBF1F0401C400810F500602860002077
:103C100076BD7CB504000D0000262000FDF70EFBEC
:103C2000002802D041F201502AE02000FDF71CFBE1
:103C3000002802D041F2025022E001A92000FDF745
:103C400032FB060000B2002802D0300000B217E0BC
:103C500000A92000FDF754FB060000B2002802D0A6
:103C6000300000B20CE001984FF4D86148434000A6
:103C70000099B0FBF1F0401C400840002860002093
:103C800076BD50F8041B61B150F8042BD30744BF34
:103C9000A9F101039A18002342F8043B091FFAD145
:103CA000EFE77047012110F01F02914040B2420936
:103CB000DFF8703743F822107047012110F01F021F
:103CC000914040B24209DFF8603743F82210704754
:103CD0008A0702D5828F521C82874A0702D5428FFB
:103CE000521C42870A0702D5028F521C028711F02C
:103CF0000E02C27270472DE9F843DFF8304765685D
:103D0000002660680789F80767D4FFB217F006003D
:103D1000C0B2002859D0022835D0042810D0062877
:103D200057D1B5F81490208E401C20860E2019EA39
:103D3000000F04D04946C9B22000FFF7C9FF48E090
:103D400014F11400060070893189884205D1B4F855
:103D50004000401CA4F84000FEE7B088318988424A
:103D600001D10020B08028888046B088411CB180F5
:103D700080B2316800F801807089401C7081A08D8C
:103D8000401CA08525E0E08D401CE08514F120005A
:103D90000600F0883189884201D30020F0807089C4
:103DA000318988420BD2F088411CF18080B23168A1
:103DB000405C616808807089401C708104E0A888BC
:103DC0004FF6FD710840A88003E0608E401C6086BD
:103DD000FFE714F11100FEF76AFBBDE8F183F8B5C7
:103DE0000600DFF84C0607004FF420404FF4704106
:103DF00004000D0022002B003800FEF7F7FF00281A
:103E000002D040F6075000E00020F2BD2DE9F04757
:103E100004000D0016000027A07A002853D05FF0A0
:103E2000000A5FF0000814F11409B9F90800B9F9A3
:103E30000610401A804636B20FFA88F8464501DA75
:103E4000B24600E0C246002007003FB20FFA8AFAED
:103E500057450CDAB9F80600411CA9F8061080B2E3
:103E6000D9F80010405C28706D1C7F1CEDE70FFA3C
:103E70008AFA36B2B24519DAB6EB0A00804600205B
:103E8000A9F80600002007003FB20FFA88F847455E
:103E90000CDAB9F80600411CA9F8061080B2D9F86E
:103EA0000010405C28706D1C7F1CEDE794F9000049
:103EB000FFF703FFB9F80A00801BA9F80A0094F97C
:103EC0000000FFF7EFFEA07A00281AD100200700BB
:103ED0003FB236B2B74214DA6068B0F814800E20F0
:103EE00018EA000F04D04146C9B22000FFF7F0FEE7
:103EF0005FEAC870F0D56068008828706D1C7F1C70
:103F0000E6E70020BDE8F0872DE9F0470400894688
:103F10001500A07A002858D05FF0000A5FF0000872
:103F2000002614F12007B7F90800B7F90410401A69
:103F300082462DB20FFA8AFA554501DAA84600E00A
:103F4000D046002082460FFA8AFA0FFA88F8C24556
:103F50000CDAB888411CB98099F8001080B23A6830
:103F6000815419F101091AF1010AECE70FFA88F8F6
:103F70002DB2A84518DAB5EB080006000020B8807D
:103F8000002082460FFA8AFA36B2B2450CDAB888B7
:103F9000411CB98099F8001080B23A68815419F137
:103FA00001091AF1010AEDE794F90000FFF785FE17
:103FB0007889401B78816068808850F002006168D1
:103FC000888094F90000FFF76DFEA07A00280FD1D9
:103FD00000202DB2A8420BDA6168898A8906FBD5D8
:103FE00099F800106268118019F10109401CF0E78E
:103FF0000020BDE8F0872DE9F84304000D0016000D
:104000001F004FF45068A07A002834D0FFB2002F70
:1040100002D014F1140901E014F12009207A0028DB
:1040200018D0B9F80800B6F90010884203DA40F653
:10403000085080460EE0B9F80A00B6F90010884230
:1040400006DA002214F111010120FEF7C3F9F2E7AC
:1040500000208046207A00280DD1B9F90A00B6F96F
:10406000001000B2884201DA010001E0B6F9001048
:10407000318000218846A07A00281BD1207A0028B0
:1040800001D000208046207A002813D1FFB2002FF3
:1040900004D06068808A10F0010003E06068808AC4
:1040A00010F02000002801D0012000E00020308026
:1040B00000208046404600B2BDE8F28310B50400FF
:1040C00094F90000FFF7F9FD0020608300202083B1
:1040D0000020E0830020E0840020A084208D608503
:1040E00094F90000FFF7DEFD10BD2DE9F04104005A
:1040F0000D00160000275FF0000800202860E4B2E1
:10410000022C02D340F6035051E0E4B24420DFF821
:104110001C1300FB041007007878002802D040F63A
:10412000015044E03800FFF75AFE804600B20028F4
:1041300002D0404600B23AE0002E1AD03068002883
:1041400008D0B088002805D0B068002802D0F088D8
:10415000002802D140F6085029E000207874306829
:104160007861B088B883B0683862F08838850120FB
:10417000B8723800FFF7A2FF01207870397C380050
:1041800000F09EF8B88979688881F8897968088292
:104190002F6001210320FDF7C4FD0120796881F81B
:1041A000300097F90000FFF77DFD404600B2BDE802
:1041B000F081F8B504000D0016004FF45067DFF8E9
:1041C0006C02844202D040F6025023E0607801285D
:1041D00002D040F606501DE0002D05D0002E03D081
:1041E000B6F90000012802DA40F6045012E000237C
:1041F000320029002000FFF7FEFE07003FB2002F2B
:1042000006D1B6F9002029002000FFF77DFE070047
:10421000380000B2F2BDF8B504000D0016004FF4EE
:104220005067DFF80802844202D040F6025023E0D3
:104230006078012802D040F606501DE0002D05D020
:10424000002E03D0B6F90000012802DA40F604502F
:1042500012E00123320029002000FFF7CCFE070006
:104260003FB2002F06D1B6F9002029002000FFF749
:10427000CDFD0700380000B2F2BD10B50400DFF834
:10428000AC01844202D040F6025018E06078012868
:1042900002D040F6065012E06068808AC00701D55F
:1042A00060680088606890F83000C00703D46068D8
:1042B000808A4006F6D52000FFF700FF002010BDE1
:1042C000F0B5A1B004000D0000A8DFF8681180224D
:1042D000FEF71AFFDFF85401844202D040F6025084
:1042E00042E06078012802D040F606503CE0EDB292
:1042F000072D02DB40F6045036E00420FDF7BCFC3D
:104300000600DFF83401864206D1EDB2062000A98E
:1043100000FB051007001BE0DFF82001864208D1F2
:10432000EDB2062000A900FB051000F22A000700EC
:104330000EE0DFF80C01864207D1EDB2062000A99D
:1043400000FB05105430070002E040F604500BE07B
:10435000388861680885B888798850EAC12050F4A7
:10436000004061688884002021B0F0BD38B50400A9
:104370000D002E48844202D040F6025019E0EDB202
:10438000002D08D0606890F8300010F0FE006168E1
:1043900081F8300007E0606890F8300050F00100CC
:1043A000616881F830002900C9B20320FDF7B9FC2B
:1043B000002032BD02001D48824202D040F6025069
:1043C00024E0C9B2002908D05069002802D0106A40
:1043D000002802D140F6085018E09172C9B20029B5
:1043E00006D05068808850F001005368988006E03D
:1043F000506880884FF6FE73184053689880506864
:10440000808850F0040053689880002070470200B4
:104410000648824202D040F6025001E011720020AC
:104420007047000000E100E080E100E05C00002057
:10443000000002405C6A00000024F40040420F00CB
:10444000002D3101012110F01F02914040B24209BC
:10445000DFF8543243F822107047F8B504000D001D
:1044600000202860E4B21420DFF8401200FB0410A2
:104470000600E4B2002C02D04FF4D05099E00121A4
:104480000020FDF74EFCDFF828027060012030703C
:10449000362070720020F06000203074E4B2942066
:1044A000DFF8101200FB041738687168086078683C
:1044B00071684860B86871688860F8687168C86039
:1044C000386971680861786971684861B8697168AC
:1044D0008861F8697168C861386A71680862786AC9
:1044E00071684862B86A71688862F86A7168C862FF
:1044F000386B71680863786B7168C864B86B7168F1
:104500000865F86B71684865386C71688865786C07
:104510007168C865B86C71680866F86C716848663F
:10452000386D71688866786D7168C866B86D716835
:104530000867F86D71684867386E71688867786ECB
:104540007168C867B86E7168C1F88000F86E7168EC
:10455000C1F88400386F7168C1F88800786F71689D
:10456000C1F88C00B86F7168C1F89000F86F71687D
:10457000C1F89400D7F880007168C1F89800D7F8A6
:1045800084007168C1F89C00D7F888007168C1F890
:10459000A000D7F88C007168C1F8A400D7F890008B
:1045A0007168C1F8A80096F90900FFF74BFF2E606B
:1045B0000020F2BD02001078012802D04FF4D05044
:1045C00010E0C9B2002906D05068006840084000D9
:1045D0005368186005E05068006850F001005368A7
:1045E00018600020704702001078012802D04FF4B4
:1045F000D05007E05068006810F0010090F0010012
:1046000008700020704702001078012802D04FF493
:10461000D05010E0C9B2002906D05068806850F030
:1046200000605368986005E05068806830F0006072
:10463000536898600020704702001078012802D06B
:104640004FF4D05007E050688068C0F3C06010F0AD
:10465000010008700020704702001078012802D085
:104660004FF4D05010E0C9B2002906D05068C0689D
:1046700050F001005368D86005E05068C0684008F9
:1046800040005368D860002070470200107801286D
:1046900002D04FF4D05005E05068C06810F001001F
:1046A000087000207047000000E100E01C070020B7
:1046B00000400840C869000002001078012802D0BC
:1046C0004FF4D05010E0C9B2002906D05068406ABB
:1046D00050F400405368586205E05068406A30F476
:1046E000004053685862002070470200107801288B
:1046F00002D04FF4D05007E05068406AC0F3C03099
:1047000010F00100087000207047020010780128A6
:1047100002D04FF4D05010E0C9B2002906D0506842
:10472000C06A50F400405368D86205E05068C06A1F
:1047300030F400405368D8620020704702001078BF
:10474000012802D04FF4D05007E05068C06AC0F38F
:10475000C03010F0010008700020704730B4030032
:104760001878012802D04FF4D05014E00024C9B2C8
:1047700048105D6815EB8000AC300400C80705D513
:104780002068000C8004800C108003E02068800406
:10479000800C1080002030BC704710B403001878E3
:1047A000012802D04FF4D0500BE00024C9B2586861
:1047B00010EB8100CC30040020688004800C108055
:1047C000002010BC704710B403001878012802D0F4
:1047D0004FF4D05010E0D2B2002A06D05868006BD7
:1047E000C9B208435C68206305E05868006BC9B231
:1047F00088435C682063002010BC7047020010787A
:10480000012802D04FF4D05003E05068006B0870CC
:104810000020704702001078012802D04FF4D050D9
:1048200003E05068806C0880002070470200107818
:10483000012802D04FF4D05003E089B2506881645F
:104840000020704702001078012802D04FF4D050A9
:1048500004E05068806C000C088000207047020063
:104860001078012802D04FF4D05004E089B2080437
:10487000536898640020704701000878012802D02E
:104880004FF4D05006E04868406950F000604A6834
:1048900050610020704701000878012802D04FF4D1
:1048A000D05006E04868006850F002004A68106086
:1048B000002070472DE9F04F83B004000D002078F0
:1048C000012802D04FF4D050FBE05FF0000B01262E
:1048D00002275FF003085FF004095FF0050A0DF19D
:1048E00005012000FFF701FF01A92000FFF726FFC7
:1048F0009DF80500002803D09DF80400002802D18F
:1049000041F60220DDE00DF102012000FFF782FFF9
:10491000BDF80200012111FA0BF1084203D02878FA
:1049200050F001002870BDF802000121B14008429A
:1049300003D0287850F002002870BDF80200012151
:10494000B940084203D0287850F004002870BDF820
:104950000200012111FA08F1084203D0287850F032
:1049600008002870BDF80200012111FA09F108427F
:1049700003D0287850F010002870BDF80200012103
:1049800011FA0AF1084203D0287850F0200028706C
:1049900000A92000FFF756FFBDF80000012111FA21
:1049A0000BF1084211D0287810F0FE002870012089
:1049B00010FA0BF189B22000FFF738FF012010FA3E
:1049C0000BF189B22000FFF74AFFBDF8000001217A
:1049D000B140084211D0287810F0FD002870012065
:1049E00010FA06F189B22000FFF720FF012010FA2B
:1049F00006F189B22000FFF732FFBDF80000012167
:104A0000B940084211D0287810F0FB00287001202E
:104A100010FA07F189B22000FFF708FF012010FA11
:104A200007F189B22000FFF71AFFBDF8000001214D
:104A300011FA08F1084211D0287810F0F700287018
:104A4000012010FA08F189B22000FFF7EFFE0120E3
:104A500010FA08F189B22000FFF701FFBDF800004D
:104A6000012111FA09F1084211D0287810F0EF0065
:104A70002870012010FA09F189B22000FFF7D6FE54
:104A8000012010FA09F189B22000FFF7E8FEBDF815
:104A90000000012111FA0AF1084211D0287810F023
:104AA000DF002870012010FA0AF189B22000FFF718
:104AB000BDFE012010FA0AF189B22000FFF7CFFEF7
:104AC0000020BDE8FE8F38B50E4C012020726068D2
:104AD000406B0500207800280BD0E068002808D043
:104AE000207C284205D00022EDB229002000E36896
:104AF00098476068006B61684863BFF34F8F31BDB2
:104B0000000000001C070020F8B50400002520006C
:104B1000FCF783FC00A800F088FC0098060000A8C1
:104B200000F083FC0098070000F04FFC3100206883
:104B3000FCF7A3FB002802D042F205000500390073
:104B40002068FCF7C7FB002802D042F205000500F0
:104B5000280000B2F2BD38B5040000252000FCF7A3
:104B6000BBFC00F032FC280000B232BD38B50400B6
:104B700000252000FEF70AFB00F027FC280000B209
:104B800032BD38B5040000252000FEF72EFB00F0F2
:104B90001CFC280000B232BD38B50400002500A975
:104BA0002000FEF78DFB009800F0E8FB00F00DFC04
:104BB000280000B232BD38B5040000252000FEF701
:104BC000F5FB00F002FC280000B232BD38B504004D
:104BD000002500A92000FEF74DFC009800F0CEFB58
:104BE000DFF8780500680090009800040014009039
:104BF000009800F0C3FB00F0E8FB280000B232BDD3
:104C000038B5040000252000FEF77DFC00F0DDFB38
:104C1000280000B232BD38B5040000252000FEF7A0
:104C2000A2FC00F0D2FB280000B232BD38B504006F
:104C300000252000FEF718FE00F0C7FB280000B298
:104C400032BD38B5040000252000FEF796FD00F0C7
:104C5000BCFB280000B232BD30B583B00400002593
:104C600000A92000FEF77AFEBDF9000000F086FBE7
:104C7000BDF9020000F082FBBDF9040000F07EFBEC
:104C8000BDF9060000F07AFB00F09FFB280000B29F
:104C90003EBD38B5040000252000FEF7F4FE00F00C
:104CA00094FB280000B232BD2DE9F04786B0040025
:104CB0000D005FF0000A02A800F0B7FB02980600A2
:104CC00002A800F0B2FB0298070002A800F0ADFBBA
:104CD0000298002802D05FF0010901E05FF00009AE
:104CE00002A800F0A2FB0298804640F20F10854215
:104CF00013D103A801901FFA88F8CDF800804B4625
:104D0000DBB23A0092B231002000FEF755FE0028D7
:104D10001AD042F24200824616E040F21B10854251
:104D20000FD103A801901FFA88F8CDF800804B46F8
:104D3000DBB23A0092B23100200000F039F882462E
:104D400002E042F2450030E0BDF90C0000F016FB35
:104D5000824600B2002802D0504600B225E0BDF9DC
:104D60000E0000F00BFB824600B2002802D0504635
:104D700000B21AE0BDF9100000F000FB824600B25C
:104D8000002802D0504600B20FE0BDF9120000F03A
:104D9000F5FA824600B2002802D0504600B204E084
:104DA00000F013FB8246504600B206B0BDE8F08723
:104DB0002DE9F84F9AB005000E001700249CDDF88D
:104DC00094805FF000095FF0040A2800FEF7EEFA15
:104DD000002802D042F2420081462800FEF705FA80
:104DE000002802D042F2420081462800FEF78BFBE9
:104DF000002802D042F24200814600AAD849280089
:104E0000FBF7D8FD002802D042F244008146009A08
:104E1000D4492800FBF798FD002802D042F2440054
:104E2000814601AAD0492800FBF7C4FD002802D022
:104E300042F244008146019ACC492800FBF784FDE8
:104E4000002802D042F24400814600208346BBF194
:104E5000170F08D2C64850F82B0002A941F82B00C2
:104E60001BF1010BF3E70598304305900698BFB29C
:104E7000384306900898A4B22043089001212800E6
:104E8000FCF7D7F95346424602A92800FCF710F96F
:104E9000002802D042F24200814600212800FCF79F
:104EA000C8F9484600B21BB0BDE8F08F7CB50400DD
:104EB000002500A800F0B9FA0098060001AA310008
:104EC0002000FEF744FABDF8040000F057FA00F0A5
:104ED0007CFA280000B276BD2DE9F04F8FB00400B7
:104EE0000D00002609A800F0A0FA0998ADF82A00E4
:104EF00009A800F09AFA0998ADF8280009A800F06E
:104F000094FA0998002802D05FF0010901E05FF0EF
:104F1000000909A800F089FA0998002802D05FF07A
:104F2000010A01E05FF0000A09A800F07EFA099882
:104F3000002802D05FF0010B01E05FF0000B09A830
:104F400000F073FA09980E9009A800F06EFA09981B
:104F50000D9009A800F069FA09980C9009A800F0D2
:104F600064FA09980B9009A800F05FFA0998070005
:104F700009A800F05AFA099880461FFA88F8CDF877
:104F80002080BFB207975FFA8AFACDF818A05FFABF
:104F900089F9CDF814900C9804900D9803905FFA5D
:104FA0008BFBCDF808B00B980190BDF8280000905D
:104FB0000E9BBDF82A202900200000F005F83000E3
:104FC00000B20FB0BDE8F08F2DE9F44F9EB00400A1
:104FD0000D001E00299FDDF8AC80DDF8B0905FF079
:104FE000000A0420ADF80000B819400040F6B101F5
:104FF000B0FBF1F0059040F21510069000200790EC
:1050000000AA06A92800FFF7D4F800AA07A92800DB
:10501000FFF7CFF8B6EB08000490CDF80C80CDF880
:105020000890B7EB0900019000208346BBF1160FF2
:1050300008D2504850F82B0008A941F82B001BF16A
:10504000010BF3E79DF8B400002801D14A480B900A
:10505000BDF87800B0F1AC400C900D98BDF8C010D0
:1050600008430D909DF8B800002801D043480E90E9
:105070000F98BDF8BC1008430F909DF8A8000028B9
:1050800010D00498000115900F9850F480301690BD
:1050900003980001179002980001199001980001EF
:1050A0001B9009E0300115900F9816900020179082
:1050B0000020199038011B90BDF8A000B0F1AC4061
:1050C00018900F981A90322232212000FCF768F9CC
:1050D000824600B2002802D0504600B23BE00022D7
:1050E0000FF2A1012000FCF725F9824600B200284A
:1050F00002D0504600B22EE001212000FCF799F8C2
:10510000059B1F4A08A92000FBF7D2FF824600B288
:10511000002802D0504600B21DE000212000FCF71C
:1051200088F8002200212000FCF704F9824600B232
:10513000002802D0504600B20DE000212800FFF701
:1051400015F901212800FFF735F901212800FFF7A3
:105150000DF9504600B21FB0BDE8F08F8400084042
:105160000C010840040108401001084008010840F3
:1051700000000020B46D0000000F0088010000A2B4
:105180000000042070B504000D001600002D04D0AE
:10519000290009B2300000F0A3F970BDDFF8680300
:1051A000006840687047DFF864130870704730B5D6
:1051B00085B000240025DFF8580302900420ADF8E4
:1051C0000C00DFF8500304901C20ADF80E00FDF732
:1051D000EFFD002802D042F2060086E002AA00A9F4
:1051E0000020FEF782FF002802D042F207007CE098
:1051F000DFF8180301780098FFF762F8002802D062
:1052000042F2070071E000210098FFF700F9002842
:1052100002D042F2070068E001210098FFF7CAF8C7
:10522000002802D042F207005FE001210098FFF75A
:105230009DF8002802D042F2070056E0B24800680C
:10524000007800284FD10120ADF8040001AA0DF12B
:1052500006010098FEF7DFFF002802D042F20700A7
:1052600043E0BDF90400012804D12D0A9DF8060091
:1052700055EA0065A8488542E0D10120A2490968A5
:1052800008700098A0490968486000210098FFF75D
:105290006DF8002802D042F2070026E001210098B4
:1052A000FFF7B5F8002802D042F207001DE0012107
:1052B0000098FFF77FF8002802D042F2070014E0C0
:1052C00001210098FFF752F8002802D042F20700AF
:1052D0000BE0924800F0C7F8040000B20028ADD0FF
:1052E000200000B201E0200000B205B030BD10B5D2
:1052F0000024002084490968087000208249096858
:1053000088600020804909684860FFF750FF04006A
:10531000200000B210BD38B5040000257A480068AE
:10532000007801281FD10420ADF8000000AA210058
:10533000754800684068FEF76EFF002802D042F210
:10534000070012E0206870490968886000206E49F3
:105350000968A1F89C0100206B49096881F89E0149
:10536000280000B201E042F2080032BD10B500246E
:105370006A4800F078F8200000B210BD10B40100B7
:105380000020614A126892F89E21002A0ED15E4ADE
:10539000126892685C4B1B68DA6000225A4B1B68EB
:1053A0001A610122584B1B6883F89E21564A1268E5
:1053B0001269531C544C24682361534B1B6813EB34
:1053C0008202516100B210BC704710B500244E48F3
:1053D000006890F89E0100280ED14B480068806854
:1053E00049490968C86000204749096808610120E7
:1053F0004549096881F89E01434800680078012802
:1054000010D100F04EF8040000B2002802D02000B5
:1054100000B209E05FF0AA303B49096888602000CB
:1054200000B201E042F2080010BD38B504000025CA
:1054300035480068007801280FD10420ADF800003D
:1054400000AA2100304800684068FEF7E4FE00280A
:1054500006D042F20700050002E042F20800050013
:10546000280000B232BD38B5040000252648006887
:10547000007801280FD10420ADF8000000AA210017
:10548000214800684068FEF794FE002806D042F2EA
:105490000700050002E042F208000500280000B203
:1054A00032BD70B50024184800680078012811D179
:1054B000154800680069801C05000026AE420CD229
:1054C0001148006810EB86000C30FFF7CCFF040099
:1054D000761CF3E742F208000400200000B270BD21
:1054E0000200002009B2002908D0074B1B681B7876
:1054F000012B06D042F20803180002E042F2090331
:10550000180000B2704700004071000057070020EB
:1055100040070020D00600204D4D4F43B40000202E
:1055200038B50400002501210920FCF73EFC2100CC
:105530000020FEF792FFFFF748FF280000B232BDBF
:105540002DE9F04F91B0040000A8FFF76EFF00981E
:10555000109000A8FFF769FF00980F9000A8FFF7D0
:1055600064FF00980E9000A8FFF75FFF00980D9071
:1055700000A8FFF75AFF00980C9000A8FFF755FF0E
:1055800000980B9000A8FFF750FF00980A9000A821
:10559000FFF74BFF0098099000A8FFF746FF00981F
:1055A000089000A8FFF741FF0098079000A8FFF7B8
:1055B0003CFF0098069000A8FFF737FF0098059081
:1055C00000A8FFF732FF0098049000A8FFF72DFF16
:1055D0000098039000A8FFF728FF0098029000A809
:1055E000FFF723FF0098019000A8FFF71EFF009827
:1055F000060000A8FFF719FF0098070000A8FFF7B2
:1056000014FF0098804600A8FFF70FFF009881461E
:1056100000A8FFF70AFF0098824600A8FFF705FFE1
:105620000098834600A8FFF700FF0098DFF8941366
:10563000088000A8FFF7F9FE0098C00304D50120F8
:10564000DFF88413087003E00020DFF87C13087093
:105650000098DFF8781308801098DFF8741308605A
:105660000F98DFF8701308600E98DFF86C1308606D
:105670000D98DFF8681308600C98DFF86413086071
:105680000B98DFF8601308600A98DFF85C13086075
:105690000998DFF8581308600898DFF85413086079
:1056A0000798DFF8501308600698DFF84C1308607D
:1056B0000598DFF8481308600498DFF84413086081
:1056C0000398DFF8401308600298DFF83C13086085
:1056D0000198DFF838130860DFF8340300688005AC
:1056E000800D050055EA0600DFF824130860DFF896
:1056F000240300688005800D050055EA0700DFF8E7
:1057000014130860DFF8100300688005800D0500A1
:1057100055EA0800DFF800130860DFF800030068AE
:105720008005800D050055EA0900BC490860BC48A9
:1057300000688005800D050055EA0A00B849086038
:10574000B84800688005800D050055EA0B00B54992
:105750000860002080B242F21071884201DA401CD9
:10576000F8E7984802880321200000F075F9954871
:1057700002880021200000F06FF992480288012180
:10578000200000F069F98F4802880221200000F013
:1057900063F98C4802880421200000F05DF98948F3
:1057A00002880521200000F057F92000FFF764F877
:1057B000FFF70BFE002011B0BDE8F08F10B504001C
:1057C00083480068FFF7DAFD82480068FFF7D6FDDE
:1057D00081480068FFF7D2FD80480068FFF7CEFDE2
:1057E0007F480068FFF7CAFD7E480068FFF7C6FDE6
:1057F0007D480068FFF7C2FD7C480068FFF7BEFDEA
:105800007B480068FFF7BAFD7A480068FFF7B6FDED
:1058100079480068FFF7B2FD78480068FFF7AEFDF1
:1058200077480068FFF7AAFD76480068FFF7A6FDF5
:1058300075480068FFF7A2FD74480068FFF79EFDF9
:1058400073480068FFF79AFD72480068FFF796FDFD
:1058500071480068FFF792FD70480068FFF78EFD01
:105860006F480068FFF78AFD6E480068FFF786FD05
:105870006D480068FFF782FD6C480068FFF77EFD09
:105880006B480068FFF77AFD6A480068FFF776FD0D
:1058900069480068FFF772FD68480068FFF76EFD11
:1058A00067480068FFF76AFD66480068FFF766FD15
:1058B00065480068FFF762FD64480068FFF75EFD19
:1058C00040480088FFF75AFDFFF77FFD002010BD1C
:1058D00010B504003B4802880321200000F0BCF80A
:1058E000384802880021200000F0B6F835480288C8
:1058F0000121200000F0B0F8324802880221200087
:1059000000F0AAF82F4802880421200000F0A4F833
:105910002C4802880521200000F09EF82000FEF7A8
:10592000ABFFFFF752FD002010BD10B504000121B0
:105930002000FEF73FFEFFF748FD002010BD10B528
:10594000040000212000FEF735FEFFF73EFD002099
:1059500010BD10B504002000FEF78EFFFFF735FDE7
:10596000002010BD7CB50400002601A8FFF75DFDF6
:105970000198374908700DF102023548017820007E
:10598000FEF7ECFE00AA324801782000FEF705FF82
:10599000BDF80200BDF8001050EA014005002D4995
:1059A0002000FEF787FF2B480078FFF7E7FC280070
:1059B000FFF7E4FC3000FFF7E1FCFFF706FD0020F5
:1059C00076BD0000C00000205A07002054070020C8
:1059D0000040084004400840084008400C4008408F
:1059E0001040084014400840184008401C4008403F
:1059F0002040084024400840284008402C400840EF
:105A0000304008408C400840904008409440084096
:105A10004C4008405040084054400840584008401E
:105A20005C400840604008406440084068400840CE
:105A30006C4008407040084074400840784008407E
:105A40007C4008408040084084400840884008402E
:105A500058070020590700202DE9F44F86B00400B4
:105A60000D0000264FF6FF775FF00008BDF8180024
:105A7000C838ADF80600BDF8180010F1C8095FF08D
:105A8000000AEDB2DFF8940110EB85000600DFF8A4
:105A9000900100688DF8000000A92000FEF7AEFE1E
:105AA00003A92000FEF7F1FD0DF105012000FEF72E
:105AB000C3FD0DF101012000FEF717FE01A9200032
:105AC000FEF791FD00212000FEF7C6FD0021200019
:105AD000FEF799FD00212000FEF7EEFD00212000D9
:105AE000FEF713FE00229DF800102000FEF76BFE6B
:105AF0003068800A80023060012201212000FEF718
:105B000062FE01212000FEF755FD5FF00A0B5FFAEF
:105B10008BFBBBF1000F53D05FFA8AFABAF1000F8A
:105B20004ED13068049030680121BBF101029140F0
:105B3000084330602000FEF7AEFE3A4800680007D8
:105B4000FBD40DF102022900C9B22000FEF706FEC7
:105B5000BDF802001FFA89F981450AD3BDF8020099
:105B6000BDF80610884204D30120824630680290B6
:105B700023E0BDF802001FFA89F981450FD2BDF874
:105B80000200B0EB090080461FFA88F8BFB2B845A2
:105B900002D2306802904746049830600DE0BDF8AC
:105BA0000600BDF80210401A80461FFA88F8BFB2FE
:105BB000B84502D2306802904746BBF1010BA6E718
:105BC000029830609DF801102000FEF775FD9DF8E9
:105BD00001102000FEF799FD9DF80C102000FEF743
:105BE0003BFD9DF805102000FEF70DFD0022012170
:105BF0002000FEF7E8FD01229DF800102000FEF7CE
:105C0000E2FD9DF804102000FEF7D4FC2000FEF712
:105C100033FE002007B0BDE8F08F00004C40084084
:105C200030400840004008402DE9F04F93B08046D6
:105C300002AE002014461D460291B0610DF1300AFB
:105C40000AE014F8011B0298C0470290002800F0F7
:105C5000B481B069401CB061207808B9B069AEE188
:105C60002528EED10020F0603061706101E040F045
:105C7000010014F8011F2029F9D023290DD02B2968
:105C800004D02D2906D030290AD00CE040F00200C3
:105C900080B2EEE740F00400FAE740F00800F7E7D2
:105CA00040F01000F4E72A290DD129680A1D2A6066
:105CB00009683162002904D5494240F0040031628C
:105CC00080B2641C13E0002131620BE0316A6FF096
:105CD0000043994205D001EB810302EB43013039C7
:105CE0003162641C2278A2F130010A29EED32178B6
:105CF0002E2903D04FF0FF31F1611EE014F8011F8F
:105D00002A2906D129680A1D2A60641C0968F161E4
:105D100013E00021F1610BE0F1696FF0004399425B
:105D200005D001EB810302EB43013039F161641CC2
:105D30002278A2F130010A29EED3B0840FF280302C
:105D4000217800F0C1F908B114F8010B8DF82E008C
:105D50009DF82E00682804BF2078682803D16220AF
:105D60008DF82E00641C0CA8B0602278252A13D070
:105D7000582A34D0632A00F0A580642A18BF692A03
:105D800068D06F2A2BD0702A20D0732A09D0752AA8
:105D900018BF782A23D09FE0F068411CF1602521CC
:105DA00097E02868011D29600068F2697060002A88
:105DB00002D500F095F907E0002100F0ADF90028C8
:105DC0001ABF7168401AF069306191E02868011DBE
:105DD00029607821006801900CA870606EE09DF841
:105DE0002E306C2B08BF286811D0712B08BF286893
:105DF00002D028686A2B0AD1C01D20F00700286055
:105E0000014601F108002860D1E9000102E0011D0E
:105E1000296000680190682B02D101A8008803E086
:105E2000622B02D101A80078019096F824000007A7
:105E30003FD5019800283CD042F02000782838D186
:105E4000F068302100F80A10401C411CF16000F895
:105E50000A202EE09DF82E00622802D0682806D085
:105E60000BE02868011D296090F9000009E028680E
:105E7000011D2960B0F9000003E02868011D2960B8
:105E800000680190002804D5F068411CF1602D21C4
:105E90000DE0B08C810704D5F068411CF1602B2126
:105EA00005E0C00705D5F068411CF160202100F82D
:105EB0000A10F0680CA940187060114601A800F0A3
:105EC00081F815E0F068411CF16029680A1D2A601C
:105ED000096800F80A100BE0F068411CF160252108
:105EE00000F80A1022B1F068411CF16000F80A20A5
:105EF000306AF168401A7169401A3169A0EB0109F2
:105F000096F82400641C40070FD420208DF8000070
:105F1000002708E0012300AA01A9404600F0B9F8D3
:105F200000284AD17F1C4F45F4DBF7680DF1300B98
:105F30000AE01BF8011B0298C047029000283CD0E1
:105F4000B069401CB0617F1E002FF2D130208DF867
:105F500000004FF0000B776908E0012300AA01A9B7
:105F6000404600F096F840BB0BF1010BBB45F4DB5B
:105F70003769D6F804B009E01BF8011B0298C04746
:105F80000290D0B1B069401CB0617F1E002FF3D1E8
:105F900096F8240040077FF55FAE20208DF80000C2
:105FA00000E07F1C4F45BFF657AE012300AA01A9B0
:105FB000404600F06EF80028F3D04FF0FF3013B0E9
:105FC000BDE8F08FF0B4C2686F2908BF082405D07F
:105FD00041F02003782B14BF0A24102406681823EC
:105FE0003746642918BF692902D1002E48BF7F4275
:105FF0005FB9056A4DB9082C27D190F82810090718
:1060000023D530211723D1751FE0B7FBF4F604FB2D
:10601000167730375D1EFFB22B463A2FA4BFA1F191
:10602000510C6744AF54370003D085689E18B542C1
:10603000EBD3082C09D190F82810090705D5995CF5
:10604000302902D05B1E30219954C3F118014161FF
:106050009A188260026A914208DA511A81614FF6F9
:10606000EF72018D11400185F0BC7047002A0ED5FA
:1060700090F8282002F01402102A08D1426A03691D
:10608000D21A8369D21A531A012BA8BF8361F0BCBC
:106090007047F8B504460D4616461F46002004E03A
:1060A000E869401CE8617F1E002047B116F8011B1B
:1060B0006868A04768600028F2D14FF0FF30F2BD59
:1060C000686C747A4C0000000278C9B28A421AB136
:1060D0001CBF10F8012FF9E718BF0020704700001F
:1060E00000F10103810704D010F8011B89B1810779
:1060F000FAD10268B2F10131914311F0803F04BF3F
:1061000050F8042FF6E710F8011B11B110F8011B2D
:10611000FBE7C01A70470000C9B2830706D0521EC1
:1061200022D310F8013B9942F7D11FE0083A13D36C
:1061300002F1040241EA012141EA014150F8043B25
:10614000121F21BF4B40A3F1013C2CEA030C1CF0B1
:10615000803FF3D0C9B2001F083210F8013B521E35
:1061600028BF91EA030FF8D818BF0120401E7047DE
:10617000BFF34F8F7A48006810F4E0607949084314
:1061800077490860BFF34F8FFEE710B584B0FBF787
:10619000F5FB0020FCF7E7F9002802D0724800F078
:1061A00009F902210420FBF700FE00F0E7F80420C3
