:1000000000200020156300005563000057630000C6
:10001000596300005B6300005D630000B76300008C
:10002000B7630000B7630000B76300005F630000C0
:1000300061630000B7630000636300006563000054
:1000400067630000EF2E0000FB2E0000072F00006A
:10005000132F00001F2F00002B2F0000372F000050
:10006000432F00004F2F00003F5D00006963000038
:100070006B6300006D630000DB5600006F630000DF
:100080007163000073630000756300007763000014
:10009000796300007B6300007D6300007F630000E4
:1000A00081630000836300008563000087630000B4
:1000B000896300008B6300008D630000FD17000062
:1000C000291800008F630000916300009363000013
:1000D0009563000097630000996300009B63000034
:1000E0009D6300009F630000A1630000A363000004
:1000F000B7630000A5630000A76300005B2F00004A
:10010000672F0000B76300008B1500002F1600005A
:100110009B16000067170000A9630000AB63000096
:10012000AD630000AF630000B1630000B363000083
:04013000B5630000B3
:1008000040B24109DFF8B828012310F01F0013FAA5
:1008100000F042F82100704740B24109DFF8A428F7
:10082000012310F01F0013FA00F042F82100704776
:1008300010B50400200000F01CFD002802D041F299
:1008400001502AE0200000F01EFD002802D041F2F5
:10085000025022E0DFF870080088000602D541F25D
:1008600004501AE00D2001F0B4F9DFF86018884256
:1008700002D041F2055010E072B66078002802D034
:100880004FF4006000E0002050F00800E168896843
:100890000843E168886062B6002010BD10B504000E
:1008A000200000F0E6FC002802D041F2015023E0D5
:1008B000200000F0E8FC002802D041F202501BE0CA
:1008C000DFF89C090088000602D541F2045013E0CD
:1008D0000D2001F07EF9DFF8F417884202D041F2D2
:1008E000055009E072B6E0688068DFF878190840C2
:1008F000E168886062B6002010BD38B504000D00C4
:10090000200000F0B6FC002802D041F201501CE0AB
:10091000200000F0B8FC002802D041F2025014E0A0
:10092000DFF8A4070088000602D541F204500CE06D
:100930000D2001F04EF9DFF89417884202D041F201
:10094000055002E0E068C560002032BDF8B5040043
:100950000D0016000027200000F08BFC002802D0BC
:1009600041F2015027E0200000F08DFC002802D069
:1009700041F202501FE0DFF850070088000602D560
:1009800041F2045017E00D2001F023F9DFF83C1785
:10099000884202D041F205500DE072B6E068DFF8FF
:1009A0005019C0F800112E60E0680021C0F8001155
:1009B00062B6380000B2F2BDF8B506000F001500AF
:1009C0000024300000F055FC002802D041F2015014
:1009D0001FE0300000F057FC002802D041F2025026
:1009E00017E0DFF8E4060088000602D541F2045063
:1009F0000FE00D2001F0EDF8DFF8D016884202D0AC
:100A000041F2055005E072B63868286062B62000F1
:100A100000B2F2BDF8B504000025666CA76C20009A
:100A200000F027FC002802D041F2015042E0DFF83C
:100A300030080088000602D541F204503AE00B204D
:100A40003070002070700220B070E0687030F0608C
:100A500002203074032070740020B0740020F07401
:100A6000012030750C203870002078700120B8709B
:100A7000E0686C30B860012078740320387400207E
:100A8000B8740020F8740120387500210B2001F0A3
:100A9000D3FE002801D041F20B552DB2002D07D115
:100AA00000210C2001F0C8FE002801D041F20B55B6
:100AB000280000B2F2BD38B504000025200000F087
:100AC000D8FB002802D041F201502BE0200000F0BA
:100AD000DAFB002802D041F2025023E0DFF8E805FB
:100AE0000088000602D541F204501BE00D2001F001
:100AF00070F8DFF8D815884202D041F2055011E0B5
:100B000072B66078002802D04FF4805000E00020D8
:100B100050F01000E16889680843E168886062B6B7
:100B2000280000B232BD38B504000025200000F0D6
:100B3000A0FB002802D041F2015024E0200000F088
:100B4000A2FB002802D041F202501CE0DFF8780539
:100B50000088000602D541F2045014E00D2001F097
:100B600038F8DFF86815884202D041F205500AE0F3
:100B700072B6E0688068DFF880170840E168886036
:100B800062B6280000B232BD10B50400200000F0AB
:100B900070FB002802D041F201501DE0200000F05F
:100BA00072FB002802D041F2025015E0DFF8B006D7
:100BB0000088000602D541F204500DE00B2001F040
:100BC000E4FE002804D10C2001F0DFFE002802D052
:100BD00041F20B5000E0002010BD2DE9F04104006F
:100BE0000D0016000027D4F84480200000F041FBDF
:100BF000002802D041F2015033E0200000F043FB16
:100C0000002802D041F202502BE0DFF8BC0400883B
:100C1000000602D541F2045023E00D2000F0D9FF78
:100C2000DFF8A814884202D041F2055019E0002DE7
:100C30000BD0C8F80850C8F80460404601F0DEFE4A
:100C4000002809D041F20B5706E0404601F06BFF47
:100C5000002801D041F20B57002084F84C003800E6
:100C600000B2BDE8F0812DE9F04104000D0016004E
:100C70000027D4F84880200000F0FBFA002802D0BA
:100C800041F2015035E0200000F0FDFA002802D0CA
:100C900041F202502DE0DFF830040088000602D552
:100CA00041F2045025E00D2000F093FFDFF81C1402
:100CB000884202D041F205501BE0002D0DD0C8F84B
:100CC0000C50C8F80460404601F098FE002801D09E
:100CD00041F20B57A4F8546006E0404601F023FFB0
:100CE000002801D041F20B57002084F84D00380055
:100CF00000B2BDE8F08110B4002204E003785B008C
:100D000003704900521CD2B2202A10DA0B0E13F0E5
:100D10008003047814F0800494EA030FEED0037883
:100D20005B000370037893F007030370E9E710BCDE
:100D3000704770B582B004000D0001208DF80000EE
:100D4000002605E054F8261000A8FFF7D4FF761C13
:100D5000AE42F7D39DF8000076BD38B504000D0013
:100D6000200000F086FA002802D041F201501CE079
:100D7000200000F088FA002802D041F2025014E06E
:100D8000DFF844030088000602D541F204500CE06D
:100D90000D2000F01EFFDFF83413884202D041F22C
:100DA000055002E0E0792870002032BD38B505001A
:100DB0000C00280000F05DFA002802D041F201503A
:100DC00024E0280000F05FFA002802D041F202502F
:100DD0001CE0DFF8F4020088000602D541F204505E
:100DE00014E00D2000F0F5FEB849884202D041F22F
:100DF00005500BE06878002803D095F84D000028D6
:100E000001D0012000E000202070002032BD2DE93B
:100E1000F04104000D0016001F005FF000082000E4
:100E200000F027FA002802D041F2015067E02000CC
:100E300000F029FA002802D041F202505FE0A248F7
:100E40000088000602D541F2045058E00D2000F061
:100E5000C0FE9E49884202D041F205504FE0002F6B
:100E600021D0012060702665B4F85800B84208D33C
:100E70003A0031002000FFF7F6FE0020A4F85600EB
:100E80000DE0B4F8582031002000FFF7ECFEB4F874
:100E90005800381AA4F856000020A4F85C0020205E
:100EA000FFF7AEFC04E000206070012084F84D00E4
:100EB0002868020C291D2000FFF78FFE1F20FFF776
:100EC0009FFC0020A0710020E0710020A080E0685D
:100ED000002141662000FFF7ABFC2000FFF7EBFD8F
:100EE00072B689220321200000F00CFB0123892225
:100EF0000321200000F0A2FA62B6404600B2BDE82D
:100F0000F08138B504000025200000F0B2F9002877
:100F100002D041F2015022E0200000F0B4F9002894
:100F200002D041F202501AE0CD480088000602D5F6
:100F300041F2045013E00D2000F04BFEDFF8B41333
:100F4000884202D041F2055009E072B6E06840687C
:100F500050F00100E168486062B6280000B232BD7E
:100F600038B504000025200000F083F9002802D0E5
:100F700041F201502DE0200000F085F9002802D058
:100F800041F2025025E0B6480088000602D541F241
:100F900004501EE00D2000F01CFE4C49884202D097
:100FA00041F2055015E0E0684068C00701D541F204
:100FB0000F552DB2002D03D12000FFF76FFC050067
:100FC0002DB2002D03D12000FFF7ADFD0500280054
:100FD00000B232BD38B504000025200000F049F908
:100FE000002802D041F2015029E0200000F04BF926
:100FF000002802D041F2025021E099480088000602
:1010000002D541F204501AE00D2000F0E2FD2F4914
:10101000884202D041F2055011E0E0684068400883
:101020004000E16848602000FFF77DFDE06800684F
:10103000DFF8F0170840E1680860280000B232BD10
:1010400070B504000D000026200000F012F9002801
:1010500002D041F2015032E0200000F014F90028E3
:1010600002D041F202502AE07D480088000602D5F5
:1010700041F2045023E00D2000F0ABFDDFF898189A
:10108000884202D041F2055019E0207A002805D0AC
:101090002868010C281DFFF74CFE00E02868E16875
:1010A000096EC0B2814205D1E068406E2968B0EB9C
:1010B000114F02D041F2105001E0300000B270BD7B
:1010C00000E100E080E100E0148002400024F40030
:1010D0002DE9F04182B004000D0016001F005FF002
:1010E0000008200000F0C5F8002802D041F20150AD
:1010F000B3E0200000F0C7F8002802D041F202500F
:10110000ABE057480088000602D541F20450A4E045
:101110000D2000F05EFDDFF80018884202D041F299
:1011200005509AE03B00320029002000FFF76FFED7
:101130008046404600B2002805D02000FFF74AFF55
:10114000404600B289E00120A070A079002803D1B8
:10115000B4F904000028F8D0B4F90400002805D040
:101160002000FFF737FFB4F9040076E00220A070FA
:10117000002020762000FFF7C4FE8046404600B2E3
:10118000002805D02000FFF725FF404600B264E0AC
:101190000320A070607A00285DD0002214F11801AD
:1011A000012001F094F872B600208DF8000000A92B
:1011B0002000FFF7FBFD80460FFA88F8B8F1000F1A
:1011C00008D19DF80000002804D000A92000FFF7F6
:1011D000C4FD80460FFA88F8B8F1000F05D19DF8DC
:1011E0000000002801D10020207662B60FFA88F8AE
:1011F000B8F1000F07D19DF80000002803D1B4F921
:1012000004000028C9D00420A070B4F9040000280C
:1012100005D02000FFF7DEFEB4F904001DE0200039
:10122000FFF79EFE8046404600B2002805D0200011
:10123000FFF7D0FE404600B20FE00020A07029006A
:101240002000FFF7FDFE8046404600B2002802D095
:10125000404600B201E0404600B2BDE8F681000021
:1012600014800240F7F7FFFF00220172100000B265
:101270007047DFF8A8160968814202D041F2015098
:1012800000E0002070470078002802D141F20250AF
:1012900000E00020704738B504000D002000FFF783
:1012A000E8FF002802D041F2015009E02000FFF7DA
:1012B000EAFF002802D041F2025001E0256100203F
:1012C00032BD38B504000D002000FFF7D2FF002822
:1012D00002D041F2015009E02000FFF7D4FF0028BE
:1012E00002D041F2025001E06561002032BD0000F1
:1012F000AFA587DE0024F400EFEFFFFF70B5040018
:10130000002600202060DFF8140605682800FFF79B
:10131000BAFF002802D141F2035051E04FF47A7035
:10132000286141F64C506861DFF8F805E86001215A
:10133000012000F09AFC3220FFF762FA3320FFF719
:101340005FFA3420FFF75CFA3520FFF759FADFF82F
:10135000D8056864DFF8D405A8644FF48060A5F868
:1013600058000020A5F85A000020A5F856000020DB
:1013700028650020A5F85400002028720020A870DD
:10138000012068720020E861002028620020686265
:101390000020E862002068630020E86300202876CF
:1013A0002800FFF737FB0600300000B2002802D00B
:1013B000300000B204E0012028702560300000B247
:1013C00070BD38B5040000252000FFF752FF00284B
:1013D00002D041F2015030E02000FFF754FF002816
:1013E00002D041F2025028E03220FFF715FA3320F4
:1013F000FFF712FA3420FFF70FFA3520FFF70CFA47
:10140000002060640020A0642000FFF7BDFB0020E6
:10141000A0700020E06100202062002060620020B7
:10142000E062002060630020E06300202070002163
:10143000012000F01AFC280000B232BD2DE9F0476F
:1014400082460C0015001E0000275046FFF711FFD2
:10145000002802D041F2015052E05046FFF713FF3E
:10146000002802D041F202504AE0DFF8B4040088BC
:10147000000602D541F2045042E00D2000F0A9FB25
:10148000DFF89414884202D041F2055038E0E4B20B
:10149000012C06D018D3032C0DD007D3042C0FD069
:1014A00012E0DFF88C845FF032090DE0DFF884840D
:1014B0005FF0330908E0DFF880845FF0340903E06F
:1014C000DFF878845FF03509F6B2002E09D0D8F83D
:1014D00000002843C8F80000484640B2FFF790F9E2
:1014E0000CE0D8F80000A843C8F80000D8F80000C5
:1014F000002803D1484640B2FFF78EF9380000B209
:10150000BDE8F087F8B506000F0014000025300094
:10151000FFF7AFFE002802D041F2015034E0300066
:10152000FFF7B1FE002802D041F202502CE0DFF8B4
:10153000F0030088000602D541F2045024E00D209B
:1015400000F047FBDFF8D013884202D041F205508B
:101550001AE0FFB2012F06D014D3032F0BD006D30D
:10156000042F0CD00EE0DFF8D80304600AE0DFF8A7
:10157000D403046006E0DFF8D003046002E0DFF883
:10158000CC030460280000B2F2BD70B5DFF88C0314
:10159000046800250026E068D0F8A000E168D1F8D2
:1015A0008C1010F0010211F00103D2B21A4201D0E6
:1015B00055F00105820703D58A0701D555F00205CC
:1015C000420703D54A0701D555F00405020703D5A4
:1015D0000A0701D555F00805C20603D5CA0601D58C
:1015E00056F01006820603D58A0601D556F020066D
:1015F000400603D5480601D556F04006606A00282B
:1016000009D056EA0500A16A084204D00022002150
:101610002000636A98470023320001212000FFF771
:101620000DFF2A0001212000FFF76CFF70BD38B5C7
:10163000BA4804680025E068D0F8A400E168D1F851
:10164000901010F0010211F00103D2B21A4201D041
:1016500055F00105820703D58A0701D555F002052B
:10166000420703D54A0701D555F00405000703D505
:10167000080701D555F00805E06A002807D0206B5F
:10168000054204D0002200212000E36A98472A0086
:1016900002212000FFF736FF31BD70B59F48046876
:1016A00000250026E068D0F8A800E168D1F8941081
:1016B00010F0010211F00103D2B21A4203D055F02A
:1016C00001050122E271820703D58A0701D555F091
:1016D0000205420703D54A0701D555F00405020764
:1016E00005D50A0703D556F008060122A271C206E5
:1016F00003D5CA0601D556F01006820603D58A0620
:1017000001D556F02006420606D54A0604D555F006
:10171000400541F20852A280000606D5080604D50D
:1017200055F0800541F20750A08014F1180000F038
:1017300037FE606B00280AD056EA0500A16B08420C
:1017400005D0002256EA05012000636B984700236C
:10175000320003212000FFF771FE2A000321200040
:10176000FFF7D0FE70BD70B56C48046800250026F8
:10177000E068D0F8AC00E168D1F8981010F00102F0
:1017800011F00103D2B21A4201D056F001068207CD
:1017900003D58A0701D556F00206420703D54A074A
:1017A00001D556F00406020706D50A0704D555F000
:1017B000080541F20A52A280C00606D5C80604D523
:1017C00055F0100541F20950A080E06B002809D0C7
:1017D00056EA0500216C084204D0002200212000B6
:1017E000E36B98470023320004212000FFF726FE18
:1017F0002A0004212000FFF785FE70BD10B5474880
:1018000004681F20FFF708F8012084F84C0001202D
:10181000A071E069002804D0002200212000E369C3
:10182000984710BDFF1EFEFF70B53C480468B4F831
:101830005450B4F8560000284FD0B4F85C0000288B
:1018400020D0B4F85800216D11EB4006206D4049BE
:101850000860B4F85800B4F85610884205D3B4F8BC
:1018600056200020A4F8560008E0B4F85820B4F838
:101870005600B4F85810401AA4F856000020A4F8F6
:101880005C0020E0266DB4F85800216D11EB40009B
:101890002F490860B4F85A00B4F85610884205D3AE
:1018A000B4F856200020A4F8560008E0B4F85A20F6
:1018B000B4F85600B4F85A10401AA4F85600B4F818
:1018C0005A00A4F85C0092B2214801682000FFF79A
:1018D000CAF920480121017010E01E480078002854
:1018E00002D01B48066800E0266D2020FEF794FF1A
:1018F000012084F84D0017480021017014F11800F0
:1019000000F04EFD206A002805D03200ADB229005B
:101910002000236A984770BD0024F400306F000057
:101920001480024000000840BC040020D4040020C1
:101930008C0008409000084094000840980008403F
:10194000A0000840A4000840A8000840AC000840DF
:10195000FC0400201005002080B572B6DFF8AC0A48
:10196000DFF8AC1A0160DFF8AC0A5FF4E021016037
:10197000BFF36F8FBFF34F8F62B6DFF84C0B4CF69F
:1019800014310180DFF8A40B008850F00300DFF869
:101990009C1B0880DFF8940B00888005FAD5DFF8DF
:1019A000900B00884FF6FC710840DFF8841B08801C
:1019B000DFF87C0B00210180DFF8100B41F21001F1
:1019C0000180DFF80C0B88210180DFF8080B8F21E4
:1019D0000180DFF8040B4FF4C0710180012000F09A
:1019E00060F8DFF8E40A4CF614310180DFF83C0BB4
:1019F00000884FF6F7710840DFF8301B088000F0D0
:101A000001F801BDDFF82C0B4FF400410160DFF855
:101A1000200B008880B210F00300C0B2002805D06F
:101A200002280FD008D3032834D039E0DFF8080BA0
:101A3000DFF8081B016033E0DFF8FC0ADFF8FC1A6E
:101A400001602DE0DFF8E80A0088000502D5DFF824
:101A5000EC0A01E0DFF8E40ADFF8741A098889B2B9
:101A600011F03F014843DFF8681A098889B211F084
:101A7000C001402903D0802902D1800800E040083D
:101A8000DFF84C1A0988C90500D54008DFF8A81A04
:101A9000086005E0DFF8A00ADFF89C1B0968016018
:101AA000704780B5C0B200281ED0022825D01FD3B1
:101AB00004282BD025D306282ED02AD3082831D0AD
:101AC0002DD30A2834D030D30C2837D033D30E2866
:101AD0003AD036D310283DD039D3122840D03CD349
:101AE000142843D03FD343E000224FF400613FE08D
:101AF0004FF400624FF400613AE000224FF480712D
:101B000036E04FF480724FF4807131E00022F02112
:101B10002EE01022F0212BE02022F02128E03022BC
:101B2000F02125E04022F02122E05022F0211FE0A8
:101B30006022F0211CE07022F02119E08022F021C7
:101B400016E09022F02113E0A022F02110E0B02254
:101B5000F0210DE0C022F0210AE00022032107E07D
:101B60000122032104E00222032101E003220321D8
:101B700072B6DFF8BC09008888431043DFF8B0195B
:101B8000088062B6FFF73EFF01BDC0B2002805D055
:101B900002280DD007D303280ED010E04FF40061C7
:101BA0000B2200230BE04FF480710822022306E091
:101BB000F0210422042302E0032100221123DFF894
:101BC0007009008880B289B2084010411818C0B26C
:101BD000704710B50400DFF860090068002804D0E1
:101BE000DFF850090068002800D1FEE7FFF70AFF80
:101BF000E4B2002C012C06D9A41E052C1ED9A41F6A
:101C0000072C25D92EE0DFF8C80BDFF8C0180988AB
:101C100089B211F03F01012901D101210BE0DFF868
:101C2000AC18098889B211F03F01DFF8A0281288AA
:101C3000120600D58908B0FBF1F010BDDFF8F808F6
:101C40000068DFF888180988C1F3052189B2F2E736
:101C5000DFF8E4080068DFF87418098889B211F029
:101C60003F01E8E740F20230E7E7C0B200280BD0BE
:101C700002281AD017D304281BD018D306281CD04A
:101C800019D307281BD01CE04FF4807072B6C9B27C
:101C9000002919D0DFF84018098831EA0000DFF880
:101CA0003818088017E08020F0E72020EEE71020A9
:101CB000ECE70820EAE70420E8E70220E6E7012055
:101CC000E4E740F2023008E0DFF80C180988084326
:101CD000DFF80418088062B60020704780B5C02283
:101CE000114202D040F2013020E0C0B200280128A9
:101CF00006D9801E05281AD9801F072835D950E03B
:101D0000FE20014202D040F201300FE08020C9B233
:101D1000C90172B6DFF8B427128882430A43DFF89C
:101D2000AC07028062B6FFF76DFE002002BDC9B2AB
:101D30000A00DFF89807008810F03F0092B280B2E6
:101D4000824202D240F20530F0E792B280B292FBBA
:101D5000F0F300FB1320002802D04FF44170E5E7B8
:101D60004FF47C50C9B20902D3E7DFF8600700885E
:101D7000C0F30522C9B2080092B280B2824202D2F8
:101D800040F20530D2E792B280B292FBF0F300FB52
:101D90001320002802D04FF44170C7E73F20C9B29A
:101DA000B7E740F20230C1E738B5C0B2002809D029
:101DB000022820D016D304282FD025D3062836D0C9
:101DC00030D307E00824DFF86457DFF8FC264CF630
:101DD0001433138072B6C9B2002942D02A88224334
:101DE0002A8041E00424DFF84457DFF8DC264CF673
:101DF00014331380EEE70224DFF83057DFF8C826EB
:101E00004CF614331380E5E70124DFF82057DFF8A0
:101E1000B8264CF614331380DCE74FF40074DFF877
:101E2000B056D7E74FF40074DFF8A856D2E7002287
:101E30004FF40061DFF89C0900F096FF002802D003
:101E400040F211302EE001224FF40061DFF88409E6
:101E500000F05FFF002802D040F2113022E00020A5
:101E600020E02A88A2432A8062B6C0B2012818D195
:101E7000C9B2002915D1092000F0CEFA0021009145
:101E800002E00099491C009100998142F9D372B691
:101E9000DFF834064CF6143101802888A0432880EE
:101EA00062B6002032BD2DE9F04104000D0000268D
:101EB0002000C0B200F07BF902284FD0E4B2052C1C
:101EC00027D172B6DFF80C06008810F03F074FF6F6
:101ED000C071084050F03F0050F40070DFF8F41576
:101EE000088062B6222000F097FA804601E0B8F13F
:101EF0000108B8F1000FFAD172B6DFF8D8050088F2
:101F00004FF6C07108403843DFF8C815088062B644
:101F100004E001212000C0B2FFF746FFEDB2002D22
:101F20001CD0EDB2012D02D143F6992801E0EDB2AB
:101F3000A846404600F070FA804601E0B8F101087A
:101F4000B8F1000F05D02000C0B200F030F902282F
:101F5000F4D1B8F1000F01D14FF44276300000B255
:101F6000BDE8F08138B504000025E4B2002C0BD0A8
:101F7000022C26D075D3042C69D0C0F0C380062C67
:101F800000F009816CD30FE10320FFF7FEFD12285A
:101F900002D140F2093013E00020FFF7F6FD0128DE
:101FA00007D10320FFF7F1FD132802D140F20A30D8
:101FB00006E000212000C0B2FFF7F6FE280000B2C4
:101FC00032BD0320FFF7E1FD112802D140F20930B4
:101FD000F6E70020FFF7D9FD002807D10320FFF71F
:101FE000D4FD132802D140F20A30E9E7DFF8E80710
:101FF000008880B210F06000202807D1DFF8D807F1
:102000000088C00602D540F20B30D9E7DFF8CC07D4
:10201000008880B210F06000202807D1DFF8BC07EC
:102020000088C00602D540F20B30C9E7DFF8B007E0
:10203000008880B210F06000202807D1DFF8A007E8
:102040000088C00602D540F20B30B9E7B1E70320A3
:10205000FFF79BFD132802D140F20930B0E7A8E753
:10206000A7E70120FFF791FD032806D100F0ABF9A7
:10207000002802D040F20E30A2E7DFF868070068BF
:10208000C00702D540F20D309AE7DFF85C07008800
:1020900080B210F4D060B0F5207F02D14FF44370CD
:1020A0008EE7DFF83407008880B210F06000602807
:1020B00007D1DFF824070088C00602D540F20B30B4
:1020C0007EE7DFF81807008880B210F06000602813
:1020D00007D1DFF808070088C00602D540F20B30B0
:1020E0006EE7DFF8FC06008880B210F06000602820
:1020F00007D1DFF8EC060088C00602D540F20B30AD
:102100005EE756E70120FFF740FD022806D100F008
:102110005AF9002802D040F20E3051E7DFF8C80625
:10212000008880B210F4D060B0F5906F02D14FF407
:10213000437045E7DFF8A006008880B210F0600029
:10214000402807D1DFF890060088C00602D540F28B
:102150000B3035E7DFF88406008880B210F06000AD
:10216000402807D1DFF874060088C00602D540F287
:102170000B3025E7DFF86806008880B210F06000B9
:10218000402807D1DFF858060088C00602D540F283
:102190000B3015E70DE70320FFF7F7FC142802D1F9
:1021A00040F209300CE704E740F2023008E710B5CE
:1021B0000024DFF878130988C0B2002819D002285B
:1021C00007D01ED3042832D00BD3062821D03BD30E
:1021D00047E0880704D5880501D5022400E00124E2
:1021E00040E0C80704D5C80501D5022400E0012459
:1021F00038E0080704D5080501D5022400E00124D1
:1022000030E0480704D5480501D5022400E0012448
:1022100028E0DFF8C00500F0D2FD000506D4DFF8A5
:10222000B40500F0DFFD000500D402241AE0A84840
:102230000088800507D5DFF8B4050088C00701D500
:10224000022400E001240DE0A2480088800507D5A3
:10225000DFF898050088C00601D5022400E00124BB
:1022600000E003242000C0B210BD70B50C001500C2
:102270001E00C0B2042802D005281AD024E0032092
:10228000FFF783FC132802D14FF4447010E090480C
:1022900040F2FF1336B2E4B254EA0601EDB255EA59
:1022A000010272B6018899431143018062B6002091
:1022B00070BD884840F2FF1336B2E4B254EA06011A
:1022C000EDB255EA0102ECE740F20230F0E770B4FB
:1022D00000230024F8252A4202D040F207305DE0B6
:1022E000002903D153F00203DFF80415C0B200281F
:1022F00005D0022805D004D303282BD02DE00020E0
:102300004CE054F0040472B6DFF8E85444F6590681
:102310002E80DFF8E0544FF27B262E80DFF8D85471
:102320002D884FF6FC763540C0B22843DFF8C854FC
:102330002880DFF8C80400689BB21843A4B2A04309
:10234000DFF8B8341860EFF31180D2B2520182F393
:10235000118810E053F00403D5E740F206301DE089
:10236000DFF89C2412880E231A42F9D1BFF34F8F55
:1023700030BF62B672B60A78002AF1D000220A7025
:1023800080F31188DFF87404006830F00200DFF891
:102390006C140860BFF34F8F62B6002070BC7047AA
:1023A00000280DD1DFF8480472B6DFF85014096830
:1023B00031F00201DFF844241160BFF34F8F62B6A1
:1023C000012101707047DFF83C040068000106D568
:1023D000DFF834040068C00701D5012015E0DFF8FC
:1023E0002C040088C00501D501200EE0DFF8200490
:1023F0000088800601D5012007E0DFF81804008876
:10240000C00701D5012000E00020704708ED00E082
:102410000000000024ED00E010B504000920FFF7E3
:10242000D8FB000D002801D04443FFE7200010BD79
:1024300038B5040000200025DFF8DC1309780029F6
:102440000BD100F04BF8010009B2002901D000B215
:1024500038E0DFF8C41301220A70002100E0491DB2
:10246000192908D2DFF8B42312F83120DFF8A83395
:102470001B789A42F3D10A0000E0491C531D99428F
:102480000BDADFF8983313EBC1035B78E4B2A342B5
:10249000F3D1DFF8882312EBC105002D0FD0A97806
:1024A00000290CD06968002901D06868804700B213
:1024B000002806D1A978DFF86023117001E040F20E
:1024C000133000B232BD00000C24004004800240F2
:1024D0000C800240108002401480024038B5002475
:1024E000CF4D01210220FFF7DEFC040000B20028DE
:1024F00002D0200000B217E01120FFF7D2FA00212D
:10250000280000F047F900210120FFF7E7FB052034
:10251000FFF728FD0420FFF725FD0020FFF722FD2F
:10252000FFF770FA200000B232BD00001024004016
:102530000080024000050020040500200024F40073
:1025400038B50025B74C0020FFF71FFB012805D147
:1025500001210020FFF7A7FC050004E00121022073
:10256000FFF7A1FC05002DB2002D02D0280000B21B
:1025700060E00320FFF709FB132826D1AA48008852
:1025800080B210F0C00080280BD1A748008880B22C
:1025900010F03F00102804D1A348008880B2C00585
:1025A0001AD40020FFF7F1FA012803D11220FFF717
:1025B00078FA02E01120FFF774FA4FF480731022CA
:1025C00080210420FFF751FE06E04FF480731022B3
:1025D00080210420FFF749FE01210420FFF763FC5E
:1025E0000500280000B2002802D0280000B221E037
:1025F0000121200000F0CEF81320FFF752FA00214D
:10260000200000F0C7F80520FFF7ACFC0020FFF722
:10261000BCFA012803D10220FFF7A4FC02E000204D
:10262000FFF7A0FC00210120FFF758FBFFF7EAF9B4
:10263000280000B232BD00000805002038B5002592
:102640007A4C0020FFF7A1FA012805D101210020D2
:10265000FFF729FC050004E001210220FFF723FC1D
:1026600005002DB2002D02D0280000B26FE003203B
:10267000FFF78BFA132826D16B48008880B210F040
:10268000C00080280BD16848008880B210F03F005D
:10269000102804D16448008880B2C0051AD40020F4
:1026A000FFF773FA012803D11220FFF7FAF902E0CD
:1026B0001120FFF7F6F94FF48073102280210420D7
:1026C000FFF7D3FD06E04FF4807310228021042031
:1026D000FFF7CBFD01210420FFF7E5FB05002800F3
:1026E00000B2002802D0280000B230E00121200012
:1026F00000F050F81320FFF7D4F90021200000F07B
:1027000049F801210120FFF7E9FA00230F22802177
:102710000520FFF7AAFD01210520FFF7C4FB0500F6
:10272000280000B2002802D0280000B20FE00020EC
:10273000FFF72BFA012803D10220FFF713FC02E078
:102740000020FFF70FFCFFF75DF9280000B232BD53
:1027500038B50024364D0020FFF717FA012803D1C1
:102760001220FFF79EF902E01120FFF79AF90021ED
:10277000280000F00FF800210120FFF7AFFA052034
:10278000FFF7F0FB0420FFF7EDFBFFF73BF920001C
:1027900000B232BDC9B200290FD02649098889B2DA
:1027A00011F03F010278914207DB22490988C1F309
:1027B000052189B24278914209DA017811F03F018E
:1027C0004078000210F47C5008431A490880704792
:1027D0000087930300000240080000400804004006
:1027E00008080040002600400825004018800240EC
:1027F00011050020042400400024004010ED00E0FA
:10280000982500400840084000400840005C004017
:102810008825004000800040120500204C62000026
:10282000A2000020A40000200C800240A60000208E
:10283000AA0000200480024030B401228240C0B2CD
:10284000102802DB41F2032090E0DFF83C0400682E
:102850004068104202D041F2022087E072B6DFF8F1
:102860002C04006850F00100DFF82034186062B6D4
:10287000DFF814040068007800285CD1002028E00C
:102880000301DFF80C44246800251D51DFF80034F3
:102890001B6813EB001300245C60DFF8F4331B6843
:1028A00013EB001300249C600301DFF8E843246865
:1028B00000251D51DFF8DC331B6813EB00130024E7
:1028C0005C60DFF8D0331B6813EB001300249C60BE
:1028D000401C1028D4DBDFF8C003DFF8B4331B68DA
:1028E0000360DFF8B80300230360DFF8B4030023BC
:1028F0000360DFF8B00300230360DFF8AC030023BC
:102900000360DFF8A80300230360DFF8A4030023BB
:102910000360DFF8A00300230360DFF89C034FF699
:10292000FF730360DFF89403FF230360DFF85803AD
:10293000006801230370C9B2002902D0012917D011
:1029400020E072B6DFF8700300681043DFF8681308
:10295000086062B672B6DFF8300300684068104362
:10296000DFF824130968486062B6002030BC704765
:1029700072B6DFF8400300681043DFF838130860D0
:1029800062B6E7E741F20A20F0E7DFF8FC120968D7
:102990000978012902D041F201202BE0C0B21028B1
:1029A00002DB41F2032025E0DFF8DC120968496808
:1029B000C140C9071FD572B6DFF8CC120968496853
:1029C000012212FA00F031EA0000DFF8BC120968B7
:1029D000486062B6DFF8B00200684068002808D19D
:1029E000DFF8A80200210160DFF89C0200680021E6
:1029F00001700020704741F20120FBE710B5040090
:102A0000DFF8840200680078012802D041F201203A
:102A100088E0200000F0B9F8010009B2002901D0D7
:102A200000B27FE0DFF898020068C00702D441F2EC
:102A3000012077E06078002806D12078DFF8501276
:102A4000096811EB001005E02078DFF848120968EA
:102A500011EB0010A1680160E168416072B6217C51
:102A60000029022903D9091F022908D90FE00168AA
:102A70006268521E237C9A405118016007E0016889
:102A80006268521E237C1B1F9A40891A0160617C78
:102A90000029022903D9091F022908D90FE041683A
:102AA0006268521E637C9A405118416007E0416899
:102AB0006268521E637C1B1F9A40891A416062B68D
:102AC000617C227C920652EA8171A27851EA02610D
:102AD000E27C51EA82316268521E51EA0211227D83
:102AE00011438160012021788840217C042902DB88
:102AF0007449086001E074490860617C042902DBC4
:102B00007249086001E0724908605F490968896894
:102B1000014202D06F49086001E06F4908606149D5
:102B20000860002010BD10B5040057480068007808
:102B3000012802D041F2012026E0200000F025F813
:102B4000010009B2002901D000B21DE05C48006814
:102B5000C00702D441F2012016E020784C490968F0
:102B600011EB001001212278914072B68268920B1D
:102B7000920363685B1E247D54EA03131A43826048
:102B800062B648480160002010BD3F4909684968A5
:102B90000278D140C90702D441F2032044E04168E1
:102BA000B1F5806F02D941F207203DE0817C002918
:102BB00002D041F20B2037E0334909688968027876
:102BC000D140C90728D581680422B1FBF2F303FB89
:102BD0001213002B0FD1C1680422B1FBF2F303FBE7
:102BE0001213002B07D141680422B1FBF2F303FB5F
:102BF0001213002B02D041F20C2015E0017C0329B6
:102C000001D0072905D1417C042905DB41F20C20C4
:102C10000AE041F20C2007E08178002903D0022964
:102C200013D002D32DE000207047017C002908D08A
:102C3000417C002905D0017C042902D0407C042875
:102C400002D141F20620EFE7EDE7017C002914D024
:102C5000417C002911D0017C01290ED0417C012941
:102C60000BD0017C042908D0417C042905D0017CCB
:102C7000052902D0407C052802D141F20620D3E785
:102C8000D1E741F20520CFE7346F00000400014096
:102C9000B4000020B80000200800014020000140DE
:102CA00024000140280001402C0001403000014078
:102CB00034000140380001403C0001404C0001401C
:102CC00000000140100801401408014018080140AC
:102CD0001C080140000801400408014010B5040030
:102CE000DFF8AC020068002802D140F602600FE075
:102CF000200040B200F05BF9002802D140F60660E7
:102D000006E00120611E8840DFF88C120880002058
:102D100010BD70B504000D001600DFF874020068E5
:102D2000002802D140F602601DE0200000F021F9E9
:102D3000002802D140F6036015E0280080B200F0C0
:102D40002FF9002802D140F605600CE072B6F6B209
:102D5000002E03D0A0892843A08102E0A089A843C7
:102D6000A08162B6002070BD70B504000D00160091
:102D7000DFF81C020068002802D140F602601DE066
:102D8000200000F0F6F8002802D140F6036015E0BC
:102D9000280080B200F004F9002802D140F6056056
:102DA0000CE072B6F6B2002E03D0208928432081B1
:102DB00002E02089A843208162B6002070BD10B5D2
:102DC000040073480068002802D140F6026008E061
:102DD000200000F0CEF8002802D140F6036000E0A9
:102DE000A08810BD10B5040069480068002802D111
:102DF00040F6026008E0200000F0BBF8002802D195
:102E000040F6036000E0208910BD38B504000D00D5
:102E10005F480068002802D140F6026012E02000FE
:102E200000F0A7F8002802D140F603600AE028006D
:102E300080B200F0B5F8002802D140F6056001E04C
:102E40002583002032BD38B504000D0050480068CD
:102E5000002802D140F6026012E0200000F089F85C
:102E6000002802D140F603600AE0280080B200F09A
:102E700097F8002802D140F6056001E0A583002004
:102E800032BD30B585B00C00C0B2414911EBC00075
:102E9000051D00A84149142200F0A4F82868002864
:102EA00005D0002264B2210068682B68984764B29C
:102EB00020002F38012814D8002207E0818D038ECE
:102EC000194089B2002900D00186521C052A07D278
:102ED00000A850F8220064B22F2CEFD1018DEEE74C
:102EE00003E0200040B2FFF7F9FE05B030BD80B529
:102EF00001210020FFF7C5FF01BD80B5022101209F
:102F0000FFF7BFFF01BD80B503210220FFF7B9FF26
:102F100001BD80B504210320FFF7B3FF01BD80B5DB
:102F200005210420FFF7ADFF01BD80B50621052076
:102F3000FFF7A7FF01BD80B507210620FFF7A1FF1E
:102F400001BD80B508210720FFF79BFF01BD80B5BB
:102F500009210820FFF795FF01BD80B52F21092029
:102F6000FFF78FFF01BD80B530210A20FFF789FFF1
:102F700001BD0849401A07D0403805D0403803D079
:102F8000403801D0403801D1012000E000207047D6
:102F90006004002000000240302400408C6E0000DD
:102FA00080B2002801D0012000E00020704740B22C
:102FB000401E082802D92E38012801D8012000E03F
:102FC0000020704762B38B0708D0521E11F8013BF6
:102FD00000F8013B00F024808B07F6D1830740F016
:102FE000208000BF103A07D330B4B1E83810103A4F
:102FF000A0E83810F9D230BC530724BFB1E808105C
:10300000A0E8081044BF51F8043B40F8043BD20745
:1030100024BF31F8022B20F8022B44BF0B78037039
:103020007047083A07D3B1E80810083A40F8043B63
:1030300040F804CBF7D25307E4E710B450F8041B70
:1030400081B102681218001D50F8043BDC0744BF30
:10305000A9F10104E31852F8044B43F8044B091F8B
:10306000F9D1EBE710BC70472DE9F04FA1B08246D3
:1030700002AE002017461D46029170620DF1440811
:103080000AE017F8011B0298D0470290002800F0D0
:103090008B82706A401C7062387808B9706A85E269
:1030A0002528EED10020F06030617061B061F061E0
:1030B000306201E040F0010017F8011F2029F9D02B
:1030C00023290DD02B2904D02D2906D030290AD050
:1030D0000CE040F0020080B2EEE740F00400FAE7B6
:1030E00040F00800F7E740F01000F4E72A290DD17E
:1030F00029680A1D2A600968F162002904D549423D
:1031000040F00400F16280B27F1C13E00021F16204
:103110000BE0F16A6FF00043994205D001EB8103A7
:1031200002EB43013039F1627F1C3A78A2F13001A1
:103130000A29EED339782E2903D04FF0FF31B1623E
:103140001EE017F8011F2A2906D129680A1D2A60E6
:103150007F1C0968B16213E00021B1620BE0B16A23
:103160006FF00043994205D001EB810302EB43016C
:103170003039B1627F1C3A78A2F130010A29EED3CE
:1031800030860FF6C030397800F0FAFD08B117F834
:10319000010B8DF83A009DF83A00682802BF397893
:1031A0006829622005D06C2804BF38786C2803D1C8
:1031B00071208DF83A007F1C11A8B0603978B1F108
:1031C000250023D01C3871D0001F02286ED9133877
:1031D00000F09780093869D0801E00F02B81401ED6
:1031E00000F0D480401E022860D9001F00F0CE807D
:1031F000401F30D0401E00F08480401E20D0C01EF2
:1032000009D0801E7DD0C01E7BD01BE1F068411C20
:10321000F160252120E12868011D29600068B26A5B
:103220007060002A02D500F0BBFD07E0002100F02D
:10323000D3FD00281ABF7168401AB06A30610DE1F1
:103240002868011D296000210068CDE9000111A84E
:1032500070607821EAE09DF83A00622818D068286A
:1032600006D06A280BD06C2819D0712807D016E038
:103270002868011D29600068716A0180EEE02A68F3
:10328000101D28601268706AC117C2E90001E5E0EC
:103290002868011D29600068716A0170DEE02868F5
:1032A000011D29600068716A0160D7E02868C01DAF
:1032B00020F00700286000F108022A60D0E900230E
:1032C000CDE90023002B04D5F068421CF2602D22CA
:1032D0000DE0308E820704D5F068421CF2602B228C
:1032E00005E0C00705D5F068421CF260202200F816
:1032F0000820F06811AA8018706000A800F0E2F9B8
:10330000ACE09DF83A006C2808BF2A6811D07128FB
:1033100008BF2A6802D02A686A280AD1D21D22F082
:1033200007022A60144604F108022A60D4E9002347
:1033300003E0131D2B6000231268CDE900236828E9
:1033400008BF92B207D0622808BFD2B203D0742857
:1033500018BF7A2802D10023CDE9002396F8300067
:1033600000075FD5DDE90023002B08BF002A59D0F4
:1033700041F02000782855D1F068302200F808206C
:10338000401C421CF26000F808104BE09DF83A0027
:1033900062280CD0682810D06A281AD06C2823D054
:1033A000712816D074281FD07A280CD01CE0286809
:1033B000021D2A6090F900201AE02868021D2A6088
:1033C000B0F9002014E02868021D2A60002302687A
:1033D0000FE02868C01D20F00700286000F10802F7
:1033E0002A60D0E9002304E02868021D2A600268F0
:1033F000D317CDE90023002B04DAF068421CF260F9
:103400002D220DE0308E820704D5F068421CF26058
:103410002B2205E0C00705D5F068421CF26020228F
:1034200000F80820F06811AA8018706000A800F069
:10343000C0F813E0F068411CF16029680A1D2A6099
:10344000096809E0F068421CF260252200F80820B3
:1034500021B1F068421CF26000F80810F06AF168CF
:10346000401AB169401A3169401AF169401A71690C
:10347000401A316AA0EB010996F830007F1C400722
:1034800010D420208DF84000002409E0012310AA68
:1034900000A9504600F03EFC002840F08580641CE6
:1034A0004C45F3DBF4680DF1440B0AE01BF8011BFB
:1034B0000298D0470290002876D0706A401C706253
:1034C000641E002CF2D130208DF840004FF0000B2C
:1034D000B46909E0012310AA00A9504600F01AFCC3
:1034E000002861D10BF1010BA345F3DB3469D6F859
:1034F00004B00AE01BF8011B0298D0470290002894
:1035000052D0706A401C7062641E002CF2D13020D0
:103510008DF840004FF0000BF46909E0012310AA78
:1035200000A9504600F0F6FB00283DD10BF1010B3D
:10353000A345F3DB30697168746900EB010B09E0A6
:103540001BF8011B0298D047029068B3706A401CB8
:103550007062641E002CF3D130208DF840004FF0D3
:10356000000B346A08E0012310AA00A9504600F0BD
:10357000D1FBC8B90BF1010BA345F4DB96F8300081
:1035800040077FF589AD20208DF84000002400E041
:10359000641C4C45BFF680AD012310AA00A950461B
:1035A00000F0B8FB0028F3D04FF0FF3021B0BDE8A9
:1035B000F08F2DE9FA47064682B035690A466F2A30
:1035C00008BF082705D041F02000782814BF0A273B
:1035D0001027D6E900013C2480468946642A18BF9A
:1035E000692A05D1002903DAD8F1000869EB4909F5
:1035F000B9F1000F08BFB8F1000F0CD1306B50B912
:10360000082F3BD196F83800000737D530203B24EF
:1036100085F83B0032E0CDE90089FB17404649467A
:103620003A4600F027FCB846A8FB0023DDE90089F4
:10363000A8EB02023032A4F1010AD2B254463A2A6F
:1036400003DB9DF80830513B9A180AF805208046A4
:103650005FEA010908BFB8F1000F03D0F0686119F3
:103660008842D8D3082F09D196F83800000705D52D
:10367000605D302802D0641E30206055C4F13C00EB
:10368000B0616119F160316B884207DA081A306263
:103690004FF6EF71308F0840308710E000290ED5CB
:1036A00096F8381001F01401102908D1716B726975
:1036B000891A326A891A081A0128A8BF306204B030
:1036C000BDE8F0872DE9F24F04468EB0D4E9000141
:1036D000CDE9020104AE9DF8380040F020000090D2
:1036E00061280AD0206B002848BF062004D404BFFC
:1036F0000098672801D1012020636168C1F30A5056
:1037000040F2FF7290421CD1080304BF20680028D9
:1037100009D10320A0619DF8380061381A2836D3FA
:103720000FF2346108E00320A0619DF83800613891
:103730001A2829D30FF21861E0680322FFF742FC30
:10374000B5E1012816DA204600F00BFC012811DB58
:10375000002700200099612920D1E168302201F87A
:10376000012B4A1CE2609DF83820612A0CBF7822A8
:1037700058220FE0626840F2FE3161F31E52471A90
:1037800062604FF0FF30E5E70FF2C051D4E70FF26F
:10379000C451D1E70A706169891C616110B90025C3
:1037A00000277BE10098612840F09680206B00287C
:1037B0004CBF2125451CDDE902012DB26E1CD4E968
:1037C00000890022002300F0EDFB3ABF89F00040A1
:1037D000CDE90280CDE902893F1F8DF810200DF15F
:1037E000110801E000F20708012E32DBDDE90201D9
:1037F0000022002300F0EEFB2BD21C2102A800F0D7
:1038000001FCDDE9020100F083FCF61F8146012E78
:1038100009DB00F0A9FC02460B46DDE9020100F0DD
:10382000BBFCCDE9020108F20700072105E009F021
:103830000F0200F8012D4FEA2919B9F1010F01DB40
:10384000491EF4D5491E5CBF002200F8012DF9D5B0
:10385000C8E70DF11100A8EB00010DF11106A94216
:10386000B8BF0D462DB228002FD4884206DA04A92D
:10387000411849780829A8BF0F2100DA002104AABD
:10388000821800E06D1E12F80139401E8B42F9D0FB
:103890000F2904D104A941184A78521C4A70002803
:1038A00002D504AE6D1C3F1D2DB2681E0DD48119CA
:1038B0000A783032D2B23A2A03DB9DF838303A3BEC
:1038C0009A1801F80129401EF2D5206B002840F11A
:1038D000E580681E2063E1E0DDE9020100220023AB
:1038E00000F060FB3CBF81F00041CDE902013FB236
:1038F00047F2975078434849DFF820B190FBF1F741
:103900003FB2C7F107069246012E19DBDDE90289B5
:10391000F00707D552465B464046494600F0FCFC9E
:103920008046894676105046594652465B4600F01E
:10393000F3FC82468B46002EEAD1CDE9028921E0D4
:1039400076429046DFF8D89012E0F00707D552464D
:103950005B464046494600F0DFFC804689467610CB
:103960005046594652465B4600F0D6FC82468B468E
:10397000002EEAD1DDE9020142464B4600F09EFDF1
:10398000CDE90201009866280CBF07F10A00062065
:10399000216B4518142DA8BF132530208DF8100079
:1039A0000DF11106DFF87C90012D3DDBDDE9020110
:1039B00000F0C4FB06F1080104220A23B0FBF3F374
:1039C00003EB8306A0EB4600303001F8010D0A201E
:1039D000B3FBF0F000EB8006A3EB4603303301F8B5
:1039E000013D521EE9D1083D01F10806012DDBDB46
:1039F000DDE9020100F0A2FB00F0C0FB02460B462D
:103A0000DDE9020100F0C8FB00224B4600F084FC17
:103A1000CDE90201CAE700BFA086010000002440F2
:103A20000000F03F84D797410DF11100301A0DF1DD
:103A3000110602E0401E7F1E761C31783029F9D035
:103A40000099662902D13FB2791C03E065290CBFB9
:103A500001210021226B8D182DB2A842B8BF054666
:103A60002DB229001AD4814204DA885D3528A8BF16
:103A7000392000DA30208A19521E00E06D1E12F83B
:103A80000139491E8342F9D0392802D1885D401C92
:103A90008855002902D5761E6D1C7F1C3FB29DF80B
:103AA000381000972BB23246204600F003F80FB0D2
:103AB000BDE8F08F2DE9F043054685B01E46D5F8E8
:103AC000308089461746012E02DA01260FF28C2734
:103AD00049F02000BDF93040662808BF641C17D0AB
:103AE000672840F0818014F1040FC0F283804445C0
:103AF00080F2808095F83800641C000702D44645A7
:103B0000B8BFB04624B2B8EB040848BF4FF0000875
:103B1000E868A96924B2012C25DA30234A1C0B5429
:103B2000B8F1010F03DA95F83810090702D52E21F4
:103B30001154521CAA6118EB040FB8BFC8F100045D
:103B400024B26142A0446962B045B8BF464636B26D
:103B5000EE613246AB6939461818FFF733FAA8EB25
:103B60000600A862BFE00818A64218DA32463946B5
:103B7000FFF728FAA9697118A961A01B6862B8F15A
:103B8000010F03DA95F83800000705D5E8682E2202
:103B90000A54E869401CE861C5F82880A3E0224681
:103BA0003946FFF70FFAA8692018361BB8F1010F44
:103BB00003DA95F83810090703D5E9682E22425434
:103BC000401C36B2A861B045B8BF4646EB6836B275
:103BD0003246E119C018FFF7F5F9A8693018A86155
:103BE000A8EB060068627EE04846612816D14FF0D7
:103BF000700917E0464504DA95F83810090758BFF0
:103C0000B046B8F1010848BF4FF00008B9F1670F9E
:103C100014BF4FF045094FF0650903E0412808BF84
:103C20004FF05009A969E86817F8013B0B544A1C8A
:103C3000B8F1010F05DA95F83810090758BFAA61E5
:103C400017D52E211154531CAB61B8F1010F10DBB5
:103C5000761E36B2B045B8BF464636B23246394611
:103C60001818FFF7AFF9A8693018A861A8EB06008B
:103C70006862A869E9684718200007F8019B03D427
:103C80002B2007F8010B03E02D2107F8011B44420C
:103C900000260DF1080808E00A2200A800F031FD16
:103CA000019808F8010B761C009C21B20129F3DA77
:103CB000022E06DA49F02000652804BF302007F8FC
:103CC000010B4EB9302007F8010B07E0761E02A861
:103CD000305C303007F8010B012EF7DAA869E9688B
:103CE0004018381AE86195F8380000F014001028E0
:103CF0000DD16869A9690818696A0818E96908187E
:103D0000A96A0818696B8842BCBF081A286205B006
:103D1000BDE8F083F8B504460D4616461F46002060
:103D200004E0E86A401CE8627F1E002047B116F8F4
:103D3000011BA868A047A8600028F2D14FF0FF300F
:103D4000F2BD0000686A6C747A4C00006E616E000F
:103D50004E414E00696E6600494E4600300050F8F4
:103D6000041B61B150F8042BD30744BFA9F1010330
:103D70009A18002342F8043B091FFAD1EFE7704775
:103D80000278C9B28A421AB11CBF10F8012FF9E7B4
:103D900018BF002070470268531C03601170704701
:103DA00000F10103810704D010F8011B89B18107DC
:103DB000FAD10268B2F10131914311F0803F04BFA2
:103DC00050F8042FF6E710F8011B11B110F8011B91
:103DD000FBE7C01A70470000C9B2830706D0521E25
:103DE00022D310F8013B9942F7D11FE0083A13D3D0
:103DF00002F1040241EA012141EA014150F8043B89
:103E0000121F21BF4B40A3F1013C2CEA030C1CF014
:103E1000803FF3D0C9B2001F083210F8013B521E98
:103E200028BF91EA030FF8D818BF0120401E704741
:103E300013F0004C03D55B42524263F100039CEA4D
:103E4000210C00F0178010B5644603D3494240426C
:103E500061F1000100F00EF8640004D349424042D1
:103E600061F10001244203D55B42524263F1000339
:103E700010BD00001B4213D1094236D12AB184463D
:103E8000B0FBF2F002FB10C2704700F041BCFCD363
:103E90000022002370470B00020000210020704721
:103EA000904271EB030CF6D370B5B1FA81F4B3FA1A
:103EB00083F52C1BA340C4F1200532FA05F63343E9
:103EC000A2405FF00046E64002E05B085FEA320293
:103ED000841A71EB030524BF204629467641F4D3AA
:103EE00002000B003000002170BD012ACFD970B54F
:103EF000140C20D0B1FA81F4B2FA82F5C4F1200496
:103F00006419B4F12006D6D3B2405FF00044F44007
:103F1000002502E052085FEA3303C61A71EB020E75
:103F200024BF3046714664416D41F3D302000B005B
:103F30002000290070BD0C46B1FBF2F102FB1145D7
:103F40002D0445EA1045B5FBF2F402FB145580B28E
:103F500040EA0545B5FBF2F002FB105240EA04408E
:103F600070BD30B4436803F0004201211B031B0BFA
:103F7000436004BF0368002B08D10DE00368DD0F28
:103F800045EA440444605B000360491E4468E30260
:103F9000F4D523031B0B436043681A434260084671
:103FA00030BC70474FF4001C1CEB410F94BF1CEB5E
:103FB000430F09E041EA030C50EA4C0C52EA0C0CA6
:103FC00003D2994208BF9042704714BF8B4282428D
:103FD000704700004FF4001C1CEB410F94BF1CEB1A
:103FE000430F09E041EA030C50EA4C0C52EA0C0C76
:103FF00003D28B4208BF8242704714BF994290425D
:104000007047000070B504460D466068C0F30A5062
:1040100040F2FF71884207D16068000304BF206846
:10402000002817D0022070BD20B92046FFF799FF65
:10403000012867DA012D0FDB40F2FF71091A8D426A
:104040000AD36068002847BF00202F4900202F496D
:10405000C4E90001012070BD4142A942616806DA4D
:104060006FF31E51401941EA0050606041E0401E6C
:1040700063680122451962F31F5305F1350001F011
:1040800000416360352803D361600020206070BD6B
:10409000002215F11F0F04DA22682360002020356A
:1040A0006060684213D0521E25689241C0F120031F
:1040B000D2439D4045EAD27225686668C54006FA3B
:1040C00003F32B432360636823FA00F060606068A9
:1040D00008436060B2F1004F03D80DD12078C007CB
:1040E0000AD52068401C2060206828B96068401C00
:1040F00060604FF0FF3070BD6068884204BF206888
:104100000028F6D1002070BD0000F0FF0000F07F15
:10411000F446400D40EAC120490006D200F014F8F0
:10412000004248BF6FF00040604700F00DF84FF0CC
:10413000004188428CBF084640426047400D40EA3B
:10414000C120490080F00D8040F00040490DA1F5EC
:104150008061491C05D4D1F11F0154BFC840C0176C
:1041600070474FF000007047010040F10980F446AD
:10417000404200F005F851F000416047010000BFE7
:1041800009D0B0FA80F18840C91CC1F584610905E5
:1041900001EBD0214005704770B44FF0004591EA23
:1041A000030F44BF6B4000F0B5BA00BF841A71EB37
:1041B000030604D26E40001BB141121973414FF443
:1041C000001C1CEB410F34BF7CEB430684E00C0D5C
:1041D000A4EB1356362E7DDC012E43DC45EAC323C7
:1041E00043EA525312BFD20292025B08240545EA09
:1041F000C12141EA5051D2EBC020994125D407D1C9
:10420000B0FA80F610FA06F164D00020203608E0FB
:10421000B1FA81F6B140C6F1200220FA02F2114350
:10422000B0404FEAF474B4EB465434F001064FEA60
:1042300074040AD8D6F50016760D04F00044F04058
:1042400061FA06F25040F1404840C00A40EA41504D
:1042500021F0004128BF5FEA500550F1000044EB17
:10426000D12137E045EAC323DB0A45EAC121C90A67
:10427000B6F120050EDD42EA0242120CC5F120061D
:1042800003FA06F6EB4042EA06056D42984161F1F9
:1042900000010DE062FA06F5F240554063FA06FCB3
:1042A00082EA0C02F3405A406D42904161EB0301F7
:1042B00011F4801F05D1641E620502D06D004041DB
:1042C000494121F48011430875F1004350F1000089
:1042D00041EB045170BC70471CEB410F15D223F029
:1042E000004352EA43060BD04FEA4C0CBCEB410FA3
:1042F00004D80C0D661E342EB7DDEBE7801A994109
:1043000050EA410608BF0021E4E708BF1CEB430F59
:1043100028BF6FF00001DDE7B0B581EA030C0CF0B7
:10432000004C40F2FF7515EA11541DBF15EA1357F2
:10433000AC42AF4239E0E41923EA455343F4801319
:10434000C90241F0004141EA505EC7021100A7FBDB
:10435000020200284FF00000EEFB01204FF00001A8
:10436000E3FB072118BF42F0010240180021494138
:10437000E3FB0E01A4F580640F0302D2520040411A
:10438000494154F101046CDD470872F1004250F1DB
:10439000000051EB0451A1F580115CBF41EA0C0112
:1043A000B0BD4CEA05510020B0BD05EA1357AC4240
:1043B00014BFAF4241E050EA410E1CBF52EA430E27
:1043C00002E061460020B0BD24423C441BD15FEABC
:1043D000070EF6D0090302BF01460020AEF1140E0D
:1043E000B1FA81F7AEEB070401FA07FE0C37C7F10B
:1043F000200100FA07F7C8404EEA000E23EA4553B1
:1044000043F48013A2E733F00043B3FA83F704BF09
:10441000B2FA82FE77440B3FE41BB7F1200E2FBFA8
:1044200002FA0EF3BB40C7F1200E22FA0EFE38BF8F
:1044300043EA0E03BA40641C82E750EA410E14BFFF
:1044400052EA430E6FF000014FF4001717EB430FD1
:104450008ABF194617EB410FB5E74CEA055100201A
:10446000B0BDD4F10104B4F120070FDAC4F1200784
:10447000520828BF42F0010210FA07F501FA07F7C7
:10448000E1BF2A43E0403843E1400FE0352C98DC9F
:10449000C7F1200452EA400220FA07F218BF42F0A6
:1044A000010231FA07F0A1400A43002172F10042F3
:1044B00050F1000051EB0C01B0BD0000F0B540F22E
:1044C000FF7581EA030C0CF0004C15EA11541DBF76
:1044D00015EA1357AC42AF42E5E0BC41C1F313010A
:1044E000C3F31303801A994143F4801304D2641E6A
:1044F0004000494180185941C90241EA5051B1FB7D
:10450000F3F603FB1611A2FB0675D7EBC020A941F9
:1045100002D2761E80185941C90241EA5051B1FBBE
:10452000F3FE03FB1E11A2FB0E75D7EBC020A941C1
:1045300003D2AEF1010E80185941890241EA90512F
:10454000760546EA8E2EB1FBF3F603FB1611A2FBAD
:104550000675D7EB8020A94102D2761E80185941FA
:10456000C90241EA50514EEA060EB1FBF3F603FBD5
:104570001611A2FB0675D7EBC020A94102D2761E08
:1045800080185941C90241EA5051B1FBF3F703FBCE
:104590001711A2FB0735D3EBC020A94167F1000733
:1045A0000CBF004247F0010766F3D5274FEA1E31E2
:1045B000B80814F5806412DDBD0775F1004250EBB8
:1045C0000E5051EB045111F5801F5CBF41EA0C0104
:1045D000F0BD4CF07F6141F0E0410020F0BDBD072F
:1045E0006D0840EA0E5041F48011D4F10104B4F199
:1045F00020060ADAC4F120060200E04001FA06F3C0
:10460000E1401843B24015430EE0342C13DCC6F1F0
:10461000200445EA40056D0820FA06F2154321FA08
:1046200006F0A1400D43002175F1004250F1000059
:1046300051EB0C01F0BD00205FEA0C01F0BDCFB9D9
:1046400092185B41B3FA83F704BFB2FA82F6BF193E
:104650000B3FB7F120062FBF02FA06F3BB40C7F1AC
:10466000200622FA06F638BF3343BA401CB1E419DB
:10467000641E33E77F4231F00041B1FA81F404BF98
:10468000B0FA80F6A4190B3CB4F120062FBF00FA53
:1046900006F1A140C4F1200620FA06F638BF3143E6
:1046A000A0403C1B1AE7AC421ABF05EA1357AF42C1
:1046B00012E050EA41061CBF52EA4306BFE750EA47
:1046C0004107304661461CBF41EA0551F0BD52EA40
:1046D000430C08BFC143F0BD00204FF4001616EB99
:1046E000410F98BF16EB430F08BF16EB410F24BFD5
:1046F000C14305E016EB430F0CBF61464CEA055180
:10470000F0BD91FBF2F303FB1211C0E900317047D9
:1047100070470000841A71EB030603D2001BB141FD
:10472000121973414FF4001C1CEB410F34BF7CEB9A
:10473000430443E00C0DA4EB1356352E50DC45EA40
:10474000C323DB0A45EAC121C912B6F120050DDDFC
:1047500063FA05F6EB4086EA0305124218BF45F0FE
:104760000105C01851F100010CD213E062FA06F500
:10477000F2405540F3415A40B340F3405A4080184C
:10478000594107D349085FEA30005FEA350528BF81
:1047900045F0010501F58011420875F1004250F124
:1047A000000041EB045170BC4FF4001C1CEB410FA6
:1047B00038BF70470020090D090570471CEB410FF9
:1047C00010D252EA43060BD0BCEB410F05D80C0DBA
:1047D000AB43661E342EB5DD02E0AB438018594171
:1047E00070BC704770BC704730B59BB0FDF7B4F833
:1047F0000020FDF71DFE002803D0DFF8F40600F0CE
:10480000FBFB02210420FDF769FA00F0CBFB00F06E
:104810001FFC00F069FA002803D0DFF8D80600F08A
:10482000EBFBDFF8D40600F050FA00A8FCF766FDB9
:10483000002803D0DFF8C40600F0DEFB4FF47A71E5
:104840000098FCF728FD002803D0DFF8B40600F03C
:10485000D3FB48F2E8010098FCF733FD002803D0B1
:10486000DFF8A00600F0C8FB009800F0F9FB002874
:1048700003D0DFF8940600F0BFFBDFF8900600F0ED
:10488000D4F8009800F085FC002803D0DFF88006FB
:1048900000F0B2FB009800F010FC002803D0DFF815
:1048A000740600F0A9FB009800F0D5FC002803D0A6
:1048B000DFF8640600F0A0FB04AADFF86016009899
:1048C000FCF77AF8002803D0DFF8540600F094FBD8
:1048D000049ADFF850160098FCF738F8002803D047
:1048E000DFF8440600F088FB05AADFF840160098C0
:1048F000FCF762F8002803D0DFF8340600F07CFBF8
:10490000059ADFF830160098FCF720F8002803D04D
:10491000DFF8240600F070FBDFF82006DFF8201631
:10492000C160DFF81806DFF81C160161012100984C
:10493000FCF79AFC02AADFF80416009800F00FFAC0
:10494000DFF8040600F0C1F9BDF90A30BDF908200E
:10495000DFF8F8150EA800F00DFD0EA800F0B5F96F
:10496000BDF90E30BDF90C20DFF8E4150EA800F0FB
:1049700001FD0EA800F0A9F90AAA08A902A800F0F2
:10498000C4F8022206A90AA800F00EFD48F26C1233
:104990000699079800F0ECF80400002C17D0BDF938
:1049A0000810BDF90A0000F045F8ADF80400BDF9A3
:1049B0000C10BDF90E0000F03DF8ADF80600BDF991
:1049C0000610BDF9040000F000F9050006E0002023
:1049D000ADF804000020ADF806000025DFF87405EE
:1049E00000F073F92A002100DFF86C0500F049F9A6
:1049F00000210098FCF738FC009800F05CFC0028CF
:104A000003D0DFF8580500F0F7FA0098FCF7D9FC5E
:104A1000002803D0DFF8480500F0EEFA00F08FF927
:104A200000F0DCFA00201BB030BD00E0401E002882
:104A3000FCD1704738B500B200280AD108006FF3E6
:104A40000E0000B2002802D0DFF818055CE000205C
:104A50005AE0002400B2002804D500B2404209B256
:104A60004942241D09B2012906DAADF800100100FF
:104A7000BDF900004042A41C00B209B2884218DB14
:104A80004218ADF80020BDF90020002A0AD5421ACC
:104A9000ADF8002009B200B240184110BDF9000085
:104AA000401005E0421AADF800204118BDF90000A1
:104AB000641C00B2C00309B290FBF1F0ADF8000035
:104AC0000020ADF80200042512E0BDF802006DB22E
:104AD000DFF8941431F815100818ADF8020001231E
:104AE0000DF1020200A90DF1020000F023FD6D1E80
:104AF0006DB2002DE9D5BDF90200E4B210EB4430EF
:104B0000ADF80200BDF9020032BD38B50B0011004E
:104B1000002219E052B230F91240241E012C12D2A8
:104B200052B2540010EB4404B4F90240241E012C8C
:104B300009D252B2002420F8124052B2540010EBB5
:104B4000440400256580521C52B2022AE2DB002296
:104B500006E052B252B230F8124023F81240521C12
:104B600052B2042AF5DB0422180000F02BFD31BDFF
:104B7000F0B506000C0000200021E517002D01D142
:104B8000002C16D0F7170023A2FB060102FB071129
:104B900003FB0611490141EAD06140012200E317FD
:104BA000FFF746F9401C51F10001400840EAC1708E
:104BB000491030F0FF3231F00003002B01D1002A00
:104BC00002D07FF00040FFE7F0BD09B200B2081A42
:104BD000B42181FB000110F5806051F10001C00A91
:104BE00040EA4150C912704702B582B002990029CB
:104BF00038D59DF80810D1F110019DF8002061F31F
:104C000003028DF8002002990911009A61F31F1226
:104C100000929DF8081011F00F01002902D00099B0
:104C200010310091009941F31B1100290BD19DF81F
:104C3000001011F00F0140F2712202FB01F2CB498A
:104C400000F098FB1CE09DF8001011F00F0140F2FD
:104C5000712202FB01F3009941F31B12C44900F0D9
:104C600089FB0DE09DF8081011F00F0140F2712250
:104C700002FB01F3029941F31B12BD4900F07AFBDC
:104C800007BD30B59BB00C0015000200B9490DA856
:104C900000F070FB210000A8FFF7A6FF00A90DA8F7
:104CA00000F0E1FC90A100F0DEFC290000A8FFF775
:104CB0009BFF00A90DA800F0D6FC8CA100F0D3FC4E
:104CC0000DA800F002F81BB030BD10B582B0040092
:104CD0002000FFF765F8ADF8000000AA2100A64803
:104CE000006800F0AFFE13BD10B500240022A249F9
:104CF000002000F030FE040000B2002802D02000A6
:104D000000B21BE004219C48006800F0CAFE0400C9
:104D1000200000B2002802D0200000B20EE00121E5
:104D20009548006800F00EFF0400200000B2002843
:104D300002D0200000B201E0200000B210BD10B58A
:104D400000248D48006800F05AFE040000B20028DC
:104D500002D0200000B201E0200000B210BD2DE919
:104D6000F74F84B000244FF400418448FEF74DF81B
:104D70004FF400618148FEF748F84FF480518048B5
:104D8000FEF743F840217F48FEF73FF800250AE090
:104D9000069902AA32F8102021F81420641C401C45
:104DA0000428F5DB6D1C022D80F28880764810EB1C
:104DB000C500B0F900100C22744B02FB01310191C7
:104DC000B0F902100C22714B02FB01310091B0F9D5
:104DD00004100C226D4B02FB0136B0F906000C21C9
:104DE0006A4A01FB00275FF0000808E0DBF80410C6
:104DF00089B2DBF80000FEF726F818F10108B8F1D7
:104E0000050F4EDA624810EBC800624911EBC80981
:104E1000614911EBC80A614911EBC80B019931F9DD
:104E20001810012905DB416889B20068FDF7EDFF24
:104E300004E0416889B20068FEF705F8009830F98F
:104E40001800012807DBD9F8041089B2D9F800004E
:104E5000FDF7DBFF06E0D9F8041089B2D9F80000AD
:104E6000FDF7F1FF36F91800012807DBDAF8041026
:104E700089B2DAF80000FDF7C8FF06E0DAF804109E
:104E800089B2DAF80000FDF7DEFF37F918000128D3
:104E9000ACDBDBF8041089B2DBF80000FDF7B5FFEE
:104EA000ABE70423069A05990498FCF711F900284A
:104EB00002D03B4800F0A0F8002071E720212F48E5
:104EC000FDF7C1FF4FF400612C48FDF7BCFF4FF424
:104ED00080512B48FDF7B7FF40212A48FDF7B3FF6B
:104EE00007B0BDE8F08F00002C200000290D0A005B
:104EF000F0660000E4690000D06E00000C6B00005A
:104F0000AC680000146900007C69000080841E0009
:104F100060670000406800007C6600000C010840EB
:104F2000FC630000040108407C640000100108409C
:104F3000FC640000080108407C65000000000020BF
:104F400099990198FD05009E706D0000006E0000AB
:104F5000206E0000946D0000DC6E0000486A0000C6
:104F6000AC6A00000080FFFF006F0000A06E000030
:104F7000E86E0000F46E0000F804002040000240DB
:104F8000C000024080000240B06E0000CC60000013
:104F9000386C0000606C0000886C0000B06C000091
:104FA000D067000080B500A9002000F013FE0028A3
:104FB00002D01E4800F020F80021009800F06CFE9E
:104FC000002802D01A4800F017F8009800F04BFEB5
:104FD000002802D0174800F00FF801BD00B583B0DB
:104FE00000A815490CC90CC00839083800A800F001
:104FF000BFFE00F027F807BD10B584B0040001A87B
:105000000E490CC90CC00839083800A80C490A68B8
:10501000026001A800F0ACFE200000F0A9FE00A88C
:1050200000F0A6FE00F00EF81FBD0000006C0000AE
:10503000406E00005C6E0000186F0000206F0000E2
:10504000386F000080B5002000F0A4FE01BD000014
:1050500002484FF4204101600020704700000240E8
:1050600010B504002000FCF704F9002802D041F23A
:10507000015021E02000FCF706F9002802D041F29F
:10508000025019E0DFF8AC020088000602D541F2B8
:10509000045011E00D20FCF79CFDDFF89C128842C3
:1050A00002D041F2055007E000230022DFF88C1205
:1050B0002000FCF70DF800B210BD70B582B00400FE
:1050C00000262000FCF7D5F8002802D041F201505C
:1050D0005EE02000FCF7D7F8002802D041F2025031
:1050E00056E0DFF850020088000602D541F2045075
:1050F0004EE00D20FCF76DFDDFF83C12884202D037
:1051000041F2055044E0022300AADFF834122000E7
:10511000FBF7DEFF060036B2002E37D15FF080408D
:10512000BDF80210BDF80020891A90FBF1F5681C4B
:105130004508BDF80200BDF80010401ADFF804125F
:1051400001FB00F21213501C4210BDF80000B2EB3C
:10515000800212F50032DFF8F0112000FBF7F6FBB9
:105160000600300000B2002802D0300000B20FE08C
:105170002A00DFF8D8112000FBF7E8FB060030001A
:1051800000B2002802D0300000B201E0300000B2CE
:1051900076BD7CB5040000252000FCF76AF80028E5
:1051A00002D041F2015055E02000FCF76CF80028D5
:1051B00002D041F202504DE0DFF87801008800068D
:1051C00002D541F2045045E00D20FCF702FDDFF866
:1051D0006811884202D041F205503BE0032300AA47
:1051E000DFF86C112000FBF773FF05002DB2002DD6
:1051F0002ED1DFF86001BDF80410BDF80220891A35
:1052000090FBF1F6F00702D57008461C00E0760826
:10521000BDF80000D0F500408200DFF83C1120000E
:10522000FBF794FB0500280000B2002802D02800FC
:1052300000B20FE03200DFF824112000FBF786FBFC
:105240000500280000B2002802D0280000B201E0CA
:10525000280000B276BD38B5040000252000FCF718
:1052600008F8002802D041F2015023E02000FCF7AA
:105270000AF8002802D041F202501BE0DFF8B40027
:105280000088000602D541F2045013E00D20FCF71F
:10529000A0FCDFF8A410884202D041F2055009E0DA
:1052A00000230022DFF8B8102000FBF711FF0500F3
:1052B000280000B232BD38B5040000252000FBF7FD
:1052C000D8FF002802D041F2015030E02000FBF767
:1052D000DAFF002802D041F2025028E01548008889
:1052E000000602D541F2045021E00D20FCF771FCCC
:1052F0001149884202D041F2055018E000251948B2
:105300000068400840001749086000212000FBF7B2
:10531000F4FA1548006830F020001349086013487B
:1053200000681349084011490860280000B232BDE6
:1053300000000000148002400024F400B86D00005A
:10534000C06B0000C7B1FFFF1C01084018010840F6
:10535000686B000000805525100108400C010840D2
:10536000C06E0000100008404000084000000840E7
:105370000FF1FDFF0CB41CB5044604A801900A46C9
:10538000009401AB00A9074878441830FDF76CFE83
:10539000009900220A7000285CBF0098001B16BC10
:1053A0005DF80CFBF3E9FFFF2DE9F44F8AB080466E
:1053B0000F46960800F0948058F8042B58F8041B08
:1053C00058F804ABD317A2FB024558F8040B02FBB4
:1053D000035503FB0255CDE90845CB17A1FB014559
:1053E00001FB035503FB01554FEAEA71AAFB0A23AF
:1053F0000AFB013301FB0A3392469B46C117A0FB0F
:10540000002300FB013301FB0033CDE90645CDE964
:10541000042358F8040B0290212258F8044B58F842
:10542000040B019058F8040B0090DDE9080100F02E
:10543000B3FC0546DDE90601212200F0ADFC401970
:10544000394600F0BBFC50465946212200F0A4FC2E
:105450008146DDE90401212200F09EFC3D1D484407
:10546000294600F0ABFC029AD317A2FB020102FB13
:10547000031103FB0211212200F08EFC8146E51787
:10548000A4FB040104FB051105FB0411212200F01B
:1054900083FC07F1080A4844514600F08FFC019A4A
:1054A000D317A2FB020102FB031103FB021121220D
:1054B00000F072FC009C8146E517A4FB040104FB8C
:1054C000051105FB0411212200F066FC07F10C0A0E
:1054D0004844514600F072FC1037761E7FF46CAFE2
:1054E0000A9810F0030F21D000F0030658F8042B9F
:1054F000D317A2FB020102FB031103FB02112122BD
:1055000000F04AFC58F8044B8146E517A4FB04015F
:1055100004FB051105FB0411212200F03DFC484469
:10552000394600F04BFC3F1D761EDFD10BB0BDE8C5
:10553000F08F00002DE9F0419C0830D050F804CBEA
:1055400051F804EB4FEA2C484FEA2E4707FB08F8C6
:1055500050F8045B51F8046B0FFA8CF70FFA8EFECB
:105560000EFB07FC28F3CF384FEA254E37142CF3F7
:10557000CF3C07FB0EFE2DB236B22EF3CF3E754365
:1055800025F3CF351FFA8CF646EA0846ADB242F84D
:10559000046B45EA0E4542F8045B641ECED113F05D
:1055A000030F0CD003F0030330F9024B31F9025B17
:1055B0006C4324F3CF3422F8024B5B1EF4D1BDE8D8
:1055C000F081000070B493083ED0DC0712D550F88B
:1055D000044B50F8045B260441F8046B6FF30F048E
:1055E00041F8044B2C0441F8044B2C466FF30F0494
:1055F00041F8044B5B0827D050F8044B50F8045B8B
:10560000260441F8046B6FF30F0441F8044B2C049B
:1056100041F8044B2C466FF30F0441F8044B50F84B
:10562000044B50F8045B260441F8046B6FF30F043D
:1056300041F8044B2C0441F8044B5B1E2C466FF3DD
:105640000F0441F8044BD7D112F0030F00F009808A
:1056500002F0030230F9023B1B0441F8043B521EE6
:10566000F8D170BC7047024600E0521C1378002B42
:10567000FBD111F8013B137012F8013B002BF8D15C
:105680007047000040B24109DFF8FC24012310F00C
:105690001F0013FA00F042F82100704740B24109A0
:1056A000DFF8E824012310F01F0013FA00F042F89D
:1056B000210070478A0702D5828F521C82874A07D1
:1056C00002D5428F521C42870A0702D5028F521C14
:1056D000028711F00E01C172704710B5DFF8B044B7
:1056E0006168002062681289D30760D4D2B212F0D8
:1056F0000600C0B2002852D002282FD004280DD0B6
:10570000062850D1898A208E401C20860E20014216
:1057100003D0C9B22000FFF7CDFF44E014F114001C
:10572000428903899A4205D1B4F84000401CA4F88C
:105730004000FEE7828803899A4201D100228280DC
:1057400009888288531C838092B20368D1544189AE
:10575000491C4181A08D401CA08524E0E08D401CA7
:10576000E08514F12000C28803899A4201D3002207
:10577000C280428903899A420BD2C1884A1CC280E6
:1057800089B20268895C626811804189491C418143
:1057900004E088884FF6FD721040888003E0608E38
:1057A000401C6086FFE714F11100FCF7F9FD10BD05
:1057B000F8B504000F001500A07A00284CD0002096
:1057C0000022002114F12006B6F90830B6F904C011
:1057D000B3EB0C0318002DB200B2854201DA2800A9
:1057E000FFE7020000200AE0B1884B1CB38089B2B9
:1057F000336897F800C001F803C07F1C401C00B25A
:1058000012B29042F0DB12B22DB2AA4213DAA91AF8
:105810000020B08000200AE0B288531CB38092B20E
:10582000336897F800C002F803C07F1C401C00B228
:1058300009B28842F0DB94F90000FFF72FFF70896E
:10584000401B70816068808850F002006168888029
:1058500094F90000FFF716FFA07A00280DD1002070
:1058600008E06168898A8906FBD561683A780A8010
:105870007F1C401C2DB2A842F3DB0020F2BDF8B51E
:10588000050014001E004FF45060A97A00292CD0A6
:10589000F6B2002E02D015F1140701E015F1200731
:1058A000297A002913D03889B4F90010884208DA1F
:1058B00040F608500BE0002215F111010120FCF721
:1058C00006FD7889B4F900108842F4DB0020297ABB
:1058D00000290AD1B7F90A00B4F9001000B28842D1
:1058E00001DBB4F9000020800020A97A002919D139
:1058F000297A002900D00020297A002912D1F6B295
:10590000002E04D06868808A10F0010003E0686807
:10591000808A10F02000002801D0012000E0002043
:105920002080002000B2F2BD10B5040094F9000000
:10593000FFF7B4FE00206083002020830020E08376
:105940000020E0840020A084208D608594F9000070
:10595000FFF798FE10BD70B50C0000260025002151
:105960002160C0B2022802D340F6035046E0C0B224
:105970004421DFF81C3201FB00367078002802D089
:1059800040F601503AE0002A1AD01068002808D0EA
:105990009088002805D09068002802D0D088002880
:1059A00002D140F6085029E0002070741068706140
:1059B0009088B08390683062D08830850120B072C2
:1059C0003000FFF7B1FF01207070317C300000F033
:1059D00068F87068B18981817068F18901822660F8
:1059E00001210320FCF741F97068012180F8301093
:1059F00096F90000FFF746FE280000B270BD10B512
:105A00000400DFF88C01844202D040F6025018E016
:105A10006078012802D040F6065012E094F90000A8
:105A2000FFF73CFE00210320FCF71FF9606890F8A7
:105A3000300050F00100616881F830000020607093
:105A4000002010BD70B504000D0016004FF450602A
:105A5000DFF83C118C4202D040F6025020E0607822
:105A6000012802D040F606501AE0002D05D0002E85
:105A700003D0B6F90000012802DA40F604500FE026
:105A80000023320029002000FFF7F9FE00B20028B1
:105A900005D1B6F9002029002000FFF789FE00B2E9
:105AA00070BD30B5A1B004000D0000A8DFF8E4100F
:105AB0008022FDF797FADFF8D800844202D040F642
:105AC000025023E06078012802D040F606501DE025
:105AD000EDB2072D02DB40F6045017E00420FCF77E
:105AE00078F8DFF8B410884212D1EDB2062000A990
:105AF00000FB0510616802880A858188408851EAA8
:105B0000C02050F4004061688884002021B030BD7E
:105B1000DFF88810884207D1EDB2062000A900FB0B
:105B2000051000F22A00E5E7DFF87410884206D17C
:105B3000EDB2062000A900FB05105430DAE740F66C
:105B40000450E3E780B5124A904202D040F602507A
:105B500018E0C9B2002908D0426892F8302012F04B
:105B6000FE02406880F8302007E0426892F830205A
:105B700052F00102406880F83020C9B20320FCF7DF
:105B800074F8002002BD000000E100E080E100E0C8
:105B90005C000020FC6500000024F40040420F007F
:105BA000002D310140B24109DFF8A021012310F09E
:105BB0001F0013FA00F042F82100704740B241097B
:105BC000DFF88C21012310F01F0013FA00F042F8D7
:105BD0002100704738B50C00C0B20321DFF87421F2
:105BE00001FB0025002121600121A97000212970FD
:105BF000C0B2002802D040F6031033E02978002913
:105C000002D040F601102DE0DFF84C110988C906DA
:105C100016D4DFF848110988890611D4C0B20621CC
:105C2000DFF83C2101FB0020DFF8381102880A80F0
:105C30004188DFF8282111808088DFF82C11088046
:105C40000A20687095F90100FFF7ACFF0120287069
:105C50002560280000F051F8002802D040F6051019
:105C600000E0002032BD10B50400DFF8E800A042DB
:105C700002D040F602100EE02078012802D040F653
:105C8000071008E094F90100FFF798FF002060700A
:105C900000202070002010BD2E4A824202D040F623
:105CA000021029E00278012A02D040F6071023E012
:105CB000807800280FD0284800880E221042FAD1A0
:105CC00072B6C9B200290ED02448008850F0600096
:105CD000224908800EE0204800880E221042EFD0B2
:105CE00040F6081008E01D4800884FF6DF710840B4
:105CF0001A49088062B6002070471649814202D0D6
:105D000040F6021012E00178012902D040F6071097
:105D10000CE0807800280AD00F4800880E21084245
:105D2000FAD112484CF6CC410180002070470A4855
:105D300000880E210842F4D040F60810F6E780B53E
:105D40000448FFF7DAFF01BD0000000000E100E0B9
:105D500080E100E00C0500209825004088250040E7
:105D6000286F000080250040902500408C250040D1
:105D70000EB400B582B003A90091024600AB012128
:105D8000034878440A30FDF76FF906BC5DF810FB54
:105D9000E510000000F0AAB8D2B2203A22BF41FAC2
:105DA00002F0C91770472032D141D040484091409D
:105DB000D140484091401141704700002DE9F04723
:105DC00082B00C460128C0F28880B0FA80F14D1EE6
:105DD00005EBD57149100091B5EB41060EBF00FAF5
:105DE00005F8691E00FA01F84FEA680A404600F01B
:105DF00083F84FF0405100F097F83B49A1EB600168
:105E00004FF09D4000F090F800F0FAF8C117A0FBA9
:105E1000002300FB013301FB0033D20F42EA4302AF
:105E20008AFB0223D20F42EA4302C2F14052A2FB94
:105E30000079D31702FB019903FB0099F80F40EAA0
:105E400049018800C117A0FB002300FB013301FBBF
:105E50000033D20F42EA43028AFB0223D20F42EA06
:105E60004302C2F14052A2FB0079D31702FB019911
:105E700003FB0099F80F40EA49018800C117A0FB15
:105E8000002300FB013301FB0033D20F42EA43023F
:105E90008AFB0223D20F42EA4302C2F14052A2FB24
:105EA0000079D31702FB019903FB0099F80F40EA30
:105EB0004901880080FB0801C00F40EA4100400012
:105EC000002E0FBF0099691E01EBD17149100841E6
:105ED000206002B00020BDE8F0870020206002B002
:105EE0004FF0FF30BDE8F087DF59375F074638468F
:105EF00000F0A8F8FBE70000002840F10780F44616
:105F0000404200F003F850F0004060470AD0B0FA79
:105F100080F18840D1F19D01C905020672F100426D
:105F200041EB102070470000FF2212EAD05C1DBF39
:105F300012EAD153944593422BE09C44D30780EA64
:105F400001021A4043EA002043EA0121A1FB00308C
:105F5000410038BF40007CF17F010BDBFE294ADAAB
:105F60005B0842EAC15153EA006373F1004C51EB04
:105F700010207047D1F1080CDCF120012FDB5B0809
:105F800010FA01F10B4373F1004120FA0CF050417B
:105F9000704794451CBF02EAD153934280EA010244
:105FA00002F000421DD0400019D0490017D05BB963
:105FB000634514D00902B1FA81F39940BCEB030C9C
:105FC000C00140F00040C1E70002B0FA80FC10FAC6
:105FD0000CF0B3EB0C0CC90141F00041B6E7100026
:105FE000704740000AD0490008D010F1807F94BF6C
:105FF00011F1807F02E042F0FF407047D0437047CC
:106000004100090E7F3915D4D1F11F0114D440008D
:1060100007D2C00140F00040C84048BF6FF00040C8
:106020007047C00140F00040C8404CBF4FF00040F6
:10603000404270470020704700424FF0004058BF78
:10604000C043704780B500F007F8024A11001820DD
:10605000ABBEFBE72600020080B500F033F802007B
:106060000023DB431068984204D011000220ABBE2D
:10607000002010605068984204D0111D0220ABBE71
:106080000020506001BD000010B584B0040000F095
:1060900019F8A100421810680021C94388420DD1A7
:1060A00007A00090002C01D1002000E00420019006
:1060B0000320029069460120ABBE106004B010BD01
:1060C0003A74740000487047AC00002000000000E3
:1060D00000000000000001000000000000000000BF
:1060E00001000200000000000000010000000300A9
:1060F000000000000000010001000400000000009A
:106100000100000000000500000000000100000088
:10611000010006000000000001000100000007006F
:106120000000000001000100010008000000010063
:106130000000000000000900000001000000000055
:1061400001000A00000001000000010000000B0037
:10615000000001000000010001000C00000001002F
:106160000100000000000D0000000100010000001F
:1061700001000E00000001000100010000000F00FE
:1061800000000100010001000100100001000000FA
:1061900000000000000011000100000000000000ED
:1061A00001001200010000000000010000001300C7
