:1000000000400020F10F000031100000331000000C
:10001000351000003710000039100000A11000005A
:10002000A1100000A1100000A11000003B10000072
:100030003D100000A11000003F1000004110000022
:1000400043100000DF0C0000EB0C0000F70C000078
:10005000030D00000F0D00001B0D0000270D000018
:10006000330D00003F0D000051110000451000004D
:100070004710000049100000C30D00004B100000A5
:100080004D1000004F1000005110000053100000F0
:100090005510000057100000591000005B100000C0
:1000A0005D1000005F100000611000006310000090
:1000B0006510000067100000691000006B10000060
:1000C0006D1000006F100000711000007310000030
:1000D0007510000077100000791000007B10000000
:1000E0007D1000007F1000008110000083100000D0
:1000F000A110000085100000871000004B0D0000CB
:10010000570D0000891000008B1000008D100000BA
:100110008F10000091100000931000009510000057
:1001200097100000991000009B1000009D10000027
:040130009F1000001C
:1008000080B572B6DFF8AC02DFF8AC120160DFF839
:10081000AC025FF4E0210160BFF36F8FBFF34F8F35
:1008200062B6DFF8C0024CF614310180DFF8C40272
:10083000008850F00300DFF8BC120880DFF8B40233
:1008400000888005FAD5DFF8B00200884FF6FC7109
:100850000840DFF8A4120880DFF89C020021018024
:10086000DFF8840241F210010180DFF89002882154
:100870000180DFF878028F210180DFF874024FF4E5
:10088000C0710180012000F065F8DFF858024CF6D5
:1008900014310180DFF85C0200884FF6F7710840E0
:1008A000DFF85012088000F001F801BDDFF8502297
:1008B0004FF400431360DFF84022128892B212F026
:1008C0000302D2B2002A05D0022A0FD008D3032A8D
:1008D00039D03EE0DFF82C22DFF82C32136038E00C
:1008E000DFF82022DFF82032136032E0DFF8082240
:1008F0001288120503D5DFF81022100002E0DFF89D
:1009000008221000DFF8F421128892B212F03F02A0
:1009100011004843DFF8E421128892B212F0C002BD
:1009200011000A00402A03D0802A02D1800800E08A
:100930004008DFF8C8211288D20500D54008DFF84A
:10094000C421106005E0DFF8BC21DFF8C0311B686E
:1009500013607047F8B50400E4B2002C21D0022CDB
:100960002CD024D3042C36D02ED3062C40D038D310
:10097000082C47D041D30A2C4ED048D30C2C55D04C
:100980004FD30E2C5CD056D3102C63D05DD3122CD9
:100990006AD064D3142C71D06BD3162C78D072D358
:1009A0007AE0002006004FF40060050074E04FF488
:1009B000006006004FF4006005006DE000200600B6
:1009C0004FF40070050067E04FF4007006004FF42C
:1009D0000070050060E0002006004FF48070050004
:1009E0005AE04FF4807006004FF48070050053E029
:1009F00000200600F02005004EE010200600F02048
:100A0000050049E020200600F020050044E03020E9
:100A10000600F02005003FE040200600F020050021
:100A20003AE050200600F020050035E06020060086
:100A3000F020050030E070200600F02005002BE0DB
:100A400080200600F020050026E090200600F0201F
:100A5000050021E0A0200600F02005001CE0B020E9
:100A60000600F020050017E0C0200600F020050079
:100A700012E000200600032005000DE00120060022
:100A80000320050008E0022006000320050003E023
:100A9000032006000320050072B6DFF85C00008822
:100AA0000700AF433743DFF85000078062B6FFF717
:100AB000FDFEF1BD08ED00E00000000024ED00E0C7
:100AC00000280BD11249080072B61249096831F0AA
:100AD0000201104A1160BFF34F8F62B6012101700D
:100AE000704700000C240040048002401080024047
:100AF0001480024010240040008002400C8002401C
:100B0000AC000020A80000200024F400B000002069
:100B1000B800002010ED00E000210800DFF86412AA
:100B200009684A1CDFF85C321A60002910D10021E4
:100B30000B290DDADFF84C2212EBC10200235360BF
:100B4000DFF8402212EBC10200239360491CEFE75B
:100B500000B27047F8B504000D001600894800681F
:100B6000002802D140F602601EE0200000F0F9F8F3
:100B7000002802D140F6036016E0280080B200F0A1
:100B800005F9002802D140F605600DE0270072B695
:100B9000F6B2002E03D0B8882843B88002E0B888A7
:100BA000A843B88062B60020F2BDF8B504000D007D
:100BB000160074480068002802D140F602601EE06A
:100BC000200000F0CEF8002802D140F6036016E0C5
:100BD000280080B200F0DAF8002802D140F6056063
:100BE0000DE0270072B6F6B2002E03D0B889284374
:100BF000B88102E0B889A843B88162B60020F2BD8E
:100C000070B504000D005F480068002802D140F66E
:100C1000026013E0200000F0A4F8002802D140F6A2
:100C200003600BE0280080B200F0B0F8002802D189
:100C300040F6056002E026003583002070BD70B5E7
:100C400004000D004F480068002802D140F6026001
:100C500013E0200000F085F8002802D140F6036080
:100C60000BE0280080B200F091F8002802D140F695
:100C7000056002E02600B583002070BD70B5040059
:100C80000D0040480068002802D140F6026013E0E1
:100C9000200000F066F8002802D140F603600BE067
:100CA000280080B200F072F8002802D140F60560FA
:100CB00002E026003584002070BD70B504000D00F0
:100CC000E4B2304810EBC400061D3068002805D09F
:100CD00000226DB2290070683368984770BD80B5F6
:100CE00001210020FFF7E9FF01BD80B502210120AD
:100CF000FFF7E3FF01BD80B503210220FFF7DDFF11
:100D000001BD80B504210320FFF7D7FF01BD80B5E9
:100D100005210420FFF7D1FF01BD80B50621052084
:100D2000FFF7CBFF01BD80B507210620FFF7C5FF08
:100D300001BD80B508210720FFF7BFFF01BD80B5C9
:100D400009210820FFF7B9FF01BD80B52F21092037
:100D5000FFF7B3FF01BD80B530210A20FFF7ADFFDB
:100D600001BD01000800084A801A07D0403805D0AC
:100D7000403803D0403801D0403801D1012000E094
:100D8000002070474C00002000000240010089B2A2
:100D9000002901D0012000E0002070478A0702D519
:100DA000828F521C82874A0702D5428F521C42878B
:100DB0000A0702D5028F521C028711F00E02C2727E
:100DC00070472DE9F843DFF8E44065680026606865
:100DD0000789F80767D4FFB217F00600C0B20028F1
:100DE00059D0022835D0042810D0062857D1B5F89C
:100DF0001490208E401C20860E2019EA000F04D08B
:100E00004946C9B22000FFF7C9FF48E014F11400B9
:100E1000060070893189884205D1B4F84000401C31
:100E2000A4F84000FEE7B0883189884201D1002053
:100E3000B08028888046B088411CB18080B231687B
:100E400000F801807089401C7081A08D401CA08535
:100E500025E0E08D401CE08514F120000600F088BC
:100E60003189884201D30020F0807089318988421D
:100E70000BD2F088411CF18080B23168405C61681F
:100E800008807089401C708104E0A8884FF6FD71CD
:100E90000840A88003E0608E401C6086FFE714F1E4
:100EA0001100FFF70DFEBDE8F183000000000020F7
:100EB00010B5FFF7A5FCFFF72FFE01224FF40061EC
:100EC0002748FFF747FE002807D100224FF40061B2
:100ED0002348FFF76AFE002802D0002000F044F803
:100EE000012204211F48FFF735FE002806D1002209
:100EF00004211C48FFF759FE002802D0002000F012
:100F000033F84FF400611648FFF77AFE002802D04C
:100F1000002000F029F804211248FFF790FE002875
:100F200002D0002000F020F8002004004CF25030E5
:100F3000844201D2641CF9E74FF400610848FFF7CE
:100F40009DFE002802D0002000F00EF80421054884
:100F5000FFF794FE0028E7D0002000F005F8E3E753
:100F6000000002400001024000F000B80746384689
:100F700000F018F8FBE710B450F8041B81B10268C8
:100F80001218001D50F8043BDC0744BFA9F101040E
:100F9000E31852F8044B43F8044B091FF9D1EBE76F
:100FA00010BC704780B500F007F8024A1100182005
:100FB000ABBEFBE72600020080B500F015F802008A
:100FC0000023DB431068984204D011000220ABBE1E
:100FD000002010605068984204D0111D0220ABBE62
:100FE0000020506001BD0000004870474400002010
:100FF00080B50C48006880F308880B4844F6590116
:10100000018009484FF27B2101800848008850F494
:10101000004006490880C046C046C046C04600F0B1
:1010200051F8FEE7000000000424004000240040C6
:10103000FEE7FEE7FEE7FEE7FEE7FEE7FEE7FEE788
:10104000FEE7FEE7FEE7FEE7FEE7FEE7FEE7FEE778
:10105000FEE7FEE7FEE7FEE7FEE7FEE7FEE7FEE768
:10106000FEE7FEE7FEE7FEE7FEE7FEE7FEE7FEE758
:10107000FEE7FEE7FEE7FEE7FEE7FEE7FEE7FEE748
:10108000FEE7FEE7FEE7FEE7FEE7FEE7FEE7FEE738
:10109000FEE7FEE7FEE7FEE7FEE7FEE7FEE7FEE728
:1010A000FEE750F8041B61B150F8042BD30744BF8E
:1010B000A9F101039A18002342F8043B091FFAD151
:1010C000EFE7704700F009F8002801D000F008F8B9
:1010D0000020FFF7EDFEFFF747FF012070470000FB
:1010E00010B5074979441831064C7C44163404E0A5
:1010F0000A68081D511888470146A142F8D110BD61
:10110000680000008800000001001448884202D0F6
:1011100040F602101BE00878012802D040F60710C4
:1011200015E08878002805D00D4800880E2210426E
:10113000FAD107E00A4800880E22104202D040F699
:10114000081004E007484CF6CC42028000207047AB
:1011500080B50248FFF7D8FF01BD0000B4000020B1
:10116000982500408C2500403BFFFFFF70000000E9
:101170004C00002000000000FFFDFFFF4C000000BD
:10118000180000000000002000000000C046C0461B
:10119000C046C046FFF796FF0E000000005000401A
:1011A0000100000007000000000000000000000037
:1011B000000000000000000000000000000000002F
:1011C000000000000000000000000000000000001F
:1011D000000000000000000000000000FFFFFFFF13
:0411E000FFFFFFFF0F
:040000050000118D59
:00000001FF
