:100000000020002009830000498300004B8300008A
:100010004D8300004F83000051830000A98300003E
:10002000A9830000A9830000A98300005383000076
:1000300055830000A9830000578300005983000006
:100040005B8300007F4C00008B4C0000974C00004D
:10005000A34C0000AF4C0000BB4C0000C74C00009C
:10006000D34C0000DF4C00001B7C00005D830000CF
:100070005F83000061830000077400006383000059
:100080006583000067830000698300006B830000C4
:100090006D8300006F830000718300007383000094
:1000A0007583000077830000798300007B83000064
:1000B0007D8300007F83000081830000FD34000009
:1000C00029350000838300008583000087830000BA
:1000D000898300008B8300008D8300008F830000E4
:1000E000918300009383000095830000AD810000A0
:1000F000A98300009783000099830000EB4C000067
:10010000F74C0000A98300008B3200002F33000061
:100110009B330000673400009B8300009D83000038
:100120009F830000A1830000A3830000A58300003B
:04013000A7830000A1
:1008000000000100020003000000010003000400DA
:1008100000000100040005000000010005000600C2
:1008200000000100060007000000010007000800AA
:1008300000000100080009000000010009000A0092
:10084000000001000A000B00000001000B000C007A
:10085000000001000C000D00000001000D000E0062
:10086000000001000E000F00000001000F0010004A
:100870000000010010001100000001001100120032
:10088000000001001200130000000100130014001A
:100890000000010014001500000001001500160002
:1008A00000000100160017000000010017001800EA
:1008B00000000100180019000000010019001A00D2
:1008C000000001001A001B00000001001B001C00BA
:1008D000000001001C001D00000001001D001E00A2
:1008E000000001001E001F000100020003000400C0
:1008F00001000200040005000100020005000600DE
:1009000001000200060007000100020007000800C5
:1009100001000200080009000100020009000A00AD
:10092000010002000A000B00010002000B000C0095
:10093000010002000C000D00010002000D000E007D
:10094000010002000E000F00010002000F00100065
:10095000010002001000110001000200110012004D
:100960000100020012001300010002001300140035
:10097000010002001400150001000200150016001D
:100980000100020016001700010002001700180005
:1009900001000200180019000100020019001A00ED
:1009A000010002001A001B00010002001B001C00D5
:1009B000010002001C001D00010002001D001E00BD
:1009C000010002001E001F00010002001F000000C5
:1009D0000200030000000100020003000400050003
:1009E00002000300050006000200030006000700E5
:1009F00002000300070008000200030008000900CD
:100A00000200030009000A00020003000A000B00B4
:100A1000020003000B000C00020003000C000D009C
:100A2000020003000D000E00020003000E000F0084
:100A3000020003000F00100002000300100011006C
:100A40000200030011001200020003001200130054
:100A5000020003001300140002000300140015003C
:100A60000200030015001600020003001600170024
:100A7000020003001700180002000300180019000C
:100A80000200030019001A00020003001A001B00F4
:100A9000020003001B001C00020003001C001D00DC
:100AA000020003001D001E00020003001E001F00C4
:100AB000020003001F00000003000400000001000A
:100AC000030004000100020003000400050006000A
:100AD00003000400060007000300040007000800EC
:100AE00003000400080009000300040009000A00D4
:100AF000030004000A000B00030004000B000C00BC
:100B0000030004000C000D00030004000D000E00A3
:100B1000030004000E000F00030004000F0010008B
:100B20000300040010001100030004001100120073
:100B3000030004001200130003000400130014005B
:100B40000300040014001500030004001500160043
:100B5000030004001600170003000400170018002B
:100B600003000400180019000300040019001A0013
:100B7000030004001A001B00030004001B001C00FB
:100B8000030004001C001D00030004001D001E00E3
:100B9000030004001E001F00030004001F000000EB
:100BA000040005000000010004000500010002002F
:100BB0000400050002000300040005000600070011
:100BC00004000500070008000400050008000900F3
:100BD0000400050009000A00040005000A000B00DB
:100BE000040005000B000C00040005000C000D00C3
:100BF000040005000D000E00040005000E000F00AB
:100C0000040005000F001000040005001000110092
:100C1000040005001100120004000500120013007A
:100C20000400050013001400040005001400150062
:100C3000040005001500160004000500160017004A
:100C40000400050017001800040005001800190032
:100C50000400050019001A00040005001A001B001A
:100C6000040005001B001C00040005001C001D0002
:100C7000040005001D001E00040005001E001F00EA
:100C8000040005001F000000050006000000010030
:100C90000500060001000200050006000200030036
:100CA0000500060003000400050006000700080018
:100CB00005000600080009000500060009000A00FA
:100CC000050006000A000B00050006000B000C00E2
:100CD000050006000C000D00050006000D000E00CA
:100CE000050006000E000F00050006000F001000B2
:100CF000050006001000110005000600110012009A
:100D00000500060012001300050006001300140081
:100D10000500060014001500050006001500160069
:100D20000500060016001700050006001700180051
:100D300005000600180019000500060019001A0039
:100D4000050006001A001B00050006001B001C0021
:100D5000050006001C001D00050006001D001E0009
:100D6000050006001E001F00050006001F00000011
:100D70000600070000000100060007000100020055
:100D8000060007000200030006000700030004003D
:100D9000060007000400050006000700080009001F
:100DA0000600070009000A00060007000A000B0001
:100DB000060007000B000C00060007000C000D00E9
:100DC000060007000D000E00060007000E000F00D1
:100DD000060007000F0010000600070010001100B9
:100DE00006000700110012000600070012001300A1
:100DF0000600070013001400060007001400150089
:100E00000600070015001600060007001600170070
:100E10000600070017001800060007001800190058
:100E20000600070019001A00060007001A001B0040
:100E3000060007001B001C00060007001C001D0028
:100E4000060007001D001E00060007001E001F0010
:100E5000060007001F000000070008000000010056
:100E6000070008000100020007000800020003005C
:100E70000700080003000400070008000400050044
:100E800007000800050006000700080009000A0026
:100E9000070008000A000B00070008000B000C0008
:100EA000070008000C000D00070008000D000E00F0
:100EB000070008000E000F00070008000F001000D8
:100EC00007000800100011000700080011001200C0
:100ED00007000800120013000700080013001400A8
:100EE0000700080014001500070008001500160090
:100EF0000700080016001700070008001700180078
:100F000007000800180019000700080019001A005F
:100F1000070008001A001B00070008001B001C0047
:100F2000070008001C001D00070008001D001E002F
:100F3000070008001E001F00070008001F00000037
:100F4000080009000000010008000900010002007B
:100F50000800090002000300080009000300040063
:100F6000080009000400050008000900050006004B
:100F70000800090006000700080009000A000B002D
:100F8000080009000B000C00080009000C000D000F
:100F9000080009000D000E00080009000E000F00F7
:100FA000080009000F0010000800090010001100DF
:100FB00008000900110012000800090012001300C7
:100FC00008000900130014000800090014001500AF
:100FD0000800090015001600080009001600170097
:100FE000080009001700180008000900180019007F
:100FF0000800090019001A00080009001A001B0067
:10100000080009001B001C00080009001C001D004E
:10101000080009001D001E00080009001E001F0036
:10102000080009001F00000009000A00000001007C
:1010300009000A000100020009000A000200030082
:1010400009000A000300040009000A00040005006A
:1010500009000A000500060009000A000600070052
:1010600009000A000700080009000A000B000C0034
:1010700009000A000C000D0009000A000D000E0016
:1010800009000A000E000F0009000A000F001000FE
:1010900009000A001000110009000A0011001200E6
:1010A00009000A001200130009000A0013001400CE
:1010B00009000A001400150009000A0015001600B6
:1010C00009000A001600170009000A00170018009E
:1010D00009000A001800190009000A0019001A0086
:1010E00009000A001A001B0009000A001B001C006E
:1010F00009000A001C001D0009000A001D001E0056
:1011000009000A001E001F0009000A001F0000005D
:101110000A000B00000001000A000B0001000200A1
:101120000A000B00020003000A000B000300040089
:101130000A000B00040005000A000B000500060071
:101140000A000B00060007000A000B000700080059
:101150000A000B00080009000A000B000C000D003B
:101160000A000B000D000E000A000B000E000F001D
:101170000A000B000F0010000A000B001000110005
:101180000A000B00110012000A000B0012001300ED
:101190000A000B00130014000A000B0014001500D5
:1011A0000A000B00150016000A000B0016001700BD
:1011B0000A000B00170018000A000B0018001900A5
:1011C0000A000B0019001A000A000B001A001B008D
:1011D0000A000B001B001C000A000B001C001D0075
:1011E0000A000B001D001E000A000B001E001F005D
:1011F0000A000B001F0000000B000C0000000100A3
:101200000B000C00010002000B000C0002000300A8
:101210000B000C00030004000B000C000400050090
:101220000B000C00050006000B000C000600070078
:101230000B000C00070008000B000C000800090060
:101240000B000C0009000A000B000C000D000E0042
:101250000B000C000E000F000B000C000F00100024
:101260000B000C00100011000B000C00110012000C
:101270000B000C00120013000B000C0013001400F4
:101280000B000C00140015000B000C0015001600DC
:101290000B000C00160017000B000C0017001800C4
:1012A0000B000C00180019000B000C0019001A00AC
:1012B0000B000C001A001B000B000C001B001C0094
:1012C0000B000C001C001D000B000C001D001E007C
:1012D0000B000C001E001F000B000C001F00000084
:1012E0000C000D00000001000C000D0001000200C8
:1012F0000C000D00020003000C000D0003000400B0
:101300000C000D00040005000C000D000500060097
:101310000C000D00060007000C000D00070008007F
:101320000C000D00080009000C000D0009000A0067
:101330000C000D000A000B000C000D000E000F0049
:101340000C000D000F0010000C000D00100011002B
:101350000C000D00110012000C000D001200130013
:101360000C000D00130014000C000D0014001500FB
:101370000C000D00150016000C000D0016001700E3
:101380000C000D00170018000C000D0018001900CB
:101390000C000D0019001A000C000D001A001B00B3
:1013A0000C000D001B001C000C000D001C001D009B
:1013B0000C000D001D001E000C000D001E001F0083
:1013C0000C000D001F0000000D000E0000000100C9
:1013D0000D000E00010002000D000E0002000300CF
:1013E0000D000E00030004000D000E0004000500B7
:1013F0000D000E00050006000D000E00060007009F
:101400000D000E00070008000D000E000800090086
:101410000D000E0009000A000D000E000A000B006E
:101420000D000E000B000C000D000E000F00100050
:101430000D000E00100011000D000E001100120032
:101440000D000E00120013000D000E00130014001A
:101450000D000E00140015000D000E001500160002
:101460000D000E00160017000D000E0017001800EA
:101470000D000E00180019000D000E0019001A00D2
:101480000D000E001A001B000D000E001B001C00BA
:101490000D000E001C001D000D000E001D001E00A2
:1014A0000D000E001E001F000D000E001F000000AA
:1014B0000E000F00000001000E000F0001000200EE
:1014C0000E000F00020003000E000F0003000400D6
:1014D0000E000F00040005000E000F0005000600BE
:1014E0000E000F00060007000E000F0007000800A6
:1014F0000E000F00080009000E000F0009000A008E
:101500000E000F000A000B000E000F000B000C0075
:101510000E000F000C000D000E000F001000110057
:101520000E000F00110012000E000F001200130039
:101530000E000F00130014000E000F001400150021
:101540000E000F00150016000E000F001600170009
:101550000E000F00170018000E000F0018001900F1
:101560000E000F0019001A000E000F001A001B00D9
:101570000E000F001B001C000E000F001C001D00C1
:101580000E000F001D001E000E000F001E001F00A9
:101590000E000F001F0000000F00100000000100EF
:1015A0000F001000010002000F00100002000300F5
:1015B0000F001000030004000F00100004000500DD
:1015C0000F001000050006000F00100006000700C5
:1015D0000F001000070008000F00100008000900AD
:1015E0000F00100009000A000F0010000A000B0095
:1015F0000F0010000B000C000F0010000C000D007D
:101600000F0010000D000E000F001000110012005E
:101610000F001000120013000F0010001300140040
:101620000F001000140015000F0010001500160028
:101630000F001000160017000F0010001700180010
:101640000F001000180019000F00100019001A00F8
:101650000F0010001A001B000F0010001B001C00E0
:101660000F0010001C001D000F0010001D001E00C8
:101670000F0010001E001F000F0010001F000000D0
:101680001000110000000100100011000100020014
:1016900010001100020003001000110003000400FC
:1016A00010001100040005001000110005000600E4
:1016B00010001100060007001000110007000800CC
:1016C00010001100080009001000110009000A00B4
:1016D000100011000A000B00100011000B000C009C
:1016E000100011000C000D00100011000D000E0084
:1016F000100011000E000F00100011001200130066
:101700001000110013001400100011001400150047
:10171000100011001500160010001100160017002F
:101720001000110017001800100011001800190017
:101730001000110019001A00100011001A001B00FF
:10174000100011001B001C00100011001C001D00E7
:10175000100011001D001E00100011001E001F00CF
:10176000100011001F000000110012000000010015
:10177000110012000100020011001200020003001B
:101780001100120003000400110012000400050003
:1017900011001200050006001100120006000700EB
:1017A00011001200070008001100120008000900D3
:1017B0001100120009000A00110012000A000B00BB
:1017C000110012000B000C00110012000C000D00A3
:1017D000110012000D000E00110012000E000F008B
:1017E000110012000F00100011001200130014006D
:1017F000110012001400150011001200150016004F
:101800001100120016001700110012001700180036
:1018100011001200180019001100120019001A001E
:10182000110012001A001B00110012001B001C0006
:10183000110012001C001D00110012001D001E00EE
:10184000110012001E001F00110012001F000000F6
:10185000120013000000010012001300010002003A
:101860001200130002000300120013000300040022
:10187000120013000400050012001300050006000A
:1018800012001300060007001200130007000800F2
:1018900012001300080009001200130009000A00DA
:1018A000120013000A000B00120013000B000C00C2
:1018B000120013000C000D00120013000D000E00AA
:1018C000120013000E000F00120013000F00100092
:1018D0001200130010001100120013001400150074
:1018E0001200130015001600120013001600170056
:1018F000120013001700180012001300180019003E
:101900001200130019001A00120013001A001B0025
:10191000120013001B001C00120013001C001D000D
:10192000120013001D001E00120013001E001F00F5
:10193000120013001F00000013001400000001003B
:101940001300140001000200130014000200030041
:101950001300140003000400130014000400050029
:101960001300140005000600130014000600070011
:1019700013001400070008001300140008000900F9
:101980001300140009000A00130014000A000B00E1
:10199000130014000B000C00130014000C000D00C9
:1019A000130014000D000E00130014000E000F00B1
:1019B000130014000F001000130014001000110099
:1019C000130014001100120013001400150016007B
:1019D000130014001600170013001400170018005D
:1019E00013001400180019001300140019001A0045
:1019F000130014001A001B00130014001B001C002D
:101A0000130014001C001D00130014001D001E0014
:101A1000130014001E001F00130014001F0000001C
:101A20001400150000000100140015000100020060
:101A30001400150002000300140015000300040048
:101A40001400150004000500140015000500060030
:101A50001400150006000700140015000700080018
:101A600014001500080009001400150009000A0000
:101A7000140015000A000B00140015000B000C00E8
:101A8000140015000C000D00140015000D000E00D0
:101A9000140015000E000F00140015000F001000B8
:101AA00014001500100011001400150011001200A0
:101AB0001400150012001300140015001600170082
:101AC0001400150017001800140015001800190064
:101AD0001400150019001A00140015001A001B004C
:101AE000140015001B001C00140015001C001D0034
:101AF000140015001D001E00140015001E001F001C
:101B0000140015001F000000150016000000010061
:101B10001500160001000200150016000200030067
:101B2000150016000300040015001600040005004F
:101B30001500160005000600150016000600070037
:101B4000150016000700080015001600080009001F
:101B50001500160009000A00150016000A000B0007
:101B6000150016000B000C00150016000C000D00EF
:101B7000150016000D000E00150016000E000F00D7
:101B8000150016000F0010001500160010001100BF
:101B900015001600110012001500160012001300A7
:101BA0001500160013001400150016001700180089
:101BB00015001600180019001500160019001A006B
:101BC000150016001A001B00150016001B001C0053
:101BD000150016001C001D00150016001D001E003B
:101BE000150016001E001F00150016001F00000043
:101BF0001600170000000100160017000100020087
:101C0000160017000200030016001700030004006E
:101C10001600170004000500160017000500060056
:101C2000160017000600070016001700070008003E
:101C300016001700080009001600170009000A0026
:101C4000160017000A000B00160017000B000C000E
:101C5000160017000C000D00160017000D000E00F6
:101C6000160017000E000F00160017000F001000DE
:101C700016001700100011001600170011001200C6
:101C800016001700120013001600170013001400AE
:101C90001600170014001500160017001800190090
:101CA0001600170019001A00160017001A001B0072
:101CB000160017001B001C00160017001C001D005A
:101CC000160017001D001E00160017001E001F0042
:101CD000160017001F000000170018000000010088
:101CE000170018000100020017001800020003008E
:101CF0001700180003000400170018000400050076
:101D0000170018000500060017001800060007005D
:101D10001700180007000800170018000800090045
:101D20001700180009000A00170018000A000B002D
:101D3000170018000B000C00170018000C000D0015
:101D4000170018000D000E00170018000E000F00FD
:101D5000170018000F0010001700180010001100E5
:101D600017001800110012001700180012001300CD
:101D700017001800130014001700180014001500B5
:101D800017001800150016001700180019001A0097
:101D9000170018001A001B00170018001B001C0079
:101DA000170018001C001D00170018001D001E0061
:101DB000170018001E001F00170018001F00000069
:101DC00018001900000001001800190001000200AD
:101DD0001800190002000300180019000300040095
:101DE000180019000400050018001900050006007D
:101DF0001800190006000700180019000700080065
:101E000018001900080009001800190009000A004C
:101E1000180019000A000B00180019000B000C0034
:101E2000180019000C000D00180019000D000E001C
:101E3000180019000E000F00180019000F00100004
:101E400018001900100011001800190011001200EC
:101E500018001900120013001800190013001400D4
:101E600018001900140015001800190015001600BC
:101E70001800190016001700180019001A001B009E
:101E8000180019001B001C00180019001C001D0080
:101E9000180019001D001E00180019001E001F0068
:101EA000180019001F00000019001A0000000100AE
:101EB00019001A000100020019001A0002000300B4
:101EC00019001A000300040019001A00040005009C
:101ED00019001A000500060019001A000600070084
:101EE00019001A000700080019001A00080009006C
:101EF00019001A0009000A0019001A000A000B0054
:101F000019001A000B000C0019001A000C000D003B
:101F100019001A000D000E0019001A000E000F0023
:101F200019001A000F00100019001A00100011000B
:101F300019001A001100120019001A0012001300F3
:101F400019001A001300140019001A0014001500DB
:101F500019001A001500160019001A0016001700C3
:101F600019001A001700180019001A001B001C00A5
:101F700019001A001C001D0019001A001D001E0087
:101F800019001A001E001F0019001A001F0000008F
:101F90001A001B00000001001A001B0001000200D3
:101FA0001A001B00020003001A001B0003000400BB
:101FB0001A001B00040005001A001B0005000600A3
:101FC0001A001B00060007001A001B00070008008B
:101FD0001A001B00080009001A001B0009000A0073
:101FE0001A001B000A000B001A001B000B000C005B
:101FF0001A001B000C000D001A001B000D000E0043
:102000001A001B000E000F001A001B000F0010002A
:102010001A001B00100011001A001B001100120012
:102020001A001B00120013001A001B0013001400FA
:102030001A001B00140015001A001B0015001600E2
:102040001A001B00160017001A001B0017001800CA
:102050001A001B00180019001A001B001C001D00AC
:102060001A001B001D001E001A001B001E001F008E
:102070001A001B001F0000001B001C0000000100D4
:102080001B001C00010002001B001C0002000300DA
:102090001B001C00030004001B001C0004000500C2
:1020A0001B001C00050006001B001C0006000700AA
:1020B0001B001C00070008001B001C000800090092
:1020C0001B001C0009000A001B001C000A000B007A
:1020D0001B001C000B000C001B001C000C000D0062
:1020E0001B001C000D000E001B001C000E000F004A
:1020F0001B001C000F0010001B001C001000110032
:102100001B001C00110012001B001C001200130019
:102110001B001C00130014001B001C001400150001
:102120001B001C00150016001B001C0016001700E9
:102130001B001C00170018001B001C0018001900D1
:102140001B001C0019001A001B001C001D001E00B3
:102150001B001C001E001F001B001C001F000000B5
:102160001C001D00000001001C001D0001000200F9
:102170001C001D00020003001C001D0003000400E1
:102180001C001D00040005001C001D0005000600C9
:102190001C001D00060007001C001D0007000800B1
:1021A0001C001D00080009001C001D0009000A0099
:1021B0001C001D000A000B001C001D000B000C0081
:1021C0001C001D000C000D001C001D000D000E0069
:1021D0001C001D000E000F001C001D000F00100051
:1021E0001C001D00100011001C001D001100120039
:1021F0001C001D00120013001C001D001300140021
:102200001C001D00140015001C001D001500160008
:102210001C001D00160017001C001D0017001800F0
:102220001C001D00180019001C001D0019001A00D8
:102230001C001D001A001B001C001D001E001F00BA
:102240001C001D001F0000001D001E0000000100FA
:102250001D001E00010002001D001E000200030000
:102260001D001E00030004001D001E0004000500E8
:102270001D001E00050006001D001E0006000700D0
:102280001D001E00070008001D001E0008000900B8
:102290001D001E0009000A001D001E000A000B00A0
:1022A0001D001E000B000C001D001E000C000D0088
:1022B0001D001E000D000E001D001E000E000F0070
:1022C0001D001E000F0010001D001E001000110058
:1022D0001D001E00110012001D001E001200130040
:1022E0001D001E00130014001D001E001400150028
:1022F0001D001E00150016001D001E001600170010
:102300001D001E00170018001D001E0018001900F7
:102310001D001E0019001A001D001E001A001B00DF
:102320001D001E001B001C001D001E001F000000E1
:102330001E001F00000001001E001F00010002001F
:102340001E001F00020003001E001F000300040007
:102350001E001F00040005001E001F0005000600EF
:102360001E001F00060007001E001F0007000800D7
:102370001E001F00080009001E001F0009000A00BF
:102380001E001F000A000B001E001F000B000C00A7
:102390001E001F000C000D001E001F000D000E008F
:1023A0001E001F000E000F001E001F000F00100077
:1023B0001E001F00100011001E001F00110012005F
:1023C0001E001F00120013001E001F001300140047
:1023D0001E001F00140015001E001F00150016002F
:1023E0001E001F00160017001E001F001700180017
:1023F0001E001F00180019001E001F0019001A00FF
:102400001E001F001A001B001E001F001B001C00E6
:102410001E001F001C001D001F0000000100020024
:102420001F000000020003001F0000000300040062
:102430001F000000040005001F000000050006004A
:102440001F000000060007001F0000000700080032
:102450001F000000080009001F00000009000A001A
:102460001F0000000A000B001F0000000B000C0002
:102470001F0000000C000D001F0000000D000E00EA
:102480001F0000000E000F001F0000000F001000D2
:102490001F000000100011001F00000011001200BA
:1024A0001F000000120013001F00000013001400A2
:1024B0001F000000140015001F000000150016008A
:1024C0001F000000160017001F0000001700180072
:1024D0001F000000180019001F00000019001A005A
:1024E0001F0000001A001B001F0000001B001C0042
:1024F0001F0000001C001D001F0000001D001E002A
:1025000040B24109DFF8B828012310F01F0013FA88
:1025100000F042F82100704740B24109DFF8A428DA
:10252000012310F01F0013FA00F042F82100704759
:1025300010B50400200000F01CFD002802D041F27C
:1025400001502AE0200000F01EFD002802D041F2D8
:10255000025022E0DFF870080088000602D541F240
:1025600004501AE00D2001F0B4F9DFF86018884239
:1025700002D041F2055010E072B66078002802D017
:102580004FF4006000E0002050F00800E168896826
:102590000843E168886062B6002010BD10B50400F1
:1025A000200000F0E6FC002802D041F2015023E0B8
:1025B000200000F0E8FC002802D041F202501BE0AD
:1025C000DFF89C090088000602D541F2045013E0B0
:1025D0000D2001F07EF9DFF8F417884202D041F2B5
:1025E000055009E072B6E0688068DFF878190840A5
:1025F000E168886062B6002010BD38B504000D00A7
:10260000200000F0B6FC002802D041F201501CE08E
:10261000200000F0B8FC002802D041F2025014E083
:10262000DFF8A4070088000602D541F204500CE050
:102630000D2001F04EF9DFF89417884202D041F2E4
:10264000055002E0E068C560002032BDF8B5040026
:102650000D0016000027200000F08BFC002802D09F
:1026600041F2015027E0200000F08DFC002802D04C
:1026700041F202501FE0DFF850070088000602D543
:1026800041F2045017E00D2001F023F9DFF83C1768
:10269000884202D041F205500DE072B6E068DFF8E2
:1026A0005019C0F800112E60E0680021C0F8001138
:1026B00062B6380000B2F2BDF8B506000F00150092
:1026C0000024300000F055FC002802D041F20150F7
:1026D0001FE0300000F057FC002802D041F2025009
:1026E00017E0DFF8E4060088000602D541F2045046
:1026F0000FE00D2001F0EDF8DFF8D016884202D08F
:1027000041F2055005E072B63868286062B62000D4
:1027100000B2F2BDF8B504000025666CA76C20007D
:1027200000F027FC002802D041F2015042E0DFF81F
:1027300030080088000602D541F204503AE00B2030
:102740003070002070700220B070E0687030F0606F
:1027500002203074032070740020B0740020F074E4
:10276000012030750C203870002078700120B8707E
:10277000E0686C30B8600120787403203874002061
:10278000B8740020F8740120387500210B2001F086
:10279000D3FE002801D041F20B552DB2002D07D1F8
:1027A00000210C2001F0C8FE002801D041F20B5599
:1027B000280000B2F2BD38B504000025200000F06A
:1027C000D8FB002802D041F201502BE0200000F09D
:1027D000DAFB002802D041F2025023E0DFF8E805DE
:1027E0000088000602D541F204501BE00D2001F0E4
:1027F00070F8DFF8D815884202D041F2055011E098
:1028000072B66078002802D04FF4805000E00020BB
:1028100050F01000E16889680843E168886062B69A
:10282000280000B232BD38B504000025200000F0B9
:10283000A0FB002802D041F2015024E0200000F06B
:10284000A2FB002802D041F202501CE0DFF878051C
:102850000088000602D541F2045014E00D2001F07A
:1028600038F8DFF86815884202D041F205500AE0D6
:1028700072B6E0688068DFF880170840E168886019
:1028800062B6280000B232BD10B50400200000F08E
:1028900070FB002802D041F201501DE0200000F042
:1028A00072FB002802D041F2025015E0DFF8B006BA
:1028B0000088000602D541F204500DE00B2001F023
:1028C000E4FE002804D10C2001F0DFFE002802D035
:1028D00041F20B5000E0002010BD2DE9F041040052
:1028E0000D0016000027D4F84480200000F041FBC2
:1028F000002802D041F2015033E0200000F043FBF9
:10290000002802D041F202502BE0DFF8BC0400881E
:10291000000602D541F2045023E00D2000F0D9FF5B
:10292000DFF8A814884202D041F2055019E0002DCA
:102930000BD0C8F80850C8F80460404601F0DEFE2D
:10294000002809D041F20B5706E0404601F06BFF2A
:10295000002801D041F20B57002084F84C003800C9
:1029600000B2BDE8F0812DE9F04104000D00160031
:102970000027D4F84880200000F0FBFA002802D09D
:1029800041F2015035E0200000F0FDFA002802D0AD
:1029900041F202502DE0DFF830040088000602D535
:1029A00041F2045025E00D2000F093FFDFF81C14E5
:1029B000884202D041F205501BE0002D0DD0C8F82E
:1029C0000C50C8F80460404601F098FE002801D081
:1029D00041F20B57A4F8546006E0404601F023FF93
:1029E000002801D041F20B57002084F84D00380038
:1029F00000B2BDE8F08110B4002204E003785B006F
:102A000003704900521CD2B2202A10DA0B0E13F0C8
:102A10008003047814F0800494EA030FEED0037866
:102A20005B000370037893F007030370E9E710BCC1
:102A3000704770B582B004000D0001208DF80000D1
:102A4000002605E054F8261000A8FFF7D4FF761CF6
:102A5000AE42F7D39DF8000076BD38B504000D00F6
:102A6000200000F086FA002802D041F201501CE05C
:102A7000200000F088FA002802D041F2025014E051
:102A8000DFF844030088000602D541F204500CE050
:102A90000D2000F01EFFDFF83413884202D041F20F
:102AA000055002E0E0792870002032BD38B50500FD
:102AB0000C00280000F05DFA002802D041F201501D
:102AC00024E0280000F05FFA002802D041F2025012
:102AD0001CE0DFF8F4020088000602D541F2045041
:102AE00014E00D2000F0F5FEB849884202D041F212
:102AF00005500BE06878002803D095F84D000028B9
:102B000001D0012000E000202070002032BD2DE91E
:102B1000F04104000D0016001F005FF000082000C7
:102B200000F027FA002802D041F2015067E02000AF
:102B300000F029FA002802D041F202505FE0A248DA
:102B40000088000602D541F2045058E00D2000F044
:102B5000C0FE9E49884202D041F205504FE0002F4E
:102B600021D0012060702665B4F85800B84208D31F
:102B70003A0031002000FFF7F6FE0020A4F85600CE
:102B80000DE0B4F8582031002000FFF7ECFEB4F857
:102B90005800381AA4F856000020A4F85C00202041
:102BA000FFF7AEFC04E000206070012084F84D00C7
:102BB0002868020C291D2000FFF78FFE1F20FFF759
:102BC0009FFC0020A0710020E0710020A080E06840
:102BD000002141662000FFF7ABFC2000FFF7EBFD72
:102BE00072B689220321200000F00CFB0123892208
:102BF0000321200000F0A2FA62B6404600B2BDE810
:102C0000F08138B504000025200000F0B2F900285A
:102C100002D041F2015022E0200000F0B4F9002877
:102C200002D041F202501AE0CD480088000602D5D9
:102C300041F2045013E00D2000F04BFEDFF8B41316
:102C4000884202D041F2055009E072B6E06840685F
:102C500050F00100E168486062B6280000B232BD61
:102C600038B504000025200000F083F9002802D0C8
:102C700041F201502DE0200000F085F9002802D03B
:102C800041F2025025E0B6480088000602D541F224
:102C900004501EE00D2000F01CFE4C49884202D07A
:102CA00041F2055015E0E0684068C00701D541F2E7
:102CB0000F552DB2002D03D12000FFF76FFC05004A
:102CC0002DB2002D03D12000FFF7ADFD0500280037
:102CD00000B232BD38B504000025200000F049F9EB
:102CE000002802D041F2015029E0200000F04BF909
:102CF000002802D041F2025021E0994800880006E5
:102D000002D541F204501AE00D2000F0E2FD2F49F7
:102D1000884202D041F2055011E0E0684068400866
:102D20004000E16848602000FFF77DFDE068006832
:102D3000DFF8F0170840E1680860280000B232BDF3
:102D400070B504000D000026200000F012F90028E4
:102D500002D041F2015032E0200000F014F90028C6
:102D600002D041F202502AE07D480088000602D5D8
:102D700041F2045023E00D2000F0ABFDDFF898187D
:102D8000884202D041F2055019E0207A002805D08F
:102D90002868010C281DFFF74CFE00E02868E16858
:102DA000096EC0B2814205D1E068406E2968B0EB7F
:102DB000114F02D041F2105001E0300000B270BD5E
:102DC00000E100E080E100E0148002400024F40013
:102DD0002DE9F04182B004000D0016001F005FF0E5
:102DE0000008200000F0C5F8002802D041F2015090
:102DF000B3E0200000F0C7F8002802D041F20250F2
:102E0000ABE057480088000602D541F20450A4E028
:102E10000D2000F05EFDDFF80018884202D041F27C
:102E200005509AE03B00320029002000FFF76FFEBA
:102E30008046404600B2002805D02000FFF74AFF38
:102E4000404600B289E00120A070A079002803D19B
:102E5000B4F904000028F8D0B4F90400002805D023
:102E60002000FFF737FFB4F9040076E00220A070DD
:102E7000002020762000FFF7C4FE8046404600B2C6
:102E8000002805D02000FFF725FF404600B264E08F
:102E90000320A070607A00285DD0002214F1180190
:102EA000012001F094F872B600208DF8000000A90E
:102EB0002000FFF7FBFD80460FFA88F8B8F1000FFD
:102EC00008D19DF80000002804D000A92000FFF7D9
:102ED000C4FD80460FFA88F8B8F1000F05D19DF8BF
:102EE0000000002801D10020207662B60FFA88F891
:102EF000B8F1000F07D19DF80000002803D1B4F904
:102F000004000028C9D00420A070B4F904000028EF
:102F100005D02000FFF7DEFEB4F904001DE020001C
:102F2000FFF79EFE8046404600B2002805D02000F4
:102F3000FFF7D0FE404600B20FE00020A07029004D
:102F40002000FFF7FDFE8046404600B2002802D078
:102F5000404600B201E0404600B2BDE8F681000004
:102F600014800240F7F7FFFF00220172100000B248
:102F70007047DFF8A8160968814202D041F201507B
:102F800000E0002070470078002802D141F2025092
:102F900000E00020704738B504000D002000FFF766
:102FA000E8FF002802D041F2015009E02000FFF7BD
:102FB000EAFF002802D041F2025001E02561002022
:102FC00032BD38B504000D002000FFF7D2FF002805
:102FD00002D041F2015009E02000FFF7D4FF0028A1
:102FE00002D041F2025001E06561002032BD0000D4
:102FF000AFA587DE0024F400EFEFFFFF70B50400FB
:10300000002600202060DFF8140605682800FFF77E
:10301000BAFF002802D141F2035051E04FF47A7018
:10302000286141F64C506861DFF8F805E86001213D
:10303000012000F09AFC3220FFF762FA3320FFF7FC
:103040005FFA3420FFF75CFA3520FFF759FADFF812
:10305000D8056864DFF8D405A8644FF48060A5F84B
:1030600058000020A5F85A000020A5F856000020BE
:1030700028650020A5F85400002028720020A870C0
:10308000012068720020E861002028620020686248
:103090000020E862002068630020E86300202876B2
:1030A0002800FFF737FB0600300000B2002802D0EE
:1030B000300000B204E0012028702560300000B22A
:1030C00070BD38B5040000252000FFF752FF00282E
:1030D00002D041F2015030E02000FFF754FF0028F9
:1030E00002D041F2025028E03220FFF715FA3320D7
:1030F000FFF712FA3420FFF70FFA3520FFF70CFA2A
:10310000002060640020A0642000FFF7BDFB0020C9
:10311000A0700020E061002020620020606200209A
:10312000E062002060630020E06300202070002146
:10313000012000F01AFC280000B232BD2DE9F04752
:1031400082460C0015001E0000275046FFF711FFB5
:10315000002802D041F2015052E05046FFF713FF21
:10316000002802D041F202504AE0DFF8B40400889F
:10317000000602D541F2045042E00D2000F0A9FB08
:10318000DFF89414884202D041F2055038E0E4B2EE
:10319000012C06D018D3032C0DD007D3042C0FD04C
:1031A00012E0DFF88C845FF032090DE0DFF88484F0
:1031B0005FF0330908E0DFF880845FF0340903E052
:1031C000DFF878845FF03509F6B2002E09D0D8F820
:1031D00000002843C8F80000484640B2FFF790F9C5
:1031E0000CE0D8F80000A843C8F80000D8F80000A8
:1031F000002803D1484640B2FFF78EF9380000B2EC
:10320000BDE8F087F8B506000F0014000025300077
:10321000FFF7AFFE002802D041F2015034E0300049
:10322000FFF7B1FE002802D041F202502CE0DFF897
:10323000F0030088000602D541F2045024E00D207E
:1032400000F047FBDFF8D013884202D041F205506E
:103250001AE0FFB2012F06D014D3032F0BD006D3F0
:10326000042F0CD00EE0DFF8D80304600AE0DFF88A
:10327000D403046006E0DFF8D003046002E0DFF866
:10328000CC030460280000B2F2BD70B5DFF88C03F7
:10329000046800250026E068D0F8A000E168D1F8B5
:1032A0008C1010F0010211F00103D2B21A4201D0C9
:1032B00055F00105820703D58A0701D555F00205AF
:1032C000420703D54A0701D555F00405020703D587
:1032D0000A0701D555F00805C20603D5CA0601D56F
:1032E00056F01006820603D58A0601D556F0200650
:1032F000400603D5480601D556F04006606A00280E
:1033000009D056EA0500A16A084204D00022002133
:103310002000636A98470023320001212000FFF754
:103320000DFF2A0001212000FFF76CFF70BD38B5AA
:10333000BA4804680025E068D0F8A400E168D1F834
:10334000901010F0010211F00103D2B21A4201D024
:1033500055F00105820703D58A0701D555F002050E
:10336000420703D54A0701D555F00405000703D5E8
:10337000080701D555F00805E06A002807D0206B42
:10338000054204D0002200212000E36A98472A0069
:1033900002212000FFF736FF31BD70B59F48046859
:1033A00000250026E068D0F8A800E168D1F8941064
:1033B00010F0010211F00103D2B21A4203D055F00D
:1033C00001050122E271820703D58A0701D555F074
:1033D0000205420703D54A0701D555F00405020747
:1033E00005D50A0703D556F008060122A271C206C8
:1033F00003D5CA0601D556F01006820603D58A0603
:1034000001D556F02006420606D54A0604D555F0E9
:10341000400541F20852A280000606D5080604D5F0
:1034200055F0800541F20750A08014F1180000F01B
:1034300037FE606B00280AD056EA0500A16B0842EF
:1034400005D0002256EA05012000636B984700234F
:10345000320003212000FFF771FE2A000321200023
:10346000FFF7D0FE70BD70B56C48046800250026DB
:10347000E068D0F8AC00E168D1F8981010F00102D3
:1034800011F00103D2B21A4201D056F001068207B0
:1034900003D58A0701D556F00206420703D54A072D
:1034A00001D556F00406020706D50A0704D555F0E3
:1034B000080541F20A52A280C00606D5C80604D506
:1034C00055F0100541F20950A080E06B002809D0AA
:1034D00056EA0500216C084204D000220021200099
:1034E000E36B98470023320004212000FFF726FEFB
:1034F0002A0004212000FFF785FE70BD10B5474863
:1035000004681F20FFF708F8012084F84C00012010
:10351000A071E069002804D0002200212000E369A6
:10352000984710BDFF1EFEFF70B53C480468B4F814
:103530005450B4F8560000284FD0B4F85C0000286E
:1035400020D0B4F85800216D11EB4006206D4049A1
:103550000860B4F85800B4F85610884205D3B4F89F
:1035600056200020A4F8560008E0B4F85820B4F81B
:103570005600B4F85810401AA4F856000020A4F8D9
:103580005C0020E0266DB4F85800216D11EB40007E
:103590002F490860B4F85A00B4F85610884205D391
:1035A000B4F856200020A4F8560008E0B4F85A20D9
:1035B000B4F85600B4F85A10401AA4F85600B4F8FB
:1035C0005A00A4F85C0092B2214801682000FFF77D
:1035D000CAF920480121017010E01E480078002837
:1035E00002D01B48066800E0266D2020FEF794FFFD
:1035F000012084F84D0017480021017014F11800D3
:1036000000F04EFD206A002805D03200ADB229003E
:103610002000236A984770BD0024F400748A0000DB
:103620001480024000000840BC040020D4040020A4
:103630008C00084090000840940008409800084022
:10364000A0000840A4000840A8000840AC000840C2
:10365000100500202405002080B572B6DFF8AC0A02
:10366000DFF8AC1A0160DFF8AC0A5FF4E02101601A
:10367000BFF36F8FBFF34F8F62B6DFF84C0B4CF682
:1036800014310180DFF8A40B008850F00300DFF84C
:103690009C1B0880DFF8940B00888005FAD5DFF8C2
:1036A000900B00884FF6FC710840DFF8841B0880FF
:1036B000DFF87C0B00210180DFF8100B41F21001D4
:1036C0000180DFF80C0B88210180DFF8080B8F21C7
:1036D0000180DFF8040B4FF4C0710180012000F07D
:1036E00060F8DFF8E40A4CF614310180DFF83C0B97
:1036F00000884FF6F7710840DFF8301B088000F0B3
:1037000001F801BDDFF82C0B4FF400410160DFF838
:10371000200B008880B210F00300C0B2002805D052
:1037200002280FD008D3032834D039E0DFF8080B83
:10373000DFF8081B016033E0DFF8FC0ADFF8FC1A51
:1037400001602DE0DFF8E80A0088000502D5DFF807
:10375000EC0A01E0DFF8E40ADFF8741A098889B29C
:1037600011F03F014843DFF8681A098889B211F067
:10377000C001402903D0802902D1800800E0400820
:10378000DFF84C1A0988C90500D54008DFF8A81AE7
:10379000086005E0DFF8A00ADFF89C1B09680160FB
:1037A000704780B5C0B200281ED0022825D01FD394
:1037B00004282BD025D306282ED02AD3082831D090
:1037C0002DD30A2834D030D30C2837D033D30E2849
:1037D0003AD036D310283DD039D3122840D03CD32C
:1037E000142843D03FD343E000224FF400613FE070
:1037F0004FF400624FF400613AE000224FF4807110
:1038000036E04FF480724FF4807131E00022F021F5
:103810002EE01022F0212BE02022F02128E030229F
:10382000F02125E04022F02122E05022F0211FE08B
:103830006022F0211CE07022F02119E08022F021AA
:1038400016E09022F02113E0A022F02110E0B02237
:10385000F0210DE0C022F0210AE00022032107E060
:103860000122032104E00222032101E003220321BB
:1038700072B6DFF8BC09008888431043DFF8B0193E
:10388000088062B6FFF73EFF01BDC0B2002805D038
:1038900002280DD007D303280ED010E04FF40061AA
:1038A0000B2200230BE04FF480710822022306E074
:1038B000F0210422042302E0032100221123DFF877
:1038C0007009008880B289B2084010411818C0B24F
:1038D000704710B50400DFF860090068002804D0C4
:1038E000DFF850090068002800D1FEE7FFF70AFF63
:1038F000E4B2002C012C06D9A41E052C1ED9A41F4D
:10390000072C25D92EE0DFF8C80BDFF8C01809888E
:1039100089B211F03F01012901D101210BE0DFF84B
:10392000AC18098889B211F03F01DFF8A02812888D
:10393000120600D58908B0FBF1F010BDDFF8F808D9
:103940000068DFF888180988C1F3052189B2F2E719
:10395000DFF8E4080068DFF87418098889B211F00C
:103960003F01E8E740F20230E7E7C0B200280BD0A1
:1039700002281AD017D304281BD018D306281CD02D
:1039800019D307281BD01CE04FF4807072B6C9B25F
:10399000002919D0DFF84018098831EA0000DFF863
:1039A0003818088017E08020F0E72020EEE710208C
:1039B000ECE70820EAE70420E8E70220E6E7012038
:1039C000E4E740F2023008E0DFF80C180988084309
:1039D000DFF80418088062B60020704780B5C02266
:1039E000114202D040F2013020E0C0B2002801288C
:1039F00006D9801E05281AD9801F072835D950E01E
:103A0000FE20014202D040F201300FE08020C9B216
:103A1000C90172B6DFF8B427128882430A43DFF87F
:103A2000AC07028062B6FFF76DFE002002BDC9B28E
:103A30000A00DFF89807008810F03F0092B280B2C9
:103A4000824202D240F20530F0E792B280B292FB9D
:103A5000F0F300FB1320002802D04FF44170E5E79B
:103A60004FF47C50C9B20902D3E7DFF86007008841
:103A7000C0F30522C9B2080092B280B2824202D2DB
:103A800040F20530D2E792B280B292FBF0F300FB35
:103A90001320002802D04FF44170C7E73F20C9B27D
:103AA000B7E740F20230C1E738B5C0B2002809D00C
:103AB000022820D016D304282FD025D3062836D0AC
:103AC00030D307E00824DFF86457DFF8FC264CF613
:103AD0001433138072B6C9B2002942D02A88224317
:103AE0002A8041E00424DFF84457DFF8DC264CF656
:103AF00014331380EEE70224DFF83057DFF8C826CE
:103B00004CF614331380E5E70124DFF82057DFF883
:103B1000B8264CF614331380DCE74FF40074DFF85A
:103B2000B056D7E74FF40074DFF8A856D2E700226A
:103B30004FF40061DFF89C0900F0DEFF002802D09E
:103B400040F211302EE001224FF40061DFF88409C9
:103B500000F0A7FF002802D040F2113022E0002040
:103B600020E02A88A2432A8062B6C0B2012818D178
:103B7000C9B2002915D1092000F0CEFA0021009128
:103B800002E00099491C009100998142F9D372B674
:103B9000DFF834064CF6143101802888A0432880D1
:103BA00062B6002032BD2DE9F04104000D00002670
:103BB0002000C0B200F07BF902284FD0E4B2052CFF
:103BC00027D172B6DFF80C06008810F03F074FF6D9
:103BD000C071084050F03F0050F40070DFF8F41559
:103BE000088062B6222000F097FA804601E0B8F122
:103BF0000108B8F1000FFAD172B6DFF8D8050088D5
:103C00004FF6C07108403843DFF8C815088062B627
:103C100004E001212000C0B2FFF746FFEDB2002D05
:103C20001CD0EDB2012D02D143F6992801E0EDB28E
:103C3000A846404600F070FA804601E0B8F101085D
:103C4000B8F1000F05D02000C0B200F030F9022812
:103C5000F4D1B8F1000F01D14FF44276300000B238
:103C6000BDE8F08138B504000025E4B2002C0BD08B
:103C7000022C26D075D3042C69D0C0F0C380062C4A
:103C800000F009816CD30FE10320FFF7FEFD12283D
:103C900002D140F2093013E00020FFF7F6FD0128C1
:103CA00007D10320FFF7F1FD132802D140F20A30BB
:103CB00006E000212000C0B2FFF7F6FE280000B2A7
:103CC00032BD0320FFF7E1FD112802D140F2093097
:103CD000F6E70020FFF7D9FD002807D10320FFF702
:103CE000D4FD132802D140F20A30E9E7DFF8E807F3
:103CF000008880B210F06000202807D1DFF8D807D4
:103D00000088C00602D540F20B30D9E7DFF8CC07B7
:103D1000008880B210F06000202807D1DFF8BC07CF
:103D20000088C00602D540F20B30C9E7DFF8B007C3
:103D3000008880B210F06000202807D1DFF8A007CB
:103D40000088C00602D540F20B30B9E7B1E7032086
:103D5000FFF79BFD132802D140F20930B0E7A8E736
:103D6000A7E70120FFF791FD032806D100F0ABF98A
:103D7000002802D040F20E30A2E7DFF868070068A2
:103D8000C00702D540F20D309AE7DFF85C070088E3
:103D900080B210F4D060B0F5207F02D14FF44370B0
:103DA0008EE7DFF83407008880B210F060006028EA
:103DB00007D1DFF824070088C00602D540F20B3097
:103DC0007EE7DFF81807008880B210F060006028F6
:103DD00007D1DFF808070088C00602D540F20B3093
:103DE0006EE7DFF8FC06008880B210F06000602803
:103DF00007D1DFF8EC060088C00602D540F20B3090
:103E00005EE756E70120FFF740FD022806D100F0EB
:103E10005AF9002802D040F20E3051E7DFF8C80608
:103E2000008880B210F4D060B0F5906F02D14FF4EA
:103E3000437045E7DFF8A006008880B210F060000C
:103E4000402807D1DFF890060088C00602D540F26E
:103E50000B3035E7DFF88406008880B210F0600090
:103E6000402807D1DFF874060088C00602D540F26A
:103E70000B3025E7DFF86806008880B210F060009C
:103E8000402807D1DFF858060088C00602D540F266
:103E90000B3015E70DE70320FFF7F7FC142802D1DC
:103EA00040F209300CE704E740F2023008E710B5B1
:103EB0000024DFF878130988C0B2002819D002283E
:103EC00007D01ED3042832D00BD3062821D03BD3F1
:103ED00047E0880704D5880501D5022400E00124C5
:103EE00040E0C80704D5C80501D5022400E001243C
:103EF00038E0080704D5080501D5022400E00124B4
:103F000030E0480704D5480501D5022400E001242B
:103F100028E0DFF8C00500F01AFE000506D4DFF83F
:103F2000B40500F027FE000500D402241AE0A848DA
:103F30000088800507D5DFF8B4050088C00701D5E3
:103F4000022400E001240DE0A2480088800507D586
:103F5000DFF898050088C00601D5022400E001249E
:103F600000E003242000C0B210BD70B50C001500A5
:103F70001E00C0B2042802D005281AD024E0032075
:103F8000FFF783FC132802D14FF4447010E09048EF
:103F900040F2FF1336B2E4B254EA0601EDB255EA3C
:103FA000010272B6018899431143018062B6002074
:103FB00070BD884840F2FF1336B2E4B254EA0601FD
:103FC000EDB255EA0102ECE740F20230F0E770B4DE
:103FD00000230024F8252A4202D040F207305DE099
:103FE000002903D153F00203DFF80415C0B2002802
:103FF00005D0022805D004D303282BD02DE00020C3
:104000004CE054F0040472B6DFF8E85444F6590664
:104010002E80DFF8E0544FF27B262E80DFF8D85454
:104020002D884FF6FC763540C0B22843DFF8C854DF
:104030002880DFF8C80400689BB21843A4B2A043EC
:10404000DFF8B8341860EFF31180D2B2520182F376
:10405000118810E053F00403D5E740F206301DE06C
:10406000DFF89C2412880E231A42F9D1BFF34F8F38
:1040700030BF62B672B60A78002AF1D000220A7008
:1040800080F31188DFF87404006830F00200DFF874
:104090006C140860BFF34F8F62B6002070BC70478D
:1040A00000280DD1DFF8480472B6DFF85014096813
:1040B00031F00201DFF844241160BFF34F8F62B684
:1040C000012101707047DFF83C040068000106D54B
:1040D000DFF834040068C00701D5012015E0DFF8DF
:1040E0002C040088C00501D501200EE0DFF8200473
:1040F0000088800601D5012007E0DFF81804008859
:10410000C00701D5012000E00020704708ED00E065
:104110000000000024ED00E010B504000920FFF7C6
:10412000D8FB000D002801D04443FFE7200010BD5C
:1041300038B5040000200025DFF8DC1309780029D9
:104140000BD100F04BF8010009B2002901D000B2F8
:1041500038E0DFF8C41301220A70002100E0491D95
:10416000192908D2DFF8B42312F83120DFF8A83378
:104170001B789A42F3D10A0000E0491C531D994272
:104180000BDADFF8983313EBC1035B78E4B2A34298
:10419000F3D1DFF8882312EBC105002D0FD0A978E9
:1041A00000290CD06968002901D06868804700B2F6
:1041B000002806D1A978DFF86023117001E040F2F1
:1041C000133000B232BD00000C24004004800240D5
:1041D0000C800240108002401480024038B5002458
:1041E000CF4D01210220FFF7DEFC040000B20028C1
:1041F00002D0200000B217E01120FFF7D2FA002110
:10420000280000F047F900210120FFF7E7FB052017
:10421000FFF728FD0420FFF725FD0020FFF722FD12
:10422000FFF770FA200000B232BD000010240040F9
:104230000080024014050020180500200024F4002E
:1042400038B50025B74C0020FFF71FFB012805D12A
:1042500001210020FFF7A7FC050004E00121022056
:10426000FFF7A1FC05002DB2002D02D0280000B2FE
:1042700060E00320FFF709FB132826D1AA48008835
:1042800080B210F0C00080280BD1A748008880B20F
:1042900010F03F00102804D1A348008880B2C00568
:1042A0001AD40020FFF7F1FA012803D11220FFF7FA
:1042B00078FA02E01120FFF774FA4FF480731022AD
:1042C00080210420FFF751FE06E04FF48073102296
:1042D00080210420FFF749FE01210420FFF763FC41
:1042E0000500280000B2002802D0280000B221E01A
:1042F0000121200000F0CEF81320FFF752FA002130
:10430000200000F0C7F80520FFF7ACFC0020FFF705
:10431000BCFA012803D10220FFF7A4FC02E0002030
:10432000FFF7A0FC00210120FFF758FBFFF7EAF997
:10433000280000B232BD00001C05002038B5002561
:104340007A4C0020FFF7A1FA012805D101210020B5
:10435000FFF729FC050004E001210220FFF723FC00
:1043600005002DB2002D02D0280000B26FE003201E
:10437000FFF78BFA132826D16B48008880B210F023
:10438000C00080280BD16848008880B210F03F0040
:10439000102804D16448008880B2C0051AD40020D7
:1043A000FFF773FA012803D11220FFF7FAF902E0B0
:1043B0001120FFF7F6F94FF48073102280210420BA
:1043C000FFF7D3FD06E04FF4807310228021042014
:1043D000FFF7CBFD01210420FFF7E5FB05002800D6
:1043E00000B2002802D0280000B230E001212000F5
:1043F00000F050F81320FFF7D4F90021200000F05E
:1044000049F801210120FFF7E9FA00230F2280215A
:104410000520FFF7AAFD01210520FFF7C4FB0500D9
:10442000280000B2002802D0280000B20FE00020CF
:10443000FFF72BFA012803D10220FFF713FC02E05B
:104440000020FFF70FFCFFF75DF9280000B232BD36
:1044500038B50024364D0020FFF717FA012803D1A4
:104460001220FFF79EF902E01120FFF79AF90021D0
:10447000280000F00FF800210120FFF7AFFA052017
:10448000FFF7F0FB0420FFF7EDFBFFF73BF92000FF
:1044900000B232BDC9B200290FD02649098889B2BD
:1044A00011F03F010278914207DB22490988C1F3EC
:1044B000052189B24278914209DA017811F03F0171
:1044C0004078000210F47C5008431A490880704775
:1044D00000879303000002400800004008040040E9
:1044E00008080040002600400825004018800240CF
:1044F00025050020042400400024004010ED00E0C9
:10450000982500400840084000400840005C0040FA
:1045100088250040008000402605002040820000E1
:1045200046010020480100200C8002404A01002082
:104530004E0100200480024030B401228240C0B20B
:10454000102802DB41F2032090E0DFF83C04006811
:104550004068104202D041F2022087E072B6DFF8D4
:104560002C04006850F00100DFF82034186062B6B7
:10457000DFF814040068007800285CD1002028E0EF
:104580000301DFF80C44246800251D51DFF80034D6
:104590001B6813EB001300245C60DFF8F4331B6826
:1045A00013EB001300249C600301DFF8E843246848
:1045B00000251D51DFF8DC331B6813EB00130024CA
:1045C0005C60DFF8D0331B6813EB001300249C60A1
:1045D000401C1028D4DBDFF8C003DFF8B4331B68BD
:1045E0000360DFF8B80300230360DFF8B40300239F
:1045F0000360DFF8B00300230360DFF8AC0300239F
:104600000360DFF8A80300230360DFF8A40300239E
:104610000360DFF8A00300230360DFF89C034FF67C
:10462000FF730360DFF89403FF230360DFF8580390
:10463000006801230370C9B2002902D0012917D0F4
:1046400020E072B6DFF8700300681043DFF86813EB
:10465000086062B672B6DFF8300300684068104345
:10466000DFF824130968486062B6002030BC704748
:1046700072B6DFF8400300681043DFF838130860B3
:1046800062B6E7E741F20A20F0E7DFF8FC120968BA
:104690000978012902D041F201202BE0C0B2102894
:1046A00002DB41F2032025E0DFF8DC1209684968EB
:1046B000C140C9071FD572B6DFF8CC120968496836
:1046C000012212FA00F031EA0000DFF8BC1209689A
:1046D000486062B6DFF8B00200684068002808D180
:1046E000DFF8A80200210160DFF89C0200680021C9
:1046F00001700020704741F20120FBE710B5040073
:10470000DFF8840200680078012802D041F201201D
:1047100088E0200000F0B9F8010009B2002901D0BA
:1047200000B27FE0DFF898020068C00702D441F2CF
:10473000012077E06078002806D12078DFF8501259
:10474000096811EB001005E02078DFF848120968CD
:1047500011EB0010A1680160E168416072B6217C34
:104760000029022903D9091F022908D90FE001688D
:104770006268521E237C9A405118016007E001686C
:104780006268521E237C1B1F9A40891A0160617C5B
:104790000029022903D9091F022908D90FE041681D
:1047A0006268521E637C9A405118416007E041687C
:1047B0006268521E637C1B1F9A40891A416062B670
:1047C000617C227C920652EA8171A27851EA0261F0
:1047D000E27C51EA82316268521E51EA0211227D66
:1047E00011438160012021788840217C042902DB6B
:1047F0007449086001E074490860617C042902DBA7
:104800007249086001E0724908605F490968896877
:10481000014202D06F49086001E06F4908606149B8
:104820000860002010BD10B50400574800680078EB
:10483000012802D041F2012026E0200000F025F8F6
:10484000010009B2002901D000B21DE05C480068F7
:10485000C00702D441F2012016E020784C490968D3
:1048600011EB001001212278914072B68268920B00
:10487000920363685B1E247D54EA03131A4382602B
:1048800062B648480160002010BD3F490968496888
:104890000278D140C90702D441F2032044E04168C4
:1048A000B1F5806F02D941F207203DE0817C0029FB
:1048B00002D041F20B2037E0334909688968027859
:1048C000D140C90728D581680422B1FBF2F303FB6C
:1048D0001213002B0FD1C1680422B1FBF2F303FBCA
:1048E0001213002B07D141680422B1FBF2F303FB42
:1048F0001213002B02D041F20C2015E0017C032999
:1049000001D0072905D1417C042905DB41F20C20A7
:104910000AE041F20C2007E08178002903D0022947
:1049200013D002D32DE000207047017C002908D06D
:10493000417C002905D0017C042902D0407C042858
:1049400002D141F20620EFE7EDE7017C002914D007
:10495000417C002911D0017C01290ED0417C012924
:104960000BD0017C042908D0417C042905D0017CAE
:10497000052902D0407C052802D141F20620D3E768
:10498000D1E741F20520CFE7788A0000040001401A
:10499000580100205C010020080001402000014077
:1049A00024000140280001402C000140300001405B
:1049B00034000140380001403C0001404C000140FF
:1049C000000001401008014014080140180801408F
:1049D0001C08014000080140040801400020DFF8E5
:1049E000401309684A1CDFF838331A60002910D1D7
:1049F00000210CE0DFF8282312EBC10200235360F2
:104A0000DFF81C2312EBC10200239360491C0B2921
:104A1000F0DB00B2704710B50400DFF80403006853
:104A2000002802D140F602600FE0200040B200F002
:104A300086F9002802D140F6066006E00120611EDA
:104A40008840DFF8E4120880002010BD70B5040033
:104A50000D001600DFF8C8020068002802D140F6F9
:104A600002601DE0200000F04CF9002802D140F661
:104A7000036015E0280080B200F05AF9002802D146
:104A800040F605600CE072B6F6B2002E03D0A088A6
:104A90002843A08002E0A088A843A08062B600203E
:104AA00070BD70B504000D001600DFF874020068D8
:104AB000002802D140F602601DE0200000F021F93C
:104AC000002802D140F6036015E0280080B200F013
:104AD0002FF9002802D140F605600CE072B6F6B25C
:104AE000002E03D0A0892843A08102E0A089A8431A
:104AF000A08162B6002070BD70B504000D001600E4
:104B0000DFF81C020068002802D140F602601DE0B8
:104B1000200000F0F6F8002802D140F6036015E00E
:104B2000280080B200F004F9002802D140F60560A8
:104B30000CE072B6F6B2002E03D020892843208103
:104B400002E02089A843208162B6002070BD10B524
:104B5000040073480068002802D140F6026008E0B3
:104B6000200000F0CEF8002802D140F6036000E0FB
:104B7000A08810BD10B5040069480068002802D163
:104B800040F6026008E0200000F0BBF8002802D1E7
:104B900040F6036000E0208910BD38B504000D0028
:104BA0005F480068002802D140F6026012E0200051
:104BB00000F0A7F8002802D140F603600AE02800C0
:104BC00080B200F0B5F8002802D140F6056001E09F
:104BD0002583002032BD38B504000D005048006820
:104BE000002802D140F6026012E0200000F089F8AF
:104BF000002802D140F603600AE0280080B200F0ED
:104C000097F8002802D140F6056001E0A583002056
:104C100032BD30B585B00C00C0B2414911EBC000C7
:104C2000051D00A84149142200F0A4F828680028B6
:104C300005D0002264B2210068682B68984764B2EE
:104C400020002F38012814D8002207E0818D038E20
:104C5000194089B2002900D00186521C052A07D2CA
:104C600000A850F8220064B22F2CEFD1018DEEE79E
:104C700003E0200040B2FFF7CEFE05B030BD80B5A6
:104C800001210020FFF7C5FF01BD80B502210120F1
:104C9000FFF7BFFF01BD80B503210220FFF7B9FF79
:104CA00001BD80B504210320FFF7B3FF01BD80B52E
:104CB00005210420FFF7ADFF01BD80B506210520C9
:104CC000FFF7A7FF01BD80B507210620FFF7A1FF71
:104CD00001BD80B508210720FFF79BFF01BD80B50E
:104CE00009210820FFF795FF01BD80B52F2109207C
:104CF000FFF78FFF01BD80B530210A20FFF789FF44
:104D000001BD0849401A07D0403805D0403803D0CB
:104D1000403801D0403801D1012000E00020704728
:104D20006004002000000240302400408889000018
:104D300080B2002801D0012000E00020704740B27E
:104D4000401E082802D92E38012801D8012000E091
:104D50000020704762B38B0708D0521E11F8013B48
:104D600000F8013B00F024808B07F6D1830740F068
:104D7000208000BF103A07D330B4B1E83810103AA1
:104D8000A0E83810F9D230BC530724BFB1E80810AE
:104D9000A0E8081044BF51F8043B40F8043BD20798
:104DA00024BF31F8022B20F8022B44BF0B7803708C
:104DB0007047083A07D3B1E80810083A40F8043BB6
:104DC00040F804CBF7D25307E4E710B450F8041BC3
:104DD00081B102681218001D50F8043BDC0744BF83
:104DE000A9F10104E31852F8044B43F8044B091FDE
:104DF000F9D1EBE710BC70472DE9F04FA1B0824626
:104E000002AE002017461D46029170620DF1440863
:104E10000AE017F8011B0298D0470290002800F022
:104E20008B82706A401C7062387808B9706A85E2BB
:104E30002528EED10020F06030617061B061F06132
:104E4000306201E040F0010017F8011F2029F9D07D
:104E500023290DD02B2904D02D2906D030290AD0A2
:104E60000CE040F0020080B2EEE740F00400FAE708
:104E700040F00800F7E740F01000F4E72A290DD1D0
:104E800029680A1D2A600968F162002904D549428F
:104E900040F00400F16280B27F1C13E00021F16257
:104EA0000BE0F16A6FF00043994205D001EB8103FA
:104EB00002EB43013039F1627F1C3A78A2F13001F4
:104EC0000A29EED339782E2903D04FF0FF31B16291
:104ED0001EE017F8011F2A2906D129680A1D2A6039
:104EE0007F1C0968B16213E00021B1620BE0B16A76
:104EF0006FF00043994205D001EB810302EB4301BF
:104F00003039B1627F1C3A78A2F130010A29EED320
:104F100030860FF6C030397800F0FAFD08B117F886
:104F2000010B8DF83A009DF83A00682802BF3978E5
:104F30006829622005D06C2804BF38786C2803D11A
:104F400071208DF83A007F1C11A8B0603978B1F15A
:104F5000250023D01C3871D0001F02286ED91338C9
:104F600000F09780093869D0801E00F02B81401E28
:104F700000F0D480401E022860D9001F00F0CE80CF
:104F8000401F30D0401E00F08480401E20D0C01E44
:104F900009D0801E7DD0C01E7BD01BE1F068411C73
:104FA000F160252120E12868011D29600068B26AAE
:104FB0007060002A02D500F0BBFD07E0002100F080
:104FC000D3FD00281ABF7168401AB06A30610DE144
:104FD0002868011D296000210068CDE9000111A8A1
:104FE00070607821EAE09DF83A00622818D06828BD
:104FF00006D06A280BD06C2819D0712807D016E08B
:105000002868011D29600068716A0180EEE02A6845
:10501000101D28601268706AC117C2E90001E5E03E
:105020002868011D29600068716A0170DEE0286847
:10503000011D29600068716A0160D7E02868C01D01
:1050400020F00700286000F108022A60D0E9002360
:10505000CDE90023002B04D5F068421CF2602D221C
:105060000DE0308E820704D5F068421CF2602B22DE
:1050700005E0C00705D5F068421CF260202200F868
:105080000820F06811AA8018706000A800F0E2F90A
:10509000ACE09DF83A006C2808BF2A6811D071284E
:1050A00008BF2A6802D02A686A280AD1D21D22F0D5
:1050B00007022A60144604F108022A60D4E900239A
:1050C00003E0131D2B6000231268CDE9002368283C
:1050D00008BF92B207D0622808BFD2B203D07428AA
:1050E00018BF7A2802D10023CDE9002396F83000BA
:1050F00000075FD5DDE90023002B08BF002A59D047
:1051000041F02000782855D1F068302200F80820BE
:10511000401C421CF26000F808104BE09DF83A0079
:1051200062280CD0682810D06A281AD06C2823D0A6
:10513000712816D074281FD07A280CD01CE028685B
:10514000021D2A6090F900201AE02868021D2A60DA
:10515000B0F9002014E02868021D2A6000230268CC
:105160000FE02868C01D20F00700286000F1080249
:105170002A60D0E9002304E02868021D2A60026842
:10518000D317CDE90023002B04DAF068421CF2604B
:105190002D220DE0308E820704D5F068421CF260AB
:1051A0002B2205E0C00705D5F068421CF2602022E2
:1051B00000F80820F06811AA8018706000A800F0BC
:1051C000C0F813E0F068411CF16029680A1D2A60EC
:1051D000096809E0F068421CF260252200F8082006
:1051E00021B1F068421CF26000F80810F06AF16822
:1051F000401AB169401A3169401AF169401A71695F
:10520000401A316AA0EB010996F830007F1C400774
:1052100010D420208DF84000002409E0012310AABA
:1052200000A9504600F03EFC002840F08580641C38
:105230004C45F3DBF4680DF1440B0AE01BF8011B4D
:105240000298D0470290002876D0706A401C7062A5
:10525000641E002CF2D130208DF840004FF0000B7E
:10526000B46909E0012310AA00A9504600F01AFC15
:10527000002861D10BF1010BA345F3DB3469D6F8AB
:1052800004B00AE01BF8011B0298D04702900028E6
:1052900052D0706A401C7062641E002CF2D1302023
:1052A0008DF840004FF0000BF46909E0012310AACB
:1052B00000A9504600F0F6FB00283DD10BF1010B90
:1052C000A345F3DB30697168746900EB010B09E0F9
:1052D0001BF8011B0298D047029068B3706A401C0B
:1052E0007062641E002CF3D130208DF840004FF026
:1052F000000B346A08E0012310AA00A9504600F010
:10530000D1FBC8B90BF1010BA345F4DB96F83000D3
:1053100040077FF589AD20208DF84000002400E093
:10532000641C4C45BFF680AD012310AA00A950466D
:1053300000F0B8FB0028F3D04FF0FF3021B0BDE8FB
:10534000F08F2DE9FA47064682B035690A466F2A82
:1053500008BF082705D041F02000782814BF0A278D
:105360001027D6E900013C2480468946642A18BFEC
:10537000692A05D1002903DAD8F1000869EB490947
:10538000B9F1000F08BFB8F1000F0CD1306B50B964
:10539000082F3BD196F83800000737D530203B2442
:1053A00085F83B0032E0CDE90089FB1740464946CD
:1053B0003A4600F027FCB846A8FB0023DDE9008947
:1053C000A8EB02023032A4F1010AD2B254463A2AC2
:1053D00003DB9DF80830513B9A180AF805208046F7
:1053E0005FEA010908BFB8F1000F03D0F068611946
:1053F0008842D8D3082F09D196F83800000705D580
:10540000605D302802D0641E30206055C4F13C003D
:10541000B0616119F160316B884207DA081A3062B5
:105420004FF6EF71308F0840308710E000290ED51D
:1054300096F8381001F01401102908D1716B7269C7
:10544000891A326A891A081A0128A8BF306204B082
:10545000BDE8F0872DE9F24F04468EB0D4E9000193
:10546000CDE9020104AE9DF8380040F02000009024
:1054700061280AD0206B002848BF062004D404BF4E
:105480000098672801D1012020636168C1F30A50A8
:1054900040F2FF7290421CD1080304BF206800282C
:1054A00009D10320A0619DF8380061381A2836D34D
:1054B0000FF2346108E00320A0619DF838006138E4
:1054C0001A2829D30FF21861E0680322FFF742FC83
:1054D000B5E1012816DA204600F00BFC012811DBAB
:1054E000002700200099612920D1E168302201F8CD
:1054F000012B4A1CE2609DF83820612A0CBF7822FB
:1055000058220FE0626840F2FE3161F31E52471AE2
:1055100062604FF0FF30E5E70FF2C051D4E70FF2C1
:10552000C451D1E70A706169891C616110B9002515
:1055300000277BE10098612840F09680206B0028CE
:105540004CBF2125451CDDE902012DB26E1CD4E9BA
:1055500000890022002300F0EDFB3ABF89F00040F3
:10556000CDE90280CDE902893F1F8DF810200DF1B1
:10557000110801E000F20708012E32DBDDE902012B
:105580000022002300F0EEFB2BD21C2102A800F029
:1055900001FCDDE9020100F083FCF61F8146012ECB
:1055A00009DB00F0A9FC02460B46DDE9020100F030
:1055B000BBFCCDE9020108F20700072105E009F074
:1055C0000F0200F8012D4FEA2919B9F1010F01DB93
:1055D000491EF4D5491E5CBF002200F8012DF9D503
:1055E000C8E70DF11100A8EB00010DF11106A94269
:1055F000B8BF0D462DB228002FD4884206DA04A980
:10560000411849780829A8BF0F2100DA002104AA0F
:10561000821800E06D1E12F80139401E8B42F9D04D
:105620000F2904D104A941184A78521C4A70002855
:1056300002D504AE6D1C3F1D2DB2681E0DD481191C
:105640000A783032D2B23A2A03DB9DF838303A3B3E
:105650009A1801F80129401EF2D5206B002840F16C
:10566000E580681E2063E1E0DDE9020100220023FD
:1056700000F060FB3CBF81F00041CDE902013FB288
:1056800047F2975078434849DFF820B190FBF1F793
:105690003FB2C7F107069246012E19DBDDE9028908
:1056A000F00707D552465B464046494600F0FCFCF1
:1056B0008046894676105046594652465B4600F071
:1056C000F3FC82468B46002EEAD1CDE9028921E027
:1056D00076429046DFF8D89012E0F00707D55246A0
:1056E0005B464046494600F0DFFC8046894676101E
:1056F0005046594652465B4600F0D6FC82468B46E1
:10570000002EEAD1DDE9020142464B4600F09EFD43
:10571000CDE90201009866280CBF07F10A000620B7
:10572000216B4518142DA8BF132530208DF81000CB
:105730000DF11106DFF87C90012D3DDBDDE9020162
:1057400000F0C4FB06F1080104220A23B0FBF3F3C6
:1057500003EB8306A0EB4600303001F8010D0A2070
:10576000B3FBF0F000EB8006A3EB4603303301F807
:10577000013D521EE9D1083D01F10806012DDBDB98
:10578000DDE9020100F0A2FB00F0C0FB02460B467F
:10579000DDE9020100F0C8FB00224B4600F084FC6A
:1057A000CDE90201CAE700BFA08601000000244045
:1057B0000000F03F84D797410DF11100301A0DF130
:1057C000110602E0401E7F1E761C31783029F9D088
:1057D0000099662902D13FB2791C03E065290CBF0C
:1057E00001210021226B8D182DB2A842B8BF0546B9
:1057F0002DB229001AD4814204DA885D3528A8BF69
:10580000392000DA30208A19521E00E06D1E12F88D
:105810000139491E8342F9D0392802D1885D401CE4
:105820008855002902D5761E6D1C7F1C3FB29DF85D
:10583000381000972BB23246204600F003F80FB024
:10584000BDE8F08F2DE9F043054685B01E46D5F83A
:10585000308089461746012E02DA01260FF28C2786
:1058600049F02000BDF93040662808BF641C17D0FD
:10587000672840F0818014F1040FC0F28380444512
:1058800080F2808095F83800641C000702D44645F9
:10589000B8BFB04624B2B8EB040848BF4FF00008C8
:1058A000E868A96924B2012C25DA30234A1C0B547C
:1058B000B8F1010F03DA95F83810090702D52E2147
:1058C0001154521CAA6118EB040FB8BFC8F10004B0
:1058D00024B26142A0446962B045B8BF464636B2C0
:1058E000EE613246AB6939461818FFF733FAA8EB78
:1058F0000600A862BFE00818A64218DA3246394608
:10590000FFF728FAA9697118A961A01B6862B8F1AC
:10591000010F03DA95F83800000705D5E8682E2254
:105920000A54E869401CE861C5F82880A3E02246D3
:105930003946FFF70FFAA8692018361BB8F1010F96
:1059400003DA95F83810090703D5E9682E22425486
:10595000401C36B2A861B045B8BF4646EB6836B2C7
:105960003246E119C018FFF7F5F9A8693018A861A7
:10597000A8EB060068627EE04846612816D14FF029
:10598000700917E0464504DA95F83810090758BF42
:10599000B046B8F1010848BF4FF00008B9F1670FF1
:1059A00014BF4FF045094FF0650903E0412808BFD7
:1059B0004FF05009A969E86817F8013B0B544A1CDD
:1059C000B8F1010F05DA95F83810090758BFAA6138
:1059D00017D52E211154531CAB61B8F1010F10DB08
:1059E000761E36B2B045B8BF464636B23246394664
:1059F0001818FFF7AFF9A8693018A861A8EB0600DE
:105A00006862A869E9684718200007F8019B03D479
:105A10002B2007F8010B03E02D2107F8011B44425E
:105A200000260DF1080808E00A2200A800F031FD68
:105A3000019808F8010B761C009C21B20129F3DAC9
:105A4000022E06DA49F02000652804BF302007F84E
:105A5000010B4EB9302007F8010B07E0761E02A8B3
:105A6000305C303007F8010B012EF7DAA869E968DD
:105A70004018381AE86195F8380000F01400102832
:105A80000DD16869A9690818696A0818E9690818D0
:105A9000A96A0818696B8842BCBF081A286205B059
:105AA000BDE8F083F8B504460D4616461F460020B3
:105AB00004E0E86A401CE8627F1E002047B116F847
:105AC000011BA868A047A8600028F2D14FF0FF3062
:105AD000F2BD0000686A6C747A4C00006E616E0062
:105AE0004E414E00696E6600494E4600300050F847
:105AF000041B61B150F8042BD30744BFA9F1010383
:105B00009A18002342F8043B091FFAD1EFE77047C7
:105B10000278C9B28A421AB11CBF10F8012FF9E706
:105B200018BF002070470268531C03601170704753
:105B300000F10103810704D010F8011B89B181072E
:105B4000FAD10268B2F10131914311F0803F04BFF4
:105B500050F8042FF6E710F8011B11B110F8011BE3
:105B6000FBE7C01A70470000C9B2830706D0521E77
:105B700022D310F8013B9942F7D11FE0083A13D322
:105B800002F1040241EA012141EA014150F8043BDB
:105B9000121F21BF4B40A3F1013C2CEA030C1CF067
:105BA000803FF3D0C9B2001F083210F8013B521EEB
:105BB00028BF91EA030FF8D818BF0120401E704794
:105BC00013F0004C03D55B42524263F100039CEAA0
:105BD000210C00F0178010B5644603D349424042BF
:105BE00061F1000100F00EF8640004D34942404224
:105BF00061F10001244203D55B42524263F100038C
:105C000010BD00001B4213D1094236D12AB184468F
:105C1000B0FBF2F002FB10C2704700F041BCFCD3B5
:105C20000022002370470B00020000210020704773
:105C3000904271EB030CF6D370B5B1FA81F4B3FA6C
:105C400083F52C1BA340C4F1200532FA05F633433B
:105C5000A2405FF00046E64002E05B085FEA3202E5
:105C6000841A71EB030524BF204629467641F4D3FC
:105C700002000B003000002170BD012ACFD970B5A1
:105C8000140C20D0B1FA81F4B2FA82F5C4F12004E8
:105C90006419B4F12006D6D3B2405FF00044F4405A
:105CA000002502E052085FEA3303C61A71EB020EC8
:105CB00024BF3046714664416D41F3D302000B00AE
:105CC0002000290070BD0C46B1FBF2F102FB11452A
:105CD0002D0445EA1045B5FBF2F402FB145580B2E1
:105CE00040EA0545B5FBF2F002FB105240EA0440E1
:105CF00070BD30B4436803F0004201211B031B0B4D
:105D0000436004BF0368002B08D10DE00368DD0F7A
:105D100045EA440444605B000360491E4468E302B2
:105D2000F4D523031B0B436043681A4342600846C3
:105D300030BC70474FF4001C1CEB410F94BF1CEBB0
:105D4000430F09E041EA030C50EA4C0C52EA0C0CF8
:105D500003D2994208BF9042704714BF8B428242DF
:105D6000704700004FF4001C1CEB410F94BF1CEB6C
:105D7000430F09E041EA030C50EA4C0C52EA0C0CC8
:105D800003D28B4208BF8242704714BF99429042AF
:105D90007047000070B504460D466068C0F30A50B5
:105DA00040F2FF71884207D16068000304BF206899
:105DB000002817D0022070BD20B92046FFF799FFB8
:105DC000012867DA012D0FDB40F2FF71091A8D42BD
:105DD0000AD36068002847BF00202F4900202F49C0
:105DE000C4E90001012070BD4142A942616806DAA0
:105DF0006FF31E51401941EA0050606041E0401EBF
:105E000063680122451962F31F5305F1350001F063
:105E100000416360352803D361600020206070BDBD
:105E2000002215F11F0F04DA2268236000202035BC
:105E30006060684213D0521E25689241C0F1200371
:105E4000D2439D4045EAD27225686668C54006FA8D
:105E500003F32B432360636823FA00F060606068FB
:105E600008436060B2F1004F03D80DD12078C0071D
:105E70000AD52068401C2060206828B96068401C52
:105E800060604FF0FF3070BD6068884204BF2068DA
:105E90000028F6D1002070BD0000F0FF0000F07F68
:105EA000F446400D40EAC120490006D200F014F843
:105EB000004248BF6FF00040604700F00DF84FF01F
:105EC000004188428CBF084640426047400D40EA8E
:105ED000C120490080F00D8040F00040490DA1F53F
:105EE0008061491C05D4D1F11F0154BFC840C017BF
:105EF00070474FF000007047010040F10980F44600
:105F0000404200F005F851F000416047010000BF39
:105F100009D0B0FA80F18840C91CC1F58461090537
:105F200001EBD0214005704770B44FF0004591EA75
:105F3000030F44BF6B4000F0B5BA00BF841A71EB89
:105F4000030604D26E40001BB141121973414FF495
:105F5000001C1CEB410F34BF7CEB430684E00C0DAE
:105F6000A4EB1356362E7DDC012E43DC45EAC32319
:105F700043EA525312BFD20292025B08240545EA5B
:105F8000C12141EA5051D2EBC020994125D407D11B
:105F9000B0FA80F610FA06F164D00020203608E04E
:105FA000B1FA81F6B140C6F1200220FA02F21143A3
:105FB000B0404FEAF474B4EB465434F001064FEAB3
:105FC00074040AD8D6F50016760D04F00044F040AB
:105FD00061FA06F25040F1404840C00A40EA4150A0
:105FE00021F0004128BF5FEA500550F1000044EB6A
:105FF000D12137E045EAC323DB0A45EAC121C90ABA
:10600000B6F120050EDD42EA0242120CC5F120066F
:1060100003FA06F6EB4042EA06056D42984161F14B
:1060200000010DE062FA06F5F240554063FA06FC05
:1060300082EA0C02F3405A406D42904161EB030149
:1060400011F4801F05D1641E620502D06D0040412D
:10605000494121F48011430875F1004350F10000DB
:1060600041EB045170BC70471CEB410F15D223F07B
:10607000004352EA43060BD04FEA4C0CBCEB410FF5
:1060800004D80C0D661E342EB7DDEBE7801A99415B
:1060900050EA410608BF0021E4E708BF1CEB430FAC
:1060A00028BF6FF00001DDE7B0B581EA030C0CF00A
:1060B000004C40F2FF7515EA11541DBF15EA135745
:1060C000AC42AF4239E0E41923EA455343F480136C
:1060D000C90241F0004141EA505EC7021100A7FB2E
:1060E000020200284FF00000EEFB01204FF00001FB
:1060F000E3FB072118BF42F001024018002149418B
:10610000E3FB0E01A4F580640F0302D2520040416C
:10611000494154F101046CDD470872F1004250F12D
:10612000000051EB0451A1F580115CBF41EA0C0164
:10613000B0BD4CEA05510020B0BD05EA1357AC4292
:1061400014BFAF4241E050EA410E1CBF52EA430E79
:1061500002E061460020B0BD24423C441BD15FEA0E
:10616000070EF6D0090302BF01460020AEF1140E5F
:10617000B1FA81F7AEEB070401FA07FE0C37C7F15D
:10618000200100FA07F7C8404EEA000E23EA455303
:1061900043F48013A2E733F00043B3FA83F704BF5C
:1061A000B2FA82FE77440B3FE41BB7F1200E2FBFFB
