:1000000000200020B19E0000F19E0000F39E000041
:10001000F59E0000F79E0000F99E0000519F000031
:10002000519F0000519F0000519F0000FB9E000067
:10003000FD9E0000519F0000FF9E0000019F0000F8
:10004000039F000047710000537100005F710000C2
:100050006B71000077710000837100008F710000E8
:100060009B710000A7710000B7730000059F00009E
:10007000079F0000099F0000F34800000B9F00004D
:100080000D9F00000F9F0000119F0000139F0000B4
:10009000159F0000179F0000199F00001B9F000084
:1000A0001D9F00001F9F0000219F0000239F000054
:1000B000259F0000279F0000299F0000D5670000B2
:1000C000016800002B9F00002D9F00002F9F000063
:1000D000319F0000339F0000359F0000379F0000D4
:1000E000399F00003B9F00003D9F0000559D000090
:1000F000519F00003F9F0000419F0000B37100002E
:10010000BF710000519F000063650000076600009A
:10011000736600003F670000439F0000459F00009A
:10012000479F0000499F00004B9F00004D9F00002B
:040130004F9F0000DD
:1008000000001000110001000000100012000200A2
:10081000000010001300030000001000140004008A
:100820000000100015000500000010001600060072
:10083000000010001700070000001000180008005A
:100840000000100019000900000010001A000A0042
:10085000000010001B000B00000010001C000C002A
:10086000000010001D000D00000010001E000E0012
:10087000000010001F000F00000010000100110018
:10088000000010000200120000001000030013001E
:100890000000100004001400000010000500150006
:1008A00000001000060016000000100007001700EE
:1008B00000001000080018000000100009001900D6
:1008C000000010000A001A00000010000B001B00BE
:1008D000000010000C001C00000010000D001D00A6
:1008E000000010000E001E00000010000F001F008E
:1008F00001001100100000000100110012000200B0
:100900000100110013000300010011001400040095
:10091000010011001500050001001100160006007D
:100920000100110017000700010011001800080065
:100930000100110019000900010011001A000A004D
:10094000010011001B000B00010011001C000C0035
:10095000010011001D000D00010011001E000E001D
:10096000010011001F000F00010011000000100025
:100970000100110002001200010011000300130029
:100980000100110004001400010011000500150011
:1009900001001100060016000100110007001700F9
:1009A00001001100080018000100110009001900E1
:1009B000010011000A001A00010011000B001B00C9
:1009C000010011000C001C00010011000D001D00B1
:1009D000010011000E001E00010011000F001F0099
:1009E00002001200100000000200120011000100BD
:1009F00002001200130003000200120014000400A1
:100A00000200120015000500020012001600060088
:100A10000200120017000700020012001800080070
:100A20000200120019000900020012001A000A0058
:100A3000020012001B000B00020012001C000C0040
:100A4000020012001D000D00020012001E000E0028
:100A5000020012001F000F00020012000000100030
:100A60000200120001001100020012000300130036
:100A7000020012000400140002001200050015001C
:100A80000200120006001600020012000700170004
:100A900002001200080018000200120009001900EC
:100AA000020012000A001A00020012000B001B00D4
:100AB000020012000C001C00020012000D001D00BC
:100AC000020012000E001E00020012000F001F00A4
:100AD00003001300100000000300130011000100C8
:100AE00003001300120002000300130014000400AE
:100AF0000300130015000500030013001600060094
:100B0000030013001700070003001300180008007B
:100B10000300130019000900030013001A000A0063
:100B2000030013001B000B00030013001C000C004B
:100B3000030013001D000D00030013001E000E0033
:100B4000030013001F000F0003001300000010003B
:100B50000300130001001100030013000200120043
:100B60000300130004001400030013000500150027
:100B7000030013000600160003001300070017000F
:100B800003001300080018000300130009001900F7
:100B9000030013000A001A00030013000B001B00DF
:100BA000030013000C001C00030013000D001D00C7
:100BB000030013000E001E00030013000F001F00AF
:100BC00004001400100000000400140011000100D3
:100BD00004001400120002000400140013000300BB
:100BE000040014001500050004001400160006009F
:100BF0000400140017000700040014001800080087
:100C00000400140019000900040014001A000A006E
:100C1000040014001B000B00040014001C000C0056
:100C2000040014001D000D00040014001E000E003E
:100C3000040014001F000F00040014000000100046
:100C4000040014000100110004001400020012004E
:100C50000400140003001300040014000500150034
:100C6000040014000600160004001400070017001A
:100C70000400140008001800040014000900190002
:100C8000040014000A001A00040014000B001B00EA
:100C9000040014000C001C00040014000D001D00D2
:100CA000040014000E001E00040014000F001F00BA
:100CB00005001500100000000500150011000100DE
:100CC00005001500120002000500150013000300C6
:100CD00005001500140004000500150016000600AC
:100CE0000500150017000700050015001800080092
:100CF0000500150019000900050015001A000A007A
:100D0000050015001B000B00050015001C000C0061
:100D1000050015001D000D00050015001E000E0049
:100D2000050015001F000F00050015000000100051
:100D30000500150001001100050015000200120059
:100D40000500150003001300050015000400140041
:100D50000500150006001600050015000700170025
:100D6000050015000800180005001500090019000D
:100D7000050015000A001A00050015000B001B00F5
:100D8000050015000C001C00050015000D001D00DD
:100D9000050015000E001E00050015000F001F00C5
:100DA00006001600100000000600160011000100E9
:100DB00006001600120002000600160013000300D1
:100DC00006001600140004000600160015000500B9
:100DD000060016001700070006001600180008009D
:100DE0000600160019000900060016001A000A0085
:100DF000060016001B000B00060016001C000C006D
:100E0000060016001D000D00060016001E000E0054
:100E1000060016001F000F0006001600000010005C
:100E20000600160001001100060016000200120064
:100E3000060016000300130006001600040014004C
:100E40000600160005001500060016000700170032
:100E50000600160008001800060016000900190018
:100E6000060016000A001A00060016000B001B0000
:100E7000060016000C001C00060016000D001D00E8
:100E8000060016000E001E00060016000F001F00D0
:100E900007001700100000000700170011000100F4
:100EA00007001700120002000700170013000300DC
:100EB00007001700140004000700170015000500C4
:100EC00007001700160006000700170018000800AA
:100ED0000700170019000900070017001A000A0090
:100EE000070017001B000B00070017001C000C0078
:100EF000070017001D000D00070017001E000E0060
:100F0000070017001F000F00070017000000100067
:100F1000070017000100110007001700020012006F
:100F20000700170003001300070017000400140057
:100F3000070017000500150007001700060016003F
:100F40000700170008001800070017000900190023
:100F5000070017000A001A00070017000B001B000B
:100F6000070017000C001C00070017000D001D00F3
:100F7000070017000E001E00070017000F001F00DB
:100F800008001800100000000800180011000100FF
:100F900008001800120002000800180013000300E7
:100FA00008001800140004000800180015000500CF
:100FB00008001800160006000800180017000700B7
:100FC0000800180019000900080018001A000A009B
:100FD000080018001B000B00080018001C000C0083
:100FE000080018001D000D00080018001E000E006B
:100FF000080018001F000F00080018000000100073
:10100000080018000100110008001800020012007A
:101010000800180003001300080018000400140062
:10102000080018000500150008001800060016004A
:101030000800180007001700080018000900190030
:10104000080018000A001A00080018000B001B0016
:10105000080018000C001C00080018000D001D00FE
:10106000080018000E001E00080018000F001F00E6
:10107000090019001000000009001900110001000A
:1010800009001900120002000900190013000300F2
:1010900009001900140004000900190015000500DA
:1010A00009001900160006000900190017000700C2
:1010B0000900190018000800090019001A000A00A8
:1010C000090019001B000B00090019001C000C008E
:1010D000090019001D000D00090019001E000E0076
:1010E000090019001F000F0009001900000010007E
:1010F0000900190001001100090019000200120086
:10110000090019000300130009001900040014006D
:101110000900190005001500090019000600160055
:10112000090019000700170009001900080018003D
:10113000090019000A001A00090019000B001B0021
:10114000090019000C001C00090019000D001D0009
:10115000090019000E001E00090019000F001F00F1
:101160000A001A00100000000A001A001100010015
:101170000A001A00120002000A001A0013000300FD
:101180000A001A00140004000A001A0015000500E5
:101190000A001A00160006000A001A0017000700CD
:1011A0000A001A00180008000A001A0019000900B5
:1011B0000A001A001B000B000A001A001C000C0099
:1011C0000A001A001D000D000A001A001E000E0081
:1011D0000A001A001F000F000A001A000000100089
:1011E0000A001A00010011000A001A000200120091
:1011F0000A001A00030013000A001A000400140079
:101200000A001A00050015000A001A000600160060
:101210000A001A00070017000A001A000800180048
:101220000A001A00090019000A001A000B001B002E
:101230000A001A000C001C000A001A000D001D0014
:101240000A001A000E001E000A001A000F001F00FC
:101250000B001B00100000000B001B001100010020
:101260000B001B00120002000B001B001300030008
:101270000B001B00140004000B001B0015000500F0
:101280000B001B00160006000B001B0017000700D8
:101290000B001B00180008000B001B0019000900C0
:1012A0000B001B001A000A000B001B001C000C00A6
:1012B0000B001B001D000D000B001B001E000E008C
:1012C0000B001B001F000F000B001B000000100094
:1012D0000B001B00010011000B001B00020012009C
:1012E0000B001B00030013000B001B000400140084
:1012F0000B001B00050015000B001B00060016006C
:101300000B001B00070017000B001B000800180053
:101310000B001B00090019000B001B000A001A003B
:101320000B001B000C001C000B001B000D001D001F
:101330000B001B000E001E000B001B000F001F0007
:101340000C001C00100000000C001C00110001002B
:101350000C001C00120002000C001C001300030013
:101360000C001C00140004000C001C0015000500FB
:101370000C001C00160006000C001C0017000700E3
:101380000C001C00180008000C001C0019000900CB
:101390000C001C001A000A000C001C001B000B00B3
:1013A0000C001C001D000D000C001C001E000E0097
:1013B0000C001C001F000F000C001C00000010009F
:1013C0000C001C00010011000C001C0002001200A7
:1013D0000C001C00030013000C001C00040014008F
:1013E0000C001C00050015000C001C000600160077
:1013F0000C001C00070017000C001C00080018005F
:101400000C001C00090019000C001C000A001A0046
:101410000C001C000B001B000C001C000D001D002C
:101420000C001C000E001E000C001C000F001F0012
:101430000D001D00100000000D001D001100010036
:101440000D001D00120002000D001D00130003001E
:101450000D001D00140004000D001D001500050006
:101460000D001D00160006000D001D0017000700EE
:101470000D001D00180008000D001D0019000900D6
:101480000D001D001A000A000D001D001B000B00BE
:101490000D001D001C000C000D001D001E000E00A4
:1014A0000D001D001F000F000D001D0000001000AA
:1014B0000D001D00010011000D001D0002001200B2
:1014C0000D001D00030013000D001D00040014009A
:1014D0000D001D00050015000D001D000600160082
:1014E0000D001D00070017000D001D00080018006A
:1014F0000D001D00090019000D001D000A001A0052
:101500000D001D000B001B000D001D000C001C0039
:101510000D001D000E001E000D001D000F001F001D
:101520000E001E00100000000E001E001100010041
:101530000E001E00120002000E001E001300030029
:101540000E001E00140004000E001E001500050011
:101550000E001E00160006000E001E0017000700F9
:101560000E001E00180008000E001E0019000900E1
:101570000E001E001A000A000E001E001B000B00C9
:101580000E001E001C000C000E001E001D000D00B1
:101590000E001E001F000F000E001E0000001000B5
:1015A0000E001E00010011000E001E0002001200BD
:1015B0000E001E00030013000E001E0004001400A5
:1015C0000E001E00050015000E001E00060016008D
:1015D0000E001E00070017000E001E000800180075
:1015E0000E001E00090019000E001E000A001A005D
:1015F0000E001E000B001B000E001E000C001C0045
:101600000E001E000D001D000E001E000F001F002A
:101610000F001F00100000000F001F00110001004C
:101620000F001F00120002000F001F001300030034
:101630000F001F00140004000F001F00150005001C
:101640000F001F00160006000F001F001700070004
:101650000F001F00180008000F001F0019000900EC
:101660000F001F001A000A000F001F001B000B00D4
:101670000F001F001C000C000F001F001D000D00BC
:101680000F001F001E000E000F001F0000001000C2
:101690000F001F00010011000F001F0002001200C8
:1016A0000F001F00030013000F001F0004001400B0
:1016B0000F001F00050015000F001F000600160098
:1016C0000F001F00070017000F001F000800180080
:1016D0000F001F00090019000F001F000A001A0068
:1016E0000F001F000B001B000F001F000C001C0050
:1016F0000F001F000D001D000F001F000E001E0038
:101700001000000011000100100000001200020093
:10171000100000001300030010000000140004007B
:101720001000000015000500100000001600060063
:10173000100000001700070010000000180008004B
:101740001000000019000900100000001A000A0033
:10175000100000001B000B00100000001C000C001B
:10176000100000001D000D00100000001E000E0003
:10177000100000001F000F00100000000100110009
:10178000100000000200120010000000030013000F
:1017900010000000040014001000000005001500F7
:1017A00010000000060016001000000007001700DF
:1017B00010000000080018001000000009001900C7
:1017C000100000000A001A00100000000B001B00AF
:1017D000100000000C001C00100000000D001D0097
:1017E000100000000E001E00100000000F001F007F
:1017F00011000100100000001100010012000200A1
:101800001100010013000300110001001400040086
:10181000110001001500050011000100160006006E
:101820001100010017000700110001001800080056
:101830001100010019000900110001001A000A003E
:10184000110001001B000B00110001001C000C0026
:10185000110001001D000D00110001001E000E000E
:10186000110001001F000F00110001000000100016
:10187000110001000200120011000100030013001A
:101880001100010004001400110001000500150002
:1018900011000100060016001100010007001700EA
:1018A00011000100080018001100010009001900D2
:1018B000110001000A001A00110001000B001B00BA
:1018C000110001000C001C00110001000D001D00A2
:1018D000110001000E001E00110001000F001F008A
:1018E00012000200100000001200020011000100AE
:1018F0001200020013000300120002001400040092
:101900001200020015000500120002001600060079
:101910001200020017000700120002001800080061
:101920001200020019000900120002001A000A0049
:10193000120002001B000B00120002001C000C0031
:10194000120002001D000D00120002001E000E0019
:10195000120002001F000F00120002000000100021
:101960001200020001001100120002000300130027
:10197000120002000400140012000200050015000D
:1019800012000200060016001200020007001700F5
:1019900012000200080018001200020009001900DD
:1019A000120002000A001A00120002000B001B00C5
:1019B000120002000C001C00120002000D001D00AD
:1019C000120002000E001E00120002000F001F0095
:1019D00013000300100000001300030011000100B9
:1019E000130003001200020013000300140004009F
:1019F0001300030015000500130003001600060085
:101A0000130003001700070013000300180008006C
:101A10001300030019000900130003001A000A0054
:101A2000130003001B000B00130003001C000C003C
:101A3000130003001D000D00130003001E000E0024
:101A4000130003001F000F0013000300000010002C
:101A50001300030001001100130003000200120034
:101A60001300030004001400130003000500150018
:101A70001300030006001600130003000700170000
:101A800013000300080018001300030009001900E8
:101A9000130003000A001A00130003000B001B00D0
:101AA000130003000C001C00130003000D001D00B8
:101AB000130003000E001E00130003000F001F00A0
:101AC00014000400100000001400040011000100C4
:101AD00014000400120002001400040013000300AC
:101AE0001400040015000500140004001600060090
:101AF0001400040017000700140004001800080078
:101B00001400040019000900140004001A000A005F
:101B1000140004001B000B00140004001C000C0047
:101B2000140004001D000D00140004001E000E002F
:101B3000140004001F000F00140004000000100037
:101B4000140004000100110014000400020012003F
:101B50001400040003001300140004000500150025
:101B6000140004000600160014000400070017000B
:101B700014000400080018001400040009001900F3
:101B8000140004000A001A00140004000B001B00DB
:101B9000140004000C001C00140004000D001D00C3
:101BA000140004000E001E00140004000F001F00AB
:101BB00015000500100000001500050011000100CF
:101BC00015000500120002001500050013000300B7
:101BD000150005001400040015000500160006009D
:101BE0001500050017000700150005001800080083
:101BF0001500050019000900150005001A000A006B
:101C0000150005001B000B00150005001C000C0052
:101C1000150005001D000D00150005001E000E003A
:101C2000150005001F000F00150005000000100042
:101C3000150005000100110015000500020012004A
:101C40001500050003001300150005000400140032
:101C50001500050006001600150005000700170016
:101C600015000500080018001500050009001900FE
:101C7000150005000A001A00150005000B001B00E6
:101C8000150005000C001C00150005000D001D00CE
:101C9000150005000E001E00150005000F001F00B6
:101CA00016000600100000001600060011000100DA
:101CB00016000600120002001600060013000300C2
:101CC00016000600140004001600060015000500AA
:101CD000160006001700070016000600180008008E
:101CE0001600060019000900160006001A000A0076
:101CF000160006001B000B00160006001C000C005E
:101D0000160006001D000D00160006001E000E0045
:101D1000160006001F000F0016000600000010004D
:101D20001600060001001100160006000200120055
:101D3000160006000300130016000600040014003D
:101D40001600060005001500160006000700170023
:101D50001600060008001800160006000900190009
:101D6000160006000A001A00160006000B001B00F1
:101D7000160006000C001C00160006000D001D00D9
:101D8000160006000E001E00160006000F001F00C1
:101D900017000700100000001700070011000100E5
:101DA00017000700120002001700070013000300CD
:101DB00017000700140004001700070015000500B5
:101DC000170007001600060017000700180008009B
:101DD0001700070019000900170007001A000A0081
:101DE000170007001B000B00170007001C000C0069
:101DF000170007001D000D00170007001E000E0051
:101E0000170007001F000F00170007000000100058
:101E10001700070001001100170007000200120060
:101E20001700070003001300170007000400140048
:101E30001700070005001500170007000600160030
:101E40001700070008001800170007000900190014
:101E5000170007000A001A00170007000B001B00FC
:101E6000170007000C001C00170007000D001D00E4
:101E7000170007000E001E00170007000F001F00CC
:101E800018000800100000001800080011000100F0
:101E900018000800120002001800080013000300D8
:101EA00018000800140004001800080015000500C0
:101EB00018000800160006001800080017000700A8
:101EC0001800080019000900180008001A000A008C
:101ED000180008001B000B00180008001C000C0074
:101EE000180008001D000D00180008001E000E005C
:101EF000180008001F000F00180008000000100064
:101F0000180008000100110018000800020012006B
:101F10001800080003001300180008000400140053
:101F2000180008000500150018000800060016003B
:101F30001800080007001700180008000900190021
:101F4000180008000A001A00180008000B001B0007
:101F5000180008000C001C00180008000D001D00EF
:101F6000180008000E001E00180008000F001F00D7
:101F700019000900100000001900090011000100FB
:101F800019000900120002001900090013000300E3
:101F900019000900140004001900090015000500CB
:101FA00019000900160006001900090017000700B3
:101FB0001900090018000800190009001A000A0099
:101FC000190009001B000B00190009001C000C007F
:101FD000190009001D000D00190009001E000E0067
:101FE000190009001F000F0019000900000010006F
:101FF0001900090001001100190009000200120077
:10200000190009000300130019000900040014005E
:102010001900090005001500190009000600160046
:10202000190009000700170019000900080018002E
:10203000190009000A001A00190009000B001B0012
:10204000190009000C001C00190009000D001D00FA
:10205000190009000E001E00190009000F001F00E2
:102060001A000A00100000001A000A001100010006
:102070001A000A00120002001A000A0013000300EE
:102080001A000A00140004001A000A0015000500D6
:102090001A000A00160006001A000A0017000700BE
:1020A0001A000A00180008001A000A0019000900A6
:1020B0001A000A001B000B001A000A001C000C008A
:1020C0001A000A001D000D001A000A001E000E0072
:1020D0001A000A001F000F001A000A00000010007A
:1020E0001A000A00010011001A000A000200120082
:1020F0001A000A00030013001A000A00040014006A
:102100001A000A00050015001A000A000600160051
:102110001A000A00070017001A000A000800180039
:102120001A000A00090019001A000A000B001B001F
:102130001A000A000C001C001A000A000D001D0005
:102140001A000A000E001E001A000A000F001F00ED
:102150001B000B00100000001B000B001100010011
:102160001B000B00120002001B000B0013000300F9
:102170001B000B00140004001B000B0015000500E1
:102180001B000B00160006001B000B0017000700C9
:102190001B000B00180008001B000B0019000900B1
:1021A0001B000B001A000A001B000B001C000C0097
:1021B0001B000B001D000D001B000B001E000E007D
:1021C0001B000B001F000F001B000B000000100085
:1021D0001B000B00010011001B000B00020012008D
:1021E0001B000B00030013001B000B000400140075
:1021F0001B000B00050015001B000B00060016005D
:102200001B000B00070017001B000B000800180044
:102210001B000B00090019001B000B000A001A002C
:102220001B000B000C001C001B000B000D001D0010
:102230001B000B000E001E001B000B000F001F00F8
:102240001C000C00100000001C000C00110001001C
:102250001C000C00120002001C000C001300030004
:102260001C000C00140004001C000C0015000500EC
:102270001C000C00160006001C000C0017000700D4
:102280001C000C00180008001C000C0019000900BC
:102290001C000C001A000A001C000C001B000B00A4
:1022A0001C000C001D000D001C000C001E000E0088
:1022B0001C000C001F000F001C000C000000100090
:1022C0001C000C00010011001C000C000200120098
:1022D0001C000C00030013001C000C000400140080
:1022E0001C000C00050015001C000C000600160068
:1022F0001C000C00070017001C000C000800180050
:102300001C000C00090019001C000C000A001A0037
:102310001C000C000B001B001C000C000D001D001D
:102320001C000C000E001E001C000C000F001F0003
:102330001D000D00100000001D000D001100010027
:102340001D000D00120002001D000D00130003000F
:102350001D000D00140004001D000D0015000500F7
:102360001D000D00160006001D000D0017000700DF
:102370001D000D00180008001D000D0019000900C7
:102380001D000D001A000A001D000D001B000B00AF
:102390001D000D001C000C001D000D001E000E0095
:1023A0001D000D001F000F001D000D00000010009B
:1023B0001D000D00010011001D000D0002001200A3
:1023C0001D000D00030013001D000D00040014008B
:1023D0001D000D00050015001D000D000600160073
:1023E0001D000D00070017001D000D00080018005B
:1023F0001D000D00090019001D000D000A001A0043
:102400001D000D000B001B001D000D000C001C002A
:102410001D000D000E001E001D000D000F001F000E
:102420001E000E00100000001E000E001100010032
:102430001E000E00120002001E000E00130003001A
:102440001E000E00140004001E000E001500050002
:102450001E000E00160006001E000E0017000700EA
:102460001E000E00180008001E000E0019000900D2
:102470001E000E001A000A001E000E001B000B00BA
:102480001E000E001C000C001E000E001D000D00A2
:102490001E000E001F000F001E000E0000001000A6
:1024A0001E000E00010011001E000E0002001200AE
:1024B0001E000E00030013001E000E000400140096
:1024C0001E000E00050015001E000E00060016007E
:1024D0001E000E00070017001E000E000800180066
:1024E0001E000E00090019001E000E000A001A004E
:1024F0001E000E000B001B001E000E000C001C0036
:102500001E000E000D001D001E000E000F001F001B
:102510001F000F00100000001F000F00110001003D
:102520001F000F00120002001F000F001300030025
:102530001F000F00140004001F000F00150005000D
:102540001F000F00160006001F000F0017000700F5
:102550001F000F00180008001F000F0019000900DD
:102560001F000F001A000A001F000F001B000B00C5
:102570001F000F001C000C001F000F001D000D00AD
:102580001F000F001E000E001F000F0000001000B3
:102590001F000F00010011001F000F0002001200B9
:1025A0001F000F00030013001F000F0004001400A1
:1025B0001F000F00050015001F000F000600160089
:1025C0001F000F00070017001F000F000800180071
:1025D0001F000F00090019001F000F000A001A0059
:1025E0001F000F000B001B001F000F000C001C0041
:1025F0001F000F000D001D001F000F000E001E0029
:1026000010F00701DFF8600C00684FF6FF02104081
:10261000DFF8042952EA01210843DFF84C1C086066
:10262000704738B50024002501F06AF90C20FFF747
:10263000E7FF002001F0D0FE0221042001F022FB80
:1026400002F0CEF802F022F900F0E3F9002803D0FE
:10265000DFF8C80802F0E0F8DFF8C40800F0C9F9B4
:10266000DFF8C00800F0C5F9DFF8BC0800F0C1F9D8
:10267000DFF8B80800F0BDF908E0DFF8B40800F0B2
:10268000B8F9DFF8E80B006802F0B7FBEDB2002DF7
:1026900069D10220ADF8000000AADFF8DC1ADFF8EB
:1026A000CC0B006802F07AFBDFF8CC1A09786129BC
:1026B0000DD1DFF8C40A40780D2808D10124DFF8D5
:1026C000BC0A00F096F900F071FE0125D9E7DFF8A9
:1026D000A80A007862280DD1DFF89C0A40780D28FE
:1026E00008D10224DFF8980A00F083F900F0CAFD4F
:1026F0000125C6E7DFF8800A007863280DD1DFF8EE
:10270000780A40780D2808D10324DFF8780A00F011
:1027100070F900F04BFE0125B3E7DFF85C0A0078A2
:1027200064280DD1DFF8500A40780D2808D1042420
:10273000DFF8540A00F05DF900F030FD0125A0E754
:10274000DFF8340A0078652897D1DFF82C0A407842
:102750000D2892D10524DFF8340A00F04AF900F080
:102760001DFD01258DE7DFF8280A00F042F906E09B
:10277000DFF8201ADFF8200A006800F071FAEDB2E5
:10278000002D35D024B2012CF2D024B2022C07D176
:10279000DFF8DC1ADFF8000A006800F08DF9EEE7D8
:1027A00024B2032C08D10822DFF8E819DFF8E80981
:1027B000006800F09BFAE2E724B2042C08D1102252
:1027C000DFF8B01ADFF8D009006800F0B3FBD6E7F5
:1027D00024B2052C07D1DFF89C1ADFF8BC09006889
:1027E00000F0F6F9CBE7DFF8900A00F002F9C6E74F
:1027F000DFF8A409006802F00BFF002803D0DFF81F
:102800007C0A02F009F8DFF89009006803F0C5FDC2
:10281000002803D0DFF8680A01F0FEFFDFF84C0A59
:10282000006802F069FA00B2002803D0DFF8740BE8
:1028300001F0F2FF002032BD38B50B00110000227C
:1028400019E052B230F91240241E012C12D252B2B9
:10285000540010EB4404B4F90240241E012C09D2A8
:1028600052B2002420F8124052B2540010EB44043B
:1028700000256580521C52B2022AE2DB002206E0EB
:1028800052B252B230F8124023F81240521C52B2E7
:10289000042AF5DB0422180004F04AF831BDF0B533
:1028A00006000C0000200021E517002D01D1002CAE
:1028B00016D0F7170023A2FB060102FB071103FB4A
:1028C0000611490141EAD06140012200E31704F0FA
:1028D00081F8401C51F10001400840EAC1704910E4
:1028E00030F0FF3231F00003002B01D1002A02D07A
:1028F0007FF00040FFE7F0BD30B50C000022002360
:10290000E517002D01D1002C16D04FF47A7181FB10
:1029100000235B0143EAD263520110001900220038
:10292000E31704F057F802000B00521C53F10003A8
:10293000520842EAC3725B1032F0FF3033F00001FC
:10294000002901D1002802D07FF0004000E01000F3
:1029500030BD02B582B0029900293AD59DF8081021
:10296000D1F110019DF8002061F303028DF80020E1
:1029700002990911009A61F31F1200929DF8081044
:1029800011F00F01002902D0009910310091009937
:1029900041F31B1100290CD19DF8001011F00F011B
:1029A00040F2712202FB01F2DFF8FC1904F0ACF8EE
:1029B0001EE09DF8001011F00F0140F2712202FBA1
:1029C00001F3009941F31B12DFF8541B04F09CF84B
:1029D0000EE09DF8081011F00F0140F2712202FB89
:1029E00001F3029941F31B12DFF8341B04F08CF859
:1029F00007BD10B582B00400200004F09FF8ADF8C8
:102A0000000000AA2100DFF86408006802F097F9CE
:102A100013BD10B586B0DFF8600703900220ADF853
:102A20001000DFF8000B05906420ADF8120003AA37
:102A3000DFF83818002002F00BF9040024B2002C53
:102A400003D0DFF8E40A01F0E7FE04208DF800006F
:102A500001208DF8030001208DF8040000208DF87E
:102A6000010003208DF8020000208DF8050000A968
:102A7000DFF8F807006802F032FA040024B2002CF4
:102A800003D0DFF8A80A01F0C7FE0121DFF8DC0758
:102A9000006802F0B9FA040024B2002C03D0DFF879
:102AA000900A01F0B9FE200000B206B010BD00E0AF
:102AB000401E0028FCD170472DE9F041F0B0040021
:102AC0000D00002645E000A800210160042303AAB0
:102AD0002900200003F0BAFA002803D0DFF8540AD6
:102AE000FFF787FF07AA05A903A8FFF7A5FE0222A3
:102AF00001A907A804F03EF848F26C120199029867
:102B0000FFF7CDFE009056A8342104F0F9F80BA889
:102B10004FF4967104F0F4F8DFF81C2A70A156A85F
:102B200003F0F2FF63A956A804F0EDF800990BA892
:102B3000FFF70FFF0BA956A804F0E5F869A104F010
:102B4000E2F856A8FFF755FF7F1C7FB24745BADB76
:102B5000761C76B20F2E38DA76B2DFF8E00910EB89
:102B6000C602D2E90001890641EA90118006DFF829
:102B7000D029002303F050FF04F0D4F80022DFF83E
:102B8000C43904F0EFF804F077F9070076B2DFF803
:102B9000B80950F8262054A163A803F0B5FF76B217
:102BA0000F2E00DB0026DFF8C80657F01841C16081
:102BB000DFF8BC06DFF8541C01610121200003F09E
:102BC00011FB5FF001080027BFE770B0BDE8F0819E
:102BD00010B5E4B0040000A80021016056A834211B
:102BE00004F08EF80BA84FF4967104F089F80423D2
:102BF00003AADFF88016200003F028FA002803D08B
:102C0000DFF84809FFF7F5FE07AA05A903A8FFF7B3
:102C100013FE022201A907A803F0ACFF00240CE078
:102C200064B201A810EB840041680198FFF764FECC
:102C300064B200A941F82400641C64B2012CEFDBEB
:102C400000990BA8FFF785FE0BA956A804F05BF8C6
:102C500024A104F058F856A8FFF7CBFE64B010BDCD
:102C600070B5E4B004000D0000A80021016048F236
:102C70006C1656A8342104F043F80BA84FF4967153
:102C800004F03EF8042303AA2900200003F0DEF933
:102C9000002803D0DFF89C08FFF7ABFE07AA05A9C0
:102CA00003A8FFF7C9FD022201A907A803F062FFEC
:102CB00048F26C16320001990298FFF7F0FD00907F
:102CC00000990BA8FFF745FE0BA956A804F01BF8C6
:102CD00004A104F018F856A8FFF78BFE64B070BD8D
:102CE00025733A00200D0A0025733B002DE9F34FB0
:102CF000ADF5437D1400082C01D130250DE0102CDA
:102D000001D1E02509E0202C02D14FF4707504E0D8
:102D10000025DFF8000BFFF76CFE48F26C100990FD
:102D20005FA84FF4C87103F0EBFFDFF8EC1A5FA85F
:102D300003F0EAFE5FA8FFF75CFE002626E004230E
:102D40000CAAC499C39803F081F9002803D0DFF8D6
:102D5000CC0AFFF74EFE10AA0EA90CA8FFF76CFDD7
:102D600002220AA910A803F005FF099A0A990B98F4
:102D7000FFF795FD0090009914A8FFF7EAFD65A103
:102D800014A803F0C0FFFFF734FE761CAE4280F0BB
:102D9000B58014A84FF4967103F0B2FF10A810216B
:102DA00003F0AEFF0EA80021002206C008380AA8D2
:102DB0000021002206C008380CA80021002206C00D
:102DC000083800A800210160082C04D1DFF8500A5F
:102DD00010EBC60011E0102C04D1DFF8480A10EB0C
:102DE000C6000AE0202C04D1DFF83C0A10EBC60034
:102DF00003E0DFF8340A10EBC600B0F902100C2231
:102E0000DFF8283A02FB013BB0F906100C22DFF88C
:102E10001C3A02FB013AB0F900100C22DFF80C3A20
:102E200002FB0139B0F904000C21DFF8002A01FB94
:102E300000275FF0000806E0BDF80810019804F0D4
:102E40002EF918F10108B8F1050FBFF678AFDFF8D9
:102E5000E00910EBC802D2E90001CDE90701DFF873
:102E6000D40910EBC802D2E90001CDE90501DFF871
:102E7000C80910EBC802D2E90001CDE90301DFF86F
:102E8000BC0910EBC802D2E90001CDE901013BF910
:102E90001800012805DBBDF82010079804F0E1F8C0
:102EA00004E0BDF82010079804F0F9F83AF918008A
:102EB000012805DBBDF81810059804F0D2F804E0ED
:102EC000BDF81810059804F0EAF839F9180001283F
:102ED00005DBBDF81010039804F0C3F804E0BDF85A
:102EE0001010039804F0DBF837F918000128A3DB71
:102EF000BDF80810019804F0B4F8A2E79CA0FFF711
:102F000078FDDA48006801F078FF0DF5457DBDE8F1
:102F1000F08F00002C0000000000FA05E8A400007B
:102F2000A4AB000060AD000090A00000BCAB0000AE
:102F300030A200002DE9F34FADF5437D1400082CBD
:102F400001D130250DE0102C01D1E02509E0202C25
:102F500002D14FF4707504E00025DFF8B808FFF7E0
:102F600048FD5EA84FF4C87103F0CAFEDFF8A81848
:102F70005EA803F0C9FD5EA8FFF73BFD00261AE03E
:102F80007FB209A810EB870041680998FFF7B4FCED
:102F90007FB200A941F827007F1C7FB2012FEFDB31
:102FA000009913A8FFF7D5FC72A113A803F0ABFE9C
:102FB000FFF71FFD761CAE4280F0CD8013A84FF4C2
:102FC000967103F09DFE0FA8102103F099FE0DA845
:102FD0000021002206C0083809A80021002206C0EE
:102FE00008380BA80021002206C0083800A80021DC
:102FF00001600027082C04D1DFF8240810EBC6007C
:1030000011E0102C04D1DFF81C0810EBC6000AE018
:10301000202C04D1DFF8100810EBC60003E0DFF825
:10302000080810EBC600B0F902100C22DFF8FC37DC
:1030300002FB013BB0F906100C22DFF8F03702FB6F
:10304000013AB0F900100C22DFF8E03702FB013939
:10305000B0F904000C21DFF8D42701FB00275FF052
:10306000000806E0BDF80810019804F018F818F1FF
:103070000108B8F1050F56DADFF8B40710EBC80203
:10308000D2E90001CDE90701DFF8A80710EBC8027B
:10309000D2E90001CDE90501DFF89C0710EBC80279
:1030A000D2E90001CDE90301DFF8900710EBC80277
:1030B000D2E90001CDE901013BF91800012805DB47
:1030C000BDF82010079803F0CCFF04E0BDF82010F5
:1030D000079803F0E4FF3AF91800012805DBBDF872
:1030E0001810059803F0BDFF04E0BDF8181005980E
:1030F00003F0D5FF39F91800012805DBBDF81010E1
:10310000039803F0AEFF04E0BDF81010039803F03D
:10311000C6FF37F918000128A4DBBDF80810019894
:1031200003F09FFFA3E704230BAAC499C39802F0FE
:103130008DFF002803D0DFF8E406FFF75AFC0FAA42
:103140000DA90BA8FFF778FB022209A90FA803F02D
:1031500011FD002721E706A0FFF74BFCDFF8F00385
:10316000006801F04AFE0DF5457DBDE8F08F0000D6
:103170000D0A00002C0000008C07002000A90000B0
:1031800024A900004CAC000078A6000004AA0000AE
:10319000C4AA0000080100207407002000B583B015
:1031A00003F080FE002803D0DFF89406FFF721FC2F
:1031B00000F0D0F9DFF88C0603F08CF8002803D07B
:1031C000DFF88406FFF715FCDFF87806006801F0E9
:1031D0007FFF002803D0DFF87406FFF70AFCDFF852
:1031E0006406006802F06FF8002803D0DFF860067C
:1031F000FFF7FFFBDFF84C06006802F094F80028A8
:1032000003D0DFF85006FFF7F4FBDFF8380600685C
:1032100002F08AF9002803D0DFF83C06FFF7E9FB4B
:10322000DFF83806DFF83816C160DFF83006DFF85F
:10323000341601610121DFF80C06006802F0D2FFAC
:10324000042300AADFF82016DFF8F805006802F072
:10325000FDFE002803D0DFF81406FFF7CAFBDFF8F5
:103260001006FFF7C6FB07BD0CED00E0700700205D
:103270005C000020D0010020B0AC000030A50000B0
:1032800078A5000000B583B0DFF8B80503F022F898
:10329000002803D0DFF8DC0501F0BEFA4FF47A71A4
:1032A000DFF8A005006802F0B4FF002803D0DFF8C3
:1032B000C80501F0B1FA48F2E801DFF888050068B6
:1032C00002F0D4FF002803D0DFF8B00501F0A4FA23
:1032D000DFF87005006801F0FBFE002803D0DFF87E
:1032E000A00501F099FADFF89C05FFF7E0FBDFF895
:1032F0005405006801F085FF002803D0DFF8880539
:10330000FFF777FBDFF83C05006801F00EFF0028AF
:1033100003D0DFF87805FFF76CFBDFF828050068BD
:1033200001F0D1FF002803D0DFF8640501F074FA42
:1033300000AADFF86015DFF80C05006802F0FAFA61
:10334000002803D0DFF8500501F066FA009ADFF894
:103350004C15DFF8F004006802F0B6FA002803D03C
:10336000DFF83C0501F058FA01AADFF83815DFF85C
:10337000D404006802F0DEFA002803D0DFF8280544
:1033800001F04AFA019ADFF82415DFF8B804006862
:1033900002F09AFA002803D0DFF8140501F03CFA95
:1033A00007BD0000A8A30000C0AC000000B585B0B8
:1033B00003F078FD002803D0DFF88404FFF719FB41
:1033C00000F0C8F8DFF87C0402F084FF002803D086
:1033D000DFF8E004FFF70DFB4FF47A71DFF86404C7
:1033E000006802F016FF002803D0DFF8CC04FFF7D6
:1033F00000FB48F2E801DFF84C04006802F036FFF9
:10340000002803D0DFF8B404FFF7F3FADFF8340440
:10341000006801F05DFE002803D0DFF83004FFF7FC
:10342000E8FADFF86004FFF742FBDFF818040068F1
:1034300001F0E7FE002803D0DFF84C04FFF7D9FACB
:10344000DFF80004006801F070FE002803D0DFF808
:103450003C04FFF7CEFADFF8EC03006801F033FF1D
:10346000002803D0DFF8E803FFF7C3FA00AADFF86B
:103470002414DFF8D003006802F05CFA002803D0BF
:10348000DFF83C04FFF7B5FA009ADFF81014DFF814
:10349000B403006802F018FA002803D0DFF824040F
:1034A000FFF7A7FA01AADFF8FC13DFF8980300681A
:1034B00002F040FA002803D0DFF80C04FFF799FA75
:1034C000019ADFF8E813DFF87C03006802F0FCF9EA
:1034D000002803D0DFF8F403FFF78BFADFF87C0352
:1034E000DFF87C13C160DFF87403C8490161012172
:1034F000D448006802F076FE02A80021002206C02F
:103500000838042302AAD549CE48006802F09EFD7F
:10351000002803D0DFF8B803FFF76BFA05B000BD51
:103520006CAD000000060020D4AB0000D8A600005F
:1035300024AA000044AA000078AD000018A00000F2
:103540000024F4000000E03F94010020ECAB0000F8
:103550007007002010B5FAB000222021DFF87403B4
:1035600003F02EFD002803D0DFF86C03FFF741FACB
:1035700001222021D74803F0CDFC002802D0D748F3
:10358000FFF737FA01222021D24803F0EEFC002891
:1035900002D0D148FFF72DFA00224FF40061CD4848
:1035A00003F00EFD002802D0CB48FFF722FA0122DB
:1035B0004FF40061C74803F0ADFC002802D0C848B2
:1035C000FFF717FA01224FF40061C24803F0CDFC67
:1035D000002802D0C048FFF70CFA00224FF48051B7
:1035E000C04803F0EDFC002802D0BB48FFF701FA09
:1035F00001224FF48051BB4803F08CFC002802D01C
:10360000B948FFF7F6F901224FF48051B54803F0AD
:10361000ACFC002802D0B048FFF7EBF900224021B3
:10362000B24803F0CDFC002802D0AB48FFF7E1F927
:1036300001224021AD4803F06DFC002802D0AC48C7
:10364000FFF7D7F901224021A84803F08EFC00289B
:1036500002D0A148FFF7CDF915A84FF4C87103F0C7
:103660004FFBA44A6AA115A803F04EFA0024C4E057
:1036700008A8342103F044FB6D4810EBC400D0E9E6
:103680000023CDE906236B4810EBC400D0E90023EA
:10369000CDE90423684810EBC400D0E90023CDE94C
:1036A0000223664810EBC400D0E90023CDE90023D3
:1036B0000022BDF81C10069803F082FC002802D0FE
:1036C0008D48FFF796F90122BDF81C10069803F00B
:1036D00021FC00280AD0BDF81C30069A874908A8AA
:1036E00003F012FA08A915A803F00DFB0122BDF89A
:1036F0001C10069803F039FC002802D07648FFF72A
:1037000078F90022BDF81410049803F059FC002841
:1037100002D07948FFF76DF90122BDF81410049822
:1037200003F0F8FB00280AD0BDF81430049A73495E
:1037300008A803F0E9F908A915A803F0E4FA0122A2
:10374000BDF81410049803F010FC002802D0624861
:10375000FFF74FF90022BDF80C10029803F030FC7F
:10376000002802D06448FFF744F90122BDF80C108C
:10377000029803F0CFFB00280AD0BDF80C30029A63
:103780005E4908A803F0C0F908A915A803F0BBFA20
:103790000122BDF80C10029803F0E7FB002802D0CC
:1037A0004D48FFF726F90022BDF80410009803F0F9
:1037B00007FC002802D05048FFF71BF90122BDF892
:1037C0000410009803F0A6FB00280AD0BDF80430CE
:1037D000009A4A4908A803F097F908A915A803F028
:1037E00092FA0122BDF80410009803F0BEFB0028F5
:1037F00002D03948FFF7FDF8641C052CFFF638AFFE
:1038000015A8FFF7F6F87AB010BD0000FD05009E80
:1038100025733A00E0AA0000D0AC000064AA0000C2
:10382000049A00005891000000080000849B0000EA
:1038300008020020300200205802002080020020F0
:10384000E0AC000074070020F0AC000000AD000008
:10385000FCAA000060AC000018AB000000000020D3
:10386000999901988BEF009EB800002010AD0000E0
:1038700074AC0000BCA50000F8A3000048A4000040
:1038800098A4000080841E0004AC000088AC0000F6
:10389000F8A200000C01084094A2000004010840B6
:1038A000F8A000001001084060A1000008010840D5
:1038B000C8A10000FCAD000020AD000030AD00004C
:1038C00000A7000028A7000050A70000ACA6000039
:1038D00040AD00004000024078A70000A0A7000013
:1038E000C8A70000C0000240F0A70000800002400E
:1038F00018A8000034AB000048A9000084AD000007
:1039000080B572B6DFF8AC0ADFF8AC1A0160DFF8F8
:10391000AC0A5FF4E0210160BFF36F8FBFF34F8FFC
:1039200062B6DFF84C0B4CF614310180DFF8A40BC3
:10393000008850F00300DFF89C1B0880DFF8940B30
:1039400000888005FAD5DFF8900B00884FF6FC71EF
:103950000840DFF8841B0880DFF87C0B0021018021
:10396000DFF8100B41F210010180DFF80C0B882109
:103970000180DFF8080B8F210180DFF8040B4FF482
:10398000C0710180012000F060F8DFF8E40A4CF615
:1039900014310180DFF83C0B00884FF6F7710840C6
:1039A000DFF8301B088000F001F801BDDFF82C0BB8
:1039B0004FF400410160DFF8200B008880B210F066
:1039C0000300C0B2002805D002280FD008D3032876
:1039D00034D039E0DFF8080BDFF8081B016033E072
:1039E000DFF8FC0ADFF8FC1A01602DE0DFF8E80AD6
:1039F0000088000502D5DFF8EC0A01E0DFF8E40AF0
:103A0000DFF8741A098889B211F03F014843DFF8E2
:103A1000681A098889B211F0C001402903D08029B1
:103A200002D1800800E04008DFF84C1A0988C90577
:103A300000D54008DFF8A81A086005E0DFF8A00A02
:103A4000DFF89C1B09680160704780B5C0B2002890
:103A50001ED0022825D01FD304282BD025D306281A
:103A60002ED02AD3082831D02DD30A2834D030D3F1
:103A70000C2837D033D30E283AD036D310283DD077
:103A800039D3122840D03CD3142843D03FD343E04D
:103A900000224FF400613FE04FF400624FF40061F8
:103AA0003AE000224FF4807136E04FF480724FF418
:103AB000807131E00022F0212EE01022F0212BE075
:103AC0002022F02128E03022F02125E04022F021C0
:103AD00022E05022F0211FE06022F0211CE0702241
:103AE000F02119E08022F02116E09022F02113E06D
:103AF000A022F02110E0B022F0210DE0C022F02140
:103B00000AE00022032107E00122032104E002224F
:103B1000032101E00322032172B6DFF8BC0900880B
:103B200088431043DFF8B019088062B6FFF73EFF04
:103B300001BDC0B2002805D002280DD007D303284C
:103B40000ED010E04FF400610B2200230BE04FF485
:103B500080710822022306E0F0210422042302E0FF
:103B6000032100221123DFF87009008880B289B296
:103B7000084010411818C0B2704710B50400DFF8B3
:103B800060090068002804D0DFF8500900680028A8
:103B900000D1FEE7FFF70AFFE4B2002C012C06D9A2
:103BA000A41E052C1ED9A41F072C25D92EE0DFF852
:103BB000C80BDFF8C018098889B211F03F0101294C
:103BC00001D101210BE0DFF8AC18098889B211F0AE
:103BD0003F01DFF8A0281288120600D58908B0FB43
:103BE000F1F010BDDFF8F8080068DFF888180988E0
:103BF000C1F3052189B2F2E7DFF8E4080068DFF8D5
:103C00007418098889B211F03F01E8E740F20230E8
:103C1000E7E7C0B200280BD002281AD017D3042837
:103C20001BD018D306281CD019D307281BD01CE0A2
:103C30004FF4807072B6C9B2002919D0DFF840186D
:103C4000098831EA0000DFF83818088017E0802082
:103C5000F0E72020EEE71020ECE70820EAE7042058
:103C6000E8E70220E6E70120E4E740F2023008E05E
:103C7000DFF80C1809880843DFF80418088062B6DA
:103C80000020704780B5C022114202D040F20130BE
:103C900020E0C0B20028012806D9801E05281AD9C4
:103CA000801F072835D950E0FE20014202D040F2A3
:103CB00001300FE08020C9B2C90172B6DFF8B42725
:103CC000128882430A43DFF8AC07028062B6FFF72E
:103CD0006DFE002002BDC9B20A00DFF89807008817
:103CE00010F03F0092B280B2824202D240F2053020
:103CF000F0E792B280B292FBF0F300FB13200028B1
:103D000002D04FF44170E5E74FF47C50C9B209028C
:103D1000D3E7DFF860070088C0F30522C9B20800C6
:103D200092B280B2824202D240F20530D2E792B221
:103D300080B292FBF0F300FB1320002802D04FF476
:103D40004170C7E73F20C9B2B7E740F20230C1E790
:103D500038B5C0B2002809D0022820D016D30428D4
:103D60002FD025D3062836D030D307E00824DFF83B
:103D70006457DFF8FC264CF61433138072B6C9B2D0
:103D8000002942D02A8822432A8041E00424DFF817
:103D90004457DFF8DC264CF614331380EEE7022498
:103DA000DFF83057DFF8C8264CF614331380E5E708
:103DB0000124DFF82057DFF8B8264CF614331380BF
:103DC000DCE74FF40074DFF8B056D7E74FF4007427
:103DD000DFF8A856D2E700224FF40061DFF89C0913
:103DE00003F0EEF8002802D040F211302EE001225C
:103DF0004FF40061DFF8840903F0B7F8002802D01F
:103E000040F2113022E0002020E02A88A2432A80DC
:103E100062B6C0B2012818D1C9B2002915D1092053
:103E200000F0CEFA0021009102E00099491C0091B7
:103E300000998142F9D372B6DFF834064CF614319A
:103E400001802888A043288062B6002032BD2DE979
:103E5000F04104000D0000262000C0B200F07BF904
:103E600002284FD0E4B2052C27D172B6DFF80C0639
:103E7000008810F03F074FF6C071084050F03F0037
:103E800050F40070DFF8F415088062B6222000F0CC
:103E900097FA804601E0B8F10108B8F1000FFAD1B5
:103EA00072B6DFF8D80500884FF6C0710840384375
:103EB000DFF8C815088062B604E001212000C0B216
:103EC000FFF746FFEDB2002D1CD0EDB2012D02D15F
:103ED00043F6992801E0EDB2A846404600F070FA9A
:103EE000804601E0B8F10108B8F1000F05D02000CC
:103EF000C0B200F030F90228F4D1B8F1000F01D1BE
:103F00004FF44276300000B2BDE8F08138B50400CD
:103F10000025E4B2002C0BD0022C26D075D3042C43
:103F200069D0C0F0C380062C00F009816CD30FE18A
:103F30000320FFF7FEFD122802D140F2093013E002
:103F40000020FFF7F6FD012807D10320FFF7F1FD60
:103F5000132802D140F20A3006E000212000C0B24E
:103F6000FFF7F6FE280000B232BD0320FFF7E1FDA7
:103F7000112802D140F20930F6E70020FFF7D9FD01
:103F8000002807D10320FFF7D4FD132802D140F207
:103F90000A30E9E7DFF8E807008880B210F0600037
:103FA000202807D1DFF8D8070088C00602D540F2E4
:103FB0000B30D9E7DFF8CC07008880B210F0600042
:103FC000202807D1DFF8BC070088C00602D540F2E0
:103FD0000B30C9E7DFF8B007008880B210F060004E
:103FE000202807D1DFF8A0070088C00602D540F2DC
:103FF0000B30B9E7B1E70320FFF79BFD132802D18F
:1040000040F20930B0E7A8E7A7E70120FFF791FDEC
:10401000032806D100F0ABF9002802D040F20E30A0
:10402000A2E7DFF868070068C00702D540F20D304C
:104030009AE7DFF85C07008880B210F4D060B0F532
:10404000207F02D14FF443708EE7DFF834070088F9
:1040500080B210F06000602807D1DFF824070088E4
:10406000C00602D540F20B307EE7DFF81807008863
:1040700080B210F06000602807D1DFF808070088E0
:10408000C00602D540F20B306EE7DFF8FC06008870
:1040900080B210F06000602807D1DFF8EC060088DD
:1040A000C00602D540F20B305EE756E70120FFF76D
:1040B00040FD022806D100F05AF9002802D040F253
:1040C0000E3051E7DFF8C806008880B210F4D060E7
:1040D000B0F5906F02D14FF4437045E7DFF8A006CA
:1040E000008880B210F06000402807D1DFF8900609
:1040F0000088C00602D540F20B3035E7DFF88406B1
:10410000008880B210F06000402807D1DFF8740604
:104110000088C00602D540F20B3025E7DFF86806BC
:10412000008880B210F06000402807D1DFF8580600
:104130000088C00602D540F20B3015E70DE70320DA
:10414000FFF7F7FC142802D140F209300CE704E72E
:1041500040F2023008E710B50024DFF87813098830
:10416000C0B2002819D0022807D01ED3042832D0AC
:104170000BD3062821D03BD347E0880704D5880518
:1041800001D5022400E0012440E0C80704D5C80599
:1041900001D5022400E0012438E0080704D5080511
:1041A00001D5022400E0012430E0480704D5480589
:1041B00001D5022400E0012428E0DFF8C00502F068
:1041C0002AFF000506D4DFF8B40502F037FF00052A
:1041D00000D402241AE0A8480088800507D5DFF83B
:1041E000B4050088C00701D5022400E001240DE0D9
:1041F000A2480088800507D5DFF898050088C0062A
:1042000001D5022400E0012400E003242000C0B214
:1042100010BD70B50C0015001E00C0B2042802D0FD
:1042200005281AD024E00320FFF783FC132802D1CD
:104230004FF4447010E0904840F2FF1336B2E4B2FD
:1042400054EA0601EDB255EA010272B601889943BB
:104250001143018062B6002070BD884840F2FF1310
:1042600036B2E4B254EA0601EDB255EA0102ECE7D7
:1042700040F20230F0E770B400230024F8252A420F
:1042800002D040F207305DE0002903D153F0020371
:10429000DFF80415C0B2002805D0022805D004D3E9
:1042A00003282BD02DE000204CE054F0040472B61B
:1042B000DFF8E85444F659062E80DFF8E0544FF258
:1042C0007B262E80DFF8D8542D884FF6FC763540BB
:1042D000C0B22843DFF8C8542880DFF8C80400685B
:1042E0009BB21843A4B2A043DFF8B8341860EFF3D0
:1042F0001180D2B2520182F3118810E053F004030E
:10430000D5E740F206301DE0DFF89C2412880E232A
:104310001A42F9D1BFF34F8F30BF62B672B60A7836
:10432000002AF1D000220A7080F31188DFF87404AB
:10433000006830F00200DFF86C140860BFF34F8FA4
:1043400062B6002070BC704700280DD1DFF8480429
:1043500072B6DFF85014096831F00201DFF8442426
:104360001160BFF34F8F62B6012101707047DFF813
:104370003C040068000106D5DFF834040068C0077B
:1043800001D5012015E0DFF82C040088C00501D517
:1043900001200EE0DFF820040088800601D501200E
:1043A00007E0DFF818040088C00701D5012000E00D
:1043B0000020704708ED00E00000000024ED00E060
:1043C00010B504000920FFF7D8FB000D002801D02C
:1043D0004443FFE7200010BD38B50400002000254D
:1043E000DFF8DC13097800290BD100F04BF801004D
:1043F00009B2002901D000B238E0DFF8C41301226D
:104400000A70002100E0491D192908D2DFF8B42301
:1044100012F83120DFF8A8331B789A42F3D10A0052
:1044200000E0491C531D99420BDADFF8983313EB77
:10443000C1035B78E4B2A342F3D1DFF8882312EB27
:10444000C105002D0FD0A97800290CD0696800297A
:1044500001D06868804700B2002806D1A978DFF84B
:104460006023117001E040F2133000B232BD000051
:104470000C240040048002400C8002401080024066
:104480001480024038B50024CF4D01210220FFF7EF
:10449000DEFC040000B2002802D0200000B217E0C9
:1044A0001120FFF7D2FA0021280000F047F900217F
:1044B0000120FFF7E7FB0520FFF728FD0420FFF7A9
:1044C00025FD0020FFF722FDFFF770FA200000B263
:1044D00032BD000010240040008002407C07002014
:1044E000800700200024F40038B50025B74C0020D8
:1044F000FFF71FFB012805D101210020FFF7A7FCD2
:10450000050004E001210220FFF7A1FC05002DB207
:10451000002D02D0280000B260E00320FFF709FB65
:10452000132826D1AA48008880B210F0C000802845
:104530000BD1A748008880B210F03F00102804D1AA
:10454000A348008880B2C0051AD40020FFF7F1FA12
:10455000012803D11220FFF778FA02E01120FFF7BB
:1045600074FA4FF48073102280210420FFF751FE6B
:1045700006E04FF48073102280210420FFF749FEEB
:1045800001210420FFF763FC0500280000B2002889
:1045900002D0280000B221E00121200000F0CEF876
:1045A0001320FFF752FA0021200000F0C7F8052081
:1045B000FFF7ACFC0020FFF7BCFA012803D1022072
:1045C000FFF7A4FC02E00020FFF7A0FC002101207F
:1045D000FFF758FBFFF7EAF9280000B232BD0000F0
:1045E0008407002038B500257A4C0020FFF7A1FA97
:1045F000012805D101210020FFF729FC050004E076
:1046000001210220FFF723FC05002DB2002D02D06E
:10461000280000B26FE00320FFF78BFA132826D1A1
:104620006B48008880B210F0C00080280BD1684829
:10463000008880B210F03F00102804D16448008840
:1046400080B2C0051AD40020FFF773FA012803D105
:104650001220FFF7FAF902E01120FFF7F6F94FF404
:104660008073102280210420FFF7D3FD06E04FF471
:104670008073102280210420FFF7CBFD012104204C
:10468000FFF7E5FB0500280000B2002802D0280053
:1046900000B230E00121200000F050F81320FFF7B5
:1046A000D4F90021200000F049F801210120FFF792
:1046B000E9FA00230F2280210520FFF7AAFD01213E
:1046C0000520FFF7C4FB0500280000B2002802D037
:1046D000280000B20FE00020FFF72BFA012803D1D9
:1046E0000220FFF713FC02E00020FFF70FFCFFF7AA
:1046F0005DF9280000B232BD38B50024364D0020E7
:10470000FFF717FA012803D11220FFF79EF902E004
:104710001120FFF79AF90021280000F00FF800217E
:104720000120FFF7AFFA0520FFF7F0FB0420FFF7A9
:10473000EDFBFFF73BF9200000B232BDC9B2002902
:104740000FD02649098889B211F03F0102789142C1
:1047500007DB22490988C1F3052189B242789142D9
:1047600009DA017811F03F014078000210F47C5022
:1047700008431A49088070470087930300000240ED
:1047800008000040080400400808004000260040DF
:1047900008250040188002408F07002004240040B4
:1047A0000024004010ED00E098250040084008403B
:1047B00000400840005C0040882500400080004028
:1047C00090070020E89D0000AA020020AC02002013
:1047D0000C800240AE020020B202002004800240A1
:1047E00080B500A9002002F031FD002802D0174852
:1047F00000F012F80021009802F08AFD002802D093
:10480000134800F009F8009802F069FD002802D072
:10481000104800F001F801BD10B584B0040001A8F3
:104820000D490CC90CC00839083800A80B490A68A2
:10483000026001A802F0D8FD200002F0D5FD00A81A
:1048400002F0D2FD00F00CF81FBD000040A60000F1
:1048500088AB00001CAC000004AE000028AE0000D5
:1048600080B5002002F0D2FD01BD50F8041B61B1FB
:1048700050F8042BD30744BFA9F101039A18002371
:1048800042F8043B091FFAD1EFE7704702484FF4A2
:1048900020410160002070470000024040B2410901
:1048A000DFF81028012310F01F0013FA00F042F87F
:1048B0002100704740B24109DFF8FC27012310F0C6
:1048C0001F0013FA00F042F8210070478A0702D552
:1048D000828F521C82874A0702D5428F521C428720
:1048E0000A0702D5028F521C028711F00E01C17215
:1048F000704710B5DFF8C44761680020626812890C
:10490000D30760D4D2B212F00600C0B2002852D051
:1049100002282FD004280DD0062850D1898A208E55
:10492000401C20860E20014203D0C9B22000FFF7B0
:10493000CDFF44E014F11400428903899A4205D165
:10494000B4F84000401CA4F84000FEE782880389C8
:104950009A4201D10022828009888288531C838078
:1049600092B20368D1544189491C4181A08D401CF9
:10497000A08524E0E08D401CE08514F12000C28871
:1049800003899A4201D30022C280428903899A4254
:104990000BD2C1884A1CC28089B20268895C6268F5
:1049A00011804189491C418104E088884FF6FD72DD
:1049B0001040888003E0608E401C6086FFE714F1A1
:1049C0001100FFF7C1FC10BD2DE9F04104000F00FC
:1049D00015005FF00008A07A002846D000210020D2
:1049E00014F11406B6F90820B6F90630D21A1000F0
:1049F0002DB200B2854201DA290000E001005FF02B
:104A0000000809E0F088421CF28080B23268805CC5
:104A100038707F1C18F101080FFA88F809B2884530
:104A2000F0DB09B22DB2A94214DA681A0021F18034
:104A30005FF0000809E0F1884A1CF28089B2326810
:104A4000895C39707F1C18F101080FFA88F800B2F0
:104A50008045F0DB94F90000FFF72CFF7089401BC4
:104A6000708194F90000FFF719FFA07A002819D18E
:104A70005FF0000811E06068868A0E20064204D0CC
:104A80003100C9B22000FFF721FFF007F3D56068BD
:104A9000008838707F1C18F101080FFA88F82DB2D1
:104AA000A845E8DB0020BDE8F081F8B504000F0060
:104AB0001500A07A00284CD000200022002114F11B
:104AC0002006B6F90830B6F904C0B3EB0C031800A1
:104AD0002DB200B2854201DA2800FFE70200002073
:104AE0000AE0B1884B1CB38089B2336897F800C0E4
:104AF00001F803C07F1C401C00B212B29042F0DBF0
:104B000012B22DB2AA4213DAA91A0020B0800020F6
:104B10000AE0B288531CB38092B2336897F800C0A1
:104B200002F803C07F1C401C00B209B28842F0DBCF
:104B300094F90000FFF7BEFE7089401B7081606829
:104B4000808850F002006168888094F90000FFF7C7
:104B5000A5FEA07A00280DD1002008E06168898AAE
:104B60008906FBD561683A780A807F1C401C2DB20B
:104B7000A842F3DB0020F2BDF8B5050014001E00CA
:104B80004FF45060A97A00292CD0F6B2002E02D042
:104B900015F1140701E015F12007297A002913D037
:104BA0003889B4F90010884208DA40F608500BE062
:104BB000002215F111010120FFF75DFB7889B4F99E
:104BC00000108842F4DB0020297A00290AD1B7F9C5
:104BD0000A00B4F9001000B2884201DBB4F9000009
:104BE00020800020A97A002919D1297A002900D033
:104BF0000020297A002912D1F6B2002E04D068686C
:104C0000808A10F0010003E06868808A10F02000BC
:104C1000002801D0012000E000202080002000B208
:104C2000F2BD10B5040094F90000FFF743FE002028
:104C30006083002020830020E0830020E0840020A7
:104C4000A084208D608594F90000FFF727FE10BD39
:104C500070B50C000026002500212160C0B202289A
:104C600002D340F6035046E0C0B24421DFF84C3492
:104C700001FB00367078002802D040F601503AE07F
:104C8000002A1AD01068002808D09088002805D083
:104C90009068002802D0D088002802D140F6085041
:104CA00029E000207074106870619088B08390686B
:104CB0003062D08830850120B0723000FFF7B1FF3C
:104CC00001207070317C300000F0B8F87068B18954
:104CD00081817068F1890182266001210320FEF73D
:104CE00098FF7068012180F8301096F90000FFF7F6
:104CF000D5FD280000B270BD10B50400DFF8BC037C
:104D0000844202D040F6025018E06078012802D0B8
:104D100040F6065012E094F90000FFF7CBFD0021A9
:104D20000320FEF776FF606890F8300050F0010035
:104D3000616881F8300000206070002010BD70B5FF
:104D400004000D0016004FF45060DFF870138C4221
:104D500002D040F6025020E06078012802D040F6F0
:104D600006501AE0002D05D0002E03D0B6F9000041
:104D7000012802DA40F604500FE000233200290037
:104D80002000FFF7F9FE00B2002805D1B6F9002097
:104D900029002000FFF789FE00B270BD70B5040045
:104DA0000D0016004FF45060DFF810138C4202D053
:104DB00040F6025020E06078012802D040F606500C
:104DC0001AE0002D05D0002E03D0B6F9000001280E
:104DD00002DA40F604500FE00123320029002000DF
:104DE000FFF7CAFE00B2002805D1B6F9002029005D
:104DF0002000FFF7E9FD00B270BD80B5DFF8BC12FE
:104E0000884202D040F6025017E04178012902D0D2
:104E100040F6065011E04168898AC90701D541680A
:104E20000988416891F83010C90703D44168898A1C
:104E30004906F6D5FFF7F5FE002002BD30B5A1B05A
:104E400004000D0000A8DFF87812802202F0F0FACA
:104E5000DFF86802844202D040F6025023E0607816
:104E6000012802D040F606501DE0EDB2072D02DB0E
:104E700040F6045017E00420FEF77FFEDFF84412EE
:104E8000884212D1EDB2062000A900FB051061682E
:104E900002880A858188408851EAC02050F4004089
:104EA00061688884002021B030BDDFF81C12884280
:104EB00007D1EDB2062000A900FB051000F22A0080
:104EC000E5E7DFF80812884206D1EDB2062000A916
:104ED00000FB05105430DAE740F60450E3E770B504
:104EE00004000D004FF45066DFF8D001844202D078
:104EF00040F602503CE06078012802D040F60650AF
:104F000036E0002D02D140F6045031E0297820002F
:104F1000FFF794FF060036B2002E02D0300000B238
:104F200026E0A978200000F052F8060036B2002EE4
:104F300002D0300000B21BE06978200000F019F8C0
:104F4000060036B2002E02D0300000B210E0E97840
:104F5000200000F0A6F8060036B2002E02D0300085
:104F600000B205E02979200000F06FF8300000B2AF
:104F700070BD524A904202D040F602500EE0C9B2D3
:104F8000002903D0022918D009D31DE0416889897E
:104F90004FF6C77211404068818100207047416818
:104FA00089894FF6CF7211404268918141688989A1
:104FB00051F0080140688181EFE74168898951F02B
:104FC000380140688181E8E740F60450E6E73B4A53
:104FD000904202D040F6025015E0C9B20A00002A01
:104FE000032A0ED8426892894FF6FC731A40436830
:104FF0009A8142689289C9B2114340688181002038
:1050000001E040F60450704780B52C4A904202D02F
:1050100040F6025018E0C9B2002908D0426892F860
:10502000302012F0FE02406880F8302007E042682D
:1050300092F8302052F00102406880F83020C9B266
:105040000320FEF7E6FD002002BD1C4A904202D07C
:1050500040F6025024E0C9B2002908D04269002A73
:1050600002D0026A002A02D140F6085018E081728C
:10507000C9B2002906D04168898851F0010142680F
:10508000918006E0416889884FF6FE7211404268BF
:1050900091804168898851F0040140688180002036
:1050A0007047064A904202D040F6025001E0017279
:1050B0000020704700E100E080E100E050010020A6
:1050C000989F00000024F40040420F00002D3101A1
:1050D00010B50400200001F08AF8002802D041F247
:1050E000015021E0200001F08CF8002802D041F2AC
:1050F000025019E0DFF894050088000602D541F25D
:10510000045011E00D20FEF738FDDFF884158842C9
:1051100002D041F2055007E000230022DFF87415A9
:10512000200000F093FF00B210BD70B582B0040003
:105130000026200001F05BF8002802D041F2015067
:105140005EE0200001F05DF8002802D041F202503C
:1051500056E0DFF838050088000602D541F2045019
:105160004EE00D20FEF709FDDFF82415884202D03D
:1051700041F2055044E0022300AADFF81C1520008C
:1051800000F064FF060036B2002E37D15FF0804099
:10519000BDF80210BDF80020891A90FBF1F5681CDB
:1051A0004508BDF80200BDF80010401ADFF8EC1405
:1051B00001FB00F21213501C4210BDF80000B2EBCC
:1051C000800212F50032DFF8D814200000F07CFBDA
:1051D0000600300000B2002802D0300000B20FE01C
:1051E0002A00DFF8C014200000F06EFB060030003B
:1051F00000B2002802D0300000B201E0300000B25E
:1052000076BD7CB504000025200000F0F0FF0028EA
:1052100002D041F2015055E0200000F0F2FF0028DA
:1052200002D041F202504DE0DFF860040088000631
:1052300002D541F2045045E00D20FEF79EFCDFF858
:105240005014884202D041F205503BE0032300AAEB
:10525000DFF85414200000F0F9FE05002DB2002DF7
:105260002ED1DFF84804BDF80410BDF80220891AD9
:1052700090FBF1F6F00702D57008461C00E07608B6
:10528000BDF80000D0F500408200DFF824142000B3
:1052900000F01AFB0500280000B2002802D0280008
:1052A00000B20FE03200DFF80C14200000F00CFB1D
:1052B0000500280000B2002802D0280000B201E05A
:1052C000280000B276BD38B504000025200000F0AB
:1052D0008EFF002802D041F2015023E0200000F0B0
:1052E00090FF002802D041F202501BE0DFF89C033F
:1052F0000088000602D541F2045013E00D20FEF7AD
:105300003CFCDFF88C13884202D041F2055009E0E2
:1053100000230022DFF8A013200000F097FE050014
:10532000280000B232BD2DE9F0418CB004005FF0DE
:105330000008200000F05BFF002802D041F201507D
:10534000EFE0200000F05DFF002802D041F20250A3
:10535000E7E0DFF838030088000602D541F2045088
:10536000DFE00D20FEF709FCDFF82413884202D0AD
:1053700041F20550D5E002A9200000F060FF804610
:10538000404600B2002802D0404600B2C9E001A960
:10539000200000F081FF8046404600B2002802D085
:1053A000404600B2BDE000A9200000F0A7F9804609
:1053B000404600B2002802D0404600B2B1E04FF4AF
:1053C0008042DFF8F812200000F07EFA0022DFF8B9
:1053D000F012200000F078FA002007E003A9DFF8BF
:1053E000E42252F8202041F82020401C0928F5D35F
:1053F0000098B0F1AC4005900121200000F0F2FED1
:105400000023002203A9200000F020FE8046002196
:10541000200000F0E7FE0FFA88F8B8F1000F13D172
:10542000DFF8A4020068D0F50047BF003A00DFF8BB
:105430009012200000F048FA00230022DFF88C12BE
:10544000200000F003FE80460FFA88F8B8F1000F44
:1054500016D1DFF874020068B0F50045DFF870027D
:10546000B0FBF5F52A00DFF85412200000F02CFA0A
:1054700000230022DFF85C12200000F0E7FD8046E8
:105480000FFA88F8B8F1000F0CD1DFF83C02006881
:10549000B0F5004600230022DFF83C12200000F0A7
:1054A000D5FD80460FFA88F8B8F1000F19D1DFF862
:1054B00018020068D0F5004292004FF4804000FBD3
:1054C00007F0B0FBF5F08218DFF8F411200000F0CF
:1054D000FBF900230022DFF80412200000F0B6FDE3
:1054E00080460FFA88F8B8F1000F18D1DFF8D8011C
:1054F0000068D0F5004201984FF48041484302997A
:10550000B0FBF1F07043B0FBF2F205FB02F010F5D6
:105510000050820BDFF8A411200000F0D5F94046BE
:1055200000B20CB0BDE8F08138B5040000252000C1
:1055300000F05DFE002802D041F2015067E020003B
:1055400000F05FFE002802D041F202505FE0DFF879
:105550003C010088000602D541F2045057E00D20BE
:10556000FEF70BFBDFF82811884202D041F205500C
:105570004DE04FF42062DFF86811200000F0A4F93C
:1055800000230022DFF85C11200000F05FFD050021
:105590002DB2002D02D0280000B238E0DFF828013B
:1055A0000068ADF800004FF4C062DFF8341120004D
:1055B00000F08AF900230022DFF82C11200000F00F
:1055C00045FD05002DB2002D02D0280000B21EE0DE
:1055D000DFF8F4000068ADF80200BDF80000D0F577
:1055E00000424FF4C06042439200BDF80200BDF893
:1055F0000010401A92FBF0F2B2F54062501C4210CB
:10560000DFF8DC10200000F05FF9280000B232BDA6
:1056100038B504000025200000F0E9FD002802D084
:1056200041F2015030E0200000F0EBFD002802D0F4
:1056300041F2025028E015480088000602D541F2E8
:10564000045021E00D20FEF798FA1149884202D05B
:1056500041F2055018E00025244800684008400049
:10566000224908600021200000F005F92048006868
:1056700030F020001E4908601E4800681E4908409E
:105680001C490860280000B232BD000014800240AE
:105690000024F4006CA9000000A60000C7B1FFFFC1
:1056A0001C0108401801084050A300000080552547
:1056B000100108400C01084050AD000004010840F2
:1056C0000801084090A900008000084084AA00005A
:1056D0000080AA12A4AA0000B4A9000050AB0000E8
:1056E0002401084040A800006CAB000010000840F6
:1056F00040000840000008400FF1FDFF7CB50500A8
:105700000C000026280000F072FD002802D041F2B3
:1057100001502DE0280000F074FD002802D041F275
:10572000025025E001A9280000F089FD06003000A4
:1057300000B2002802D0300000B219E000A9280011
:1057400000F0AAFD0600300000B2002802D03000B0
:1057500000B20DE001984FF4D86148434000009931
:10576000B0FBF1F0401C400810F500602060002004
:1057700076BD0268531C03601170704740B2410946
:10578000DFF8B828012310F01F0013FA00F042F8E8
:105790002100704740B24109DFF8A428012310F02E
:1057A0001F0013FA00F042F82100704710B5040002
:1057B000200000F01CFD002802D041F201502AE038
:1057C000200000F01EFD002802D041F2025022E02D
:1057D000DFF870080088000602D541F204501AE094
:1057E0000D20FEF7CAF9DFF86018884202D041F2B6
:1057F000055010E072B66078002802D04FF40060C7
:1058000000E0002050F00800E16889680843E16882
:10581000886062B6002010BD10B50400200000F0C2
:10582000E6FC002802D041F2015023E0200000F005
:10583000E8FC002802D041F202501BE0DFF89C098E
:105840000088000602D541F2045013E00D20FEF757
:1058500094F9DFF8F417884202D041F2055009E0CC
:1058600072B6E0688068DFF878190840E1688860FF
:1058700062B6002010BD38B504000D00200000F015
:10588000B6FC002802D041F201501CE0200000F0DC
:10589000B8FC002802D041F2025014E0DFF8A4075F
:1058A0000088000602D541F204500CE00D20FEF7FE
:1058B00064F9DFF89417884202D041F2055002E003
:1058C000E068C560002032BDF8B504000D00160088
:1058D0000027200000F08BFC002802D041F201508C
:1058E00027E0200000F08DFC002802D041F2025099
:1058F0001FE0DFF850070088000602D541F204508F
:1059000017E00D20FEF739F9DFF83C17884202D086
:1059100041F205500DE072B6E068DFF8AC19C0F84E
:1059200000112E60E0680021C0F8001162B6380056
:1059300000B2F2BDF8B506000F00150000243000DB
:1059400000F055FC002802D041F201501FE0300069
:1059500000F057FC002802D041F2025017E0DFF8B7
:10596000E4060088000602D541F204500FE00D2045
:10597000FEF703F9DFF8D016884202D041F2055055
:1059800005E072B63868286062B6200000B2F2BD49
:10599000F8B504000025666CA76C200000F027FC19
:1059A000002802D041F2015042E0DFF830080088C0
:1059B000000602D541F204503AE00B20307000207E
:1059C00070700220B070E0687030F06002203074B7
:1059D000032070740020B0740020F0740120307532
:1059E0000C203870002078700120B870E0686C30AE
:1059F000B86001207874032038740020B874002047
:105A0000F8740120387500210B2001F03DFD0028BD
:105A100001D041F20B552DB2002D07D100210C20F1
:105A200001F032FD002801D041F20B55280000B2F0
:105A3000F2BD38B504000025200000F0D8FB002896
:105A400002D041F201502BE0200000F0DAFB0028E8
:105A500002D041F2025023E0DFF8E805008800069A
:105A600002D541F204501BE00D20FEF786F8DFF866
:105A7000D815884202D041F2055011E072B6607824
:105A8000002802D04FF4805000E0002050F01000B9
:105A9000E16889680843E168886062B6280000B25E
:105AA00032BD38B504000025200000F0A0FB00281E
:105AB00002D041F2015024E0200000F0A2FB0028B7
:105AC00002D041F202501CE0DFF8780500880006A1
:105AD00002D541F2045014E00D20FEF74EF8DFF835
:105AE0006815884202D041F205500AE072B6E068BB
:105AF0008068DFF8DC170840E168886062B628003B
:105B000000B232BD10B50400200000F070FB002888
:105B100002D041F201501DE0200000F072FB00288D
:105B200002D041F2025015E0DFF8B006008800060E
:105B300002D541F204500DE00B2001F04EFD00288B
:105B400004D10C2001F049FD002802D041F20B5095
:105B500000E0002010BD2DE9F04104000D0016000A
:105B60000027D4F84480200000F041FB002802D038
:105B700041F2015033E0200000F043FB002802D046
:105B800041F202502BE0DFF8BC040088000602D589
:105B900041F2045023E00D20FDF7EFFFDFF8A814D9
:105BA000884202D041F2055019E0002D0BD0C8F810
:105BB0000850C8F80460404601F048FD002809D0AC
:105BC00041F20B5706E0404601F0D5FD002801D018
:105BD00041F20B57002084F84C00380000B2BDE8B9
:105BE000F0812DE9F04104000D0016000027D4F8E3
:105BF0004880200000F0FBFA002802D041F201505A
:105C000035E0200000F0FDFA002802D041F20250F9
:105C10002DE0DFF830040088000602D541F2045080
:105C200025E00D20FDF7A9FFDFF81C14884202D003
:105C300041F205501BE0002D0DD0C8F80C50C8F8FB
:105C40000460404601F002FD002801D041F20B57EC
:105C5000A4F8546006E0404601F08DFD002801D014
:105C600041F20B57002084F84D00380000B2BDE827
:105C7000F08110B4002204E003785B000370490057
:105C8000521CD2B2202A10DA0B0E13F080030478D3
:105C900014F0800494EA030FEED003785B000370E5
:105CA000037893F007030370E9E710BC704770B501
:105CB00082B004000D0001208DF80000002605E0F0
:105CC00054F8261000A8FFF7D4FF761CAE42F7D395
:105CD0009DF8000076BD38B504000D00200000F0EE
:105CE00086FA002802D041F201501CE0200000F0AA
:105CF00088FA002802D041F2025014E0DFF8440391
:105D00000088000602D541F204500CE00D20FDF79A
:105D100034FFDFF83413884202D041F2055002E02C
:105D2000E0792870002032BD38B505000C0028004D
:105D300000F05DFA002802D041F2015024E0280072
:105D400000F05FFA002802D041F202501CE0DFF8B8
:105D5000F4020088000602D541F2045014E00D2040
:105D6000FDF70BFFB849884202D041F205500BE025
:105D70006878002803D095F84D00002801D0012054
:105D800000E000202070002032BD2DE9F041040029
:105D90000D0016001F005FF00008200000F027FA39
:105DA000002802D041F2015067E0200000F029FAFB
:105DB000002802D041F202505FE0A24800880006AD
:105DC00002D541F2045058E00D20FDF7D6FE9E4961
:105DD000884202D041F205504FE0002F21D001202F
:105DE00060702665B4F85800B84208D33A00310014
:105DF0002000FFF7F6FE0020A4F856000DE0B4F8EE
:105E0000582031002000FFF7ECFEB4F85800381A93
:105E1000A4F856000020A4F85C002020FFF7AEFC98
:105E200004E000206070012084F84D002868020C16
:105E3000291D2000FFF78FFE1F20FFF79FFC002089
:105E4000A0710020E0710020A080E0680021416680
:105E50002000FFF7ABFC2000FFF7EBFD72B68922B4
:105E60000321200000F03AFB0123892203212000B6
:105E700000F0D0FA62B6404600B2BDE8F08138B515
:105E800004000025200000F0B2F9002802D041F201
:105E9000015022E0200000F0B4F9002802D041F2C5
:105EA00002501AE0CD480088000602D541F20450A5
:105EB00013E00D20FDF761FEDFF81014884202D0D8
:105EC00041F2055009E072B6E068406850F0010008
:105ED000E168486062B6280000B232BD38B50400FF
:105EE0000025200000F083F9002802D041F2015083
:105EF0002DE0200000F085F9002802D041F2025088
:105F000025E0B6480088000602D541F204501EE0A4
:105F10000D20FDF732FE4C49884202D041F2055077
:105F200015E0E0684068C00701D541F20F552DB279
:105F3000002D03D12000FFF76FFC05002DB2002DCE
:105F400003D12000FFF7ADFD0500280000B232BDEF
:105F500038B504000025200000F049F9002802D0DF
:105F600041F2015029E0200000F04BF9002802D056
:105F700041F2025021E099480088000602D541F222
:105F800004501AE00D20FDF7F8FD2F49884202D099
:105F900041F2055011E0E068406840084000E168C7
:105FA00048602000FFF77DFDE0680068DFF84C18CE
:105FB0000840E1680860280000B232BD70B50400F6
:105FC0000D000026200000F012F9002802D041F256
:105FD000015032E0200000F014F9002802D041F214
:105FE00002502AE07D480088000602D541F20450A4
:105FF00023E00D20FDF7C1FDDFF8F418884202D040
:1060000041F2055019E0207A002805D02868010CDB
:10601000281DFFF74CFE00E02868E168096EC0B259
:10602000814205D1E068406E2968B0EB114F02D083
:1060300041F2105001E0300000B270BD00E100E01C
:1060400080E100E0148002400024F4002DE9F041DA
:1060500082B004000D0016001F005FF00008200051
:1060600000F0C5F8002802D041F20150B3E0200052
:1060700000F0C7F8002802D041F20250ABE05748C8
:106080000088000602D541F20450A4E00D20FDF77F
:1060900074FDDFF85C18884202D041F205509AE0A6
:1060A0003B00320029002000FFF76FFE804640468B
:1060B00000B2002805D02000FFF74AFF404600B29A
:1060C00089E00120A070A079002803D1B4F9040070
:1060D0000028F8D0B4F90400002805D02000FFF70C
:1060E00037FFB4F9040076E00220A070002020768B
:1060F0002000FFF7C4FE8046404600B2002805D0CD
:106100002000FFF725FF404600B264E00320A070A6
:10611000607A00285DD0002214F118010120FEF7FA
:10612000AAF872B600208DF8000000A92000FFF741
:10613000FBFD80460FFA88F8B8F1000F08D19DF8F2
:106140000000002804D000A92000FFF7C4FD80460D
:106150000FFA88F8B8F1000F05D19DF8000000286B
:1061600001D10020207662B60FFA88F8B8F1000F4E
:1061700007D19DF80000002803D1B4F904000028DD
:10618000C9D00420A070B4F90400002805D0200074
:10619000FFF7DEFEB4F904001DE02000FFF79EFECD
:1061A0008046404600B2002805D02000FFF7D0FE10
